:020000040800F2
:1000000000000220C52D0108D5190108D7190108E3
:10001000D9190108DB190108DD19010800000000E9
:10002000000000000000000000000000DF190108CF
:10003000E119010800000000E3190108E5190108B1
:10004000152E0108152E0108152E0108152E010880
:10005000152E0108152E0108152E0108152E010870
:10006000152E0108152E0108152E0108152E010860
:10007000152E0108152E0108152E0108152E010850
:10008000152E0108152E0108152E0108152E010840
:10009000152E0108152E0108152E0108152E010830
:1000A000152E0108152E0108152E0108ED1901085D
:1000B000152E0108152E0108152E0108152E010810
:1000C000152E0108152E0108152E0108152E010800
:1000D000152E0108152E0108152E0108152E0108F0
:1000E000152E0108152E0108152E0108152E0108E0
:1000F000152E0108152E0108152E0108152E0108D0
:10010000152E0108152E0108FD190108152E0108EC
:10011000152E0108152E0108152E0108152E0108AF
:100120000D1A0108152E01081D1A01082D1A0108C3
:100130003D1A01080000000000000000152E010813
:10014000152E0108152E0108152E0108152E01087F
:10015000152E0108152E0108152E0108152E01086F
:10016000152E0108152E0108152E0108152E01085F
:10017000152E0108152E0108152E0108000000009B
:1001800000000000152E0108000000000000000023
:10019000152E01080000000000000000152E0108C7
:1001A000000000000000000000000000152E010803
:1001B000152E0108152E0108152E0108152E01080F
:0401C000152E0108EF
:1001D00010B5054C237833B9044B13B10448AFF381
:1001E00000800123237010BD880300200000000060
:1001F000F4D6010808B5034B1BB103490348AFF31C
:10020000008008BD000000008C030020F4D6010827
:1002100001F0FF01102A2BDB10F0070F08D010F8B7
:10022000013B013A8B422DD010F0070F42B3F6D1BB
:10023000F0B441EA012141EA014122F007047FF0D4
:1002400000070023F0E80256083C85EA010586EA2B
:10025000010685FA47F5A3FA87F586FA47F6A5FA67
:1002600087F68EB9EED1F0BC01F0FF0102F0070273
:1002700032B110F8013B013A83EA010313B1F8D11E
:100280000020704701387047002D06BF35460338FF
:10029000073815F0010F07D1013015F4807F02BF38
:1002A000013015F4C03F0130F0BC0138704700BF89
:1002B00010F8012B11F8013B012A28BF9A42F7D010
:1002C000D01A7047034613F8012B002AFBD1181AE5
:1002D0000138704781F0004102E000BF83F0004325
:1002E00030B54FEA41044FEA430594EA050F08BFD1
:1002F00090EA020F1FBF54EA000C55EA020C7FEA95
:10030000645C7FEA655C00F0E2804FEA5454D4EB11
:100310005555B8BF6D420CDD2C4480EA020281EADB
:10032000030382EA000083EA010180EA020281EA13
:100330000303362D88BF30BD11F0004F4FEA013165
:100340004FF4801C4CEA113102D0404261EB410174
:1003500013F0004F4FEA03334CEA133302D05242FA
:1003600063EB430394EA050F00F0A780A4F10104B6
:10037000D5F1200E0DDB02FA0EFC22FA05F28018F0
:1003800041F1000103FA0EF2801843FA05F35941D6
:100390000EE0A5F120050EF1200E012A03FA0EFC55
:1003A00028BF4CF0020C43FA05F3C01851EBE3717F
:1003B00001F0004507D54FF0000EDCF1000C7EEB9C
:1003C00000006EEB0101B1F5801F1BD3B1F5001FDA
:1003D0000CD349085FEA30004FEA3C0C04F10104F9
:1003E0004FEA445212F5800F80F09A80BCF1004F22
:1003F00008BF5FEA500C50F1000041EB045141EAA4
:10040000050130BD5FEA4C0C404141EB0101013C6C
:1004100028BFB1F5801FE9D291F0000F04BF01465B
:100420000020B1FA81F308BF2033A3F10B03B3F12D
:1004300020020CDA0C3208DD02F1140CC2F10C02BD
:1004400001FA0CF021FA02F10CE002F11402D8BF1B
:10045000C2F1200C01FA02F120FA0CFCDCBF41EAE7
:100460000C019040E41AA2BF01EB0451294330BDB6
:100470006FEA04041F3C1CDA0C340EDC04F1140493
:10048000C4F1200220FA04F001FA02F340EA03006A
:1004900021FA04F345EA030130BDC4F10C04C4F1B0
:1004A000200220FA02F001FA04F340EA0300294690
:1004B00030BD21FA04F0294630BD94F0000F83F4DA
:1004C000801306BF81F480110134013D4EE77FEABD
:1004D000645C18BF7FEA655C29D094EA050F08BF09
:1004E00090EA020F05D054EA000C04BF19461046EA
:1004F00030BD91EA030F1EBF0021002030BD5FEA2E
:10050000545C05D14000494128BF41F0004130BD55
:1005100014F580043CBF01F5801130BD01F00045A9
:1005200045F0FE4141F470014FF0000030BD7FEA1C
:10053000645C1ABF194610467FEA655C1CBF0B4617
:10054000024650EA013406BF52EA033591EA030F2E
:1005500041F4002130BD00BF90F0000F04BF002126
:10056000704730B54FF4806404F132044FF0000559
:100570004FF0000150E700BF90F0000F04BF0021D2
:10058000704730B54FF4806404F1320410F0004538
:1005900048BF40424FF000013EE700BF42004FEA33
:1005A000E2014FEA31014FEA02701FBF12F07F43B0
:1005B00093F07F4F81F06051704732F07F4208BF67
:1005C000704793F07F4F04BF41F40021704730B56E
:1005D0004FF4607401F0004521F000411CE700BFBA
:1005E00050EA010208BF704730B54FF000050AE03D
:1005F00050EA010208BF704730B511F0004502D53E
:10060000404261EB41014FF4806404F132045FEA3F
:10061000915C3FF4D8AE4FF003025FEADC0C18BFE8
:1006200003325FEADC0C18BF033202EBDC02C2F1DA
:10063000200300FA03FC20FA02F001FA03FE40EA6C
:100640000E0021FA02F11444BDE600BF70B54FF070
:10065000FF0C4CF4E06C1CEA11541DBF1CEA13554E
:1006600094EA0C0F95EA0C0F00F0DEF82C4481EAB6
:10067000030621EA4C5123EA4C5350EA013518BFD6
:1006800052EA033541F4801143F4801338D0A0FBC3
:1006900002CE4FF00005E1FB02E506F00042E0FB70
:1006A00003E54FF00006E1FB03569CF0000F18BF76
:1006B0004EF0010EA4F1FF04B6F5007F64F540741E
:1006C00004D25FEA4E0E6D4146EB060642EAC621B1
:1006D00041EA55514FEAC52040EA5E504FEACE2E1E
:1006E000B4F1FD0C88BFBCF5E06F1ED8BEF1004F21
:1006F00008BF5FEA500E50F1000041EB045170BD9D
:1007000006F0004646EA010140EA020081EA0301E0
:10071000B4EB5C04C2BFD4EB0C0541EA045170BDDC
:1007200041F480114FF0000E013C00F3AB8014F156
:10073000360FDEBF002001F0004170BDC4F100049F
:10074000203C35DA0C341BDC04F11404C4F1200520
:1007500000FA05F320FA04F001FA05F240EA02007B
:1007600001F0004221F0004110EBD37021FA04F6B1
:1007700042EB06015EEA430E08BF20EAD37070BD6B
:10078000C4F10C04C4F1200500FA04F320FA05F0CA
:1007900001FA04F240EA020001F0004110EBD370CC
:1007A00041F100015EEA430E08BF20EAD37070BD3C
:1007B000C4F1200500FA05F24EEA020E20FA04F315
:1007C00001FA05F243EA020321FA04F001F00041C4
:1007D00021FA04F220EA020000EBD3705EEA430E35
:1007E00008BF20EAD37070BD94F0000F0FD101F064
:1007F0000046400041EB010111F4801F08BF013C9D
:10080000F7D041EA060195F0000F18BF704703F0DA
:100810000046520043EB030313F4801F08BF013D61
:10082000F7D043EA0603704794EA0C0F0CEA13551D
:1008300018BF95EA0C0F0CD050EA410618BF52EAD7
:100840004306D1D181EA030101F000414FF00000DD
:1008500070BD50EA410606BF1046194652EA4306EB
:1008600019D094EA0C0F02D150EA013613D195EA5F
:100870000C0F05D152EA03361CBF104619460AD1A7
:1008800081EA030101F0004141F0FE4141F47001B1
:100890004FF0000070BD41F0FE4141F4780170BDA1
:1008A00070B54FF0FF0C4CF4E06C1CEA11541DBF06
:1008B0001CEA135594EA0C0F95EA0C0F00F0A7F808
:1008C000A4EB050481EA030E52EA03354FEA013135
:1008D00000F088804FEA03334FF0805545EA131348
:1008E00043EA12634FEA022245EA111545EA106510
:1008F0004FEA00260EF000419D4208BF964244F1A7
:10090000FD0404F5407402D25B084FEA3202B61AC5
:1009100065EB03055B084FEA32024FF480104FF499
:10092000002CB6EB020E75EB030E22BFB61A75460D
:1009300040EA0C005B084FEA3202B6EB020E75EBA0
:10094000030E22BFB61A754640EA5C005B084FEA08
:100950003202B6EB020E75EB030E22BFB61A7546D5
:1009600040EA9C005B084FEA3202B6EB020E75EBE0
:10097000030E22BFB61A754640EADC0055EA060EA1
:1009800018D04FEA051545EA16754FEA06164FEAE4
:10099000C30343EA52734FEAC2025FEA1C1CC0D190
:1009A00011F4801F0BD141EA00014FF000004FF01D
:1009B000004CB6E711F4801F04BF01430020B4F1DE
:1009C000FD0C88BFBCF5E06F3FF6AFAEB5EB030C96
:1009D00004BFB6EB020C5FEA500C50F1000041EB93
:1009E000045170BD0EF0004E4EEA113114EB5C0460
:1009F000C2BFD4EB0C0541EA045170BD41F4801133
:100A00004FF0000E013C90E645EA060E8DE60CEA3A
:100A1000135594EA0C0F08BF95EA0C0F3FF43BAF57
:100A200094EA0C0F0AD150EA01347FF434AF95EA0E
:100A30000C0F7FF425AF104619462CE795EA0C0FF2
:100A400006D152EA03353FF4FDAE1046194622E7BF
:100A500050EA410618BF52EA43067FF4C5AE50EA99
:100A600041047FF40DAF52EA43057FF4EBAE12E789
:100A70004FF0FF3C06E000BF4FF0010C02E000BF6A
:100A80004FF0010C4DF804CD4FEA410C7FEA6C5C4D
:100A90004FEA430C18BF7FEA6C5C1BD001B050EAF0
:100AA000410C0CBF52EA430C91EA030F02BF90EADB
:100AB000020F0020704710F1000F91EA030F58BF9A
:100AC000994208BF90422CBFD8176FEAE37040F0FC
:100AD000010070474FEA410C7FEA6C5C02D150EA9A
:100AE000013C07D14FEA430C7FEA6C5CD6D152EA55
:100AF000033CD3D05DF8040B704700BF844610461A
:100B000062468C461946634600E000BF01B5FFF718
:100B1000B7FF002848BF10F1000F01BD4DF808EDE8
:100B2000FFF7F4FF0CBF012000205DF808FB00BFB9
:100B30004DF808EDFFF7EAFF34BF012000205DF813
:100B400008FB00BF4DF808EDFFF7E0FF94BF012060
:100B500000205DF808FB00BF4DF808EDFFF7CEFF61
:100B600094BF012000205DF808FB00BF4DF808EDA0
:100B7000FFF7C4FF34BF012000205DF808FB00BF71
:100B80004FEA410C7FEA6C5C02D150EA013C0AD189
:100B90004FEA430C7FEA6C5C02D152EA033C02D17B
:100BA0004FF0000070474FF0010070474FEA4102DC
:100BB00012F5001215D211D56FF47873B3EB6252AF
:100BC00012D94FEAC12343F0004343EA505311F0D6
:100BD000004F23FA02F018BF404270474FF0000068
:100BE000704750EA013005D111F0004008BF6FF0A6
:100BF000004070474FF00000704700BF4A0011D21C
:100C000012F5001211D20DD56FF47873B3EB625266
:100C10000ED44FEAC12343F0004343EA505323FA72
:100C200002F070474FF00000704750EA013002D1E7
:100C30004FF0FF3070474FF0000070474FEA41021D
:100C4000B2F1E04324BFB3F5001CDCF1FE5C0DD92A
:100C500001F0004C4FEAC0024CEA5070B2F1004F74
:100C600040EB830008BF20F00100704711F0804F77
:100C700021D113F13872BCBF01F00040704741F43C
:100C800080114FEA5252C2F11802C2F1200C10FA40
:100C90000CF320FA02F018BF40F001004FEAC12324
:100CA0004FEAD32303FA0CFC40EA0C0023FA02F3C8
:100CB0004FEA4303CCE77FEA625307D150EA01339E
:100CC0001EBF4FF0FE4040F44000704701F000406E
:100CD00040F0FE4040F40000704700BF53B94AB9ED
:100CE000002908BF00281CBF4FF0FF314FF0FF3034
:100CF00000F074B9ADF1080C6DE904CE00F006F80F
:100D0000DDF804E0DDE9022304B070472DE9F04787
:100D1000089D04468E46002B4DD18A42944669D9DF
:100D2000B2FA82F252B101FA02F3C2F1200120FAC2
:100D300001F10CFA02FC41EA030E94404FEA1C4810
:100D4000210CBEFBF8F61FFA8CF708FB16E341EA0C
:100D5000034306FB07F199420AD91CEB030306F192
:100D6000FF3080F01F81994240F21C81023E6344B3
:100D70005B1AA4B2B3FBF8F008FB103344EA034457
:100D800000FB07F7A7420AD91CEB040400F1FF336C
:100D900080F00A81A74240F207816444023840EAA9
:100DA0000640E41B00261DB1D4400023C5E90043E2
:100DB0003146BDE8F0878B4209D9002D00F0EF8065
:100DC0000026C5E9000130463146BDE8F087B3FA98
:100DD00083F6002E4AD18B4202D3824200F2F98080
:100DE000841A61EB030301209E46002DE0D0C5E983
:100DF000004EDDE702B9FFDEB2FA82F2002A40F0CF
:100E00009280A1EB0C014FEA1C471FFA8CFE0126D1
:100E1000200CB1FBF7F307FB131140EA01410EFB75
:100E200003F0884208D91CEB010103F1FF3802D21C
:100E3000884200F2CB804346091AA4B2B1FBF7F016
:100E400007FB101144EA01440EFB00FEA64508D939
:100E50001CEB040400F1FF3102D2A64500F2BB8076
:100E60000846A4EB0E0440EA03409CE7C6F12007C5
:100E7000B34022FA07FC4CEA030C20FA07F401FA0B
:100E800006F31C43F9404FEA1C4900FA06F3B1FB94
:100E9000F9F8200C1FFA8CFE09FB181140EA0141F9
:100EA00008FB0EF0884202FA06F20BD91CEB010196
:100EB00008F1FF3A80F08880884240F28580A8F1EE
:100EC00002086144091AA4B2B1FBF9F009FB101140
:100ED00044EA014100FB0EFE8E4508D91CEB0101DE
:100EE00000F1FF346CD28E456AD90238614440EA81
:100EF0000840A0FB0294A1EB0E01A142C846A64601
:100F000056D353D05DB1B3EB080261EB0E0101FA89
:100F100007F722FA06F3F1401F43C5E900710026E6
:100F20003146BDE8F087C2F12003D8400CFA02FC3C
:100F300021FA03F3914001434FEA1C471FFA8CFE4C
:100F4000B3FBF7F007FB10360B0C43EA064300FB3C
:100F50000EF69E4204FA02F408D91CEB030300F1DA
:100F6000FF382FD29E422DD9023863449B1B89B291
:100F7000B3FBF7F607FB163341EA034106FB0EF31A
:100F80008B4208D91CEB010106F1FF3816D28B42C7
:100F900014D9023E6144C91A46EA004638E72E4693
:100FA000284605E70646E3E61846F8E64B45A9D28B
:100FB000B9EB020864EB0C0E0138A3E74646EAE7FA
:100FC000204694E74046D1E7D0467BE7023B6144A8
:100FD00032E7304609E76444023842E7704700BF11
:100FE00001230370024B1B6800225A63704700BF45
:100FF0000490002010B5064C2368481ED8624908AA
:101000005963104611F05AFF236800225A6310BD3D
:101010000490002038B5037803B938BD0446084D64
:101020000021284614F0B4FCA0224FF48E71204613
:10103000FFF7E0FF0021284614F02CFDEDE700BF8C
:101040000490002038B5037803B938BD04460C4D30
:101050000021284614F09CFCA0224FF48E712046FB
:10106000FFF7C8FF642011F029FFA0224FF48E7112
:101070002046FFF7BFFF0021284614F00BFDE4E7F0
:101080000490002038B5037803B938BD0446084DF4
:101090000021284614F07CFCA02240F6183120469E
:1010A000FFF7A8FF0021284614F0F4FCEDE700BF8D
:1010B0000490002038B5037803B938BD0446114DBB
:1010C0000021284614F064FCA0224FF48E712046C3
:1010D000FFF790FF322011F0F1FE3C2240F618316C
:1010E0002046FFF787FF322011F0E8FEA02240F2F1
:1010F0008C512046FFF77EFF0021284614F0CAFCE1
:10110000DBE700BF0490002019B1012906D00020C0
:10111000704700F5805090F85E00704700F58050F1
:1011200090F86000704708B57AB90A6800F58053F6
:10113000A3F842204A68A3F844208A68A3F846200E
:1011400000F5825107F08BFC08BD022A0BD00A681B
:1011500000F58053A3F848204A68A3F84A208A681B
:10116000A3F84C20ECE70A6800F58053A3F84E2062
:101170004A68A3F850208A68A3F85220E0E700F5F7
:101180008053D3F8E030C3B370B584B004460D4645
:101190004E0013F81120FF2A1ED00123694607F0E4
:1011A000DAFA40BB9DF8083083F001038DF808306F
:1011B00001226946204607F032FD04F58054D4F838
:1011C000E03003F81500D4F8E03033449DF80820EF
:1011D0005A70012004B070BD00F5825008F07CFD0B
:1011E000014640B105220DF109001BF039FF012332
:1011F0008DF80830DCE70020ECE7002070472DE98F
:10120000F8430C4611B92046BDE8F883814600F545
:101210008257384608F054FDA0428CBF00260126B4
:101220002146384608F04EFD00B10326384608F046
:1012300047FD451EEDB2012E1DD0032E25D00126FF
:1012400009F58053D3F8E030002B52D03746A8463A
:101250002A463146204610F037FCC4B209F58059C1
:10126000D9F8E020204602EB44035B7813F0010F2D
:10127000C9D1234619E0384608F022FD0646384613
:1012800008F01CFD8519EDB2DAE7384608F018FDC4
:101290000646384608F012FD0644F6B2384608F015
:1012A0000BFD0546CCE7013BDBB29E4205D802EBC5
:1012B0004301497811F0010FF5D0A54208D302EBA4
:1012C0004401497811F0010F02D10134E4B2F4E78E
:1012D000013FBB4207D0A5420DD0C21A201A82425C
:1012E00091DA1C468FE708F1010844458BD134465A
:1012F00089E7344687E71C4685E700002DE9F84F6B
:1013000005460C46B1F802808F88CE88CB7D13F05D
:10131000010F43D0314BB3F800A0314BB3F800B00C
:101320005A465146404610F0CFFB80461FFA80F9DE
:101330005A465146384610F0C7FB07461FFA80FA56
:10134000284B1A88284B1988304610F0BDFB0646FA
:1013500080B2E37D13F0010F2FD0A4F80290A4F81F
:1013600004A0E080A37C1E2B01D91E23A374A37DBF
:101370001E2B01D91E23A375A17A2846FFF73FFF34
:101380006081217B2846FFF73AFFA081FF220A21D6
:10139000207E10F099FB2076BDE8F88F0FFA88F0D8
:1013A00010F0EAFB1FFA80F838B210F0E5FB87B2C4
:1013B00030B210F0E1FB86B2ACE70FFA88F010F023
:1013C000CDFB1FFA80F938B210F0C8FB1FFA80FA83
:1013D00030B210F0C3FB80B2BFE700BF06ED0108DA
:1013E00004ED0108FEEC010800ED01082DE9F043D1
:1013F00085B006460F460024A04612E00DF1090113
:10140000484608F07FFC00B2002808DB9DF8083051
:101410002BB107EB400217F81030FF2B1BD0013423
:1014200024B206F58259484608F046FC84420ADA9E
:10143000E5B201232A466946304607F08CF90028B8
:10144000DCD00128EBD1304607F086F85FFA88F04F
:1014500005B0BDE8F08307F810509DF808305370D0
:1014600008F101081FFA88F8D9E708B500F580539C
:10147000D3F8E01009B9002008BDFFF7B7FF01203D
:10148000FAE708B5C28AB0F844309A424FD1028BCD
:10149000B0F846309A424CD1428BB0F848309A426C
:1014A00049D1828BB0F84A309A4246D1428CB0F88A
:1014B00050309A4243D190F8242090F852309A420A
:1014C0003FD1C28BB0F84C309A423CD1028CB0F87C
:1014D0004E309A4239D190F8262090F854309A42F2
:1014E00035D1028DB0F856309A4232D190F82A2088
:1014F00090F858309A422ED190F82B2090F859301D
:101500009A422AD190F8252090F853309A4226D159
:1015100090F82C2090F85A309A4222D1142200F1EF
:101520005C012E301BF088FDE8B9012000E00020AE
:1015300008BD0020FCE70020FAE70020F8E70020C3
:10154000F6E70020F4E70020F2E70020F0E70020B3
:10155000EEE70020ECE70020EAE70020E8E70020C3
:10156000E6E70020E4E70020E2E7000038B50446A3
:10157000EB23C3820383C82343834FF4966383839F
:10158000002580F826504584052380F82430B423B4
:10159000038580F82A50B32380F82B3080F825503B
:1015A000802380F82C30012380F82D301422054947
:1015B0002E301BF055FDE583204608F081FB20848A
:1015C00038BD00BFF4EC010840F6FC034380322331
:1015D000838040F2DF23C38040F2C75303813B2363
:1015E000438140F2FB138381C823C38140230382DC
:1015F000C3234382704710B5044652B1022A0FD06C
:1016000040F2A46303224FF4FA710FF02FF9204641
:1016100010BDC8230A2240F23F210FF027F9F6E758
:101620003223402296210FF021F9F0E7022903D05E
:10163000012903D0C08A7047408B7047008B7047E8
:1016400010B5044690F82E3013B104F12E0010BDF1
:10165000142202492E301BF003FDF6E7F4EC0108DA
:101660002DE9F84304460F4615461E469DF8209086
:101670009DF8248090F82B3003F00103934210D0A2
:10168000002A43D0B0F9160010F076FAE082B4F9DF
:10169000180010F071FA2083B4F91A0010F06CFAF7
:1016A000608394F82B2002F00C0284F82B201DB1EB
:1016B00042F0010284F82B202FB194F82B3043F034
:1016C000020384F82B302EB194F82B3063F07F03A3
:1016D00084F82B30B9F1000F05D094F82B3043F08B
:1016E000100384F82B30B8F1000F05D094F82B309C
:1016F00043F0200384F82B30642201219DF8280058
:1017000010F0E2F984F82C00BDE8F883B0F9160077
:1017100010F024FAE082B4F9180010F01FFA2083C8
:10172000B4F91A0010F01AFA6083BAE700B59DF810
:101730000CC0BDF810E080F82630BDF804304384BA
:101740009DF8083080F8243090F82B3003F0B30374
:1017500080F82B3019B143F0040380F82B302AB104
:1017600090F82B3043F0080380F82B30BCF14B0F7E
:1017700001D94FF04B0CBEF5A07F05D8BEF1040F88
:1017800004D84FF0050E01E04FF4A07E0CF10403E5
:10179000DBB20C4AA2FB03239B081B01DBB280F8DF
:1017A00025300EF1FF3E084A82FB0E124FEAEE7E14
:1017B000CEEBE20E0EF00F0E4EEA030380F825305A
:1017C0005DF804FBCDCCCCCC6766666610B50446EC
:1017D000084622851E22002110F076F984F82A009E
:1017E00010BD0AB9C1827047012A00D07047018339
:1017F000FCE741838283704710B500F1140300F1C8
:10180000420234301C68D3F804E0D3F808C0D96829
:101810001460C2F804E0C2F808C0D160103310327E
:101820008342EFD1D3F800C058689968C2F800C06D
:10183000506091609B89938110BD38B5044600F5D6
:1018400082552846FFF71DFE00B138BD29461431E8
:10185000204607F0AFF92846FFF7CEFFF5E710B5B1
:1018600000F1420300F1140262301C68D3F804E076
:10187000D3F808C0D9681460C2F804E0C2F808C000
:10188000D160103310328342EFD1D3F800C05868D2
:101890009968C2F800C0506091609B89938110BD27
:1018A00090F82500000900EB8000704790F82500B3
:1018B00000F00F00013000EB80008000704710B591
:1018C000044642B1022A0CD08B894A8909890EF05C
:1018D000CDFF204610BDCB888A8849880EF0C6FF10
:1018E000F7E74B8A0A8AC9890EF0C0FFF1E702299F
:1018F00001D90020704701EB810100EB4100007A23
:10190000C0F340007047022A21D800B5B1F800E0CA
:1019100002EB820C00EB4C0320F81CE0B1F802C093
:10192000A3F802C0B1F804C0A3F804C0B1F806C01F
:10193000A3F806C091F808C083F808C091F90E30EA
:1019400002EB820200EB420253725DF804FB704727
:10195000022900D9002101EB810100EB410191F93D
:1019600009007047032905D802EB82020A4430F8C7
:101970001200704700207047022A04D00C3100EB9F
:101980004100C0887047103100EB4100C0887047AB
:10199000022B00F297802DE9F04F85B005460E46E8
:1019A00017461C4603EB830300EB430292F90990B0
:1019B000A7EB090930F81380884518D804EB840395
:1019C00000EB4303B3F80680884546D34FF0010887
:1019D000B8F1030F74D804EB8403434435F813A023
:1019E000B2451AD808F101085FFA88F8F0E72246F4
:1019F0000021FFF7C1FF484400903B4642460021CA
:101A0000304610F06AF800B240F2E732394610F082
:101A10005BF880B205B0BDE8F08F08F1FF3204EB4F
:101A200084031A4435F812B008F1FF312246C9B2D6
:101A30002846FFF7A1FF00EB090303932246414626
:101A40002846FFF799FF48440090039B52465946A9
:101A5000304610F042F800B2D6E704EB840300EB06
:101A60004303B3F802A0D04514D922460121FFF761
:101A700083FF00EB090B224603212846FFF77CFF7A
:101A8000484400905B4642465146304610F025F8E7
:101A900000B2B9E722460121FFF76EFF00EB09080B
:101AA000224603212846FFF767FF4844009043463B
:101AB000054A12885146304610F00FF800B2A3E7ED
:101AC0000020A1E70020704702ED010810B5044690
:101AD00000F585501030FFF75BFF04F5805494F853
:101AE0006B3013F0010F00D010BD00B210F036F8CB
:101AF00080B2F9E72DE9F04F85B00546039116460F
:101B00001C4600F5855808F1100819464046FFF7B5
:101B10001FFF371A224600214046FFF72DFFBFB2B4
:101B200000EB07091FFA89F9224603214046FFF717
:101B300023FF0744BFB2022C35D0484BB3F800A0B6
:101B4000022C34D0464BB3F800B005F5805393F81F
:101B50006B3013F0010F2ED05A46514603980FF008
:101B6000B3FF1FFA80FA3F4BB3F800B022460021C2
:101B70004046FFF7F7FE0390224603214046FFF759
:101B8000F1FE0090039B3A46494650460FF0A5FFF0
:101B900080B2B0EB5B0F25DDA0EBAB07BFB24FF01F
:101BA0000008C1463BE0304BB3F800A0C8E72F4B1C
:101BB000B3F800B0C9E70FFA89F00FF0CFFF1FFAB2
:101BC00080F938B20FF0CAFF87B20FFA8AF00FF02F
:101BD000C5FF1FFA80FA0FFA8BF00FF0BFFF1FFA54
:101BE00080FBB9E75F46BBF1000F03DB00EBA70703
:101BF000BFB2D4E70BF10307F8E77B1CB9469FB2ED
:101C000009E009EB070303EBD373C3F34F039F42D0
:101C10001CD0BB461F4608F101085FFA88F8B8F1EE
:101C2000130F17D82346324639462846FFF74EFF92
:101C300082450FD0E5D907EB0B0303EBD373C3F356
:101C40004F039F42D9D0B9461F46E4E77B1EBB46EF
:101C50009FB2E0E7384605B0BDE8F08F06ED010819
:101C600004ED010802ED010800ED0108FEEC010899
:101C7000002308E002EB820C9C4430F81CC021F8E1
:101C800013C00133DBB2032BF4D9704710B54FF00A
:101C9000000C0AE031F81C4003EB830EE64420F808
:101CA0001E400CF1010C5FFA8CFCBCF1030FF1D962
:101CB00003EB830100EB41014A7203220A72C988D7
:101CC000044A1288914204D903EB830300EB4303D7
:101CD000DA8010BD02ED010801EB810200EB420346
:101CE0004FF4966C20F812C040F26C725A8040F6A5
:101CF000C4129A8040F65432DA80044A92F90020E5
:101D00005A72194601230B72704700BFFCEC0108A0
:101D100008B5FFF7E1FF08BD0A884B889A4207D251
:101D20008A88934206D2CB889A4205D30020704716
:101D3000002070470020704701207047F0B585B043
:101D400000F58053D3F8E030002B5CD004460E46FB
:101D50001546022922D1002504F58053D3F8E0303E
:101D600013F81520FF2A2ED000236946204606F0DE
:101D7000F2FC80BB9DF8083013F0020F35D004F55B
:101D80008554103469462046FFF7C6FF0546A0BBC0
:101D900031462046FFF7A0FF012523E000F58257DA
:101DA000384607F08DFFA84201D906B10125384613
:101DB00007F086FFA842CFD8012ECDD0384607F0D5
:101DC0007FFF0546C8E7314604F585501030FFF720
:101DD00083FF002506E0314604F585501030FFF7FB
:101DE0007BFF0025284605B0F0BD314604F585503F
:101DF0001030FFF771FF0125F4E7324669462046AF
:101E0000FFF781FDEEE70025ECE7F8B5054600F5A4
:101E10008256304607F050FF40001AF04BFF05F5A0
:101E20008053C3F8E000A8B100240EE005F580530C
:101E3000D3F8E020FF2102F81410D3F8E03003EBD0
:101E4000440300225A700134E4B2304607F034FFF4
:101E5000A042EBD8284606F036FC0446002851D1B3
:101E600005F58053D3F8E01081B32846FFF7BEFA9A
:101E7000074605F5825614363146284606F0F7FC2B
:101E800030B331462846FFF739FA05F58251284626
:101E900006F0A7FD88B3002202212846FFF74EFF77
:101EA00005F5805696F85E2000212846FFF746FF8C
:101EB00096F8602001212846FFF740FF05F5825083
:101EC000FFF79AFC002F41D02046F8BD0746D0E727
:101ED00005F58250FFF74AFB05F5805696F85E102F
:101EE0002846FFF78CF9A6F85E0096F860102846A1
:101EF000FFF785F9A6F86000C7E705F58250FFF700
:101F000063FBC8E705F582573846FFF72FFB3846D5
:101F1000FFF75AFB022105F585501030FFF7DCFE74
:101F2000012200212846FFF709FF304607F0C8FECE
:101F3000024601212846FFF701FF3846FFF75CFC07
:101F4000012C05D0022C05D00024BDE70124BBE7FD
:101F50000224B9E70324B7E770B504460E4679B901
:101F60000225324629462046FFF7E8FE38B18DB9F2
:101F700004F58053A3F85E602046FFF75EFC70BD59
:101F800000F5825007F09CFEB04201D90025E8E739
:101F90000125E6E7012DEFD104F58053A3F8606039
:101FA000EAE72DE9F04184B004460E461D46138849
:101FB000ADF800305388ADF802309388ADF80430A6
:101FC000D388ADF806308DF808509DF928308DF88B
:101FD0000E3000F58053D3F8E0304F0003EB41039F
:101FE0005D7000F5825007F077FE38B18046694693
:101FF00004F585501030FFF78FFE38B904F5865090
:102000001E30FFF757F804B0BDE8F08105224146C5
:102010000DF109001BF024F800226946204606F065
:10202000FEFDB0F10008E9DB04F586501E30FEF736
:10203000F1FF04F58054D4F8E03003F81680D4F8AA
:10204000E0301F447D70DEE770B582B005460E4675
:1020500061B1941B01940F2C0DD82868012C13D06A
:10206000A4B1224631461AF045FE0FE09142F0D06D
:102070000A481AF0C0F8002201A928461AF07AF995
:102080002860019BAB60E8E733780370019B6B60CD
:102090002A680021D15402B070BD00BF68D7010882
:1020A0002DE9F04188B00446174601F582561146E5
:1020B000304607F011FE054604F1080323604FF097
:1020C0000003421D01462046FFF7BEFF15B317B1BE
:1020D0002B784E2B03D1204608B0BDE8F081304666
:1020E00007F0EEFDB8420AD9626802B1002204236B
:1020F0000093284B002120461AF056FAEBE762685D
:1021000002B1002204230093234B002120461AF041
:102110004BFAE0E704AE0296204A4FF00003111F8D
:1021200002A8FFF791FF234653F8080B0299B1422A
:1021300019D0984229D0D4F808802160039B6360AD
:10214000049BA36018B30290CDF810800023039382
:10215000029A1370029804AB9842BCD004990131E2
:102160001AF030F8B7E7039A2AB9039B6360226834
:102170000021D154EAE7012A04D0002AF5D01AF050
:10218000B9FDF2E70B780370EFE72846D5E704AB1B
:102190000293DBE794D701089CD70108A8D7010870
:1021A00010B5044642B901F5805393F85E202046ED
:1021B000FFF776FF204610BD012A01D00022F6E786
:1021C00001F5805393F86020F1E72DE9F04F89B0D5
:1021D000904699469DF848A09DF84CB000F5805374
:1021E000D3F8E0201AB106464C1E032512E0002366
:1021F0004B4580F0878003EB430208EB820200210D
:1022000091700133DBB2F3E7013D15F0FF053BD0E0
:10221000013C24B2002C09DDBAF1000FF4D002EB2E
:1022200044035B7813F0010FF2D0EDE700252BE0BB
:10223000BBF1000F40D0BBF1010F44D005EB4503CB
:1022400008EB8307E2B208F8232006F58053D3F8A1
:10225000E03003EB44035B787B70314602A8FFF764
:102260001FFF0A220299B81C1AF0FAFE0135EDB2DE
:102270004D452FD2029804AB984203D00499013106
:1022800019F0A0FF013424B2019406F582573846B4
:1022900007F012FD844225DA002CF3D0BAF1000FCA
:1022A000C6D006F58053D3F8E03003EB44035B78E7
:1022B00013F0010FBCD1E5E7384607F001FD019BA3
:1022C0008342BBDB0EE0384607F0FAFC019B8342F9
:1022D000B4DAD7E7029804AB984203D004990131ED
:1022E00019F070FF2B464B4508D203EB430208EB75
:1022F0008202002191700133DBB2F4E7284609B075
:10230000BDE8F08F0020FAE7014B0360704700BF83
:10231000A0DB010870470000024A0260024A026026
:10232000704700BFC8DB0108A0DB01087047002030
:1023300070477047014B0360704700BF24DC010801
:1023400070B5064610F0B4FD00F59675184B5B6A43
:102350009BB29C1CA4B2632C01D9613B9CB210F0CF
:10236000A7FDA84205D2124B5B6AA342F7D1114BDD
:102370005E6210F09DFD00F596750D4B5B6A9BB299
:102380009C1CA4B2632C01D9613B9CB210F090FD5F
:10239000A84207D2064B5B6AA342F7D1054B586AA5
:1023A00080B204E0034BD86A80B2013080B270BDC5
:1023B00000000140000C004008B50C4B1B785BB1DD
:1023C0000B4B00205863986303F574431864094A63
:1023D00013680133136008BD03220749074810F052
:1023E00065FF0120014B1870F5E700BF447A00201B
:1023F000000C0040A07B0020A07A0020448D00202B
:1024000008B5114B1B7863B9104B1B78ABB1022296
:102410000F49104810F04AFF0B4B02221A7001209E
:1024200008BD0D4B00205863986303F5744318648E
:102430000A4A136801331360F2E702220849094887
:1024400010F034FFE8E700BF447A002004000020C9
:10245000A87A0020FC8C0020000C0040A07B00200B
:10246000087B0020B48C002010B50446044B0360A8
:10247000044B0360502119F0A5FE204610BD00BF9B
:10248000C8DB0108A0DB010810B50446034B03605C
:10249000502119F097FE204610BD00BFA0DB0108B7
:1024A00010B50446034B0360242119F08BFE20462F
:1024B00010BD00BF24DC010808B5084618F0FAFC7E
:1024C00008BD08B5084618F0E7FC08BD08B5084681
:1024D00018F0D4FC08BD08B518F0C2FC08BD08B55A
:1024E00018F0B0FC08BD08B517F0B4FC08BD00003A
:1024F000F0B4034600220270E449416000F110018B
:102500008160C2600274E249016200F12C01416203
:10251000826280F82C20DF49C16300F14801016428
:10252000426480F84820DC49816500F16401C1659E
:10253000026680F86420D949416700F18001816713
:10254000C26780F88020D649C0F8901000F19C0145
:10255000C0F89410C0F8982080F89C20D149C0F8A9
:10256000AC1000F1B801C0F8B010C0F8B42080F889
:10257000B820CD49C0F8C81000F1D401C0F8CC1083
:10258000C0F8D02080F8D420C849C0F8E41000F189
:10259000F001C0F8E810C0F8EC2080F8F020C44C3E
:1025A000C0F8004100F58671C0F80411C0F8082198
:1025B00080F80C21BF49C0F81C1100F59471C0F8D7
:1025C0002011C0F8242180F82821BB49C0F8381117
:1025D00000F5A271C0F83C11C0F8402180F84421F8
:1025E000B649C0F8541100F5B071C0F85811C0F8E0
:1025F0005C2180F86021B249C0F8701100F5BE710D
:10260000C0F87411C0F8782180F87C21AD49C0F879
:102610008C1100F5CC71C0F89011C0F8942180F8AD
:102620009821A949C0F8A81100F5DA71C0F8AC11D9
:10263000C0F8B02180F8B421A449C0F8C41100F555
:10264000E871C0F8C811C0F8CC2180F8D021A049A9
:10265000C0F8E01100F5F671C0F8E411C0F8E82107
:1026600080F8EC219B49C0F8FC1100F50271C0F81C
:102670000012C0F8042280F808229749C0F8181206
:1026800000F50971C0F81C12C0F8202280F824223D
:102690009248C3F8340203F51071C3F83812C3F836
:1026A0003C2283F840228E49C3F8501203F517717B
:1026B000C3F85412C3F8582283F85C228949C3F83E
:1026C0006C1203F51E71C3F87012C3F8742283F8FC
:1026D00078228549C3F8881203F52571C3F88C1256
:1026E000C3F8902283F894228049C3F8A41203F51A
:1026F0002C71C3F8A812C3F8AC2283F8B0227C4F27
:10270000C3F8C07203F53371C3F8C412C3F8C8220A
:1027100083F8CC22774EC3F8DC6203F53A71C3F834
:10272000E012C3F8E42283F8E8227349C3F8F812F0
:1027300003F54171C3F8FC12C3F8002383F80423A6
:102740006E49C3F8141303F54871C3F81813C3F89E
:102750001C2383F820236A49C3F8301303F54F7113
:10276000C3F83413C3F8382383F83C23C3F84C036D
:1027700003F55671C3F85013C3F8542383F8582354
:10278000604DC3F8685303F55D71C3F86C13C3F86B
:10279000702383F874235C49C3F8841303F5647CC5
:1027A000C3F888C3C3F88C2383F89023DFF86CC187
:1027B000C3F8A0C303F56B7CC3F8A4C3C3F8A82374
:1027C00083F8AC23C3F8BC7303F57277C3F8C07306
:1027D000C3F8C42383F8C823C3F8D86303F5797614
:1027E000C3F8DC63C3F8E02383F8E423C3F8F403FD
:1027F00003F58060C3F8F803C3F8FC2383F80024D2
:10280000C3F8105403F21C40C3F81404C3F818248E
:1028100083F81C24C3F82C1403F58760C3F8300434
:10282000C3F8342483F838243848C3F8480403F242
:102830005440C3F84C04C3F8502483F8542434485B
:10284000C3F8640403F58E60C3F86804C3F86C240D
:1028500083F870242F48C3F8800403F28C40C3F837
:102860008404C3F8882483F88C242B48C3F89C0480
:1028700003F59560C3F8A004C3F8A42483F8A82442
:10288000C3F8B84403F2C4404AE000BFACD7010823
:10289000B8D70108C4D70108D4D70108E4D7010884
:1028A000F0D70108FCD701080CD801081CD8010892
:1028B00024D801082CD8010838D8010840D80108CC
:1028C00048D8010858D8010868D8010874D8010808
:1028D00080D801088CD8010898D80108A4D801082C
:1028E000ACD80108B4D80108C4D80108D0D8010870
:1028F000DCD80108E8D80108F8D8010808D901088F
:1029000014D9010820D9010830D9010850D901088B
:102910005CD9010868D9010870D9010840D90108BB
:10292000C3F8BC04C3F8C02483F8C424DF48C3F848
:10293000D40403F59C64C3F8D844C3F8DC2483F8BA
:10294000E024DB4CC3F8F04403F2FC44C3F8F44445
:10295000C3F8F82483F8FC24D64CC3F80C4503F5DF
:10296000A364C3F81045C3F8142583F81825D24C86
:10297000C3F8284503F23454C3F82C45C3F8302576
:1029800083F83425C3F8441503F5AA61C3F8481544
:10299000C3F84C2583F85025C849C3F8601503F2E5
:1029A0006C51C3F86415C3F8682583F86C25C449D5
:1029B000C3F87C1503F5B161C3F88015C3F884250D
:1029C00083F88825BF49C3F8981503F2A451C3F8CA
:1029D0009C15C3F8A02583F8A425BB49C3F8B415FA
:1029E00003F5B861C3F8B815C3F8BC2583F8C02552
:1029F000B649C3F8D01503F2DC51C3F8D415C3F8B7
:102A0000D82583F8DC25B249C3F8EC1503F5BF617E
:102A1000C3F8F015C3F8F42583F8F825AD49C3F8D9
:102A2000081603F21461C3F80C16C3F8102683F8D5
:102A30001426A949C3F8241603F5C661C3F828165D
:102A4000C3F82C2683F83026A449C3F8401603F2B5
:102A50004C61C3F84416C3F8482683F84C26A049B5
:102A6000C3F85C1603F5CD61C3F86016C3F864269D
:102A700083F868269B49C3F8781603F28461C3F88B
:102A80007C16C3F8802683F884269749C3F89416E9
:102A900003F5D461C3F89816C3F89C2683F8A026E2
:102AA0009249C3F8B01603F2BC61C3F8B416C3F878
:102AB000B82683F8BC268E49C3F8CC1603F5DB6133
:102AC000C3F8D016C3F8D42683F8D826C3F8E8068E
:102AD00003F2F461C3F8EC16C3F8F02683F8F42689
:102AE0008449C3F8041703F5E261C3F80817C3F873
:102AF0000C2783F810278049C3F8201703F22C71A4
:102B0000C3F82417C3F8282783F82C277B49C3F878
:102B10003C1703F5E961C3F84017C3F8442783F86D
:102B200048277749C3F8581703F26471C3F85C1754
:102B3000C3F8602783F864277249C3F8741703F554
:102B4000F061C3F87817C3F87C2783F880276E49B3
:102B5000C3F8901703F29C71C3F89417C3F8982731
:102B600083F89C276949C3F8AC1703F5F761C3F8EC
:102B7000B017C3F8B42783F8B8276549C3F8C81756
:102B800003F2D471C3F8CC17C3F8D02783F8D42745
:102B90006049C3F8E41703F5FE61C3F8E817C3F80A
:102BA000EC2783F8F0275C49C3F8001803F60C0102
:102BB000C3F80418C3F8082883F80C285749C3F849
:102BC0001C1803F62801C3F82018C3F8242883F83A
:102BD00028285349C3F8381803F64401C3F83C18B1
:102BE000C3F8402883F844284E49C3F8541803F525
:102BF0000661C3F85818C3F85C2883F860284A496E
:102C0000C3F8701803F67C01C3F87418C3F8782869
:102C100083F87C284549C3F88C1803F69801C3F85B
:102C20009018C3F8942883F898284149C3F8A81845
:102C300003F6B401C3F8AC18C3F8B02883F8B4287D
:102C40003C49C3F8C41803F50D61C3F8C818C3F8AC
:102C5000CC2883F8D0283849C3F8E01803F6EC01F3
:102C6000C3F8E418C3F8E82883F8EC283349C3F81C
:102C7000FC1803F60811C3F80019C3F8042983F8F7
:102C800008292F49C3F8181903F62411C3F81C1991
:102C9000C3F8202983F824292A4A92E80300C3F8BC
:102CA0003409A3F838191846F0BC704778D90108E0
:102CB00084D901088CD9010894D901089CD901084C
:102CC000A0D90108A4D90108ACD90108B4D90108D8
:102CD000BCD90108C4D90108CCD90108D4D901084C
:102CE000D8D90108DCD90108E0D90108E4D90108E4
:102CF000ECD90108F4D9010800DA010814DA010856
:102D000028DA010838DA010848DA010860DA01082F
:102D100078DA010880DA01088CDA010898DA01080B
:102D2000A0DA0108A4DA0108A8DA0108B8DA010873
:102D3000C4DA0108D4DA0108E4DA0108F8DA010893
:102D400004DB01080CD70108014B1878704700BF5D
:102D50007479002008B502480EF049FA80B208BD27
:102D6000643600202DE9F04782B00026904B5E6368
:102D7000904C204610F07CF96421204610F03AFA7D
:102D8000204610F09DFB85B26421204610F032FAF7
:102D9000204610F095FB1FFA80F9204610F00AFA41
:102DA000854C204610F064F96421204610F022FA88
:102DB000204610F085FB87B26421204610F01AFAF5
:102DC000204610F07DFB1FFA80FA204610F0F2F941
:102DD0007A4B0A221A705E6019784FF47A7201FBFE
:102DE00002F25A60764C23681B6C283B754A1380AC
:102DF000DFF81082CDF8009053463A462946404607
:102E000006F0A6FB074608F54053032283F8B92DC8
:102E100083F8B82D6C4D0C21284612F0B9FD08211D
:102E2000284612F00FFD3146204612F0B1FD042174
:102E3000204612F0ADFD0821204612F003FD0C21C2
:102E4000204612F0FFFC3146604812F0A1FD604DB3
:102E5000DFF8C0A15F4C2B465246294620460AF0B7
:102E6000AAFADFF8A8912B464A46214650460AF0B6
:102E7000A2FA2B462246214648460AF09CFA2346EF
:102E80002246214654480AF096FADFF88C912346F0
:102E90002246494651480AF08EFA234622462146E8
:102EA00048460AF088FADFF868A123462246214600
:102EB00050460AF080FADFF8649123462246214604
:102EC00048460AF078FA23462246294644480AF042
:102ED00072FA23462246294642480AF06CFA2346F3
:102EE0002246294640480AF066FA234622462946E9
:102EF0003E480AF060FA23462246214628460AF058
:102F00005AFA3B4D2B46224621463A480AF053FADC
:102F100023462246214628460AF04DFA23462246F9
:102F2000514635480AF047FA4B464A46214633484F
:102F30000AF041FA33463246214631480AF03BFA5C
:102F400008F54A5002F0FEFB022F1FD0032F26D0B7
:102F5000012F17D040F2DC50FFF7F2F9294B03F5AF
:102F6000805292F86C2003F54053A3F8D022C82079
:102F70000FF0A4FF244B186803681B68984702B041
:102F8000BDE8F087204B214A1A60E3E7204C00227D
:102F9000412120460BF01CFF1B4B1C60DAE700228E
:102FA00045211B480BF014FF174B154A1A60D1E757
:102FB00000180040B48C0020FC8C002064360020F7
:102FC0006C910020B0360020BC8F00204C90002077
:102FD0004C7B002084780020A40300206C36002065
:102FE000E07A0020640400200C7B0020AC7A0020F2
:102FF00018790020F07800209C040020487A0020F6
:103000004C790020B436002000000020207A0020F7
:10301000487800207879002008040020340400203B
:1030200038B50FF045FF5C4B1B68984248D85B4BA6
:1030300018680AF0C4F9044618B1584B1B6883425B
:1030400076D1564D286803685B68984704462B681C
:10305000834229D0002800F08880514D0021284665
:1030600006F0D0FB002105F5C47006F0CBFB002173
:1030700005F5607006F014F9A5F67442002382F895
:10308000B93D82F8B83D82F8413F82F8403F454A59
:1030900053639363414D286803689B6898472C608D
:1030A00023681B68204698470FF002FF3E4B1B68C1
:1030B00098425CD23D4802F0EFFA002868D138BD52
:1030C0000FF0F6FE6430344B18601021384810F0D1
:1030D000C7FE012824D1642136480EF011F94FF4BF
:1030E0000051354810F0BCFE01281BD16421334843
:1030F0000EF006F94FF480512F4810F0B1FE98B948
:1031000064212F480EF0FCF84FF400712D4810F0A8
:10311000A7FE01280AD164212B480EF0F1F886E7BA
:103120000021D9E70021E2E70021EAE70021F3E7E7
:10313000264D2846FDF786FF0021A5F5A26006F082
:1031400061FB0021A5F5627006F05CFB154B0022C7
:103150005A639A63114D286803689B6898472C60EE
:1031600023681B6820469847A9E7194C75E7194959
:103170004B6A194A10681B1A18BF012317480370BD
:103180004B6A13600FF094FE2930074B186091E7EB
:1031900005200FF093FE92E79C7B002000000020AA
:1031A00028730020000C0040987B002084690020D8
:1031B000000802404074002000040240C87500204E
:1031C000D875002000000240C07700203878002029
:1031D0004878002000000140947B00207479002092
:1031E00010B50368174A934203D0174A93421ED082
:1031F00010BD027F042AF8D1144805F06FFF632840
:1032000000D963200F4B18640FF052FE0446104B98
:103210001B7813B10F4B1B6813B90E4B1C60E7E70B
:103220000C4B1968411A0C480DF0C7FFF5E7037FF6
:10323000042B04D0082BDBD1FFF7E2F8D8E7FFF727
:10324000BBF8D5E700000140000C0040A876002044
:1032500074790020AC3600206436002008B510F0E8
:10326000F3F85B4B1B78DBB2022B09D0584B1B7871
:10327000DBB2012B00F08180554B00221A7008BD93
:10328000544B1B78002B47D0534B198889B25348B5
:1032900006F0C4FB524B18801A8892B2514B198821
:1032A0008A422AD9504B99634D4A13889BB25B1AC4
:1032B0009BB213804D4B1B889BB24B4A5363464BCA
:1032C000598889B24A4805F053FE424A137883F080
:1032D00001031370444B596A464A1378DBB289B232
:1032E000454820F8131013780133DBB21370632BB9
:1032F000C2D9134600221A70BEE7394A13889BB21E
:1033000039498B6313889BB213B1384B00221A8062
:10331000334B00221A80CDE7384B198889B23848E0
:1033200006F07CFB314B18801A8892B22D4B19881D
:103330008A4213D92C4B59632C4A13889BB25B1ACF
:103340009BB21380264B1B889BB2274A93632B4B5F
:10335000598889B22B480DF030FFB6E7234A13880D
:103360009BB221494B6313889BB213B11C4B0022C3
:103370001A801E4B00221A80E4E71B4B5B6B012B6B
:1033800018D8194B9B6B012B1BD81F4B5B6B012B68
:103390007FF672AF1D4B998889B21D480DF0B0FFC2
:1033A000194B5B6AB3F5FA7F7FF666AF164B642262
:1033B0005A6261E7154B198889B216480DF0A0FFD3
:1033C000DFE7124B598889B213480DF099FFDCE70B
:1033D000447A002004000020A87A0020B074002065
:1033E000487B0020B0360020000C0040907B00207D
:1033F000A87600206C7C0020A47B0020087B0020A5
:10340000287300203C78002000480140A07A00206A
:10341000B077002030740020B8750020704738B5B0
:103420000C46154605E04FF4FC7154F8040B18F0F7
:10343000C9FEAC42F7D338BD10B5044603684BB1A2
:10344000426A04324169FFF7EAFF61688900206837
:1034500018F0B8FE204610BD2DE9F0418846174609
:10346000CE6804360DE01834A54209D0234653F83F
:10347000080B9842F7D0A168013118F0A3FEF2E7DB
:103480000436FB68B34203D9346804F5FC75EBE7F6
:10349000D8F80C20934221D0D8F80040D8F8085032
:1034A00000E01834A54209D0234653F8080B98428F
:1034B000F7D0A168013118F085FEF2E77C683D681D
:1034C00000E01834A5421AD0234653F8080B98425E
:1034D000F7D0A168013118F075FEF2E7D8F8004086
:1034E0003D6800E01834A54209D0234653F8080B84
:1034F0009842F7D0A168013118F064FEF2E7BDE808
:10350000F08138B50C46154605E04FF4FC7018F014
:103510005BFE44F8040BAC42F7D338BD2DE9F04311
:1035200083B004460D46274BA3FB0123CA1A03EBC5
:1035300052031B095E1C082200920333019393423D
:103540003BD86B4618686060B0F1005F37D28000EE
:1035500018F03AFE804620606768BF1B7F0800EBCA
:10356000870909EB8606324649462046FFF7C9FF20
:10357000C4F8149058F82730E36003F5FC72226118
:10358000321F626256F8042CE26102F5FC7121627E
:10359000A3600C4BA3FB0513E91A03EB51031B09B2
:1035A00003EB4303C3EBC303EB1A03EB430302EB4D
:1035B000C303A36103B0BDE8F08301ABC2E718F019
:1035C00017FE00BF876118862DE9F84F824600F587
:1035D0008055002485F828404FF480536B85D34BE9
:1035E000EB62D34B2B63D34B6B63D34BAB63D34BAC
:1035F000EB63D34B03CBC5F8CE00C5F8D21003CB99
:10360000C5F8D600C5F8DA100AF586501E30FDF769
:10361000E7FCC5F8E0400AF58756043642F2600937
:1036200006EB0905DFF84CB346F809B0C54B46F880
:10363000093005F10C036B60AC602C7305F11C07BD
:103640004FF0280842462146384619F07BFBEC61D2
:103650002C626C62AC62EC622C636C63AC63EC63F6
:103660002C6421463846FFF759FF05F144074246CE
:103670002146384619F066FB6C64AC64EC642C653A
:103680006C65AC65EC652C666C66AC6621463846AC
:10369000FFF744FFAC4B46F8093005F17403EB66C5
:1036A0002C6785F8744005F18C03C5F88430C5F8A3
:1036B000884085F88C4005F1A403C5F89C30C5F816
:1036C000A04085F8A440C5F8B440C5F8B840C5F896
:1036D000BC4042F22013F71846F803B0994AF25062
:1036E00007F10C037B60BC603C7307F11C0542468C
:1036F0002146284619F026FBFC613C627C62BC62D4
:10370000FC623C637C63BC63FC633C6421462846EA
:10371000FFF704FF07F1440542462146284619F009
:1037200011FB7C64BC64FC643C657C65BC65FC6529
:103730003C667C66BC6621462846FFF7EFFE06F530
:103740000056824BC6F82031C6F88C4186F890416D
:10375000C6F894417E4BC6F898310AF54A55281DA3
:1037600018F084FA7B4B2B607B4B2B60A5F8504004
:10377000A5F85440AC65EC65A5F8604085F862405A
:1037800005F16400FEF7B4FE744B2B60744BC5F872
:10379000A039A5F8A4494FF6FF72A5F8A6294FF461
:1037A0007841A5F8A8191F21A5F8AA194FF6E071CC
:1037B000A5F8AC194CF21861A5F8AE1985F8B04916
:1037C000C5F8B449C5F8B849C5F8BC49C5F8C049F9
:1037D000C5F8C449C5F8C84985F8CC299622A5F88A
:1037E000CE29A5F8D049A5F8D249A5F8D449A5F81D
:1037F000D649C822A5F8D8296E22A5F8DA295A2276
:10380000A5F8DC293C21A5F8DE19A5F8E02920223D
:10381000A5F8E2291922A5F8E429524AC5F8E829B1
:10382000C5F8EC39C5F8F03943F674410AEB0103E9
:1038300014225A601C815C81DC600A261E615E6174
:103840009C614FF00B0BA3F81CB044F62069C3F841
:10385000209003F124024448057882F8424082F81F
:10386000404082F8415082F8864082F8844082F8D5
:10387000855082F8CA4082F8C84082F8C950A2F840
:10388000CC40A2F8CE40A2F8D040A2F8D24082F8B4
:10389000D440C2F8D84082F8DC4082F8DD40A2F87B
:1038A000DE40A2F8E040A2F8E240304A4AF80120A7
:1038B000082283F80821C3F80C4183F80821C3F8D3
:1038C0000C4183F8104183F811414FF4C87CA3F8F0
:1038D00012C14FF4FA70A3F8140183F81821C3F849
:1038E0001C4183F81821C3F81C4183F8204183F858
:1038F0002141A3F822C1A3F8240183F82821C3F8A9
:103900002C4183F82821C3F82C4183F8304183F8F7
:103910003141A3F832C1A3F83401154F4AF80170C0
:10392000A3F83841A3F83A4126E000BF18DB0108AC
:1039300024DB010830DB01083CDB010848DB01081F
:1039400014D701084CE8010880E80108B4E8010830
:1039500008ED0108A0DB0108C8DB010868E50108E3
:1039600044F20108BCE50108F3EC01085CDB010846
:1039700094E70108F0DB0108A3F83C41A3F83E41BD
:103980004FF0040E83F840E183F84141A3F842412F
:1039900083F8444183F8454183F84821C3F84C41FA
:1039A00083F84821C3F84C4183F85021C3F85441AF
:1039B00083F85021C3F8544183F85821C3F85C417F
:1039C00083F85821C3F85C4183F86021C3F864414F
:1039D00083F86021C3F8644183F86821C3F86C411F
:1039E00083F86821C3F86C4183F87041A3F87241F1
:1039F0004FF47A7EA3F874E14FF0140183F8761146
:103A00004FF06408A3F8788183F87A21A3F87C0149
:103A1000A3F87EE14FF0030183F880114FF00E0709
:103A200083F881714FF0140183F882114FF005087B
:103A300083F883814FF0020183F8841183F8856154
:103A400043F6FC580AEB0803142159601C815C8181
:103A5000DC601E615E619C61A3F81CB0C3F820901D
:103A600003F1240181F8424081F8404081F841503F
:103A700081F8864081F8844081F8855081F8CA40F9
:103A800081F8C84081F8C950A1F8CC40A1F8CE40D7
:103A9000A1F8D040A1F8D24081F8D440C1F8D84074
:103AA00081F8DC4081F8DD40A1F8DE40A1F8E0407B
:103AB000A1F8E240D0494AF8081083F80821C3F879
:103AC0000C4183F80821C3F80C4183F8104183F8B6
:103AD0001141A3F812C1A3F8140183F81821C3F807
:103AE0001C4183F81821C3F81C4183F8204183F856
:103AF0002141A3F822C1A3F8240183F82821C3F8A7
:103B00002C4183F82821C3F82C4183F8304183F8F5
:103B10003141A3F832C1A3F83401B84F4AF8087014
:103B2000A3F83841A3F83A41A3F83C41A3F83E4139
:103B30004FF0040183F8401183F84141A3F842415A
:103B400083F8444183F8454183F84821C3F84C4148
:103B500083F84821C3F84C4183F85021C3F85441FD
:103B600083F85021C3F8544183F85821C3F85C41CD
:103B700083F85821C3F85C4183F86021C3F864419D
:103B800083F86021C3F8644183F86821C3F86C416D
:103B900083F86821C3F86C4183F87041A3F872413F
:103BA000A3F874E14FF0140C83F876C14FF0640869
:103BB000A3F8788183F87A21A3F87C01A3F87EE149
:103BC0004FF0030183F880114FF00E0783F88171E5
:103BD00083F882C14FF0050883F883814FF002011A
:103BE00083F8841183F8856185490AF57E50043095
:103BF00004F03DFB83490AF57E503C3004F037FB6E
:103C000043F6F4710AEB010314225A601C815C81B3
:103C1000DC601E615E619C61A3F81CB0C3F820905B
:103C200003F1240282F8424082F8404082F8415079
:103C300082F8864082F8844082F8855082F8CA4033
:103C400082F8C84082F8C950A2F8CC40A2F8CE4011
:103C5000A2F8D040A2F8D24082F8D440C2F8D840AE
:103C600082F8DC4082F8DD40A2F8DE40A2F8E040B5
:103C7000A2F8E240604A4AF80120082583F808517A
:103C8000C3F80C4183F80851C3F80C4183F8104184
:103C900083F811414FF4C870A3F812014FF4FA727F
:103CA000A3F8142183F81851C3F81C4183F8185164
:103CB000C3F81C4183F8204183F82141A3F8220175
:103CC000A3F8242183F82851C3F82C4183F8285104
:103CD000C3F82C4183F8304183F83141A3F8320115
:103CE000A3F8342148484AF8010083F8384183F8A2
:103CF000394183F83A41012183F83B11A3F83C4153
:103D0000A3F83E41C3F8404183F84451C3F8484109
:103D100083F84451C3F8484183F84C51C3F85041EB
:103D200083F84C51C3F8504183F85451C3F85841BB
:103D300083F85451C3F8584183F85C51C3F860418B
:103D400083F85C51C3F8604183F86451C3F868415B
:103D500083F86451C3F86841A3F86C4183F86E415D
:103D6000462083F86F01632083F870014FF42F70B1
:103D7000A3F8720140F2CF70A3F874014FF4C86049
:103D8000A3F876014FF44870A3F878017D20A3F8DA
:103D90007A011E48C3F87C014EF66020C3F880010A
:103DA000A3F884214FF47A72A3F886211E2683F8A3
:103DB00088613C2283F889210A2283F88A2183F8CA
:103DC0008B21C3F88C110AF583400430FDF708F904
:103DD0000AF5804383F88851C3F88C4183F88851F1
:103DE000C3F88C4183F8906140F63C72A3F89221AD
:103DF0005046BDE8F88F00BF5CDB010894E701087E
:103E0000DC9000202491002050E70108407E05004E
:103E1000F0B5A1B005460746554B47F8B43BD0F87E
:103E2000B4407E6800E04834A6421BD0206B04F109
:103E30003803984203D0A16B013118F0C3F9A0698F
:103E400004F12003984203D0216A013118F0BAF935
:103E5000234653F8080B9842E5D0A168013118F0C9
:103E6000B1F9E0E7D5F8B400B968091A08B118F05B
:103E7000A9F905F16C04D5F89C0005F1A40398425A
:103E800004D0D5F8A410013118F09CF9A06904F110
:103E90002003984203D0216A013118F093F9E86EAB
:103EA00004F10803984203D0A168013118F08AF99F
:103EB0002C46304B44F8443BD4F808E0CDF830E0D1
:103EC000D4F80CC0CDF834C027690E9766690F96F8
:103ED000A0690890E1690991226A0A92636A0B93CA
:103EE000CDF850E0CDF854C0169717961090119168
:103EF0001292139310AA14A92046FFF7ADFA204698
:103F0000FFF79AFA05F11C04D5F824E0CDF810E08B
:103F1000D5F828C0CDF814C0EF6A06972E6B079627
:103F2000686B0090A96B0191EA6B02922B6C039372
:103F3000CDF870E0CDF874C01E971F9618901991B7
:103F40001A921B9318AA1CA92046FFF785FA20464F
:103F5000FFF772FA686805F10C03984203D0E9682C
:103F6000013118F02FF9044B2B60284621B0F0BD29
:103F700080E801084CE80108F0DB01082DE9F04F6A
:103F8000A7B005460E46012808D025B94FF6FF73A5
:103F90009E4200F0FC8227B0BDE8F08F4FF6FF7321
:103FA0009942F2D1B84B08271F7000245C601F7043
:103FB0005C60DFF838834046FFF706FBB34BDFF861
:103FC00030A3C3F800A01C719C609C811C615C61E3
:103FD0009C61DC611C62C3F80880AD4A1A6083F8FA
:103FE0002440022283F825204FF0010C83F826C0DC
:103FF00083F8274083F8284083F82940DC6283F85F
:10400000304083F8314083F83240A24A1A6083F886
:1040100034709C63052283F834209C63DC631C6449
:104020005C649C64DC641C65A3F8544083F856C04F
:104030009C6583F85CC04FF4FA72A3F85E2040F2EE
:10404000DC51A3F8601041F288375F6640F6B83063
:10405000A3F86800904BC3F800A01C719C609C8181
:104060001C615C619C61DC611C62C3F808808B4A46
:104070001A60C3F89C40C3F8A04083F8A440884B62
:10408000C3F800A01C719C609C811C615C619C61F8
:10409000DC611C62C3F80880824A1A60824AC2F856
:1040A00000A0147194609481146154619461D4618E
:1040B0001462C2F808807D4B136082F82440A2F895
:1040C000464082F84840D4641465546582F85840EC
:1040D0004FF41673A2F85A30D0651766744BC3F8C4
:1040E00000A01C719C609C811C615C619C61DC6116
:1040F0001C62C3F808806F48186083F824C083F8F6
:10410000324083F833405C639C63998741466A4838
:1041100008F04CFCDFF8DC91C9F800A089F80440F5
:10412000C9F80840A9F80C40C9F81040C9F8144073
:10413000C9F81840C9F81C40C9F82040C9F80880DF
:104140004B465E4A43F8242BC9F824405C609C60CF
:10415000DC601C614FF0540389F83830584AC2F8CB
:1041600000A0147194609481146154619461D461CD
:104170001462C2F80880534B1360546282F82840DE
:1041800082F8294082F82A4082F82B4082F82C409D
:104190004FF00301D1854C4BC3F800A01C719C600B
:1041A0009C811C615C619C61DC611C62C3F80880BD
:1041B00046491960062199849F6283F82C401C634C
:1041C0005C639C639C87DC87A3F84040A3F8424073
:1041D000A3F84440FA20A3F8460083F84840A3F827
:1041E0004A40A3F84C104FF4FA6119654FF4C871B6
:1041F000A3F85410364BC3F800A01C719C609C813E
:104200001C615C619C61DC611C62C3F808803149FF
:1042100019605A62304FC7F800A03C71BC60BC8185
:104220003C617C61BC61FC613C62C7F808802B4B3F
:104230003B607C623C852A4B2A490B600B462A4A2C
:1042400043F80C2B4B608C600C7301F11C0B282283
:104250002146584618F076FDABF11C01CC61CBF835
:104260000440CBF80840CBF80C40CBF81040CBF81A
:104270001440CBF81840CBF81C40CBF82040CBF8CA
:104280002440214638E000BF6436002084780020B6
:1042900040DC01081CED0108787900208CEB010856
:1042A000207A0020A8EB0108A403002018EC0108E4
:1042B0006C36002054EB01080804002070EB010864
:1042C00034040020C4EB0108487A00206CEC01089B
:1042D000E07A0020A8E901089C040020E0EB010836
:1042E000F0DB0108603500204CE80108B4360020FE
:1042F00024DC0108487800205846FFF70FF9ABF19D
:104300001C0101F1440B28222146584618F01AFDE1
:10431000ABF144014C64CBF80440CBF80840CBF837
:104320000C40CBF81040CBF81440CBF81840CBF839
:104330001C40CBF82040CBF8244021465846FFF7DC
:10434000EDF807F5405BAC4BCBF8C4300BF59C7334
:10435000CBF83031CBF834418BF838411833CBF8F7
:104360004831CBF84C418BF850411833CBF86031D1
:10437000CBF864418BF86841CBF87841CBF87C41AD
:10438000CBF88041CBF884419C4BCBF888319C4BD7
:1043900093E80300CBF88C01ABF890118BF89441B3
:1043A000ABF896410BF5D073CBF89831954A4FF0A6
:1043B0000003511E0BF5CC70FDF746FECBF8B04163
:1043C000CBF8B441CBF8B841FF238BF8BC318BF864
:1043D000BD414FF054038BF8BE314EF66023CBF84D
:1043E000C431CBF8C091884BC3F800A01C719C600D
:1043F0009C811C615C619C61DC611C62C3F808806B
:10440000824A1A605F62824BC3F800A01C719C60F4
:104410009C811C615C619C61DC611C62C3F808804A
:104420007C4A1A609C84DC8483F8284083F8294005
:104430004FF0010C83F82AC04FF448729A85DA8550
:1044400040F2CF721A864FF0030283F83220724B8B
:10445000C3F800A022461C719C609C811C615C61B9
:104460009C61DC611C624146C3F808806B4818609F
:10447000022483F824406A4BC3F800A01A719A60A2
:104480009A811A615A619A61DA611A62C3F80880E6
:10449000644818605A62012783F8287083F82970ED
:1044A00083F82A2083F82B7083F82C70642083F81B
:1044B0002D0083F82E2083F82F2083F8302083F8F6
:1044C000312083F83220042083F83300072083F85A
:1044D0003400554858625548C0F800A00271826007
:1044E0008281026142618261C2610262C0F8088019
:1044F000DFF85CE1C0F800E080F82C2080F82D2087
:1045000080F82E20028680F8322080F833208286C0
:1045100080F8362080F8372080F83840062480F86C
:1045200039404FF07808A0F83A80DFF830E1C0F861
:1045300024E03F4CC4F800A02271A260A281226155
:104540006261A261E2612262A160DFF800C1C4F889
:1045500000C084F8282062854FF0FF0C84F82CC03E
:1045600084F82D2084F82E2084F82F70A4F8308051
:10457000C4F824E0244A04922E4A03920294019043
:104580002D4A00922D4A2E4808F0E8F9FDE42C4A05
:104590002C4B13602C4B1360254A2C49116013607F
:1045A000224A2B49116013601D4A1E491160136095
:1045B000194A1A4911601360154A164911601360AF
:1045C000114A124911601360224B234A1A6003F505
:1045D0004053D3F8B041D3F8B45104E0A16801319D
:1045E00017F0F0FD1834A5423AD0234653F8080BD3
:1045F0009842F3D1F6E700BF80E8010808ED010812
:1046000024D7010851DB0108F0780020FCEB0108F9
:104610001879002034EC01084C79002050EC010896
:104620006404002054E90108E07A00200C7B00209B
:10463000AC7A00206C360020207A002078790020A7
:104640004C7B002038E9010824DC01088CE90108D2
:10465000C4E901089C040020E0EB010808040020E4
:10466000754BD3F8B001D3F8B811091A08B117F097
:10467000A9FD714BD3F8980103F5D073984206D089
:10468000A3F5D073D3F8A011013117F09BFD6B484F
:10469000FFF7BEFB6A4B6B4A13606B4A6B491160B4
:1046A00013606B4A6B49116013606B4A6B49116070
:1046B00013606B4A6B49116013606B4A6B49116060
:1046C00013606B4A6B49116013606B4A6B49116050
:1046D00013606B4A6B49116013606B4A6B49116040
:1046E00013606B4A6B4911606B49116013606B4C2E
:1046F00004F540536A4AC3F8F42F6A4AC3F8F42F0A
:104700006949C3F8FC1DC3F8FC2DC3F8741CC3F839
:10471000742C664AC3F8802203F6484016F0E2FD86
:10472000634815F067FC04F5715015F063FC6148AF
:1047300015F060FC604815F05DFC604815F05AFC0F
:104740005F4D75B15F4C03E0E168013117F03AFD50
:10475000A54206D01C3C606804F10C039842F3D1DA
:10476000F6E7594B594AC3F88022594AC3F88022C8
:10477000584AC3F80422584AC3F8042203F51274B5
:10478000D4F808C0CDF848C0E76813972669149696
:1047900065691595A0690E90E1690F91226A1092E2
:1047A000636A1193CDF868C01B971C961D951690EF
:1047B00017911892199316AA1AA92046FEF74CFED3
:1047C0002046FEF739FE283CD4F808C0CDF828C0B2
:1047D000E7680B9726690C9665690D95A0690690A8
:1047E000E1690791226A0892636A0993CDF888C04B
:1047F0002397249625951E901F91209221931EAAFF
:1048000022A92046FEF728FE2046FEF715FEA4F159
:104810001802134653F8080B984203D091680131EF
:1048200017F0D0FC284B2D4AC3F8042203F5A270E0
:10483000FFF7EEFAFFF7AFBB9C3400206035002095
:1048400024DC01089C040020E07A0020A8E901088B
:10485000487A00206CEC010834040020C4EB010805
:104860004878002070EB01080804002070E9010876
:104870006C36002054EB0108A403002018EC01085A
:10488000207A0020A8EB0108787900208CEB010841
:10489000847800201CED010840DC0108B4360020BB
:1048A00050E701085CDB010894E7010868E50108AE
:1048B000F8720020F0720020EC720020E8720020F4
:1048C0009C690020CC720020B4660020C8DB01087F
:1048D000A0DB0108B4E801084CE80108F0DB01089E
:1048E000F0B5A1B005460746574B47F8B43BD0F8A2
:1048F000B4407E6800E04834A6421BD0206B04F12F
:104900003803984203D0A16B013117F05BFCA0691A
:1049100004F12003984203D0216A013117F052FCC0
:10492000234653F8080B9842E5D0A168013117F0EF
:1049300049FCE0E7D5F8B400B968091A08B117F0E6
:1049400041FC05F16C04D5F89C0005F1A4039842E4
:1049500004D0D5F8A410013117F034FCA06904F19B
:104960002003984203D0216A013117F02BFCE86E36
:1049700004F10803984203D0A168013117F022FC2A
:104980002C46324B44F8443BD4F808E0CDF830E0F4
:10499000D4F80CC0CDF834C027690E9766690F961D
:1049A000A0690890E1690991226A0A92636A0B93EF
:1049B000CDF850E0CDF854C016971796109011918D
:1049C0001292139310AA14A92046FEF745FD204623
:1049D000FEF732FD05F11C04D5F824E0CDF810E017
:1049E000D5F828C0CDF814C0EF6A06972E6B07964D
:1049F000686B0090A96B0191EA6B02922B6C039398
:104A0000CDF870E0CDF874C01E971F9618901991DC
:104A10001A921B9318AA1CA92046FEF71DFD2046DA
:104A2000FEF70AFD686805F10C03984203D0E968B7
:104A3000013117F0C7FB064B2B60C021284617F049
:104A4000C1FB284621B0F0BD80E801084CE8010810
:104A5000F0DB010808B54FF6FF710120FFF78EFA71
:104A600008BD08B54FF6FF710020FFF787FA08BDB3
:104A7000024A0260024A0260704700BF40DC01083F
:104A800024DC010838B504460023C362806800F5C1
:104A9000804393F82C31003B18BF012384F8303059
:104AA00000F5805393F85E1000F5825005F00AF986
:104AB00084F82700A56805F5834008300CF097FBC3
:104AC00005F58045B5F892319842B4BF0020012029
:104AD00084F8280058B1A36803F5405393F8853D46
:104AE00023B994F8272012B1184600E0002084F87A
:104AF000290040B1012384F82430022384F82530B2
:104B0000032384F8263038BD10B50446044B0360F7
:104B1000044B0360342117F055FB204610BD00BF45
:104B200040DC010824DC01082DE9F04F8BB004467D
:104B3000039108921E46856805F54A5790F824307F
:104B4000002B71D1894694F82520002A6FD1DDF819
:104B50000CA0002B6ED105F5715B0BF1340BDBF86B
:104B60000030DB6958469847014694F824303246B5
:104B70002846FCF7ABFF0190DBF800305B69584634
:104B80009847014694F8243032462846FCF79EFFA9
:104B90000290B9F1050F52D0DBF800301B6A58467D
:104BA0009847069094F82530002B58D0A36803F559
:104BB0007F5808F13408D8F80030DB694046984740
:104BC000014694F8253032462846FCF77FFF83469D
:104BD000D8F800305B6940469847014694F8253084
:104BE00032462846FCF772FF0490BAF1050F3CD01C
:104BF000D8F800301B6A40469847079005F5805367
:104C000093F86B3003F00103099394F82430002BE0
:104C10003BD194F828300593002B40D094F82730EE
:104C2000ABB30023059332E0DDF820908BE74FF023
:104C3000000A8EE705F5775B0BF13C0B8FE794F8E4
:104C40002430012B05D005F58053B3F86230029370
:104C5000A2E705F58053B3F8683002939CE7A36898
:104C600003F5715808F13408A5E794F82530012BB5
:104C700005D005F58053B3F862300293B8E705F527
:104C80008053B3F868300293B2E700230593B9F17B
:104C9000000F09D0B9F1080F04D0012305E000236B
:104CA0000593F4E7002300E00023019A0299A2EBA8
:104CB00001080FFA88F801224146384600F052FDFB
:104CC00001220699384601F01BF8B9F1010F1BD0FB
:104CD000059B13B9B9F1000F01D1B3B20193B9F13A
:104CE000070F17D04FF47F0301220199384600F0D7
:104CF000E5FD94F82530A3B994F828207AB394F808
:104D0000271079B100220DE042460121384601F01A
:104D1000EDF9E4E70123099A0199384600F04AFECB
:104D2000E7E70022022B75D0BAF1010F19D012B9B2
:104D3000BAF1000F01D11FFA86FBBAF1070F19D0A3
:104D40004FF47F0300225946384600F0B7FDBAF110
:104D5000000F18D0BAF1080F13D0012314E000227D
:104D6000E0E7049BABEB030212B20021384601F0EE
:104D7000BDF9E2E70023099A5946384600F01AFEC9
:104D8000E5E7002300E00023049AABEB02010022D8
:104D900009B2384600F0E6FC00220799384600F0D8
:104DA000AFFF94F82630032B00F08F80A26802F545
:104DB000715808F13408012B00F08D80022B00F0AF
:104DC0009180D8F800309B684046984780F00100F9
:104DD000C0B294F82630022B00F09680002800F034
:104DE000A380D8F80030DB6940469847014694F824
:104DF000263032462846FCF769FE014694F82630F4
:104E0000039A073A18BF0122384602F069FF0BB037
:104E1000BDE8F08FD4F8088008F57F50343004F0F6
:104E20008BF808F58048B8F86631984231D294F88A
:104E3000303023BB1FFA86FB94F8303043B1A368AF
:104E400003F5804393F82C31013BDBB2012B35D8BD
:104E50004FF47F0300225946384600F02FFD049B93
:104E6000ABEB030194F83030002209B2384600F071
:104E700079FC00220799384600F042FF91E7384656
:104E800000F0BAFF002184F83010384601F070F8C5
:104E9000D0E7012384F83030A36803F5804393F80A
:104EA0002C31013BDBB2012BC6D8049BABEB0302D8
:104EB00012B20021384601F019F9BDE70023099A22
:104EC0005946384600F076FDC9E7002211463846BB
:104ED00002F006FF9BE702F5775808F13C08089BB3
:104EE00003936EE702F57F5808F1340802F540524B
:104EF000D2F8F43FDB684046984710B10323039390
:104F00005FE7072303935CE7D4F8089009F57F5027
:104F1000343004F011F809F58049B9F86631984247
:104F200034BF0020012059E794F8263000221146B2
:104F3000384602F0D5FE6AE7F8B5856890F8253066
:104F4000022B00D0F8BD044605F57F5634363046B6
:104F500003F0F2FF05F58043B3F866319842F1D3D0
:104F60000DF0A6FFE36A9842ECD305F5804393F871
:104F70000531002BE6D005F54055D5F8F43FDB6947
:104F8000304698470746D5F8F43F5B693046984766
:104F9000A368391A09B203F54A5000F0F7FE0DF084
:104FA00087FF6430E062CDE708B590F824300BB994
:104FB000632900D908BD8068C9B200F54A5001F0E4
:104FC00055F8F7E72DE9F04F87B0044605921D46E6
:104FD000BDF84060876807F5805393F86B30424A0C
:104FE000B2F80080414AB2F80090414AB2F800B0ED
:104FF000404AB2F800A013F0010F2DD007F58057FA
:1050000097F96B30002B40DB0127002D55D1A6B15D
:10501000A06800F57E503C3031B2059B022B5CD07D
:105020000FFA88F2059B022B5AD00FFA89F300255C
:1050300002950197009703F037FAA06800F57E50BB
:10504000043003F0BCF9A06800F57E503C3003F05A
:10505000B6F907B0BDE8F08F0FFA88F00CF07EFDCE
:105060001FFA80F80FFA89F00CF078FD1FFA80F92A
:105070000FFA8BF00CF072FD1FFA80FB0FFA8AF02A
:105080000CF06CFD1FFA80FAB8E71B4A82FB053270
:10509000EB17C3EB620303EB8303EB1A9BB2ED1A2E
:1050A0002DB2164BA3FB06239B0803EB8303F31AD5
:1050B0009BB2F61AB6B20527A7E7A06800230293B1
:1050C000019700970FFA89F30FFA88F2294600F545
:1050D0007E50043003F0E8F999E70FFA8BF2A1E76C
:1050E0000FFA8AF3A3E700BF06ED010804ED0108FB
:1050F00000ED0108FEEC010867666666CDCCCCCCFD
:105100002DE9F0478EB004461546876807F54A56E4
:105110008846002955D14FF0000A002D59D14FF093
:105120000009CDF800900FFA8AF394F8252094F83E
:1051300024102046FFF746FFB8F1000F51D1002D93
:1051400000F0DE8094F82520022A00F09B8039468A
:1051500008A8FDF725F894F8251007F585501030BC
:10516000FCF7C5FB0246002308A9304600F04CFCC2
:1051700008980AAB984203D00A99013117F022F837
:10518000304600F057FE94F824303BB994F82830AC
:1051900023B194F82730002B00F0A48094F831302C
:1051A000002B00F09F80072B00F09C80052B00F067
:1051B000AB80032B40F09A800021304600F0F8FECF
:1051C00094E090F8241007F58250FCF72FFA8246FD
:1051D000A3E794F8251007F58250FCF727FA8146DB
:1051E0009FE794F82420394602A8FCF7D9FF94F8E9
:1051F000241007F585501030FCF779FB0246012397
:1052000002A9304600F000FC029804AB984203D09B
:105210000499013116F0D6FF01225146304602F0C2
:1052200049FD01220021304600F014FE94F824309C
:105230003BB994F82820B2B194F8271011B100229C
:1052400000E000228BB994F831308AB983B1072B82
:105250000ED0052B11D0032B7FF471AF0121304606
:1052600000F0A6FE6BE70022ECE794F83230ECE7A2
:105270000121304600F07CFE61E70121304600F05C
:10528000D7FE5CE7A06804F0CFF807B2A06800F58D
:10529000805393F86B8008F0010800F57F5034309C
:1052A00003F079FE01460022304600F01DFC424624
:1052B0003946304600F096FC304600F09DFDA3686C
:1052C00003F5804393F82C31013BDBB2012B04D969
:1052D0000021304600F04CFE08E00021304600F08E
:1052E00057FE03E00021304600F042FE002249460E
:1052F000304602F0DFFC002384F83030E362A84639
:1053000040460EB0BDE8F0870121304600F090FE27
:10531000ECE710B5012380F8263090F828305BB117
:10532000826802F5405292F8852D22B990F8274004
:1053300014B1134600E0002380F82930012915D06C
:10534000022918D00223002190F824C090F82520CB
:1053500080F8241080F82530D21A18BF0122BCEB47
:10536000010118BF0121FFF7CBFE10BD022380F819
:1053700026300023E8E72BB1032380F826300B46C4
:105380000121E1E70023F8E708B590F82430012B6C
:1053900013D090F8293043B9836803F5804393F81C
:1053A0002C31013BDBB2012B03D80221FFF7B1FF07
:1053B00008BD0121FFF7ADFFFAE70020F8E708B5C7
:1053C00090F82430012B01D0002008BD90F8253042
:1053D000022B09D0836803F5804393F82C314BB13D
:1053E0000021FFF796FFF0E790F82930002BF7D067
:1053F0000020EAE70020E8E708B590F82530022B06
:105400000AD090F829301BB10221FFF782FF04E097
:105410000021FFF77EFF00E0002008BD08B590F8EE
:105420002530022B01D0002008BD826802F54053D0
:1054300093F8B43DDBB2022B08D002F5405292F84B
:10544000B43DDBB2012B01D00020EDE70121FFF7D5
:1054500060FF0120E8E708B5836803F5804393F80F
:105460002C31013BDBB2012B03D90121FFF751FFA6
:1054700008BD0021FFF74DFFFAE708B590F824308A
:1054800053B190F825305BB190F8263063B903230F
:1054900080F82630002002E00221FFF73AFF08BD25
:1054A0000221FFF736FFFAE70020F8E790F82430F2
:1054B0008B4205D090F825308B4203D003207047F3
:1054C000012070470020704738B505460C46002182
:1054D000FFF7ECFF0246A868214600F54A5000F0AD
:1054E000B9FC38BD70B506461446FFF7DFFF032848
:1054F00023D00546B66806F54A56621E072A27D805
:10550000DFE802F004090E13171C2621014630467D
:1055100000F03EFD11E00146304600F069FD0CE070
:105520000146304600F044FD07E00146304600F0F9
:105530008DFD2946304600F07BFD70BD01463046AA
:1055400000F066FDF9E70146304600F041FDF4E762
:105550000146304600F00CFDEFE738B5054614462D
:10556000FFF7A4FF032806D00246A868214600F5ED
:105570004A5002F09FFB38BD38B590F82530022B19
:1055800000D038BD0C46856805F57F50343003F0F7
:1055900002FD0146224605F54A5000F0A5FAF0E763
:1055A00070B50646194B036000F6C81015F09AFE58
:1055B00006F6C41014F01EFD06F51C6014F01AFD6A
:1055C00006F6BC1014F016FD06F6B81014F012FD25
:1055D00006F6B41014F00EFD16F168050FD006F6AD
:1055E000981403E0E168013116F0ECFDA54206D005
:1055F0001C3C606804F10C039842F3D1F6E7044BBD
:105600003360044B3360304670BD00BF68E501086D
:10561000C8DB0108A0DB010870B506461B4B036020
:1056200000F6C81015F05EFE06F6C41014F0E2FC99
:1056300006F51C6014F0DEFC06F6BC1014F0DAFC73
:1056400006F6B81014F0D6FC06F6B41014F0D2FC2E
:1056500016F168050FD006F6981403E0E1680131F1
:1056600016F0B0FDA54206D01C3C606804F10C03A6
:105670009842F3D1F6E7064B3360064B336040F6B1
:10568000F411304616F09EFD304670BD68E5010805
:10569000C8DB0108A0DB01080288124B1B68596BAC
:1056A0008A4204D8596B8A420ED300207047596B46
:1056B000521A042A04D95A6B04325A6301207047E3
:1056C0005A6B01325A63F9E7596B8A1A042A04D9D2
:1056D0005A6B043A5A63012070475A6B013A5A6375
:1056E000F9E700BF9490002070B582B00446F9B18C
:1056F000C4F8A019261DD4F8A019304616F0D7F921
:10570000304616F0C3FA85B20D49304616F052FA0B
:10571000811C2A4689B201A814F038FC01A904F6BC
:10572000B81014F050FC01A814F064FC02B070BD75
:10573000D0F8F039C0F8A039002380F86430D9E7F8
:1057400054DC010808B5064B1B6800225A63FF238E
:1057500080F8CC39B0F8A40914F0BEFE08BD00BF33
:10576000949000202DE9F04F85B00291012A7CD859
:1057700004461F467CD0B0F8CE59D4F8B839002B77
:1057800079D01E8806F1140A1FFA8AFAD4F8B439BF
:10579000002B72D05B88DBB2039306F117081FFA67
:1057A00088F8B4F8A63903222946404614F0B9FF18
:1057B000BDF80C90B4F8A6394A462946504614F074
:1057C0003EFF06F11A00B4F8A6394A46294680B2CF
:1057D00014F035FF05EB090A1FFA8AFA0AF1050BE6
:1057E0001FFA8BFBB4F8A63908225946404614F03C
:1057F00098FF002F43D0B4F8A839072259464046F5
:1058000014F0E0FF06F1110005F10901B4F8A63922
:10581000009303231A4689B280B214F023FE153692
:10582000B6B2B4F8A43900934B4605222946304657
:1058300014F018FE0A226FF0630102980CF044F98C
:10584000034600B2002820DD9BB2E91A89B20A3172
:1058500089B24B449BB20A3B9BB29FB1B4F8A829D2
:1058600000920522304614F0FDFD05B0BDE8F08F32
:10587000B0F8DE5981E7002684E700238BE7B4F80F
:10588000A439BAE7B4F8A429EAE7039B0A3B0093DA
:10589000012300226FF063010CF01FF9C3B2AAEBE1
:1058A000030189B23FB1B4F8A8290092052230461D
:1058B00014F0D8FDD9E7B4F8A429F6E7012A75D881
:1058C0002DE9F04186B0054617461E46B1F57A7FB0
:1058D00001D340F2E7310A46354904A817F084FBAA
:1058E0002C1DD5F8E819204616F0E1F802212046D3
:1058F00016F0EEF805F6B41014F08DFBD5F8B439B7
:10590000591D002B37D01A880023029301930123DD
:10591000009304AB204616F05DF914F0D7FC044662
:10592000D5F8B4394BB31888241AA4B2143CA4B2E5
:1059300014F0CCFC804614F0CFFC80451FD8012F1A
:105940002BD0B5F8CE19B5F8A479B6F5803F27D39A
:10595000B5F8A669D5F8B40920B3028820B3438806
:1059600005300396029701920090204615F06EF8DC
:1059700006B0BDE8F0810022C6E70020D4E714F0AD
:10598000A5FCD5F8B43933B11C88041BC4F34F040B
:105990003234A4B2D3E70024F7E7B5F8DE19D2E732
:1059A000B6B2D7E70022D9E70023D9E7704700BF96
:1059B00058DC01082DE9F04182B005460C461E4630
:1059C0001346E2B12827E3B14FF05A084246394660
:1059D00020460CF079F800230093552342463946BF
:1059E00080B20CF07AF8C0B214F0D6FC034632460E
:1059F00021462846FFF762FF02B0BDE8F08150273C
:105A0000E1E74FF0B408E1E7012B00D970472DE939
:105A1000F04F85B004460F4616461D4600F10409B6
:105A2000D0F8A019484616F042F8484616F02EF96C
:105A30001FFA80F83968484616F0BCF88246012DF6
:105A40002CD10021B4F8A43900934346B4F8D829E6
:105A5000002014F007FDB4F8D809504524D9A0EB74
:105A60000A00C0F34F0B012D21D14246B4F8A639EC
:105A700000933B685946484616F080F8DEB114F0B2
:105A800025FCA0F11402B4F8A63992B2B4F8E219D8
:105A90000A2014F0CBFD05B0BDE8F08F14F01CFC1B
:105AA000A0EB080189B2CDE74FF0000BDBE714F063
:105AB00013FC0246DAE70BEB0A0080B20A30A8F1C9
:105AC0000E01B4F8A439B4F8A62903920293102267
:105AD0000192044B00930E2389B280B214F0B6FFFA
