:020000040800F2
:100000000000022029340108211F0108231F0108D4
:10001000251F0108271F0108291F010800000000F3
:100020000000000000000000000000002B1F01087D
:100030002D1F0108000000002F1F0108311F0108BB
:1000400079340108793401087934010879340108D8
:1000500079340108793401087934010879340108C8
:1000600079340108793401087934010879340108B8
:1000700079340108793401087934010879340108A8
:100080007934010879340108793401087934010898
:100090007934010879340108793401087934010888
:1000A000793401087934010879340108391F0108CD
:1000B0007934010879340108793401087934010868
:1000C0007934010879340108793401087934010858
:1000D0007934010879340108793401087934010848
:1000E0007934010879340108793401087934010838
:1000F0007934010879340108793401087934010828
:100100007934010879340108491F0108793401085C
:100110007934010879340108793401087934010807
:10012000591F010879340108691F0108791F010866
:10013000891F010800000000000000007934010858
:1001400079340108793401087934010879340108D7
:1001500079340108793401087934010879340108C7
:1001600079340108793401087934010879340108B7
:10017000793401087934010879340108000000005D
:1001800000000000793401080000000000000000B9
:1001900079340108000000000000000079340108F3
:1001A0000000000000000000000000007934010899
:1001B0007934010879340108793401087934010867
:0401C0007934010885
:1001D00010B5054C237833B9044B13B10448AFF381
:1001E00000800123237010BD880300200000000060
:1001F0005CDD010808B5034B1BB103490348AFF3AD
:10020000008008BD000000008C0300205CDD0108B8
:1002100001F0FF01102A2BDB10F0070F08D010F8B7
:10022000013B013A8B422DD010F0070F42B3F6D1BB
:10023000F0B441EA012141EA014122F007047FF0D4
:1002400000070023F0E80256083C85EA010586EA2B
:10025000010685FA47F5A3FA87F586FA47F6A5FA67
:1002600087F68EB9EED1F0BC01F0FF0102F0070273
:1002700032B110F8013B013A83EA010313B1F8D11E
:100280000020704701387047002D06BF35460338FF
:10029000073815F0010F07D1013015F4807F02BF38
:1002A000013015F4C03F0130F0BC0138704700BF89
:1002B00010F8012B11F8013B012A28BF9A42F7D010
:1002C000D01A7047034613F8012B002AFBD1181AE5
:1002D0000138704781F0004102E000BF83F0004325
:1002E00030B54FEA41044FEA430594EA050F08BFD1
:1002F00090EA020F1FBF54EA000C55EA020C7FEA95
:10030000645C7FEA655C00F0E2804FEA5454D4EB11
:100310005555B8BF6D420CDD2C4480EA020281EADB
:10032000030382EA000083EA010180EA020281EA13
:100330000303362D88BF30BD11F0004F4FEA013165
:100340004FF4801C4CEA113102D0404261EB410174
:1003500013F0004F4FEA03334CEA133302D05242FA
:1003600063EB430394EA050F00F0A780A4F10104B6
:10037000D5F1200E0DDB02FA0EFC22FA05F28018F0
:1003800041F1000103FA0EF2801843FA05F35941D6
:100390000EE0A5F120050EF1200E012A03FA0EFC55
:1003A00028BF4CF0020C43FA05F3C01851EBE3717F
:1003B00001F0004507D54FF0000EDCF1000C7EEB9C
:1003C00000006EEB0101B1F5801F1BD3B1F5001FDA
:1003D0000CD349085FEA30004FEA3C0C04F10104F9
:1003E0004FEA445212F5800F80F09A80BCF1004F22
:1003F00008BF5FEA500C50F1000041EB045141EAA4
:10040000050130BD5FEA4C0C404141EB0101013C6C
:1004100028BFB1F5801FE9D291F0000F04BF01465B
:100420000020B1FA81F308BF2033A3F10B03B3F12D
:1004300020020CDA0C3208DD02F1140CC2F10C02BD
:1004400001FA0CF021FA02F10CE002F11402D8BF1B
:10045000C2F1200C01FA02F120FA0CFCDCBF41EAE7
:100460000C019040E41AA2BF01EB0451294330BDB6
:100470006FEA04041F3C1CDA0C340EDC04F1140493
:10048000C4F1200220FA04F001FA02F340EA03006A
:1004900021FA04F345EA030130BDC4F10C04C4F1B0
:1004A000200220FA02F001FA04F340EA0300294690
:1004B00030BD21FA04F0294630BD94F0000F83F4DA
:1004C000801306BF81F480110134013D4EE77FEABD
:1004D000645C18BF7FEA655C29D094EA050F08BF09
:1004E00090EA020F05D054EA000C04BF19461046EA
:1004F00030BD91EA030F1EBF0021002030BD5FEA2E
:10050000545C05D14000494128BF41F0004130BD55
:1005100014F580043CBF01F5801130BD01F00045A9
:1005200045F0FE4141F470014FF0000030BD7FEA1C
:10053000645C1ABF194610467FEA655C1CBF0B4617
:10054000024650EA013406BF52EA033591EA030F2E
:1005500041F4002130BD00BF90F0000F04BF002126
:10056000704730B54FF4806404F132044FF0000559
:100570004FF0000150E700BF90F0000F04BF0021D2
:10058000704730B54FF4806404F1320410F0004538
:1005900048BF40424FF000013EE700BF42004FEA33
:1005A000E2014FEA31014FEA02701FBF12F07F43B0
:1005B00093F07F4F81F06051704732F07F4208BF67
:1005C000704793F07F4F04BF41F40021704730B56E
:1005D0004FF4607401F0004521F000411CE700BFBA
:1005E00050EA010208BF704730B54FF000050AE03D
:1005F00050EA010208BF704730B511F0004502D53E
:10060000404261EB41014FF4806404F132045FEA3F
:10061000915C3FF4D8AE4FF003025FEADC0C18BFE8
:1006200003325FEADC0C18BF033202EBDC02C2F1DA
:10063000200300FA03FC20FA02F001FA03FE40EA6C
:100640000E0021FA02F11444BDE600BF70B54FF070
:10065000FF0C4CF4E06C1CEA11541DBF1CEA13554E
:1006600094EA0C0F95EA0C0F00F0DEF82C4481EAB6
:10067000030621EA4C5123EA4C5350EA013518BFD6
:1006800052EA033541F4801143F4801338D0A0FBC3
:1006900002CE4FF00005E1FB02E506F00042E0FB70
:1006A00003E54FF00006E1FB03569CF0000F18BF76
:1006B0004EF0010EA4F1FF04B6F5007F64F540741E
:1006C00004D25FEA4E0E6D4146EB060642EAC621B1
:1006D00041EA55514FEAC52040EA5E504FEACE2E1E
:1006E000B4F1FD0C88BFBCF5E06F1ED8BEF1004F21
:1006F00008BF5FEA500E50F1000041EB045170BD9D
:1007000006F0004646EA010140EA020081EA0301E0
:10071000B4EB5C04C2BFD4EB0C0541EA045170BDDC
:1007200041F480114FF0000E013C00F3AB8014F156
:10073000360FDEBF002001F0004170BDC4F100049F
:10074000203C35DA0C341BDC04F11404C4F1200520
:1007500000FA05F320FA04F001FA05F240EA02007B
:1007600001F0004221F0004110EBD37021FA04F6B1
:1007700042EB06015EEA430E08BF20EAD37070BD6B
:10078000C4F10C04C4F1200500FA04F320FA05F0CA
:1007900001FA04F240EA020001F0004110EBD370CC
:1007A00041F100015EEA430E08BF20EAD37070BD3C
:1007B000C4F1200500FA05F24EEA020E20FA04F315
:1007C00001FA05F243EA020321FA04F001F00041C4
:1007D00021FA04F220EA020000EBD3705EEA430E35
:1007E00008BF20EAD37070BD94F0000F0FD101F064
:1007F0000046400041EB010111F4801F08BF013C9D
:10080000F7D041EA060195F0000F18BF704703F0DA
:100810000046520043EB030313F4801F08BF013D61
:10082000F7D043EA0603704794EA0C0F0CEA13551D
:1008300018BF95EA0C0F0CD050EA410618BF52EAD7
:100840004306D1D181EA030101F000414FF00000DD
:1008500070BD50EA410606BF1046194652EA4306EB
:1008600019D094EA0C0F02D150EA013613D195EA5F
:100870000C0F05D152EA03361CBF104619460AD1A7
:1008800081EA030101F0004141F0FE4141F47001B1
:100890004FF0000070BD41F0FE4141F4780170BDA1
:1008A00070B54FF0FF0C4CF4E06C1CEA11541DBF06
:1008B0001CEA135594EA0C0F95EA0C0F00F0A7F808
:1008C000A4EB050481EA030E52EA03354FEA013135
:1008D00000F088804FEA03334FF0805545EA131348
:1008E00043EA12634FEA022245EA111545EA106510
:1008F0004FEA00260EF000419D4208BF964244F1A7
:10090000FD0404F5407402D25B084FEA3202B61AC5
:1009100065EB03055B084FEA32024FF480104FF499
:10092000002CB6EB020E75EB030E22BFB61A75460D
:1009300040EA0C005B084FEA3202B6EB020E75EBA0
:10094000030E22BFB61A754640EA5C005B084FEA08
:100950003202B6EB020E75EB030E22BFB61A7546D5
:1009600040EA9C005B084FEA3202B6EB020E75EBE0
:10097000030E22BFB61A754640EADC0055EA060EA1
:1009800018D04FEA051545EA16754FEA06164FEAE4
:10099000C30343EA52734FEAC2025FEA1C1CC0D190
:1009A00011F4801F0BD141EA00014FF000004FF01D
:1009B000004CB6E711F4801F04BF01430020B4F1DE
:1009C000FD0C88BFBCF5E06F3FF6AFAEB5EB030C96
:1009D00004BFB6EB020C5FEA500C50F1000041EB93
:1009E000045170BD0EF0004E4EEA113114EB5C0460
:1009F000C2BFD4EB0C0541EA045170BD41F4801133
:100A00004FF0000E013C90E645EA060E8DE60CEA3A
:100A1000135594EA0C0F08BF95EA0C0F3FF43BAF57
:100A200094EA0C0F0AD150EA01347FF434AF95EA0E
:100A30000C0F7FF425AF104619462CE795EA0C0FF2
:100A400006D152EA03353FF4FDAE1046194622E7BF
:100A500050EA410618BF52EA43067FF4C5AE50EA99
:100A600041047FF40DAF52EA43057FF4EBAE12E789
:100A70004FF0FF3C06E000BF4FF0010C02E000BF6A
:100A80004FF0010C4DF804CD4FEA410C7FEA6C5C4D
:100A90004FEA430C18BF7FEA6C5C1BD001B050EAF0
:100AA000410C0CBF52EA430C91EA030F02BF90EADB
:100AB000020F0020704710F1000F91EA030F58BF9A
:100AC000994208BF90422CBFD8176FEAE37040F0FC
:100AD000010070474FEA410C7FEA6C5C02D150EA9A
:100AE000013C07D14FEA430C7FEA6C5CD6D152EA55
:100AF000033CD3D05DF8040B704700BF844610461A
:100B000062468C461946634600E000BF01B5FFF718
:100B1000B7FF002848BF10F1000F01BD4DF808EDE8
:100B2000FFF7F4FF0CBF012000205DF808FB00BFB9
:100B30004DF808EDFFF7EAFF34BF012000205DF813
:100B400008FB00BF4DF808EDFFF7E0FF94BF012060
:100B500000205DF808FB00BF4DF808EDFFF7CEFF61
:100B600094BF012000205DF808FB00BF4DF808EDA0
:100B7000FFF7C4FF34BF012000205DF808FB00BF71
:100B80004FEA410C7FEA6C5C02D150EA013C0AD189
:100B90004FEA430C7FEA6C5C02D152EA033C02D17B
:100BA0004FF0000070474FF0010070474FEA4102DC
:100BB00012F5001215D211D56FF47873B3EB6252AF
:100BC00012D94FEAC12343F0004343EA505311F0D6
:100BD000004F23FA02F018BF404270474FF0000068
:100BE000704750EA013005D111F0004008BF6FF0A6
:100BF000004070474FF00000704700BF4A0011D21C
:100C000012F5001211D20DD56FF47873B3EB625266
:100C10000ED44FEAC12343F0004343EA505323FA72
:100C200002F070474FF00000704750EA013002D1E7
:100C30004FF0FF3070474FF0000070474FEA41021D
:100C4000B2F1E04324BFB3F5001CDCF1FE5C0DD92A
:100C500001F0004C4FEAC0024CEA5070B2F1004F74
:100C600040EB830008BF20F00100704711F0804F77
:100C700021D113F13872BCBF01F00040704741F43C
:100C800080114FEA5252C2F11802C2F1200C10FA40
:100C90000CF320FA02F018BF40F001004FEAC12324
:100CA0004FEAD32303FA0CFC40EA0C0023FA02F3C8
:100CB0004FEA4303CCE77FEA625307D150EA01339E
:100CC0001EBF4FF0FE4040F44000704701F000406E
:100CD00040F0FE4040F40000704700BF53B94AB9ED
:100CE000002908BF00281CBF4FF0FF314FF0FF3034
:100CF00000F074B9ADF1080C6DE904CE00F006F80F
:100D0000DDF804E0DDE9022304B070472DE9F04787
:100D1000089D04468E46002B4DD18A42944669D9DF
:100D2000B2FA82F252B101FA02F3C2F1200120FAC2
:100D300001F10CFA02FC41EA030E94404FEA1C4810
:100D4000210CBEFBF8F61FFA8CF708FB16E341EA0C
:100D5000034306FB07F199420AD91CEB030306F192
:100D6000FF3080F01F81994240F21C81023E6344B3
:100D70005B1AA4B2B3FBF8F008FB103344EA034457
:100D800000FB07F7A7420AD91CEB040400F1FF336C
:100D900080F00A81A74240F207816444023840EAA9
:100DA0000640E41B00261DB1D4400023C5E90043E2
:100DB0003146BDE8F0878B4209D9002D00F0EF8065
:100DC0000026C5E9000130463146BDE8F087B3FA98
:100DD00083F6002E4AD18B4202D3824200F2F98080
:100DE000841A61EB030301209E46002DE0D0C5E983
:100DF000004EDDE702B9FFDEB2FA82F2002A40F0CF
:100E00009280A1EB0C014FEA1C471FFA8CFE0126D1
:100E1000200CB1FBF7F307FB131140EA01410EFB75
:100E200003F0884208D91CEB010103F1FF3802D21C
:100E3000884200F2CB804346091AA4B2B1FBF7F016
:100E400007FB101144EA01440EFB00FEA64508D939
:100E50001CEB040400F1FF3102D2A64500F2BB8076
:100E60000846A4EB0E0440EA03409CE7C6F12007C5
:100E7000B34022FA07FC4CEA030C20FA07F401FA0B
:100E800006F31C43F9404FEA1C4900FA06F3B1FB94
:100E9000F9F8200C1FFA8CFE09FB181140EA0141F9
:100EA00008FB0EF0884202FA06F20BD91CEB010196
:100EB00008F1FF3A80F08880884240F28580A8F1EE
:100EC00002086144091AA4B2B1FBF9F009FB101140
:100ED00044EA014100FB0EFE8E4508D91CEB0101DE
:100EE00000F1FF346CD28E456AD90238614440EA81
:100EF0000840A0FB0294A1EB0E01A142C846A64601
:100F000056D353D05DB1B3EB080261EB0E0101FA89
:100F100007F722FA06F3F1401F43C5E900710026E6
:100F20003146BDE8F087C2F12003D8400CFA02FC3C
:100F300021FA03F3914001434FEA1C471FFA8CFE4C
:100F4000B3FBF7F007FB10360B0C43EA064300FB3C
:100F50000EF69E4204FA02F408D91CEB030300F1DA
:100F6000FF382FD29E422DD9023863449B1B89B291
:100F7000B3FBF7F607FB163341EA034106FB0EF31A
:100F80008B4208D91CEB010106F1FF3816D28B42C7
:100F900014D9023E6144C91A46EA004638E72E4693
:100FA000284605E70646E3E61846F8E64B45A9D28B
:100FB000B9EB020864EB0C0E0138A3E74646EAE7FA
:100FC000204694E74046D1E7D0467BE7023B6144A8
:100FD00032E7304609E76444023842E7704700BF11
:100FE00001230370024B1B6800225A63704700BF45
:100FF000F090002010B5064C2368481ED8624908BE
:101000005963104612F08CFA236800225A6310BD0F
:10101000F090002038B5037803B938BD0446084D78
:101020000021284614F0E6FFA0224FF48E712046DE
:10103000FFF7E0FF0021284615F05EF8EDE700BF5E
:10104000F090002038B5037803B938BD04460C4D44
:101050000021284614F0CEFFA0224FF48E712046C6
:10106000FFF7C8FF642012F05BFAA0224FF48E71E4
:101070002046FFF7BFFF0021284615F03DF8E4E7C2
:10108000F090002038B5037803B938BD0446084D08
:101090000021284614F0AEFFA02240F61831204669
:1010A000FFF7A8FF0021284615F026F8EDE700BF5E
:1010B000F090002038B5037803B938BD0446114DCF
:1010C0000021284614F096FFA0224FF48E7120468E
:1010D000FFF790FF322012F023FA3C2240F618313D
:1010E0002046FFF787FF322012F01AFAA02240F2C2
:1010F0008C512046FFF77EFF0021284614F0FCFFAC
:10110000DBE700BFF090002019B1012906D00020D4
:10111000704700F5805090F86200704700F58050ED
:1011200090F86400704708B582B90A6800F58053EA
:10113000A3F846204A68A3F848208A68A3F84A2002
:1011400000F58251043107F085FD08BD022A0BD05D
:101150000A6800F58053A3F84C204A68A3F84E2093
:101160008A68A3F85020EBE70A6800F58053A3F8DB
:1011700052204A68A3F854208A68A3F85620DFE773
:1011800000F58053D3F8E430CBB370B584B0044697
:101190000D464E0013F81120FF2A1ED00123694688
:1011A00007F0BAFB48BB9DF8083083F001038DF8C7
:1011B000083001226946204607F02EFE04F58054CF
:1011C000D4F8E43003F81500D4F8E43033449DF843
:1011D00008205A70012004B070BD00F58250043020
:1011E00008F0CAFE014640B105220DF109001CF0CD
:1011F0006BFA01238DF80830DBE70020EBE70020D5
:1012000070472DE9F8430C4611B92046BDE8F88334
:10121000814600F582570437384608F0A1FEA04207
:101220008CBF002601262146384608F09BFE00B1FF
:101230000326384608F094FE451EEDB2012E1DD05F
:10124000032E25D0012609F58053D3F8E430002B76
:1012500052D03746A8462A463146204610F0EBFECB
:10126000C4B209F58059D9F8E420204602EB4403C2
:101270005B7813F0010FC8D1234619E0384608F017
:101280006FFE0646384608F069FE8519EDB2DAE7CA
:10129000384608F065FE0646384608F05FFE06440C
:1012A000F6B2384608F058FE0546CCE7013BDBB203
:1012B0009E4205D802EB4301497811F0010FF5D0A9
:1012C000A54208D302EB4401497811F0010F02D185
:1012D0000134E4B2F4E7013FBB4207D0A5420DD090
:1012E000C21A201A824290DA1C468EE708F10108E1
:1012F00044458AD1344688E7344686E71C4684E76D
:101300002DE9F84F05460C46B1F802808F88CE884B
:10131000CB7D13F0010F43D0314BB3F800A0314B1C
:10132000B3F800B05A465146404610F084FE80465D
:101330001FFA80F95A465146384610F07CFE07469F
:101340001FFA80FA284B1A88284B1988304610F06B
:1013500072FE064680B2E37D13F0010F2FD0A4F891
:101360000290A4F804A0E080A37C1E2B01D91E23C8
:10137000A374A37D1E2B01D91E23A375A17A284631
:10138000FFF73FFF6081217B2846FFF73AFFA081EE
:10139000FF220A21207E10F04EFE2076BDE8F88F55
:1013A0000FFA88F010F094FE1FFA80F838B210F0AF
:1013B0008FFE87B230B210F08BFE86B2ACE70FFA28
:1013C00088F010F077FE1FFA80F938B210F072FE44
:1013D0001FFA80FA30B210F06DFE80B2BFE700BF96
:1013E000C2F30108C0F30108BAF30108BCF3010815
:1013F0002DE9F04385B006460F460024A04612E0D2
:101400000DF10901484608F0CDFD00B2002808DBC7
:101410009DF808302BB107EB400217F81030FF2B76
:101420001DD0013424B206F5825909F10409484659
:1014300008F092FD84420ADAE5B201232A466946A1
:10144000304607F069FA0028DAD00128E9D13046A1
:1014500007F03CF95FFA88F005B0BDE8F08307F8C3
:1014600010509DF80830537008F101081FFA88F8F1
:10147000D7E708B500F58053D3F8E41009B9002088
:1014800008BDFFF7B5FF0120FAE708B5C28AB0F83A
:1014900044309A424FD1028BB0F846309A424CD138
:1014A000428BB0F848309A4249D1828BB0F84A302A
:1014B0009A4246D1428CB0F850309A4243D190F8CB
:1014C000242090F852309A423FD1C28BB0F84C3071
:1014D0009A423CD1028CB0F84E309A4239D190F801
:1014E000262090F854309A4235D1028DB0F856300B
:1014F0009A4232D190F82A2090F858309A422ED150
:1015000090F82B2090F859309A422AD190F8252053
:1015100090F853309A4226D190F82C2090F85A3007
:101520009A4222D1142200F15C012E301CF0B8F84E
:10153000E8B9012000E0002008BD0020FCE7002001
:10154000FAE70020F8E70020F6E70020F4E70020A3
:10155000F2E70020F0E70020EEE70020ECE70020B3
:10156000EAE70020E8E70020E6E70020E4E70020C3
:10157000E2E7000038B50446EB23C3820383C823A7
:1015800043834FF496638383002380F8263043849B
:10159000052280F82420B422028580F82A30B32264
:1015A00080F82B2080F82530802380F82C3001250E
:1015B00080F82D50142205492E301CF085F8E58363
:1015C000204608F0CDFC208438BD00BFB0F30108F0
:1015D00040F6FC0343803223838040F2DF23C38044
:1015E00040F2C75303813B23438140F2FB138381C5
:1015F000C823C38140230382C3234382704710B5AD
:10160000044652B1022A0FD040F2A46303224FF4E1
:10161000FA710FF03DFB204610BDC8230A2240F2AC
:101620003F210FF035FBF6E73223402296210FF0E1
:101630002FFBF0E7022903D0012903D0C08A7047AD
:10164000408B7047008B704710B5044690F82E30E1
:1016500013B104F12E0010BD142202492E301CF0EB
:1016600033F8F6E7B0F301082DE9F84304460F46D6
:1016700015461E469DF820909DF8248090F82B304A
:1016800003F00103934210D0002A43D0B0F91600B2
:1016900010F01EFDE082B4F9180010F019FD20834F
:1016A000B4F91A0010F014FD608394F82B2002F0B6
:1016B0000C0284F82B201DB142F0010284F82B208B
:1016C0002FB194F82B3043F0020384F82B302EB165
:1016D00094F82B3063F07F0384F82B30B9F1000FBE
:1016E00005D094F82B3043F0100384F82B30B8F178
:1016F000000F05D094F82B3043F0200384F82B30F2
:10170000642201219DF8280010F095FC84F82C003B
:10171000BDE8F883B0F9160010F0CCFCE082B4F913
:10172000180010F0C7FC2083B4F91A0010F0C2FCB6
:101730006083BAE700B59DF80CC0BDF810E080F8F2
:101740002630BDF8043043849DF8083080F82430FA
:1017500090F82B3003F0B30380F82B3019B143F02D
:10176000040380F82B302AB190F82B3043F00803A3
:1017700080F82B30BCF14B0F01D94FF04B0CBEF56C
:10178000A07F05D8BEF1040F04D84FF0050E01E08C
:101790004FF4A07E0CF10403DBB20C4AA2FB03233E
:1017A0009B081B01DBB280F825300EF1FF3E084A92
:1017B00082FB0E124FEAEE7ECEEBE20E0EF00F0E23
:1017C0004EEA030380F825305DF804FBCDCCCCCC89
:1017D0006766666610B50446084622851E2200210B
:1017E00010F029FC84F82A0010BD0AB9C1827047A4
:1017F000012A00D070470183FCE741838283704750
:1018000010B500F1140300F1420234301C68D3F823
:1018100004E0D3F808C0D9681460C2F804E0C2F844
:1018200008C0D160103310328342EFD1D3F800C02A
:1018300058689968C2F800C0506091609B89938194
:1018400010BD38B5044600F5825504352846FFF72B
:101850001CFE00B138BD04F582511831204607F056
:10186000A5FA2846FFF7CCFFF4E710B500F14203D4
:1018700000F1140262301C68D3F804E0D3F808C009
:10188000D9681460C2F804E0C2F808C0D16010330F
:1018900010328342EFD1D3F800C058689968C2F87B
:1018A00000C0506091609B89938110BD90F8250025
:1018B000000900EB8000704790F8250000F00F0051
:1018C000013000EB80008000704710B5044642B143
:1018D000022A0CD08B894A8909890FF0D9F9204650
:1018E00010BDCB888A8849880FF0D2F9F7E74B8A78
:1018F0000A8AC9890FF0CCF9F1E7022901D9002041
:10190000704701EB810100EB4100007AC0F3400019
:101910007047022A21D800B5B1F800E002EB820C32
:1019200000EB4C0320F81CE0B1F802C0A3F802C0A1
:10193000B1F804C0A3F804C0B1F806C0A3F806C00B
:1019400091F808C083F808C091F90E3002EB8202CA
:1019500000EB420253725DF804FB7047022900D984
:10196000002101EB810100EB410191F90900704771
:10197000032905D802EB82020A4430F812007047AE
:1019800000207047022A04D00C3100EB4100C088CF
:101990007047103100EB4100C0887047022B00F205
:1019A00097802DE9F04F85B005460E4617461C4638
:1019B00003EB830300EB430292F90990A7EB0909BB
:1019C00030F81380884518D804EB840300EB4303F8
:1019D000B3F80680884546D34FF00108B8F1030FED
:1019E00074D804EB8403434435F813A0B2451AD8E5
:1019F00008F101085FFA88F8F0E722460021FFF7B6
:101A0000C1FF484400903B4642460021304610F05A
:101A10001BFB00B240F2E732394610F00CFB80B2FB
:101A200005B0BDE8F08F08F1FF3204EB84031A44DF
:101A300035F812B008F1FF312246C9B22846FFF747
:101A4000A1FF00EB09030393224641462846FFF716
:101A500099FF48440090039B52465946304610F087
:101A6000F3FA00B2D6E704EB840300EB4303B3F8C8
:101A700002A0D04514D922460121FFF783FF00EBD5
:101A8000090B224603212846FFF77CFF48440090BB
:101A90005B4642465146304610F0BCFA00B2B9E708
:101AA00022460121FFF76EFF00EB090822460321C1
:101AB0002846FFF767FF484400904346054A1288CE
:101AC0005146304610F0A6FA00B2A3E70020A1E785
:101AD00000207047BEF3010810B5044600F585509C
:101AE0001430FFF75BFF04F5805494F86F3013F067
:101AF000010F00D010BD00B210F0DCFA80B2F9E79F
:101B00002DE9F04F85B00546029116461C469DF81A
:101B10003830039300F5855808F1140821464046F3
:101B2000FFF71CFF371A224600214046FFF72AFF25
:101B3000BFB200EB07091FFA89F92246032140468C
:101B4000FFF720FF0744BFB2022C39D04A4BB3F84D
:101B500000A0022C38D0494BB3F800B0039B0BB166
:101B60004FF0640A05F5805393F86F3013F0010FBE
:101B70002ED05A465146029810F05DFA1FFA80FAAC
:101B80003F4BB3F800B0224600214046FFF7F0FE7D
:101B90000290224603214046FFF7EAFE0090029B96
:101BA0003A464946504610F04FFA80B2B0EB5B0F10
:101BB00025DDA0EBAB07BFB24FF00008C1463BE00C
:101BC000304BB3F800A0C4E72F4BB3F800B0C5E723
:101BD0000FFA89F010F06EFA1FFA80F938B210F09F
:101BE00069FA87B20FFA8AF010F064FA1FFA80FAE5
:101BF0000FFA8BF010F05EFA1FFA80FBB9E75F4630
:101C0000BBF1000F03DB00EBA707BFB2D4E70BF17A
:101C10000307F8E77B1CB9469FB209E009EB07030D
:101C200003EBD373C3F34F039F421CD0BB461F4645
:101C300008F101085FFA88F8B8F1130F17D82346A6
:101C4000324639462846FFF747FF82450FD0E5D98F
:101C500007EB0B0303EBD373C3F34F039F42D9D0BE
:101C6000B9461F46E4E77B1EBB469FB2E0E7384615
:101C700005B0BDE8F08F00BFC2F30108C0F3010852
:101C8000BEF30108BCF30108BAF30108002308E021
:101C900002EB820C9C4430F81CC021F813C00133C5
:101CA000DBB2032BF4D9704710B54FF0000C0AE0FB
:101CB00031F81C4003EB830EE64420F81E400CF183
:101CC000010C5FFA8CFCBCF1030FF1D903EB83012B
:101CD00000EB41014A7203220A72C988044A128841
:101CE000914204D903EB830300EB4303DA8010BD78
:101CF000BEF3010801EB810200EB42034FF4966C46
:101D000020F812C040F26C725A8040F6C4129A80D9
:101D100040F65432DA80044A92F900205A72194689
:101D200001230B72704700BFB8F3010808B5FFF735
:101D3000E1FF08BD0A884B889A4207D28A889342FD
:101D400006D2CB889A4205D3002070470020704706
:101D50000020704701207047F0B585B000F5805332
:101D6000D3F8E430002B5DD004460E461546022918
:101D700022D1002504F58053D3F8E43013F8152060
:101D8000FF2A2FD000236946204606F0C5FD88BBF8
:101D90009DF8083013F0020F36D004F58554143442
:101DA00069462046FFF7C6FF0546A8BB31462046D8
:101DB000FFF7A0FF012524E000F5825704373846DD
:101DC00008F0CEF8A84201D906B10125384608F03E
:101DD000C7F8A842CED8012ECCD0384608F0C0F8BB
:101DE0000546C7E7314604F585501430FFF782FFFA
:101DF000002506E0314604F585501430FFF77AFFE0
:101E00000025284605B0F0BD314604F58550143054
:101E1000FFF770FF0125F4E7324669462046FFF7D9
:101E200078FDEEE70025ECE7F8B5054600F58256AB
:101E30000436304608F090F840001BF06FFA05F5C4
:101E40008053C3F8E400A8B100240EE005F58053E8
:101E5000D3F8E420FF2102F81410D3F8E43003EBA8
:101E6000440300225A700134E4B2304608F074F89A
:101E7000A042EBD8284606F006FD0446002855D1BE
:101E800005F58053D3F8E41091B32846FFF7B0FA74
:101E9000074605F5825618363146284606F0CCFD31
:101EA00040B331462846FFF72BFA05F5825104313D
:101EB000284606F090FE98B3002202212846FFF73C
:101EC0004BFF05F5805696F8622000212846FFF763
:101ED00043FF96F8642001212846FFF73DFF05F5F2
:101EE00082500430FFF78CFC002F44D02046F8BD10
:101EF0000746CEE705F582500430FFF73BFB05F5BA
:101F0000805696F862102846FFF77BF9A6F8620023
:101F100096F864102846FFF774F9A6F86400C4E741
:101F200005F582500430FFF753FBC5E705F58257EE
:101F300004373846FFF71EFB3846FFF749FB0221FE
:101F400005F585501430FFF7D5FE01220021284603
:101F5000FFF702FF304608F003F802460121284649
:101F6000FFF7FAFE3846FFF74BFC012C05D0022C98
:101F700005D00024BAE70124B8E70224B6E7032419
:101F8000B4E770B504460E4679B9022532462946B3
:101F90002046FFF7E1FE38B195B904F58053A3F868
:101FA00062602046FFF74DFC70BD00F582500430A2
:101FB00007F0D6FFB04201D90025E7E70125E5E7A4
:101FC000012DEED104F58053A3F86460E9E72DE913
:101FD000F04184B004460E461D461388ADF800302B
:101FE0005388ADF802309388ADF80430D388ADF84B
:101FF00006308DF808509DF928308DF80E3000F528
:102000008053D3F8E4304F0003EB41035D7000F5DB
:102010008250043007F0B0FF38B18046694604F5BD
:1020200085501430FFF786FE38B904F5875002302A
:10203000FFF740F804B0BDE8F081052241460DF1FC
:1020400009001BF041FB00226946204606F0E4FE31
:10205000B0F10008E9DB04F587500230FEF7DAFF43
:1020600004F58054D4F8E43003F81680D4F8E43052
:102070001F447D70DEE7000070B582B005460E4655
:1020800061B1941B01940F2C0DD82868012C13D03A
:10209000A4B1224631461BF061F90FE09142F0D025
:1020A0000A481AF0DCFB002201A928461AF096FC27
:1020B0002860019BAB60E8E733780370019B6B609D
:1020C0002A680021D15402B070BD00BFD0DD0108E4
:1020D0002DE9F04188B00446174601F582560436D2
:1020E0001146304607F048FF054604F10803236017
:1020F0004FF00003421D01462046FFF7BDFF15B318
:1021000017B12B784E2B03D1204608B0BDE8F081E3
:10211000304607F025FFB8420AD9626802B10022B2
:1021200004230093284B002120461AF071FDEBE7B1
:10213000626802B1002204230093244B0021204650
:102140001AF066FDE0E704AE0296214A4FF0000364
:10215000111F02A8FFF790FF234653F8080B0299BE
:10216000B14219D0984229D0D4F808802160039B4D
:102170006360049BA36018B30290CDF81080002325
:102180000393029A1370029804AB9842BCD004994E
:1021900001311AF04BFBB7E7039A2AB9039B63603E
:1021A00022680021D154EAE7012A04D0002AF5D0A0
:1021B0001BF0D4F8F2E70B780370EFE72846D5E779
:1021C00004AB0293DBE700BFFCDD010804DE01087D
:1021D00010DE010810B5044642B901F5805393F8AA
:1021E00062202046FFF774FF204610BD012A01D06F
:1021F0000022F6E701F5805393F86420F1E72DE91A
:10220000F04F89B00746904699469DF848A09DF842
:102210004CB000F58053D3F8E40010B14C1E0323FA
:1022200012E000234B4580F08C8003EB430208EB67
:102230008202002191700133DBB2F3E7013B13F01E
:10224000FF030DD0013C24B2002C09DDBAF1000FD0
:10225000F4D000EB4402527812F0010FF2D0EDE717
:10226000002C01DB00262DE00024FBE7BBF1000F72
:1022700041D0BBF1010F45D006EB460308EB8305C7
:10228000E2B208F8232007F58053D3F8E43003EBDB
:1022900044035B786B70394602A8FFF719FF0A22E6
:1022A0000299A81C1BF010FA0136F6B24E4530D246
:1022B000029804AB984203D0049901311AF0B6FA9F
:1022C000013424B2019407F582550435284607F0FD
:1022D00043FE844225DA002CF2D0BAF1000FC5D0BB
:1022E00007F58053D3F8E43003EB44035B7813F035
:1022F000010FBBD1E4E7284607F032FE019B834281
:10230000BADB0EE0284607F02BFE019B8342B3DACE
:10231000D6E7029804AB984203D0049901311AF031
:1023200085FA33464B4508D203EB430208EB8202A1
:10233000002191700133DBB2F4E7304609B0BDE80B
:10234000F08F0020FAE70000014B0360704700BFE8
:1023500040E2010870470000024A0260024A02603F
:10236000704700BF68E2010840E2010870470020A2
:1023700070477047014B0360704700BFC4E201081B
:1023800070B5064611F0C6F800F59675184B5B6AF5
:102390009BB29C1CA4B2632C01D9613B9CB211F08E
:1023A000B9F8A84205D2124B5B6AA342F7D1114B90
:1023B0005E6211F0AFF800F596750D4B5B6A9BB24B
:1023C0009C1CA4B2632C01D9613B9CB211F0A2F811
:1023D000A84207D2064B5B6AA342F7D1054B586A65
:1023E00080B204E0034BD86A80B2013080B270BD85
:1023F00000000140000C004008B50C4B1B785BB19D
:102400000B4B00205863986303F574431864094A22
:1024100013680133136008BD03220749074811F010
:1024200077FA0120014B1870F5E700BF247B0020EC
:10243000000C0040907C00208C7B0020308E00201F
:1024400008B5114B1B7863B9104B1B78ABB1022256
:102450000F49104811F05CFA0B4B02221A70012050
:1024600008BD0D4B00205863986303F5744318644E
:102470000A4A136801331360F2E702220849094847
:1024800011F046FAE8E700BF247B0020040000209A
:10249000947B0020E88D0020000C0040907C002000
:1024A000F87B0020A08D002010B50446044B03608B
:1024B000044B036050211AF0B9F9204610BD00BF4B
:1024C00068E2010840E2010810B50446034B0360CE
:1024D00050211AF0ABF9204610BD00BF40E20108C0
:1024E00010B50446034B036024211AF09FF92046DF
:1024F00010BD00BFC4E2010808B5084619F00CF889
:1025000008BD08B5084618F0F9FF08BD08B508462B
:1025100018F0E6FF08BD08B518F0D4FF08BD08B5EF
:1025200018F0C2FF08BD08B517F0C6FF08BD0000CF
:10253000F0B4034600220270E449416000F110014A
:102540008160C2600274E249016200F12C014162C3
:10255000826280F82C20DF49C16300F148010164E8
:10256000426480F84820DC49816500F16401C1655E
:10257000026680F86420D949416700F180018167D3
:10258000C26780F88020D649C0F8901000F19C0105
:10259000C0F89410C0F8982080F89C20D149C0F869
:1025A000AC1000F1B801C0F8B010C0F8B42080F849
:1025B000B820CD49C0F8C81000F1D401C0F8CC1043
:1025C000C0F8D02080F8D420C849C0F8E41000F149
:1025D000F001C0F8E810C0F8EC2080F8F020C44901
:1025E000C0F8001100F58670C3F80401C3F8082193
:1025F00083F80C21BF48C3F81C0103F59470C3F89D
:102600002001C3F8242183F82821BB48C3F83801EE
:1026100003F5A270C3F83C01C3F8402183F84421BC
:10262000B648C3F8540103F5B070C3F85801C3F8B5
:102630005C2183F86021B248C3F8700103F5BE70D5
:10264000C3F87401C3F8782183F87C21AD48C3F83E
:102650008C0103F5CC70C3F89001C3F8942183F882
:102660009821A948C3F8A80103F5DA70C3F8AC01B2
:10267000C3F8B02183F8B421A448C3F8C40103F51A
:10268000E870C3F8C801C3F8CC2183F8D021A04872
:10269000C3F8E00103F5F670C3F8E401C3F8E821DC
:1026A00083F8EC219B48C3F8FC0103F50270C3F8E2
:1026B0000002C3F8042283F808229748C3F81802DE
:1026C00003F50970C3F81C02C3F8202283F8242202
:1026D000924CC3F8344203F51070C3F83802C3F8C3
:1026E0003C2283F840228E48C3F8500203F517704D
:1026F000C3F85402C3F8582283F85C228948C3F80F
:102700006C0203F51E70C3F87002C3F8742283F8DC
:1027100078228548C3F8880203F52570C3F88C0237
:10272000C3F8902283F894228048C3F8A40203F5EA
:102730002C70C3F8A802C3F8AC2283F8B0227C4FF7
:10274000C3F8C07203F53370C3F8C402C3F8C822DB
:1027500083F8CC22774EC3F8DC6203F53A70C3F8F5
:10276000E002C3F8E42283F8E8227348C3F8F802D1
:1027700003F54170C3F8FC02C3F8002383F8042377
:102780006E48C3F8140303F54870C3F81803C3F880
:102790001C2383F820236A48C3F8300303F54F70E5
:1027A000C3F83403C3F8382383F83C23C3F84C43FD
:1027B00003F55670C3F85003C3F8542383F8582325
:1027C000604DC3F8685303F55D70C3F86C03C3F83C
:1027D000702383F874235C48C3F8840303F5647C96
:1027E000C3F888C3C3F88C2383F89023DFF86CC147
:1027F000C3F8A0C303F56B7CC3F8A4C3C3F8A82334
:1028000083F8AC23C3F8BC7303F57277C3F8C073C5
:10281000C3F8C42383F8C823C3F8D86303F57976D3
:10282000C3F8DC63C3F8E02383F8E423C3F8F4437C
:1028300003F58064C3F8F843C3F8FC2383F800244D
:10284000C3F8105403F21C44C3F81444C3F818240A
:1028500083F81C24C3F82C0403F58764C3F83044C0
:10286000C3F8342483F83824384CC3F8484403F2BE
:102870005444C3F84C44C3F8502483F85424344CD3
:10288000C3F8644403F58E64C3F86844C3F86C2449
:1028900083F870242F4CC3F8804403F28C44C3F8AF
:1028A0008444C3F8882483F88C242B4CC3F89C44BC
:1028B00003F59564C3F8A044C3F8A42483F8A824BE
:1028C000C3F8B81403F2C4444AE000BF14DE0108A0
:1028D00020DE01082CDE01083CDE01084CDE010888
:1028E00058DE010864DE010874DE010884DE010898
:1028F0008CDE010894DE0108A0DE0108A8DE0108D4
:10290000B0DE0108C0DE0108D0DE0108DCDE01080F
:10291000E8DE0108F4DE010800DF01080CDF010831
:1029200014DF01081CDF01082CDF010838DF010873
:1029300044DF010850DF010860DF010870DF010893
:102940007CDF010888DF010898DF0108B8DF010893
:10295000C4DF0108D0DF0108D8DF0108A8DF0108C3
:10296000C3F8BC44C3F8C02483F8C424EA4CC3F8B9
:10297000D44403F59C65C3F8D854C3F8DC2483F829
:10298000E024E64DC3F8F05403F2FC45C3F8F454D8
:10299000C3F8F82483F8FC24E14DC3F80C5503F583
:1029A000A365C3F81055C3F8142583F81825DD4D29
:1029B000C3F8285503F23455C3F82C55C3F8302515
:1029C00083F83425C3F8440503F5AA60C3F8480525
:1029D000C3F84C2583F85025D348C3F8600503F2AB
:1029E0006C50C3F86405C3F8682583F86C25CF489C
:1029F000C3F87C0503F5B160C3F88005C3F88425EE
:102A000083F88825CA48C3F8980503F2A450C3F890
:102A10009C05C3F8A02583F8A425C648C3F8B405CF
:102A200003F5B860C3F8B805C3F8BC2583F8C02522
:102A3000C3F8D01503F2DC51C3F8D415C3F8D82578
:102A400083F8DC25BC49C3F8EC1503F5BF61C3F876
:102A5000F015C3F8F42583F8F825B849C3F808162B
:102A600003F21461C3F80C16C3F8102683F8142679
:102A7000B349C3F8241603F5C661C3F82816C3F892
:102A80002C2683F83026AF49C3F8401603F24C6178
:102A9000C3F84416C3F8482683F84C26AA49C3F85D
:102AA0005C1603F5CD61C3F86016C3F8642683F89D
:102AB0006826A649C3F8781603F28461C3F87C1629
:102AC000C3F8802683F88426A149C3F8941603F539
:102AD000D461C3F89816C3F89C2683F8A0269D49B4
:102AE000C3F8B01603F2BC61C3F8B416C3F8B82635
:102AF00083F8BC269849C3F8CC1603F5DB61C3F80C
:102B0000D016C3F8D42683F8D8269449C3F8E8161B
:102B100003F2F461C3F8EC16C3F8F02683F8F42648
:102B20008F49C3F8041703F5E261C3F80817C3F827
:102B30000C2783F810278B49C3F8201703F22C7158
:102B4000C3F82417C3F8282783F82C278649C3F82D
:102B50003C1703F5E961C3F84017C3F8442783F82D
:102B600048278249C3F8581703F26471C3F85C1709
:102B7000C3F8602783F86427C3F8744703F5F0614E
:102B8000C3F87817C3F87C2783F880277849C3F8FF
:102B9000901703F29C71C3F89417C3F8982783F831
:102BA0009C277449C3F8AC1703F5F761C3F8B01755
:102BB000C3F8B42783F8B8276F49C3F8C81703F2DE
:102BC000D471C3F8CC17C3F8D02783F8D4276B4946
:102BD000C3F8E41703F5FE61C3F8E817C3F8EC2760
:102BE00083F8F0276649C3F8001803F60C01C3F810
:102BF0000418C3F8082883F80C286249C3F81C1885
:102C000003F62801C3F82018C3F8242883F82828DD
:102C10005D49C3F8381803F64401C3F83C18C3F8FB
:102C2000402883F844285949C3F8541803F506612D
:102C3000C3F85818C3F85C2883F860285449C3F8CF
:102C4000701803F67C01C3F87418C3F8782883F869
:102C50007C285049C3F88C1803F69801C3F89018E3
:102C6000C3F8942883F898284B49C3F8A81803F6AA
:102C7000B401C3F8AC18C3F8B02883F8B4284749A6
:102C8000C3F8C41803F50D61C3F8C818C3F8CC28FD
:102C900083F8D0284249C3F8E01803F6EC01C3F8E2
:102CA000E418C3F8E82883F8EC283E49C3F8FC1878
:102CB00003F60811C3F80019C3F8042983F808299A
:102CC0003949C3F8181903F62411C3F81C19C3F8BD
:102CD000202983F824293549C3F8341903F51461F0
:102CE000C3F83819C3F83C2983F840293049C3F8A0
:102CF000501903F65C11C3F85419C3F8582983F826
:102D00005C292C49C3F86C1903F67811C3F87019C3
:102D1000C3F8742950E000BFE0DF0108ECDF0108D0
:102D2000F4DF0108FCDF010804E0010814E00108F9
:102D300024E0010830E001083CE0010840E001081F
:102D400044E001084CE0010854E001085CE001089F
:102D500064E001086CE0010874E0010878E0010813
:102D60007CE0010880E0010884E001088CE00108B3
:102D700094E00108A0E00108B4E00108C8E00108FF
:102D8000D8E00108E8E0010800E1010818E10108C5
:102D900020E101082CE1010838E1010840E10108C7
:102DA00044E1010848E1010858E1010864E1010833
:102DB00074E1010884E1010883F878290F49C3F818
:102DC000881903F69411C3F88C19C3F8902983F875
:102DD00094290B49C3F8A41903F51B61C3F8A8197A
:102DE000C3F8AC2983F8B029064A92E80300C3F877
:102DF000C009A3F8C4191846F0BC704798E101084F
:102E0000A4E1010874DD0108014B1878704700BF88
:102E1000547A002008B502480EF08FFC80B208BD3D
:102E20008C3600202DE9F04782B00026974B5E6378
:102E3000974C204610F04EFC6421204610F00CFD0B
:102E4000204610F06FFE87B26421204610F004FD8A
:102E5000204610F067FE1FFA80F9204610F0DCFCD7
:102E60008C4C204610F036FC6421204610F0F4FC17
:102E7000204610F057FE1FFA80F86421204610F01B
:102E8000EBFC204610F04EFE1FFA80FA204610F0B0
:102E9000C3FC814B0A221A705E6019784FF47A7273
:102EA00001FB02F25A607D4C23681B6C283B7C4A74
:102EB00013807C4DCDF80090534642463946284653
:102EC00006F086FC074605F54055032385F84D3E80
:102ED00085F84C3E744D0C21284613F08BF80821E0
:102EE000284612F0E1FF3146204613F083F8042112
:102EF000204613F07FF80821204612F0D5FF0C2160
:102F0000204612F0D1FF3146684813F073F8684D3F
:102F1000DFF8E091674C2B464A46294620460AF0E6
:102F20009BFEDFF8C8812B464246214648460AF000
:102F300093FE2B462246214640460AF08DFE23464C
:102F4000224621465C480AF087FEDFF8AC81234622
:102F50002246414659480AF07FFE23462246214632
:102F600040460AF079FEDFF888A123462246214632
:102F700050460AF071FEDFF884812346224621463E
:102F800040460AF069FEDFF8789143464246214602
:102F900048460AF061FE23462246294648480AF080
:102FA0005BFE23462246294646480AF055FE234644
:102FB0002246294644480AF04FFE23462246294627
:102FC00042480AF049FE23462246214628460AF096
:102FD00043FE3F4D2B46224621463E480AF03CFE2A
:102FE00023462246214628460AF036FE234622463C
:102FF000214639480AF030FE2346224651463748DA
:103000000AF02AFE43464246214648460AF024FE7C
:1030100033463246214632480AF01EFE314802F05D
:1030200035FC022F1FD0032F26D0012F17D040F2DE
:10303000DC50FFF7A5F91B4B03F5805292F8702086
:1030400003F54053A3F8D422C82010F069FA264BA8
:10305000186803681B68984702B0BDE8F087224BE8
:10306000224A1A60E3E7224C0022462120460CF057
:1030700045FB1D4B1C60DAE700224A211C480CF07E
:103080003DFB194B164A1A60D1E700BF00180040FB
:10309000A08D0020E88D00208C3600205892002062
:1030A000D8360020DC360020A8900020389100207F
:1030B0003C7C002064790020A4030020943600208A
:1030C000CC7B0020FC350020FC7B0020987B00207E
:1030D000F8790020D0790020340400203436002014
:1030E0002C7A00206069002000000020007B002076
:1030F00028790020587A002008040020CC350020D0
:10310000287B002038B510F005FA5C4B1B6898420C
:1031100048D85B4B18680AF0A3FD044618B1584B19
:103120001B68834276D1564D286803685B689847D0
:1031300004462B68834229D0002800F08880514D36
:103140000021284606F0A6FC002105F5C87006F00F
:10315000A1FC002105F5687006F0C0F9A5F604523F
:10316000002382F84D3E82F84C3E82F8DD3F82F823
:10317000DC3F454A53639363414D286803689B686D
:1031800098472C6023681B682046984710F0C2F9C6
:103190003E4B1B6898425CD23D4802F021FB002860
:1031A00068D138BD10F0B6F96430344B1860102186
:1031B000384811F087F9012824D1642136480EF0EF
:1031C00045FB4FF40051354811F07CF901281BD123
:1031D000642133480EF03AFB4FF480512F4811F030
:1031E00071F998B964212F480EF030FB4FF400714B
:1031F0002D4811F067F901280AD164212B480EF0FF
:1032000025FB86E70021D9E70021E2E70021EAE774
:103210000021F3E7264D2846FDF714FF0021A5F510
:10322000A76006F037FC0021A5F56A7006F032FCB5
:10323000154B00225A639A63114D286803689B68F6
:1032400098472C6023681B6820469847A9E7194CCB
:1032500075E719494B6A194A10681B1A18BF0123F0
:10326000174803704B6A136010F054F92930074B6C
:10327000186091E7052010F053F992E78C7C00204C
:1032800000000020E0730020000C0040887C00203B
:10329000B069002000080240FC74002000040240D5
:1032A0008C7600209C760020000002409C78002054
:1032B000187900202879002000000140847C00203B
:1032C000547A002010B50368174A934203D0174A76
:1032D00093421ED010BD027F042AF8D1144806F094
:1032E00003F8632800D963200F4B186410F012F91B
:1032F0000446104B1B7813B10F4B1B6813B90E4BD0
:103300001C60E7E70C4B1968411A0C480EF0FBF9FA
:10331000F5E7037F042B04D0082BDBD1FFF790F8EF
:10332000D8E7FFF769F8D5E700000140000C00403E
:1033300080770020547A0020D43600208C3600207C
:1033400008B510F0B3FB5B4B1B78DBB2022B09D046
:10335000584B1B78DBB2012B00F08180554B0022CB
:103360001A7008BD544B1B78002B47D0534B19885B
:1033700089B2534806F09AFC524B18801A8892B2D0
:10338000514B19888A422AD9504B99634D4A138868
:103390009BB25B1A9BB213804D4B1B889BB24B4A6E
:1033A0005363464B598889B24A4805F0E5FE424AC4
:1033B000137883F001031370444B596A464A13781B
:1033C000DBB289B2454820F8131013780133DBB221
:1033D0001370632BC2D9134600221A70BEE7394A14
:1033E00013889BB239498B6313889BB213B1384B56
:1033F00000221A80334B00221A80CDE7384B1988FF
:1034000089B2384806F052FC314B18801A8892B2C3
:103410002D4B19888A4213D92C4B59632C4A138897
:103420009BB25B1A9BB21380264B1B889BB2274A28
:1034300093632B4B598889B22B480EF064F9B6E799
:10344000234A13889BB221494B6313889BB213B163
:103450001C4B00221A801E4B00221A80E4E71B4BF3
:103460005B6B012B18D8194B9B6B012B1BD81F4B87
:103470005B6B012B7FF672AF1D4B998889B21D489B
:103480000EF0E4F9194B5B6AB3F5FA7F7FF666AF8D
:10349000164B64225A6261E7154B198889B21648A7
:1034A0000EF0D4F9DFE7124B598889B213480EF0B9
:1034B000CDF9DCE7247B002004000020947B002071
:1034C00070750020387C0020D8360020000C0040A9
:1034D000807C0020807700205C7D0020947C002090
:1034E000F87B0020E07300201C7900200048014098
:1034F0008C7B00208C780020EC7400207C760020EF
:10350000704738B50C46154605E04FF4FC7154F889
:10351000040B19F08BF9AC42F7D338BD10B5044653
:1035200003684BB1426A04324169FFF7EAFF616800
:103530008900206819F07AF9204610BD2DE9F04184
:1035400088461746CE6804360DE01834A54209D0E7
:10355000234653F8080B9842F7D0A168013119F0BF
:1035600065F9F2E70436FB68B34203D9346804F521
:10357000FC75EBE7D8F80C20934221D0D8F8004036
:10358000D8F8085000E01834A54209D0234653F873
:10359000080B9842F7D0A168013119F047F9F2E71A
:1035A0007C683D6800E01834A5421AD0234653F8E1
:1035B000080B9842F7D0A168013119F037F9F2E70A
:1035C000D8F800403D6800E01834A54209D02346F1
:1035D00053F8080B9842F7D0A168013119F026F989
:1035E000F2E7BDE8F08138B50C46154605E04FF42A
:1035F000FC7019F01DF944F8040BAC42F7D338BD48
:103600002DE9F04383B004460D46274BA3FB01236D
:10361000CA1A03EB52031B095E1C082200920333F3
:10362000019393423BD86B4618686060B0F1005F2D
:1036300037D2800019F0FCF8804620606768BF1B15
:103640007F0800EB870909EB86063246494620468B
:10365000FFF7C9FFC4F8149058F82730E36003F56A
:10366000FC722261321F626256F8042CE26102F59C
:10367000FC712162A3600C4BA3FB0513E91A03EB59
:1036800051031B0903EB4303C3EBC303EB1A03EB27
:10369000430302EBC303A36103B0BDE8F08301ABB6
:1036A000C2E719F0D9F800BF876118862DE9F84FF5
:1036B00082460024047000F5805585F82C404FF4B4
:1036C0008053EB85D34B2B63D34B6B63D34BAB63F3
:1036D000D34BEB63D34B2B64D34B03CBC5F8D20056
:1036E000C5F8D61003CBC5F8DA00C5F8DE100AF528
:1036F00087500230FDF774FCC5F8E4400AF58756A0
:10370000083642F2600906EB0905DFF84CB346F8CB
:1037100009B0C64B46F8093005F10C036B60AC608C
:103720002C7305F11C074FF0280842462146384605
:1037300019F03CFEEC612C626C62AC62EC622C63B2
:103740006C63AC63EC632C6421463846FFF758FF8A
:1037500005F1440742462146384619F027FE6C64BD
:10376000AC64EC642C656C65AC65EC652C666C66D1
:10377000AC6621463846FFF743FFAD4B46F80930AB
:1037800005F17403EB662C6785F8744005F18C0332
:10379000C5F88430C5F8884085F88C4005F1A4034D
:1037A000C5F89C30C5F8A04085F8A440C5F8B440E1
:1037B000C5F8B840C5F8BC4042F22013F71846F8E7
:1037C00003B09A4AF25007F10C037B60BC603C7373
:1037D00007F11C0542462146284619F0E7FDFC6129
:1037E0003C627C62BC62FC623C637C63BC63FC63E5
:1037F0003C6421462846FFF703FF07F14405424693
:103800002146284619F0D2FD7C64BC64FC643C650A
:103810007C65BC65FC653C667C66BC6621462846CA
:10382000FFF7EEFE06F50056824BC6F82031C6F8CB
:103830008C4186F89041C6F894417F4BC6F8983188
:1038400043F284260AEB0605281D18F043FD7B4B46
:103850004AF806307A4B4AF80630A5F85040A5F8E9
:103860005440AC65EC65A5F8604085F8624005F110
:103870006400FEF75DFE734B4AF80630724BC5F8E4
:103880002C3AA5F8304A4FF6FF72A5F8322A4FF4C9
:103890007841A5F8341AFF21A5F8361A4FF6E071E1
:1038A000A5F8381A4CF21861A5F83A1A85F83C4A7E
:1038B000C5F8404AC5F8444AC5F8484AC5F84C4AD4
:1038C000C5F8504AC5F8544A85F8582A9622A5F8F2
:1038D0005A2AA5F85C4AA5F85E4AA5F8604AA5F8F8
:1038E000624AC822A5F8642A6E22A5F8662A5A22DE
:1038F000A5F8682A3C21A5F86A1AA5F86C2A2022A6
:10390000A5F86E2A1922A5F8702A504AC5F8742A1B
:10391000C5F8783AC5F87C3A43F604510AEB01033E
:1039200014225A601C815C81DC600A251D615D6186
:103930009C61DD614FF00508C3F820804FF00B0259
:103940009A844FF0010B83F826B003F12802404817
:10395000067882F8424082F8404082F8416082F85E
:10396000864082F8844082F8856082F8CA4082F8F6
:10397000C84082F8C960A2F8CC40A2F8CE40A2F8B4
:10398000D040A2F8D24082F8D440C2F8D84082F8A1
:10399000DC4082F8DD40A2F8DE40A2F8E040A2F868
:1039A000E2402C4A4AF80120082283F80C21C3F88F
:1039B000104183F80C21C3F8104183F8144183F8B7
:1039C00015414FF4C87CA3F816C14FF4FA70A3F860
:1039D000180183F81C21C3F8204183F81C21C3F887
:1039E000204183F8244183F82541A3F826C1A3F898
:1039F000280183F82C21C3F8304183F82C21C3F827
:103A0000304183F8344183F83541A3F836C1A3F837
:103A1000380123E0B8E10108C4E10108D0E1010860
:103A2000DCE10108E8E101087CDD0108ECEE0108B9
:103A300020EF010854EF0108C4F3010840E2010837
:103A400068E2010808EC010800F901085CEC0108D3
:103A5000AFF30108FCE1010890E20108F14F4AF8D8
:103A60000170A3F83C41A3F83E41A3F84041A3F8FC
:103A700042414FF0040E83F844E183F84541A3F836
:103A8000464183F8484183F8494183F84C21C3F803
:103A9000504183F84C21C3F8504183F85421C3F8B6
:103AA000584183F85421C3F8584183F85C21C3F886
:103AB000604183F85C21C3F8604183F86421C3F856
:103AC000684183F86421C3F8684183F86C21C3F826
:103AD000704183F86C21C3F8704183F87441A3F8F6
:103AE00076414FF47A7EA3F878E14FF0140183F821
:103AF0007A114FF06409A3F87C9183F87E21A3F832
:103B00008001A3F882E14FF0030183F884114FF0A4
:103B10000E0983F885914FF0140183F8861183F81C
:103B200087814FF0020183F8881183F8895144F6A8
:103B30002061C3F88C1143F694690AEB0903142140
:103B400059601C815C81DC601D615D619C61DD618F
:103B5000C3F820804FF00B01998483F826B003F15D
:103B6000280181F8424081F8404081F8416081F8A5
:103B7000864081F8844081F8856081F8CA4081F8E8
:103B8000C84081F8C960A1F8CC40A1F8CE40A1F8A6
:103B9000D040A1F8D24081F8D440C1F8D84081F893
:103BA000DC4081F8DD40A1F8DE40A1F8E040A1F85A
:103BB000E2409D494AF8091083F80C21C3F81041EE
:103BC00083F80C21C3F8104183F8144183F81541A0
:103BD000A3F816C1A3F8180183F81C21C3F82041EB
:103BE00083F81C21C3F8204183F8244183F8254140
:103BF000A3F826C1A3F8280183F82C21C3F830418B
:103C000083F82C21C3F8304183F8344183F83541DF
:103C1000A3F836C1A3F838014AF80970A3F83C416B
:103C2000A3F83E41A3F84041A3F842414FF00407F6
:103C300083F8447183F84541A3F8464183F848412D
:103C400083F8494183F84C21C3F8504183F84C2153
:103C5000C3F8504183F85421C3F8584183F85421E4
:103C6000C3F8584183F85C21C3F8604183F85C21B4
:103C7000C3F8604183F86421C3F8684183F8642184
:103C8000C3F8684183F86C21C3F8704183F86C2154
:103C9000C3F8704183F87441A3F87641A3F878E142
:103CA0004FF0140183F87A114FF06409A3F87C9166
:103CB00083F87E21A3F88001A3F882E14FF003008E
:103CC00083F884014FF00E0983F8859183F88611FB
:103CD00083F887814FF0020083F8880183F88951C7
:103CE00044F62060C3F88C0150490AF58040243026
:103CF00004F06BFB4E490AF58040643004F065FB2C
:103D000044F2A4010AEB010314225A601C815C8175
:103D1000DC601D615D619C61DD61C3F820804FF056
:103D20000B029A8483F826B003F1280282F84240FD
:103D300082F8404082F8416082F8864082F88440F0
:103D400082F8856082F8CA4082F8C84082F8C9606B
:103D5000A2F8CC40A2F8CE40A2F8D040A2F8D240BF
:103D600082F8D440C2F8D84082F8DC4082F8DD40C6
:103D7000A2F8DE40A2F8E040A2F8E2402A4A4AF85F
:103D80000120082583F80C51C3F8104183F80C5129
:103D9000C3F8104183F8144183F815414FF4C870FB
:103DA000A3F816014FF4FA72A3F8182183F81C51F6
:103DB000C3F8204183F81C51C3F8204183F8244103
:103DC00083F82541A3F82601A3F8282183F82C5174
:103DD000C3F8304183F82C51C3F8304183F83441A3
:103DE00083F83541A3F83601A3F8382111484AF881
:103DF000010083F83C4183F83D4183F83E4183F85C
:103E00003FB1A3F84041A3F84241C3F8444183F8CD
:103E10004851C3F84C4183F84851C3F84C4183F8EA
:103E2000505109E034EE0108FCE10108C89100207E
:103E300010920020F0ED0108C3F8544183F850516E
:103E4000C3F8544183F85851C3F85C4183F8585182
:103E5000C3F85C4183F86051C3F8644183F8605152
:103E6000C3F8644183F86851C3F86C4183F8685122
:103E7000C3F86C41A3F8704183F87241462083F87F
:103E80007301632083F874014FF42F70A3F8760157
:103E900040F2CF70A3F878014FF4C860A3F87A011C
:103EA0004FF44870A3F87C017D20A3F87E011A48E6
:103EB000C3F880014EF66020C3F88401A3F888217E
:103EC0004FF47A72A3F88A211E2683F88C613C2273
:103ED00083F88D210A2283F88E2183F88F21C3F87D
:103EE00090B10E4AC3F894210AF584403C30FDF7A6
:103EF00077F80AF5804383F84052C3F8444283F8C8
:103F00004052C3F8444283F8486240F63C72A3F83A
:103F10004A225046BDE8F88F407E0500E093040039
:103F2000F0B5A1B005460746554B47F8B43BD0F86D
:103F3000B4407E6800E04834A6421BD0206B04F1F8
:103F40003803984203D0A16B013118F06FFCA069CF
:103F500004F12003984203D0216A013118F066FC75
:103F6000234653F8080B9842E5D0A168013118F0B8
:103F70005DFCE0E7D5F8B400B968091A08B118F09B
:103F800055FC05F16C04D5F89C0005F1A40398429A
:103F900004D0D5F8A410013118F048FCA06904F150
:103FA0002003984203D0216A013118F03FFCE86EEB
:103FB00004F10803984203D0A168013118F036FCDF
:103FC0002C46304B44F8443BD4F808E0CDF830E0C0
:103FD000D4F80CC0CDF834C027690E9766690F96E7
:103FE000A0690890E1690991226A0A92636A0B93B9
:103FF000CDF850E0CDF854C0169717961090119157
:104000001292139310AA14A92046FFF797FA20469C
:10401000FFF784FA05F11C04D5F824E0CDF810E090
:10402000D5F828C0CDF814C0EF6A06972E6B079616
:10403000686B0090A96B0191EA6B02922B6C039361
:10404000CDF870E0CDF874C01E971F9618901991A6
:104050001A921B9318AA1CA92046FFF76FFA204654
:10406000FFF75CFA686805F10C03984203D0E96831
:10407000013118F0DBFB044B2B60284621B0F0BD6A
:1040800020EF0108ECEE010890E201082DE9F04F65
:10409000A7B005460E46012808D025B94FF6FF7394
:1040A0009E4200F01B8327B0BDE8F08F4FF6FF73F0
:1040B0009942F2D1B74B08271F7000245C601F7033
:1040C0005C60DFF830834046FFF7F0FAB24BDFF870
:1040D00028A3C3F800A01C719C609C811C615C61DA
:1040E0009C61DC611C62C3F80880AC4A1A6083F8EA
:1040F0002440022283F82520012183F8261083F82A
:10410000274083F8284083F8294083F82A40DC625E
:1041100083F8304083F8314083F83240A04A1A6077
:1041200083F834709C63052283F834209C63DC633D
:104130001C645C649C64DC641C65A3F8544083F8D4
:1041400056109C6583F85C104FF4FA72A3F85E2059
:1041500040F2DC50A3F860005A6640F6B837A3F886
:104160006870904BC3F800A01C719C609C811C611E
:104170005C619C61DC611C62C3F808808A4A1A6039
:10418000C3F89C40C3F8A04083F8A440874BC3F811
:1041900000A01C719C609C811C615C619C61DC6165
:1041A0001C62C3F80880824A1A60824AC2F800A0E2
:1041B000147194609481146154619461D4611462A7
:1041C000C2F808807C4B136082F82440A2F8464075
:1041D00082F84840D4641465546582F858404FF41E
:1041E0001673A2F85A30D76541F288371766734BB9
:1041F000C3F800A01C719C609C811C615C619C6187
:10420000DC611C62C3F80880DFF8F0C1C3F800C0AD
:1042100083F8241083F8324083F833405C639C6356
:1042200098874146664808F0FBFDDFF8D491C9F84D
:1042300000A089F80440C9F80840A9F80C40C9F862
:104240001040C9F81440C9F81840C9F81C40C9F812
:104250002040C9F808804B465A4A43F8242BC9F835
:1042600024405C609C60DC601C614FF0590389F85D
:104270003830554AC2F800A01471946094811461DA
:1042800054619461D4611462C2F808804F4B13608A
:10429000546282F8284082F8294082F82A4082F845
:1042A0002B4082F82C400323D385494BC3F800A050
:1042B0001C719C609C811C615C619C61DC611C6266
:1042C000C3F8088043491960062199849F6283F8E6
:1042D0002C401C635C639C639C87DC87A3F8404094
:1042E000A3F84240A3F84440FA20A3F8460083F81C
:1042F0004840DC64A3F8504083F85240A3F85410BF
:104300004FF4FA6199654FF4C870A3F85C00196620
:104310003149C1F800A00C718C608C810C614C613A
:104320008C61CC610C62C1F808802C4808604A623C
:104330008B622B4FC7F800A03C71BC60BC813C6114
:104340007C61BC61FC613C62C7F80880254B3B6026
:10435000BC62BC85244B25490B600B46244A43F8BC
:104360000C2B4B608C600C7301F11C0B2822214636
:10437000584619F01BF8ABF11C01CC61CBF8044096
:10438000CBF80840CBF80C40CBF81040CBF81440E9
:1043900038E000BF8C36002064790020E0E201089C
:1043A000D8F30108587A002048F20108007B002069
:1043B00064F20108A4030020D4F20108943600201E
:1043C000080400202CF20108CC35002080F20108FE
:1043D000287B002028F30108CC7B002074F0010822
:1043E00034040020E8EF010890E20108FC340020CA
:1043F000ECEE0108DC360020C4E2010810F20108EE
:1044000028790020CBF81840CBF81C40CBF820408E
:10441000CBF8244021465846FFF7F2F8ABF11C01D7
:1044200001F1440B28222146584618F0BFFFABF19A
:1044300044014C64CBF80440CBF80840CBF80C4066
:10444000CBF81040CBF81440CBF81840CBF81C4008
:10445000CBF82040CBF8244021465846FFF7D0F84F
:1044600007F54053B54AC3F8C82003F59E72C3F858
:104470003421C3F8384183F83C411832C3F84C2149
:10448000C3F8504183F854411832C3F86421C3F88B
:10449000684183F86C41C3F87C41C3F88041C3F89C
:1044A0008441C3F88841A64AC3F88C21A54A92E802
:1044B0000300C3F89001A3F89411C7F82490DFF823
:1044C000DC92C9F800A089F80440C9F80840A9F8AE
:1044D0000C40C9F81040C9F81440C9F81840C9F890
:1044E0001C40C9F82040C9F80880974BC9F8003033
:1044F00089F82840A9F82A4009F13403484640F8D1
:104500002C3F924A4FF00003511EFDF7B5FDC9F84C
:104510004440C9F84840C9F84C40FF2389F850305E
:1045200089F851404FF0590389F852304EF6602314
:10453000C9F85430C9F82470854BC3F800A01C7129
:104540009C609C811C615C619C61DC611C62C3F8A5
:104550000880804A1A60C3F824907F4BC3F800A0FB
:104560001C719C609C811C615C619C61DC611C62B3
:10457000C3F80880794A1A609C842246DC8483F858
:10458000284083F82940012783F82A704FF44871A6
:104590009985D98540F2CF711986032183F83210AD
:1045A0006F4BC3F800A01C719C609C811C615C6116
:1045B0009C61DC611C624146C3F808806948186050
:1045C000022483F82440684BC3F800A01A719A6053
:1045D0009A811A615A619A61DA611A62C3F8088095
:1045E000624818605A6283F8287083F8297083F84B
:1045F0002A2083F82B7083F82C70642083F82D0018
:1046000083F82E2083F82F2083F8302083F8312080
:1046100083F83220042083F83300072083F8340025
:10462000534858625348C0F800A0027182608281EA
:10463000026142618261C2610262C0F80880DFF8F3
:1046400058E1C0F800E080F82C2080F82D2080F898
:104650002E20028680F8322080F83320828680F86F
:10466000362080F8372080F83840062480F839401A
:104670004FF07808A0F83A80DFF824E1C0F824E091
:104680003D4CC4F800A02271A260A2812261626147
:10469000A261E2612262A160DFF8F8C0C4F800C044
:1046A00084F8282062854FF0FF0C84F82CC084F831
:1046B0002D2084F82E2084F82F70A4F83080C4F8C0
:1046C00024E0234A04922D4A0392029401902C4A3A
:1046D00000922C4A2C4808F07BFBDEE42A4A2B4B44
:1046E00013602B4B1360244A2A4911601360214A3E
:1046F0002949116013601C4A1C4911601360184A53
:10470000184911601360144A144911601360104A6B
:10471000104911601360214B0B4A1A605C6C9D6C50
:1047200004E0A168013118F081F81834A54239D0AD
:10473000234653F8080B9842F3D1F6E720EF01081F
:10474000C4F301088CDD01089CF20108F1E10108C5
:10475000D0790020B8F20108F8790020F0F20108C1
:104760002C7A00200CF30108FC35002020F0010811
:10477000CC7B0020FC7B0020987B0020943600201E
:10478000007B0020587A00203C7C002004F00108C7
:10479000C4E2010858F0010890F001083436002006
:1047A00008040020754B586CD96C091A08B118F030
:1047B0003DF8724BD86A3433984204D0343B596B7D
:1047C000013118F033F86E4C6C4B1C606D4D6E4B24
:1047D0002B606E48FFF7A4FB2C606D4B6D4A1A608E
:1047E0001C606D4B6D4A1A601C606D4B6D4A1A60FF
:1047F0001C606D4B6D4A1A601C606D4B6D4A1A60EF
:104800001C606D4B6D4A1A601C606D4B6D4A1A60DE
:104810001C606D4B6D4A1A601C606D4B6D4A1A60CE
:104820001C606D4B6D4A1A606D4A1A601C606D4BBE
:1048300003F580416C4AC1F8A4206C4AC1F8A42059
:1048400003F540536A49C3F8941EC3F8942EC3F885
:10485000041DC3F8042D674AC3F8842203F6D84028
:1048600017F072F8644815F0F7FE644815F0F4FE8E
:10487000634815F0F1FE634815F0EEFE624815F04E
:10488000EBFE624D7DB105F6BC1403E0E168013139
:1048900017F0CCFFA54206D01C3C606804F10C0365
:1048A0009842F3D1F6E75A4B5A4AC3F884225A4A3F
:1048B000C3F88422594AC3F80822594AC3F8082287
:1048C00003F51374D4F808C0CDF848C0E76813970F
:1048D0002669149665691595A0690E90E1690F9196
:1048E000226A1092636A1193CDF868C01B971C96D8
:1048F0001D95169017911892199316AA1AA9204679
:10490000FEF71CFE2046FEF709FE283CD4F808C03E
:10491000CDF828C0E7680B9726690C9665690D9558
:10492000A0690690E1690791226A0892636A099377
:10493000CDF888C02397249625951E901F9120922C
:1049400021931EAA22A92046FEF7F8FD2046FEF775
:10495000E5FDA4F11802134653F8080B984203D062
:104960009168013117F062FF294B2E4AC3F80822E3
:1049700003F5A470FFF7D4FAFFF795BB3436002097
:10498000C4E2010834040020E8EF0108FC340020F0
:10499000CC7B002074F00108287B002028F301085C
:1049A000CC35002080F20108287900202CF2010883
:1049B000080400203CF001089436002010F20108A1
:1049C000A4030020D4F20108007B002064F2010857
:1049D000587A002048F2010864790020D8F30108D1
:1049E000E0E20108DC360020F0ED0108FCE10108FE
:1049F00034EE010808EC0108B0730020AC7300200D
:104A0000A8730020A4730020A0730020C8690020B0
:104A1000DC66002068E2010840E2010854EF01086A
:104A2000ECEE010890E20108F0B5A1B0054607469A
:104A3000574B47F8B43BD0F8B4407E6800E04834A8
:104A4000A6421BD0206B04F13803984203D0A16B1F
:104A5000013117F0EBFEA06904F12003984203D066
:104A6000216A013117F0E2FE234653F8080B984201
:104A7000E5D0A168013117F0D9FEE0E7D5F8B40020
:104A8000B968091A08B117F0D1FE05F16C04D5F820
:104A90009C0005F1A403984204D0D5F8A41001317C
:104AA00017F0C4FEA06904F12003984203D0216AE4
:104AB000013117F0BBFEE86E04F10803984203D001
:104AC000A168013117F0B2FE2C46324B44F8443B4A
:104AD000D4F808E0CDF830E0D4F80CC0CDF834C0FC
:104AE00027690E9766690F96A0690890E169099198
:104AF000226A0A92636A0B93CDF850E0CDF854C055
:104B000016971796109011911292139310AA14A948
:104B10002046FEF713FD2046FEF700FD05F11C04BC
:104B2000D5F824E0CDF810E0D5F828C0CDF814C0B1
:104B3000EF6A06972E6B0796686B0090A96B019140
:104B4000EA6B02922B6C0393CDF870E0CDF874C041
:104B50001E971F96189019911A921B9318AA1CA9B8
:104B60002046FEF7EBFC2046FEF7D8FC686805F10E
:104B70000C03984203D0E968013117F057FE064B49
:104B80002B60C021284617F051FE284621B0F0BD09
:104B900020EF0108ECEE010890E2010808B54FF69D
:104BA000FF710120FFF772FA08BD08B54FF6FF71DB
:104BB0000020FFF76BFA08BD024A0260024A026059
:104BC000704700BFE0E20108C4E2010838B50446BE
:104BD0000023C362806800F5804393F8E031003B16
:104BE00018BF012384F8303000F5805393F8621029
:104BF00000F58250043005F0B5F984F82700A56867
:104C000005F5844040300CF098FD05F58045B5F879
:104C10004A329842B4BF0020012084F8280058B1DD
:104C2000A36803F5405393F8193E23B994F827205D
:104C300012B1184600E0002084F82A00002384F80E
:104C4000293040B1012384F82430022384F8253030
:104C5000032384F8263038BD10B50446044B0360A6
:104C6000044B0360342117F0E1FD204610BD00BF66
:104C7000E0E20108C4E201082DE9F04F8BB00446E0
:104C8000039107921F46866806F54A55043590F849
:104C90002430002B71D1884694F82520002A6FD14A
:104CA000DDF80CA0002B6ED106F5745B0BF1040B44
:104CB000DBF80030DB6958469847014694F8243009
:104CC0003A463046FCF708FF0190DBF800305B699C
:104CD00058469847014694F824303A463046FCF747
:104CE000FBFE0290B8F1050F52D0DBF800301B6AD2
:104CF00058469847059094F82530002B58D0A36863
:104D000003F5814909F12409D9F80030DB694846E7
:104D10009847014694F825303A463046FCF7DCFEC9
:104D20008346D9F800305B6948469847014694F8B5
:104D300025303A463046FCF7CFFE0490BAF1050F15
:104D40003CD0D9F800301B6A48469847069006F5D3
:104D5000805393F86F3003F00103099394F82430E3
:104D6000002B3BD194F82A300893B8F1000F3BD0C8
:104D7000B8F1080F36D0012337E0DDF81C808BE74F
:104D80004FF0000A8EE706F57A5B0BF1140B8FE704
:104D900094F82430012B05D006F58053B3F8663023
:104DA0000293A2E706F58053B3F86C3002939CE7B8
:104DB000A36803F5745909F10409A5E794F82530AF
:104DC000012B05D006F58053B3F866300293B8E79F
:104DD00006F58053B3F86C300293B2E794F82930AB
:104DE0000893C2E7002300E00023019A0299A2EB96
:104DF00001090FFA89F901224946284600F056FDBB
:104E000001220599284601F01DF8B8F1010F1FD0C5
:104E1000089B13B9B8F1000F01D1BBB20193B8F1EF
:104E2000070F1BD04FF47F0301220199284600F0A1
:104E3000E9FDB8F1050F05D094F8243013B9B8F1A5
:104E4000040F12D094F82530FBB994F82A201DE005
:104E50004A460121284601F0B7F9E0E70123099A03
:104E60000199284600F04AFEE3E7A06800F5825069
:104E70000430FCF71BFDA06800F5405100233A46C2
:104E8000B1F8401EFCF728FEDCE70022BAF1000F63
:104E900008D0BAF1080F02D04FF0010804E04FF03B
:104EA000000801E04FF00008002B63D1BAF1010FB8
:104EB00050D012B9BAF1000F01D11FFA87FBBAF135
:104EC000070F50D04FF47F0300225946284600F0C8
:104ED00099FD049BABEB03014346002209B228462F
:104EE00000F0E4FC00220699284600F0ABFF94F89D
:104EF0002630032B00F09980A26802F5745808F15F
:104F0000040802F5405191F8480E003818BF0120FE
:104F1000012B00F09080022B00F09980002800F017
:104F2000B780D8F80030DB6940469847014694F8CE
:104F300026303A463046FCF7CFFD014694F826303D
:104F4000039A073A18BF0122284602F037FF0BB038
:104F5000BDE8F08F049BABEB030212B200212846A0
:104F600001F032F9ABE70023099A5946284600F0D0
:104F7000C5FDAEE7D4F8088008F58140243004F080
:104F8000DFF808F58048B8F81A32984231D294F820
:104F9000303023BB1FFA87FB94F8303043B1A3684D
:104FA00003F5804393F8E031013BDBB2022B35D8A7
:104FB0004FF47F0300225946284600F023FD049B4E
:104FC000ABEB030194F83030002209B2284600F020
:104FD0006DFC00220699284600F034FF87E728463A
:104FE00000F0ACFF002184F83010284601F06EF884
:104FF000D0E7012384F83030A36803F5804393F8A9
:10500000E031013BDBB2022BC6D8049BABEB0302C1
:1050100012B20021284601F0D7F8BDE70023099A13
:105020005946284600F06AFDC9E700221146284685
:1050300002F0C4FE8BE702F57A5808F1140891F8E3
:10504000D80F003818BF0120079B039366E702F5CD
:10505000814808F1240802F58042D2F8A430DB68C8
:105060004046984788B103230393D4F8089009F584
:105070008140243004F064F809F58049B9F81A3207
:10508000984234BF0020012048E707230393ECE750
:1050900094F8263000221146284602F08FFE56E78B
:1050A000F8B5856890F82530022B00D0F8BD04468D
:1050B00005F581462436304604F042F805F5804374
:1050C000B3F81A329842F1D30EF024FAE36A984208
:1050D000ECD305F5804393F8B931002BE6D005F504
:1050E0008045D5F8A430DB69304698470746D5F8A7
:1050F000A4305B6930469847A368391A09B203F5B2
:105100004A50043000F0E4FE0EF004FA6430E0622D
:10511000CCE700002DE9F04F87B0074605921C460A
:10512000BDF84050866806F5805393F86F303C4ACE
:10513000B2F800803B4AB2F800903B4AB2F800B0A7
:105140003A4AB2F800A013F0010F21D006F58056BC
:1051500096F96F30002B34DB0126002C49D1A5B124
:10516000B86800F58040643029B2059B022B50D00E
:105170000FFA88F2059B022B4ED00FFA89F3002418
:1051800002940196009603F047FA07B0BDE8F08F4D
:105190000FFA88F00CF08EFF1FFA80F80FFA89F0F2
:1051A0000CF088FF1FFA80F90FFA8BF00CF082FFE9
:1051B0001FFA80FB0FFA8AF00CF07CFF1FFA80FACE
:1051C000C4E71B4A82FB0432E317C3EB620303EB21
:1051D0008303E31A9BB2E41A24B2164BA3FB052304
:1051E0009B0803EB8303EB1A9BB2ED1AADB20526C5
:1051F000B3E7B86800230293019600960FFA89F38B
:105200000FFA88F2214600F58040243003F004FABA
:10521000A5E70FFA8BF2ADE70FFA8AF3AFE700BF0D
:10522000C2F30108C0F30108BCF30108BAF3010896
:1052300067666666CDCCCCCC2DE9F0478EB00446CF
:105240001646876807F54A5504358846002952D125
:105250004FF0000A002E57D14FF00009CDF8009012
:105260000FFA8AF394F8252094F824102046FFF7CB
:1052700051FFB8F1000F50D1002E00F0DD8094F8FE
:105280002520022A00F09A80394608A8FCF7A2FFE0
:1052900094F8251007F585501430FCF72EFB0246D4
:1052A000002308A9284600F053FC08980AAB98424E
:1052B00003D00A99013117F0B9FA284600F05CFED4
:1052C00094F8283023B194F82730002B00F0A68002
:1052D00094F83130002B00F0A180072B00F09E8065
:1052E000052B00F0AD80032B40F09C800021284668
:1052F00000F00CFF96E090F8241007F5825004307F
:10530000FCF798F98246A5E794F8251007F5825036
:105310000430FCF78FF98146A0E794F82420394641
:1053200002A8FCF757FF94F8241007F585501430B5
:10533000FCF7E3FA0246012302A9284600F008FC24
:10534000029804AB984203D00499013117F06EFA29
:1053500001225146284602F01BFD01220021284669
:1053600000F01AFE94F824303BB994F82820B2B12A
:1053700094F8271011B1002200E000228BB994F8B4
:1053800031308AB983B1072B0ED0052B11D0032BF6
:105390007FF472AF0121284600F0B8FE6CE70022CE
:1053A000ECE794F83230ECE70121284600F08EFE5D
:1053B00062E70121284600F0E9FE5DE7A06804F0FD
:1053C00073F907B2A06800F5805393F86F8008F076
:1053D000010800F58140243003F0E1FE014600227F
:1053E000284600F023FC42463946284600F09CFC43
:1053F000284600F0A3FDA36803F5804393F8E0314D
:10540000013BDBB2022B04D80021284600F06EFEDF
:1054100008E00021284600F059FE03E0002128465C
:1054200000F054FE00224946284602F0B1FC002359
:1054300084F83030E362B04640460EB0BDE8F087F5
:105440000121284600F0A2FEECE710B5012380F808
:10545000263090F828305BB1826802F5405292F80D
:10546000192E22B990F8274014B1134600E000230A
:1054700080F82A30012915D0022918D002230021F2
:1054800090F824C090F8252080F8241080F825306A
:10549000D21A18BF0122BCEB010118BF0121FFF78E
:1054A000CBFE10BD022380F826300023E8E72BB1A5
:1054B000032380F826300B460121E1E70023F8E7BB
:1054C00008B590F82430012B13D090F82A3043B956
:1054D000836803F5804393F8E031013BDBB2022B94
:1054E00003D80221FFF7B1FF08BD0121FFF7ADFF8F
:1054F000FAE70020F8E790F82420012A01D00020E4
:10550000704708B5034690F82520022A09D090F884
:10551000290048B99A6802F5804292F8E0211AB948
:1055200006E090F82A2022B900211846FFF78DFFE7
:1055300008BD0020FCE708B590F82530022B0AD002
:1055400090F82A301BB10221FFF77FFF04E0002111
:10555000FFF77BFF00E0002008BD08B590F825307C
:10556000022B01D0002008BD826802F5405393F859
:10557000483EDBB2022B08D002F5405292F8483E7A
:10558000DBB2012B01D00020EDE70121FFF75DFF29
:105590000120E8E708B5836803F5804393F8E0311C
:1055A000013BDBB2022B03D90121FFF74EFF08BDFF
:1055B0000021FFF74AFFFAE708B590F8243053B10D
:1055C00090F825305BB190F8263063B9032380F85A
:1055D0002630002002E00221FFF737FF08BD02213C
:1055E000FFF733FFFAE70020F8E790F824308B420A
:1055F00005D090F825308B4203D00320704701205E
:1056000070470020704738B505460C460021FFF76B
:10561000ECFF0246A868214600F54A50043000F02D
:10562000BBFC38BD70B506461446FFF7DEFF032805
:1056300024D00546B66806F54A560436621E072A87
:1056400027D8DFE802F004090E13171C26210146B3
:10565000304600F04BFD11E00146304600F076FD8B
:105660000CE00146304600F051FD07E001463046AF
:1056700000F09AFD2946304600F088FD70BD0146D5
:10568000304600F073FDF9E70146304600F04EFD6C
:10569000F4E70146304600F019FDEFE738B505465E
:1056A0001446FFF7A2FF032807D00246A868214648
:1056B00000F54A50043002F06BFB38BD38B590F865
:1056C0002530022B00D038BD0C46856805F5814099
:1056D000243003F064FD0146224605F54A500430AB
:1056E00000F0A4FAEFE7000070B50646194B03601E
:1056F00000F6542016F028F906F5256014F0ACFFEA
:1057000006F64C2014F0A8FF06F6482014F0A4FF7B
:1057100006F6442014F0A0FF06F5246014F09CFF68
:1057200016F168050FD006F6242403E0E168013184
:1057300017F07CF8A54206D01C3C606804F10C030D
:105740009842F3D1F6E7044B3360044B33603046A4
:1057500070BD00BF08EC010868E2010840E20108E2
:1057600070B506461B4B036000F6542016F0ECF8AB
:1057700006F5256014F070FF06F64C2014F06CFF5F
:1057800006F6482014F068FF06F6442014F064FF83
:1057900006F5246014F060FF16F168050FD006F6D8
:1057A000242403E0E168013117F040F8A54206D057
:1057B0001C3C606804F10C039842F3D1F6E7064BF9
:1057C0003360064B33604FF42861304617F02EF8F3
:1057D000304670BD08EC010868E2010840E20108AB
:1057E0000288124B1B68596B8A4204D8596B8A4253
:1057F0000ED300207047596B521A042A04D95A6BF1
:1058000004325A63012070475A6B01325A63F9E738
:10581000596B8A1A042A04D95A6B043A5A63012034
:1058200070475A6B013A5A63F9E700BF8091002034
:1058300070B582B00446F9B1C4F82C1A261DD4F80C
:105840002C1A304616F067FC304616F053FD85B230
:105850000D49304616F0E2FC811C2A4689B201A8A7
:1058600014F0C6FE01A904F6442014F0DEFE01A8DF
:1058700014F0F2FE02B070BDD0F87C3AC0F82C3AB9
:10588000002380F86430D9E7F4E2010808B5064B3C
:105890001B6800225A63FF2380F8583AB0F8300A98
:1058A00015F04CF908BD00BF809100202DE9F04FA4
:1058B00085B00291012A7CD804461F467CD0B0F8FE
:1058C0005A5AD4F8443A002B79D01E8806F1140AAB
:1058D0001FFA8AFAD4F8403A002B72D05B88DBB208
:1058E000039306F117081FFA88F8B4F8323A032236
:1058F0002946404615F047FABDF80C90B4F8323A04
:105900004A462946504615F0CCF906F11A00B4F87B
:10591000323A4A46294680B215F0C3F905EB090A26
:105920001FFA8AFA0AF1050B1FFA8BFBB4F8323A18
:1059300008225946404615F026FA002F43D0B4F805
:10594000343A07225946404615F06EFA06F1110026
:1059500005F10901B4F8323A009303231A4689B2DB
:1059600080B215F0B1F81536B6B2B4F8303A0093FB
:105970004B4605222946304615F0A6F80A226FF05C
:10598000630102980CF057FB034600B2002820DDAB
:105990009BB2E91A89B20A3189B24B449BB20A3BE5
:1059A0009BB29FB1B4F8342A00920522304615F01C
:1059B0008BF805B0BDE8F08FB0F86A5A81E7002691
:1059C00084E700238BE7B4F8303ABAE7B4F8302A1A
:1059D000EAE7039B0A3B0093012300226FF0630177
:1059E0000CF032FBC3B2AAEB030189B23FB1B4F8A9
:1059F000342A00920522304615F066F8D9E7B4F84B
:105A0000302AF6E7012A75D82DE9F04186B005461F
:105A100017461E46B1F57A7F01D340F2E7310A46B8
:105A2000354904A817F014FE2C1DD5F8741A204629
:105A300016F071FB0221204616F07EFB05F524606E
:105A400014F01BFED5F8403A591D002B37D01A88A8
:105A50000023029301930123009304AB204616F028
:105A6000EDFB14F065FF0446D5F8403A4BB31888B7
:105A7000241AA4B2143CA4B214F05AFF804614F0C5
:105A80005DFF80451FD8012F2BD0B5F85A1AB5F805
:105A9000307AB6F5803F27D3B5F8326AD5F8400A98
:105AA00020B3028820B34388053003960297019201
:105AB0000090204615F0FCFA06B0BDE8F081002207
:105AC000C6E70020D4E714F033FFD5F8403A33B1ED
:105AD0001C88041BC4F34F043234A4B2D3E700245F
