:020000040800F2
:100000000000022071170108790201087B02010833
:100010007D0201087F020108810201080000000042
:100020000000000000000000000000008302010842
:10003000850201080000000087020108890201080A
:10004000C1170108C1170108C1170108C11701082C
:10005000C1170108C1170108C1170108C11701081C
:10006000C1170108C1170108C1170108C11701080C
:10007000C1170108C1170108C1170108C1170108FC
:10008000C1170108C1170108C1170108C1170108EC
:10009000C1170108C1170108C1170108C1170108DC
:1000A000C1170108C1170108C11701089102010811
:1000B000C1170108C1170108C1170108C1170108BC
:1000C000C1170108C1170108C1170108C1170108AC
:1000D000C1170108C1170108C1170108C11701089C
:1000E000C1170108C1170108C1170108C11701088C
:1000F000C1170108C1170108C1170108C11701087C
:10010000C1170108C1170108A1020108C1170108A0
:10011000C1170108C1170108C1170108C11701085B
:10012000B1020108C1170108C1020108D10201088A
:10013000E10201080000000000000000C1170108F2
:10014000C1170108C1170108C1170108C11701082B
:10015000C1170108C1170108C1170108C11701081B
:10016000C1170108C1170108C1170108C11701080B
:10017000C1170108C1170108C117010800000000DC
:1001800000000000C117010800000000000000008E
:10019000C11701080000000000000000C11701089D
:1001A000000000000000000000000000C11701086E
:1001B000C1170108C1170108C1170108C1170108BB
:0401C000C11701085A
:1001D00010B5054C237833B9044B13B10448AFF381
:1001E00000800123237010BD2004002000000000C7
:1001F0003CC1010808B5034B1BB103490348AFF3E9
:10020000008008BD00000000240400203CC101085B
:1002100010F8012B11F8013B012A28BF9A42F7D0B0
:10022000D01A70470000000000000000000000002D
:1002300001F0FF01102A2BDB10F0070F08D010F897
:10024000013B013A8B422DD010F0070F42B3F6D19B
:10025000F0B441EA012141EA014122F007047FF0B4
:1002600000070023F0E80256083C85EA010586EA0B
:10027000010685FA47F5A3FA87F586FA47F6A5FA47
:1002800087F68EB9EED1F0BC01F0FF0102F0070253
:1002900032B110F8013B013A83EA010313B1F8D1FE
:1002A0000020704701387047002D06BF35460338DF
:1002B000073815F0010F07D1013015F4807F02BF18
:1002C000013015F4C03F0130F0BC0138704700BF69
:1002D000034613F8012B002AFBD1181A0138704786
:1002E00081F0004102E000BF83F0004330B54FEAE7
:1002F00041044FEA430594EA050F08BF90EA020F54
:100300001FBF54EA000C55EA020C7FEA645C7FEAE6
:10031000655C00F0E2804FEA5454D4EB5555B8BF09
:100320006D420CDD2C4480EA020281EA030382EA7A
:10033000000083EA010180EA020281EA0303362D0C
:1003400088BF30BD11F0004F4FEA01314FF4801CDF
:100350004CEA113102D0404261EB410113F0004FF1
:100360004FEA03334CEA133302D0524263EB4303A8
:1003700094EA050F00F0A780A4F10104D5F1200E46
:100380000DDB02FA0EFC22FA05F2801841F10001A1
:1003900003FA0EF2801843FA05F359410EE0A5F175
:1003A00020050EF1200E012A03FA0EFC28BF4CF0A6
:1003B000020C43FA05F3C01851EBE37101F000455C
:1003C00007D54FF0000EDCF1000C7EEB00006EEB69
:1003D0000101B1F5801F1BD3B1F5001F0CD34908F3
:1003E0005FEA30004FEA3C0C04F101044FEA44524A
:1003F00012F5800F80F09A80BCF1004F08BF5FEAD1
:10040000500C50F1000041EB045141EA050130BDB0
:100410005FEA4C0C404141EB0101013C28BFB1F5C2
:10042000801FE9D291F0000F04BF01460020B1FA0D
:1004300081F308BF2033A3F10B03B3F120020CDAE0
:100440000C3208DD02F1140CC2F10C0201FA0CF0BE
:1004500021FA02F10CE002F11402D8BFC2F1200C23
:1004600001FA02F120FA0CFCDCBF41EA0C019040D9
:10047000E41AA2BF01EB0451294330BD6FEA040422
:100480001F3C1CDA0C340EDC04F11404C4F120020D
:1004900020FA04F001FA02F340EA030021FA04F31F
:1004A00045EA030130BDC4F10C04C4F1200220FA76
:1004B00002F001FA04F340EA0300294630BD21FAB4
:1004C00004F0294630BD94F0000F83F4801306BF7A
:1004D00081F480110134013D4EE77FEA645C18BF6E
:1004E0007FEA655C29D094EA050F08BF90EA020F05
:1004F00005D054EA000C04BF1946104630BD91EAFD
:10050000030F1EBF0021002030BD5FEA545C05D1FF
:100510004000494128BF41F0004130BD14F580043E
:100520003CBF01F5801130BD01F0004545F0FE41B2
:1005300041F470014FF0000030BD7FEA645C1ABFE7
:10054000194610467FEA655C1CBF0B46024650EA1E
:10055000013406BF52EA033591EA030F41F400214A
:1005600030BD00BF90F0000F04BF0021704730B5D0
:100570004FF4806404F132044FF000054FF00001A5
:1005800050E700BF90F0000F04BF0021704730B566
:100590004FF4806404F1320410F0004548BF40423B
:1005A0004FF000013EE700BF42004FEAE2014FEA90
:1005B00031014FEA02701FBF12F07F4393F07F4F6B
:1005C00081F06051704732F07F4208BF704793F06E
:1005D0007F4F04BF41F40021704730B54FF4607481
:1005E00001F0004521F000411CE700BF50EA010284
:1005F00008BF704730B54FF000050AE050EA01022D
:1006000008BF704730B511F0004502D5404261EB9C
:1006100041014FF4806404F132045FEA915C3FF4DD
:10062000D8AE4FF003025FEADC0C18BF03325FEA7A
:10063000DC0C18BF033202EBDC02C2F1200300FA2B
:1006400003FC20FA02F001FA03FE40EA0E0021FA50
:1006500002F11444BDE600BF70B54FF0FF0C4CF43E
:10066000E06C1CEA11541DBF1CEA135594EA0C0FF0
:1006700095EA0C0F00F0DEF82C4481EA030621EA2B
:100680004C5123EA4C5350EA013518BF52EA033566
:1006900041F4801143F4801338D0A0FB02CE4FF018
:1006A0000005E1FB02E506F00042E0FB03E54FF048
:1006B0000006E1FB03569CF0000F18BF4EF0010E40
:1006C000A4F1FF04B6F5007F64F5407404D25FEA3C
:1006D0004E0E6D4146EB060642EAC62141EA5551EF
:1006E0004FEAC52040EA5E504FEACE2EB4F1FD0C31
:1006F00088BFBCF5E06F1ED8BEF1004F08BF5FEAAF
:10070000500E50F1000041EB045170BD06F0004660
:1007100046EA010140EA020081EA0301B4EB5C040D
:10072000C2BFD4EB0C0541EA045170BD41F4801105
:100730004FF0000E013C00F3AB8014F1360FDEBF2A
:10074000002001F0004170BDC4F10004203C35DA06
:100750000C341BDC04F11404C4F1200500FA05F389
:1007600020FA04F001FA05F240EA020001F000422A
:1007700021F0004110EBD37021FA04F642EB0601A0
:100780005EEA430E08BF20EAD37070BDC4F10C04CA
:10079000C4F1200500FA04F320FA05F001FA04F28E
:1007A00040EA020001F0004110EBD37041F100017A
:1007B0005EEA430E08BF20EAD37070BDC4F1200585
:1007C00000FA05F24EEA020E20FA04F301FA05F2ED
:1007D00043EA020321FA04F001F0004121FA04F295
:1007E00020EA020000EBD3705EEA430E08BF20EA65
:1007F000D37070BD94F0000F0FD101F0004640009F
:1008000041EB010111F4801F08BF013CF7D041EA20
:10081000060195F0000F18BF704703F00046520024
:1008200043EB030313F4801F08BF013DF7D043EAF5
:100830000603704794EA0C0F0CEA135518BF95EAAB
:100840000C0F0CD050EA410618BF52EA4306D1D132
:1008500081EA030101F000414FF0000070BD50EA51
:10086000410606BF1046194652EA430619D094EADB
:100870000C0F02D150EA013613D195EA0C0F05D1C5
:1008800052EA03361CBF104619460AD181EA030119
:1008900001F0004141F0FE4141F470014FF00000D1
:1008A00070BD41F0FE4141F4780170BD70B54FF06C
:1008B000FF0C4CF4E06C1CEA11541DBF1CEA1355EC
:1008C00094EA0C0F95EA0C0F00F0A7F8A4EB0504CE
:1008D00081EA030E52EA03354FEA013100F08880C5
:1008E0004FEA03334FF0805545EA131343EA12638E
:1008F0004FEA022245EA111545EA10654FEA002643
:100900000EF000419D4208BF964244F1FD0404F5FB
:10091000407402D25B084FEA3202B61A65EB030557
:100920005B084FEA32024FF480104FF4002CB6EB14
:10093000020E75EB030E22BFB61A754640EA0C0094
:100940005B084FEA3202B6EB020E75EB030E22BFD4
:10095000B61A754640EA5C005B084FEA3202B6EB15
:10096000020E75EB030E22BFB61A754640EA9C00D4
:100970005B084FEA3202B6EB020E75EB030E22BFA4
:10098000B61A754640EADC0055EA060E18D04FEA62
:10099000051545EA16754FEA06164FEAC30343EA02
:1009A00052734FEAC2025FEA1C1CC0D111F4801FCF
:1009B0000BD141EA00014FF000004FF0004CB6E7C8
:1009C00011F4801F04BF01430020B4F1FD0C88BF67
:1009D000BCF5E06F3FF6AFAEB5EB030C04BFB6EB72
:1009E000020C5FEA500C50F1000041EB045170BD65
:1009F0000EF0004E4EEA113114EB5C04C2BFD4EB92
:100A00000C0541EA045170BD41F480114FF0000E15
:100A1000013C90E645EA060E8DE60CEA135594EA91
:100A20000C0F08BF95EA0C0F3FF43BAF94EA0C0F94
:100A30000AD150EA01347FF434AF95EA0C0F7FF409
:100A400025AF104619462CE795EA0C0F06D152EA5D
:100A500003353FF4FDAE1046194622E750EA410641
:100A600018BF52EA43067FF4C5AE50EA41047FF452
:100A70000DAF52EA43057FF4EBAE12E74FF0FF3CB7
:100A800006E000BF4FF0010C02E000BF4FF0010C88
:100A90004DF804CD4FEA410C7FEA6C5C4FEA430C01
:100AA00018BF7FEA6C5C1BD001B050EA410C0CBF50
:100AB00052EA430C91EA030F02BF90EA020F0020B2
:100AC000704710F1000F91EA030F58BF994208BF19
:100AD00090422CBFD8176FEAE37040F001007047D6
:100AE0004FEA410C7FEA6C5C02D150EA013C07D12D
:100AF0004FEA430C7FEA6C5CD6D152EA033CD3D078
:100B00005DF8040B704700BF8446104662468C4671
:100B10001946634600E000BF01B5FFF7B7FF0028A4
:100B200048BF10F1000F01BD4DF808EDFFF7F4FFCD
:100B30000CBF012000205DF808FB00BF4DF808ED58
:100B4000FFF7EAFF34BF012000205DF808FB00BF7B
:100B50004DF808EDFFF7E0FF94BF012000205DF89D
:100B600008FB00BF4DF808EDFFF7CEFF94BF012052
:100B700000205DF808FB00BF4DF808EDFFF7C4FF4B
:100B800034BF012000205DF808FB00BF4FEA410C94
:100B90007FEA6C5C02D150EA013C0AD14FEA430C77
:100BA0007FEA6C5C02D152EA033C02D14FF00000B4
:100BB00070474FF0010070474FEA410212F50012F2
:100BC00015D211D56FF47873B3EB625212D94FEA94
:100BD000C12343F0004343EA505311F0004F23FA7E
:100BE00002F018BF404270474FF00000704750EAD3
:100BF000013005D111F0004008BF6FF00040704790
:100C00004FF00000704700BF4A0011D212F50012E9
:100C100011D20DD56FF47873B3EB62520ED44FEA54
:100C2000C12343F0004343EA505323FA02F07047D4
:100C30004FF00000704750EA013002D14FF0FF3012
:100C400070474FF0000070474FEA4102B2F1E043B5
:100C500024BFB3F5001CDCF1FE5C0DD901F0004CA3
:100C60004FEAC0024CEA5070B2F1004F40EB8300F3
:100C700008BF20F00100704711F0804F21D113F11F
:100C80003872BCBF01F00040704741F480114FEA58
:100C90005252C2F11802C2F1200C10FA0CF320FAE1
:100CA00002F018BF40F001004FEAC1234FEAD323FE
:100CB00003FA0CFC40EA0C0023FA02F34FEA430368
:100CC000CCE77FEA625307D150EA01331EBF4FF0F1
:100CD000FE4040F44000704701F0004040F0FE400C
:100CE00040F40000704700BF53B94AB9002908BF5B
:100CF00000281CBF4FF0FF314FF0FF3000F06AB901
:100D0000ADF1080C6DE904CE00F006F8DDF804E062
:100D1000DDE9022304B070472DE9F047089D0C4639
:100D2000002B4ED194468C458646B2FA82F262D9A7
:100D30004AB1C2F12003914020FA03F30CFA02FCFD
:100D4000194300FA02FE4FEA1C471FFA8CF6B1FB6A
:100D5000F7F44FEA1E4307FB141143EA014304FB77
:100D600006F199420AD91CEB030304F1FF3080F02D
:100D70001281994240F20F81023C6344591A1FFAD2
:100D80008EF3B1FBF7F007FB101143EA014300FBC0
:100D900006F69E420AD91CEB030300F1FF3180F0F6
:100DA000FC809E4240F2F980634402389B1B40EA7B
:100DB000044000211DB1D3400022C5E90032BDE846
:100DC000F0878B4205D90DB1C5E900010021084625
:100DD000F5E7B3FA83F1002946D1A34202D390424A
:100DE000C0F0F080861A64EB03030120002DE6D0EA
:100DF000C5E90063E3E7002A40F09080A1EB0C0412
:100E00004FEA1C481FFA8CF70121B4FBF8F64FEAB1
:100E10001E4308FB164443EA044307FB06F09842CE
:100E200008D91CEB030306F1FF3402D2984200F20A
:100E3000CD8026461C1A1FFA8EF3B4FBF8F008FB8F
:100E4000104443EA044300FB07F79F4208D91CEB18
:100E5000030300F1FF3402D29F4200F2B08020462B
:100E6000DB1B40EA0640A5E7C1F120068B4022FAD1
:100E700006F71F4320FA06FC04FA01F343EA0C03C9
:100E8000F44000FA01F8380C4FEA1349B4FBF0FEC5
:100E90001FFA87FC00FB1E4449EA04440EFB0CF9D0
:100EA000A14502FA01F20AD93C190EF1FF3A80F08D
:100EB0008480A14540F28180AEF1020E3C44A4EB57
:100EC00009041FFA83F9B4FBF0F300FB134449EA69
:100ED000044403FB0CFCA44507D93C1903F1FF3083
:100EE00067D2A44565D9023B3C4443EA0E40A0FBCF
:100EF0000293A4EB0C049C42CE469C4651D34ED0A8
:100F000055B1B8EB0E0364EB0C0404FA06F6CB40C3
:100F10001E43CC40C5E90064002150E7C2F1200324
:100F200020FA03F10CFA02FC24FA03F394400C4378
:100F30004FEA1C4800FA02FE1FFA8CF7B3FBF8F0E8
:100F400008FB1031230C43EA014300FB07F19942EF
:100F500008D91CEB030300F1FF362CD299422AD9A1
:100F6000023863445B1AA4B2B3FBF8F108FB1133F7
:100F700044EA034401FB07F3A34208D91CEB040431
:100F800001F1FF3613D2A34211D902396444E41AA5
:100F900041EA004139E70446F0E6084606E7C8455D
:100FA000AED2B9EB020E63EB070C0138A8E731466D
:100FB000EDE7034699E73046D4E7D6467FE763443A
:100FC00002384DE70646234608460FE7023E6344D3
:100FD00030E700BF704700BF01230370024B1B685E
:100FE00000225A63704700BFC48E002010B5064C23
:100FF0002368481ED86249085963104610F034FC33
:10100000236800225A6310BDC48E002038B50378CF
:1010100003B938BD0446084D0021284613F0B4F941
:10102000A0224FF48E712046FFF7E0FF00212846F2
:1010300013F02CFAEDE700BFC48E002038B503781A
:1010400003B938BD04460C4D0021284613F09CF925
:10105000A0224FF48E712046FFF7C8FF642010F0E5
:1010600003FCA0224FF48E712046FFF7BFFF002142
:10107000284613F00BFAE4E7C48E002038B5037855
:1010800003B938BD0446084D0021284613F07CF909
:10109000A02240F618312046FFF7A8FF002128467D
:1010A00013F0F4F9EDE700BFC48E002038B50378E3
:1010B00003B938BD0446114D0021284613F064F9E8
:1010C000A0224FF48E712046FFF790FF322010F0DF
:1010D000CBFB3C2240F618312046FFF787FF322039
:1010E00010F0C2FBA02240F28C512046FFF77EFF99
:1010F0000021284613F0CAF9DBE700BFC48E0020A8
:1011000019B1012906D00020704700F5805090F8F1
:101110006200704700F5805090F86400704708B591
:1011200082B90A6800F58053A3F846204A68A3F8FC
:1011300048208A68A3F84A2000F58251043107F05C
:10114000B1F908BD022A0BD00A6800F58053A3F854
:101150004C204A68A3F84E208A68A3F85020EBE799
:101160000A6800F58053A3F852204A68A3F8542077
:101170008A68A3F85620DFE700F58053D3F8E430FF
:10118000002B46D0F0B585B004460D464F0013F84D
:101190001120FF2A14D00123694606F0E5FFF8B9B3
:1011A0009DF8083083F001038DF80830012269466C
:1011B000204607F055FA061E14DA002005B0F0BDEF
:1011C00000F58250043008F0FBFA014640B10522D8
:1011D0000DF109001AF0A2FB01238DF80830E5E7B4
:1011E0000020EBE704F58250043008F0D9FA86427B
:1011F00001DB0020E2E704F58054D4F8E43003F882
:101200001560D4F8E4303B449DF808205A70012062
:10121000D4E7002070472DE9F8430C4611B9204669
:10122000BDE8F883814600F582570437384608F058
:10123000BBFAA0428CBF002601262146384608F0A2
:10124000B5FA00B10326384608F0AEFA451EEDB2F5
:10125000012E1DD0032E25D0012609F58053D3F889
:10126000E430002B52D03746A8462A463146204665
:101270000FF08DF8C4B209F58059D9F8E420204662
:1012800002EB44035B7813F0010FC8D1234619E049
:10129000384608F089FA0646384608F083FA851978
:1012A000EDB2DAE7384608F07FFA0646384608F02D
:1012B00079FA0644F6B2384608F072FA0546CCE7E9
:1012C000013BDBB29E4205D802EB4301497811F0A5
:1012D000010FF5D0A54208D302EB4401497811F083
:1012E000010F02D10134E4B2F4E7013FBB4207D061
:1012F000A5420DD0C21A201A824290DA1C468EE70F
:1013000008F1010844458AD1344688E7344686E727
:101310001C4684E72DE9F84F05460C46B1F80280DB
:101320008F88CE88CB7D13F0010F43D0314BB3F8BB
:1013300000A0314BB3F800B05A46514640460FF07A
:1013400026F880461FFA80F95A46514638460FF073
:101350001EF807461FFA80FA284B1A88284B19886E
:1013600030460FF014F8064680B2E37D13F0010F0B
:101370002FD0A4F80290A4F804A0E080A37C1E2B38
:1013800001D91E23A374A37D1E2B01D91E23A3758F
:10139000A17A2846FFF73FFF6081217B2846FFF7AF
:1013A0003AFFA081FF220A21207E0EF0F0FF207676
:1013B000BDE8F88F0FFA88F00FF036F81FFA80F8C2
:1013C00038B20FF031F887B230B20FF02DF886B294
:1013D000ACE70FFA88F00FF019F81FFA80F938B26D
:1013E0000FF014F81FFA80FA30B20FF00FF880B245
:1013F000BFE700BF98D7010896D7010892D7010828
:1014000094D701082DE9F04385B006460F46002425
:10141000A04612E00DF10901484608F0E7F900B2D4
:10142000002808DB9DF808302BB107EB400217F8C5
:101430001030FF2B1DD0013424B206F5825909F17A
:101440000409484608F0ACF984420ADAE5B20123FF
:101450002A466946304606F087FE0028DAD0012881
:10146000E9D1304606F05AFD5FFA88F005B0BDE8D4
:10147000F08307F810509DF80830537008F1010808
:101480001FFA88F8D7E708B500F58053D3F8E410C1
:1014900009B9002008BDFFF7B5FF0120FAE70000F9
:1014A000F0B589B00646174601F58254043411465A
:1014B000204608F085F905466B4605220146304670
:1014C00019F01AFEBDB117B12B784E2B02D1304660
:1014D00009B0F0BD204608F067F9B84205D90C4ABA
:1014E0000021304619F048FDF1E70A4A0021304654
:1014F00019F042FDEBE707AA074901A819F010FE11
:1015000001A9304619F0E4FB01A819F043FBDEE71E
:10151000B0C10108B8C10108C0C1010810B5044636
:1015200042B901F5805393F862202046FFF7B8FFD7
:10153000204610BD012A01D00022F6E701F58053B4
:1015400093F86420F1E72DE9F04F89B00746904603
:1015500099469DF848A09DF84CB000F58053D3F80B
:10156000E40070B14C1E032313E003EB430208EBCD
:101570008202002191700133DBB24B45F5D300208C
:1015800077E00023F9E7013B13F0FF030DD0013CA6
:1015900024B2002C09DDBAF1000FF4D000EB4402B4
:1015A000527812F0010FF2D0EDE7002C5EDB00263E
:1015B00026E0BBF1000F3CD0BBF1010F40D006EBA1
:1015C000460308EB8305E2B208F8232007F58053B1
:1015D000D3F8E43003EB44035B786B70394602A820
:1015E000FFF75EFF0A220299A81C1AF097F901364C
:1015F000F6B24E452BD202A819F0CCFA013424B22F
:10160000019407F582550435284608F0C9F884424C
:1016100020DA002CF2D0BAF1000FCAD007F58053BF
:10162000D3F8E43003EB44035B7813F0010FC0D12F
:10163000E4E7284608F0B8F8019B9842BFDC09E0CF
:10164000284608F0B1F8019B9842B8DDD6E702A819
:1016500019F0A0FA33464B450AD203EB430208EBDC
:101660008202002191700133DBB2F4E700249EE78F
:10167000304609B0BDE8F08F08B5C28AB0F84430F2
:101680009A424FD1028BB0F846309A424CD1428BED
:10169000B0F848309A4249D1828BB0F84A309A4229
:1016A00046D1428CB0F850309A4243D190F8242071
:1016B00090F852309A423FD1C28BB0F84C309A42E7
:1016C0003CD1028CB0F84E309A4239D190F82620A5
:1016D00090F854309A4235D1028DB0F856309A4283
:1016E00032D190F82A2090F858309A422ED190F8B2
:1016F0002B2090F859309A422AD190F8252090F862
:1017000053309A4226D190F82C2090F85A309A42C1
:1017100022D1142200F15C012E301AF0EDF8E8B964
:10172000012000E0002008BD0020FCE70020FAE7CF
:101730000020F8E70020F6E70020F4E70020F2E7B9
:101740000020F0E70020EEE70020ECE70020EAE7C9
:101750000020E8E70020E6E70020E4E70020E2E7D9
:1017600038B50446EB23C3820383C82343834FF475
:1017700096638383002380F826304384052280F813
:101780002420B422028580F82A30B32280F82B204E
:1017900080F82530802380F82C30012580F82D50EA
:1017A000142205492E301AF0B9F8E583204607F0D7
:1017B000FBFF208438BD00BF80D7010840F6FC0342
:1017C00043803223838040F2DF23C38040F2C7533B
:1017D00003813B23438140F2FB138381C823C381F0
:1017E00040230382C3234382704710B5044652B19D
:1017F000022A0FD040F2A46303224FF4FA710DF0D5
:10180000C3FC204610BDC8230A2240F23F210DF040
:10181000BBFCF6E73223402296210DF0B5FCF0E741
:10182000022903D0012903D0C08A7047408B70473A
:10183000008B704710B5044690F82E3013B104F1B8
:101840002E0010BD142202492E301AF067F8F6E778
:1018500080D701082DE9F84304460F4615461E4679
:101860009DF820909DF8248090F82B3003F0010320
:10187000934210D0002A43D0B0F916000EF0D4FDE8
:10188000E082B4F918000EF0CFFD2083B4F91A00FD
:101890000EF0CAFD608394F82B2002F00C0284F84D
:1018A0002B201DB142F0010284F82B202FB194F8B7
:1018B0002B3043F0020384F82B302EB194F82B30F8
:1018C00063F07F0384F82B30B9F1000F05D094F852
:1018D0002B3043F0100384F82B30B8F1000F05D003
:1018E00094F82B3043F0200384F82B30642201213C
:1018F0009DF828000EF04BFD84F82C00BDE8F8831D
:10190000B0F916000EF082FDE082B4F918000EF076
:101910007DFD2083B4F91A000EF078FD6083BAE7EC
:1019200000B59DF80CC0BDF810E080F82630BDF879
:10193000043043849DF8083080F8243090F82B3030
:1019400003F0B30380F82B3019B143F0040380F89F
:101950002B302AB190F82B3043F0080380F82B305D
:10196000BCF14B0F01D94FF04B0CBEF5A07F05D851
:10197000BEF1040F04D84FF0050E01E04FF4A07E35
:101980000CF10403DBB20C4AA2FB03239B081B01EE
:10199000DBB280F825300EF1FF3E084A82FB0E12C2
:1019A0004FEAEE7ECEEBE20E0EF00F0E43EA0E0390
:1019B00080F825305DF804FBCDCCCCCC676666663C
:1019C00010B50446084622851E2200210EF0DFFCD9
:1019D00084F82A0010BD0AB9C1827047012A00D0DC
:1019E00070470183FCE741838283704710B500F1A3
:1019F000140300F1420234301C68D3F804E0D3F839
:101A000008C0D9681460C2F804E0C2F808C0D16008
:101A1000103310328342EFD1D3F800C05868996870
:101A2000C2F800C0506091609B89938110BD38B5A9
:101A3000044600F5825504352846FFF71DFE00B127
:101A400038BD04F582511831204606F0D3FD2846F2
:101A5000FFF7CCFFF4E710B500F1420300F11402E8
:101A600062301C68D3F804E0D3F808C0D968146069
:101A7000C2F804E0C2F808C0D160103310328342CB
:101A8000EFD1D3F800C058689968C2F800C0506020
:101A900091609B89938110BD90F82500000900EBAF
:101AA0008000704790F8250000F00F00013000EB37
:101AB00080008000704710B5044642B1022A0CD065
:101AC0008B894A8909890DF05FFB204610BDCB88C0
:101AD0008A8849880DF058FBF7E74B8A0A8AC9893A
:101AE0000DF052FBF1E7022901D90020704701EB0C
:101AF000810100EB4100007AC0F340007047022AE8
:101B000021D800B5B1F800E002EB820C00EB4C03E9
:101B100020F81CE0B1F802C0A3F802C0B1F804C07C
:101B2000A3F804C0B1F806C0A3F806C091F808C035
:101B300083F808C091F90E3002EB820200EB4200FC
:101B400043725DF804FB7047022900D9002101EBC4
:101B5000810100EB410090F909007047032905D885
:101B600002EB8202114430F81100704700207047E8
:101B7000022A04D00C3100EB4100C08870471031BC
:101B800000EB4100C0887047022B00F296802DE9DF
:101B9000F04F85B005460E4617461C4603EB8303FF
:101BA00000EB430292F90990A7EB090930F8138082
:101BB000884524D804EB840300EB4303B3F8068084
:101BC000884551D204EB840300EB4303B3F802A031
:101BD000D0455CD922460121FFF7CAFF00EB090B73
:101BE000224603212846FFF7C3FF484400905B4686
:101BF0004246514630460EF0B9FB00B20CE0224698
:101C00000021FFF7B5FF484400903B4642460021C3
:101C100030460EF0C5FB00B240F2E73239460EF016
:101C2000B6FB80B205B0BDE8F08F08F1FF3204EBDF
:101C30008403134435F813B011462246C9B228462E
:101C4000FFF796FF00EB090303932246414628461F
:101C5000FFF78EFF48440090039B5246594630469A
:101C60000EF09EFB00B2D7E74FF00108B8F1030F6A
:101C70000BD804EB8403434435F813A0B245D4D801
:101C800008F101085FFA88F8F0E70020C4E722466F
:101C90000121FFF76DFF00EB0908224603212846CA
:101CA000FFF766FF484400904346054A12885146B4
:101CB00030460EF05BFB00B2AEE70020704700BF7D
:101CC0009CD7010810B5044600F585501430FFF785
:101CD0005BFF04F5805494F86F3013F0010F00D0CF
:101CE00010BD00B20EF092FB80B2F9E72DE9F04F83
:101CF00085B00546029116461C469DF83830039380
:101D000000F5855808F1140821464046FFF71CFFEE
:101D1000371A224600214046FFF72AFFBFB200EBE8
:101D200007091FFA89F9224603214046FFF720FFE1
:101D30000744BFB2022C39D04A4BB3F800A0022CA2
:101D400038D0494BB3F800B0039B0BB14FF0640A95
:101D500005F5805393F86F3013F0010F2ED05A46DB
:101D6000514602980EF013FB1FFA80FA3F4BB3F86E
:101D700000B0224600214046FFF7F0FE02902246C6
:101D800003214046FFF7EAFE0090029B3A4649468F
:101D900050460EF005FB80B2B0EB5B0F25DDA0EBEB
:101DA000AB07BFB24FF00008C1463BE0304BB3F881
:101DB00000A0C4E72F4BB3F800B0C5E70FFA89F0D5
:101DC0000EF024FB1FFA80F938B20EF01FFB87B229
:101DD0000FFA8AF00EF01AFB1FFA80FA0FFA8BF056
:101DE0000EF014FB1FFA80FBB9E75B46BBF1000F56
:101DF00003DB00EBA307BFB2D4E70BF10303F8E763
:101E00007B1CB9469FB209E009EB070303EBD373D0
:101E1000C3F34F039F421CD0BB461F4608F1010885
:101E20005FFA88F8B8F1130F17D8234632463946BF
:101E30002846FFF747FF82450FD0E5D907EB0B0394
:101E400003EBD373C3F34F039F42D9D0B9461F4668
:101E5000E4E77B1EBB469FB2E0E7384605B0BDE82D
:101E6000F08F00BF98D7010896D701089CD70108CA
:101E700094D7010892D70108002308E002EB820CF6
:101E80009C4430F81CC021F813C00133DBB2032B93
:101E9000F4D9704710B54FF0000C0AE031F81C403F
:101EA00003EB830EE64420F81E400CF1010C5FFAB0
:101EB0008CFCBCF1030FF1D903EB830100EB410172
:101EC0004A7203220A72C988044A1288914204D9CC
:101ED00003EB830300EB4300C28010BD9CD70108D5
:101EE00001EB810200EB42034FF4966C20F812C024
:101EF00040F26C725A8040F6C4129A8040F6543216
:101F0000DA80044A92F900205A72184601230372BB
:101F1000704700BF91D7010808B5FFF7E1FF08BD82
:101F20000A884B889A4207D28A88934206D2CB8885
:101F30009A4205D300207047002070470020704768
:101F400001207047F0B585B000F58053D3F8E43038
:101F5000002B5DD004460E461546022922D10025ED
:101F600004F58053D3F8E43013F81520FF2A2FD05E
:101F700000236946204606F0F7F888BB9DF8083034
:101F800013F0020F36D004F5855414346946204608
:101F9000FFF7C6FF0546A8BB31462046FFF7A0FF66
:101FA000012524E000F582570437384607F0FCFB92
:101FB000A84201D906B10125384607F0F5FBA84231
:101FC000CED8012ECCD0384607F0EEFB0546C7E749
:101FD000314604F585501430FFF782FF002506E0F6
:101FE000314604F585501430FFF77AFF0025284666
:101FF00005B0F0BD314604F585501430FFF770FF91
:102000000125F4E7324669462046FFF778FDEEE702
:102010000025ECE7F8B5054600F582560436304653
:1020200007F0BEFB400019F057FB05F58053C3F8DD
:10203000E400A8B100240EE005F58053D3F8E420B5
:10204000FF2102F81410D3F8E43003EB440300221C
:102050005A700134E4B2304607F0A2FBA042EBD83C
:10206000284606F038F80446002855D105F5805377
:10207000D3F8E41091B32846FFF7C4F9074605F5F5
:10208000825618363146284606F0FEF840B33146EF
:102090002846FFF73FF905F582510431284606F03E
:1020A000C2F998B3002202212846FFF74BFF05F53D
:1020B000805696F8622000212846FFF743FF96F8E5
:1020C000642001212846FFF73DFF05F582500430CA
:1020D000FFF78CFC002F44D02046F8BD0746CEE722
:1020E00005F582500430FFF73BFB05F5805696F866
:1020F00062102846FFF78FF8A6F8620096F8641081
:102100002846FFF788F8A6F86400C4E705F5825072
:102110000430FFF753FBC5E705F58257043738460F
:10212000FFF71EFB3846FFF749FB022105F58550F6
:102130001430FFF7D5FE012200212846FFF702FFE9
:10214000304607F031FB024601212846FFF7FAFE30
:102150003846FFF74BFC012C05D0022C05D000249B
:10216000BAE70124B8E70224B6E70324B4E770B560
:1021700004460E4679B90225324629462046FFF725
:10218000E1FE38B195B904F58053A3F862602046AA
:10219000FFF74DFC70BD00F58250043007F004FBE2
:1021A000B04201D90025E7E70125E5E7012DEED191
:1021B00004F58053A3F86460E9E72DE9F04184B0A9
:1021C00004460E461D461388ADF800305388ADF81E
:1021D00002309388ADF80430D388ADF806308DF81E
:1021E00008509DF928308DF80E3000F58053D3F853
:1021F000E4304F0003EB41035D7000F58250043082
:1022000007F0DEFA38B18046694604F5855014308F
:10221000FFF786FE38B904F587500230FEF746FF17
:1022200004B0BDE8F081052241460DF1090019F026
:1022300075FB00226946204606F012FAB0F100084C
:10224000E9DB04F587500230FEF7E0FE04F5805428
:10225000D4F8E43003F81680D4F8E4303B445D70E1
:10226000DEE70000014B0360704700BFF4C50108C2
:1022700070470000024A0260024A0260704700BFD5
:102280001CC60108F4C5010870470020704770475C
:10229000014B0360704700BF78C6010870B5064661
:1022A0000FF0DCFA00F59675184B5B6A9BB29C1C2C
:1022B000A4B2632C01D9613B9CB20FF0CFFAA842C3
:1022C00005D2124B5B6AA342F7D1114B5E620FF04D
:1022D000C5FA00F596750D4B5B6A9BB29C1CA4B2C7
:1022E000632C01D9613B9CB20FF0B8FAA84207D227
:1022F000064B5B6AA342F7D1054B586A80B204E0F3
:10230000034BD86A80B2013080B270BD000001403A
:10231000000C004008B50C4B1B785BB10B4B002048
:102320005863986303F574431864094A13680133CA
:10233000136008BD0322074907480FF08DFC0120F8
:10234000014B1870F5E700BF247D0020000C004011
:10235000F07D0020147D00205C92002008B5114B18
:102360001B7863B9104B1B78ABB102220F491048A0
:102370000FF072FC0B4B02221A70012008BD0D4BAE
:1023800000205863986303F5744318640A4A13687D
:1023900001331360F2E70222084909480FF05CFCA0
:1023A000E8E700BF247D0020040000201C7D002001
:1023B000A4920020000C0040F07D0020207D002031
:1023C000EC92002010B50446044B0360044B0360FC
:1023D000502118F08BFB204610BD00BF1CC6010821
:1023E000F4C5010810B50446034B0360502118F0F2
:1023F0007DFB204610BD00BFF4C5010810B50446A2
:10240000034B0360242118F071FB204610BD00BF70
:1024100078C6010808B5084617F0C6F908BD08B522
:10242000084617F0B3F908BD08B5084617F0A0F93B
:1024300008BD08B517F08EF908BD08B517F07CF98E
:1024400008BD08B516F088F908BD0000154A1178D6
:10245000002280F8422080F8402080F8411080F867
:10246000862080F8842080F8851080F8CA2080F8C3
:10247000C82080F8C910A0F8CC20A0F8CE20A0F881
:10248000D020A0F8D22080F8D420C0F8D82080F83E
:10249000DC2080F8DD20A0F8DE20A0F8E020A0F805
:1024A000E22070479BD7010838B5044614234360E7
:1024B000002505814581C5600A230361436185616B
:1024C000C361052303620B238384012380F8263034
:1024D0002830FFF7BBFF1C4B2360082384F80C3126
:1024E000C4F8105184F80C31C4F8105184F8145118
:1024F00084F815514FF4C871A4F816114FF4FA720C
:10250000A4F8182184F81C31C4F8205184F81C3137
:10251000C4F8205184F8245184F82551A4F82611D8
:10252000A4F8282184F82C31C4F8305184F82C31D7
:10253000C4F8305184F8345184F83551A4F8361178
:10254000A4F83821204638BDB0C5010810B50446AE
:10255000FFF7AAFF354B23600023A4F83C31A4F811
:102560003E31A4F84031A4F84231042284F84421D9
:1025700084F84531A4F8463184F8483184F849316B
:10258000082284F84C21C4F8503184F84C21C4F856
:10259000503184F85421C4F8583184F85421C4F8D7
:1025A000583184F85C21C4F8603184F85C21C4F8A7
:1025B000603184F86421C4F8683184F86421C4F877
:1025C000683184F86C21C4F8703184F86C21C4F847
:1025D000703184F87431A4F876314FF47A71A4F82C
:1025E0007811142384F87A316420A4F87C0184F8EB
:1025F0007E214FF4FA72A4F88021A4F882110322FC
:1026000084F884210E2284F8852184F886310523FC
:1026100084F88731022384F888310F2384F88931C4
:1026200044F62063C4F88C31204610BDE8D101087F
:1026300010B50446FFF738FF3C4B2360002384F8B5
:102640003C3184F83D3184F83E31012184F83F115A
:10265000A4F84031A4F84231C4F84431082284F887
:102660004821C4F84C3184F84821C4F84C3184F82E
:102670005021C4F8543184F85021C4F8543184F8FE
:102680005821C4F85C3184F85821C4F85C3184F8CE
:102690006021C4F8643184F86021C4F8643184F89E
:1026A0006821C4F86C3184F86821C4F86C31A4F84E
:1026B000703184F87231462384F87331632384F8CF
:1026C00074314FF42F73A4F8763140F2CF73A4F82D
:1026D00078314FF4C863A4F87A314FF44873A4F802
:1026E0007C317D23A4F87E31114BC4F880314EF645
:1026F0006023C4F884314FF4FA73A4F888314FF49E
:102700007A73A4F88A311E2384F88C313C2384F830
:102710008D310F2384F88E310A2384F88F31C4F869
:102720009011044BC4F89431204610BDA4D1010887
:10273000407E0500E0930400F0B4034600220270DE
:10274000E449416000F110018160C2600274E24915
:10275000016200F12C014162826280F82C20DF4985
:10276000C16300F148010164426480F84820DC49FB
:10277000816500F16401C165026680F86420D94971
:10278000416700F180018167C26780F88020D649E7
:10279000C0F8901000F19C01C0F89410C0F8982087
:1027A00080F89C20D149C0F8AC1000F1B801C0F805
:1027B000B010C0F8B42080F8B820CD49C0F8C810D7
:1027C00000F1D401C0F8CC10C0F8D02080F8D4209B
:1027D000C849C0F8E41000F1F001C0F8E810C0F8F2
:1027E000EC2080F8F020C449C0F8001100F5867094
:1027F000C3F80401C3F8082183F80C21BF48C3F8CB
:102800001C0103F59470C3F82001C3F8242183F858
:102810002821BB48C3F8380103F5A270C3F83C0176
:10282000C3F8402183F84421B648C3F8540103F5A6
:10283000B070C3F85801C3F85C2183F86021B24836
:10284000C3F8700103F5BE70C3F87401C3F87821B2
:1028500083F87C21AD48C3F88C0103F5CC70C3F834
:102860009001C3F8942183F89821A948C3F8A801DE
:1028700003F5DA70C3F8AC01C3F8B02183F8B421D2
:10288000A448C3F8C40103F5E870C3F8C801C3F84D
:10289000CC2183F8D021A048C3F8E00103F5F670FD
:1028A000C3F8E401C3F8E82183F8EC219B48C3F89E
:1028B000FC0103F50270C3F80002C3F8042283F898
:1028C00008229748C3F8180203F50970C3F81C02E0
:1028D000C3F8202283F82422924CC3F8344203F533
:1028E0001070C3F83802C3F83C2283F840228E48A7
:1028F000C3F8500203F51770C3F85402C3F8582206
:1029000083F85C228948C3F86C0203F51E70C3F893
:102910007002C3F8742283F878228548C3F88802CD
:1029200003F52570C3F88C02C3F8902283F8942233
:102930008048C3F8A40203F52C70C3F8A802C3F8BA
:10294000AC2283F8B0227C4FC3F8C07203F5337019
:10295000C3F8C402C3F8C82283F8CC22774EC3F868
:10296000DC6203F53A70C3F8E002C3F8E42283F8AE
:10297000E8227348C3F8F80203F54170C3F8FC027B
:10298000C3F8002383F804236E48C3F8140303F547
:102990004870C3F81803C3F81C2383F820236A483F
:1029A000C3F8300303F54F70C3F83403C3F838237A
:1029B00083F83C23C3F84C4303F55670C3F8500327
:1029C000C3F8542383F85823604DC3F8685303F5C4
:1029D0005D70C3F86C03C3F8702383F874235C48FC
:1029E000C3F8840303F5647CC3F888C3C3F88C235D
:1029F00083F89023DFF86CC1C3F8A0C303F56B7CA8
:102A0000C3F8A4C3C3F8A82383F8AC23C3F8BC73EA
:102A100003F57277C3F8C073C3F8C42383F8C823DF
:102A2000C3F8D86303F57976C3F8DC63C3F8E02311
:102A300083F8E423C3F8F44303F58064C3F8F84350
:102A4000C3F8FC2383F80024C3F8105403F21C4499
:102A5000C3F81444C3F8182483F81C24C3F82C04C6
:102A600003F58764C3F83044C3F8342483F838246A
:102A7000384CC3F8484403F25444C3F84C44C3F8F8
:102A8000502483F85424344CC3F8644403F58E6412
:102A9000C3F86844C3F86C2483F870242F4CC3F83F
:102AA000804403F28C44C3F88444C3F8882483F838
:102AB0008C242B4CC3F89C4403F59564C3F8A044C4
:102AC000C3F8A42483F8A824C3F8B81403F2C444B8
:102AD0004AE000BFC8C10108D4C10108E0C1010833
:102AE000F0C1010800C201080CC2010818C20108A7
:102AF00028C2010838C2010840C2010848C20108C2
:102B000054C201085CC2010864C2010874C2010811
:102B100084C2010890C201089CC20108A8C2010831
:102B2000B4C20108C0C20108C8C20108D0C201086D
:102B3000E0C20108ECC20108F8C2010804C30108A0
:102B400014C3010824C3010830C301083CC30108B1
:102B50004CC301086CC3010878C3010884C3010891
:102B60008CC301085CC30108C3F8BC44C3F8C0248B
:102B700083F8C424EA4CC3F8D44403F59C65C3F835
:102B8000D854C3F8DC2483F8E024E64DC3F8F054AD
:102B900003F2FC45C3F8F454C3F8F82483F8FC248A
:102BA000E14DC3F80C5503F5A365C3F81055C3F800
:102BB000142583F81825DD4DC3F8285503F2345544
:102BC000C3F82C55C3F8302583F83425C3F84405E1
:102BD00003F5AA60C3F84805C3F84C2583F85025CF
:102BE000D348C3F8600503F26C50C3F86405C3F81A
:102BF000682583F86C25CF48C3F87C0503F5B160E0
:102C0000C3F88005C3F8842583F88825CA48C3F82B
:102C1000980503F2A450C3F89C05C3F8A02583F8D7
:102C2000A425C648C3F8B40503F5B860C3F8B805D1
:102C3000C3F8BC2583F8C025C3F8D01503F2DC51D6
:102C4000C3F8D415C3F8D82583F8DC25BC49C3F8EC
:102C5000EC1503F5BF61C3F8F015C3F8F42583F84C
:102C6000F825B849C3F8081603F21461C3F80C1626
:102C7000C3F8102683F81426B349C3F8241603F5C5
:102C8000C661C3F82816C3F82C2683F83026AF494E
:102C9000C3F8401603F24C61C3F84416C3F8482643
:102CA00083F84C26AA49C3F85C1603F5CD61C3F836
:102CB0006016C3F8642683F86826A649C3F8781618
:102CC00003F28461C3F87C16C3F8802683F8842657
:102CD000A149C3F8941603F5D461C3F89816C3F854
:102CE0009C2683F8A0269D49C3F8B01603F2BC6168
:102CF000C3F8B416C3F8B82683F8BC269849C3F8BD
:102D0000CC1603F5DB61C3F8D016C3F8D42683F8DC
:102D1000D8269449C3F8E81603F2F461C3F8EC1618
:102D2000C3F8F02683F8F4268F49C3F8041703F597
:102D3000E261C3F80817C3F80C2783F810278B4902
:102D4000C3F8201703F22C71C3F82417C3F82827FF
:102D500083F82C278649C3F83C1703F5E961C3F8CB
:102D60004017C3F8442783F848278249C3F8581707
:102D700003F26471C3F85C17C3F8602783F8642713
:102D8000C3F8744703F5F061C3F87817C3F87C27DC
:102D900083F880277849C3F8901703F29C71C3F831
:102DA0009417C3F8982783F89C277449C3F8AC1785
:102DB00003F5F761C3F8B017C3F8B42783F8B82751
:102DC0006F49C3F8C81703F2D471C3F8CC17C3F81E
:102DD000D02783F8D4276B49C3F8E41703F5FE61C5
:102DE000C3F8E817C3F8EC2783F8F0276649C3F85F
:102DF000001803F60C01C3F80418C3F8082883F878
:102E00000C286249C3F81C1803F62801C3F82018DF
:102E1000C3F8242883F828285D49C3F8381803F636
:102E20004401C3F83C18C3F8402883F844285949A2
:102E3000C3F8541803F50661C3F85818C3F85C28A2
:102E400083F860285449C3F8701803F67C01C3F86E
:102E50007418C3F8782883F87C285049C3F88C1874
:102E600003F69801C3F89018C3F8942883F89828BB
:102E70004B49C3F8A81803F6B401C3F8AC18C3F85B
:102E8000B02883F8B4284749C3F8C41803F50D6186
:102E9000C3F8C818C3F8CC2883F8D0284249C3F82F
:102EA000E01803F6EC01C3F8E418C3F8E82883F847
:102EB000EC283E49C3F8FC1803F60811C3F80019C2
:102EC000C3F8042983F808293949C3F8181903F607
:102ED0002411C3F81C19C3F8202983F82429354983
:102EE000C3F8341903F51461C3F83819C3F83C2941
:102EF00083F840293049C3F8501903F65C11C3F830
:102F00005419C3F8582983F85C292C49C3F86C1963
:102F100003F67811C3F87019C3F8742950E000BFA4
:102F200094C30108A0C30108A8C30108B0C30108E5
:102F3000B8C30108C8C30108D8C30108E4C3010825
:102F4000F0C30108F4C30108F8C3010800C4010874
:102F500008C4010810C4010818C4010820C40108ED
:102F600028C401082CC4010830C4010834C4010875
:102F700038C4010840C4010848C4010854C4010809
:102F800068C401087CC401088CC401089CC4010801
:102F9000B4C40108CCC40108D4C40108E0C40108C9
:102FA000ECC40108F4C40108F8C40108FCC4010819
:102FB0000CC5010818C5010828C5010838C5010855
:102FC00083F878290F49C3F8881903F69411C3F8D8
:102FD0008C19C3F8902983F894290B49C3F8A419D4
:102FE00003F51B61C3F8A819C3F8AC2983F8B0290D
:102FF000064A92E80300C3F8C009A3F8C4191846AA
:10300000F0BC70474CC5010858C5010854C10108FF
:1030100070B50646051D00F51C6403E01C3C201D30
:1030200017F0B8FDA542F9D1304670BD38B5044659
:10303000043017F0A7FA344B2360344B236000258B
:10304000A4F85050A4F85450A565E565A4F8605064
:1030500084F8625004F16400FFF76EFB2C4B236090
:103060002C4BC4F82C3AA4F8305A4FF6FF72A4F84F
:10307000322A4FF4FC61A4F8341A4FF47841A4F8D2
:10308000361AFF21A4F8381A4FF6E071A4F83A1A5C
:103090004CF21861A4F83C1A84F83E5AC4F8405A1D
:1030A000C4F8445AC4F8485AC4F84C5AC4F8505AA0
:1030B000C4F8545A84F8582A9622A4F85A2AA4F834
:1030C0005C5AA4F85E5AA4F8605AA4F8625AC8225E
:1030D000A4F8642A6E22A4F8662A5A22A4F8682A60
:1030E0003C21A4F86A1AA4F86C2A2022A4F86E2ABB
:1030F0001922A4F8702A084AC4F8742AC4F8783A45
:10310000C4F87C3A204638BDF4C501081CC6010845
:1031100028C70108D0DC010810D0010810B504460A
:10312000114B036000F6542016F05CFD04F5256099
:1031300015F0E2FB04F64C2015F0DEFB04F6482007
:1031400015F0DAFB04F6442015F0D6FB04F52460F4
:1031500015F0D2FB04F16400FFF75AFF034B236024
:10316000034B2360204610BD28C701081CC6010878
:10317000F4C5010810B50446FFF7D0FF4FF42861ED
:10318000204617F0B3FC204610BD000070B5054680
:103190000026067000F5805484F82C604FF48053AC
:1031A000E3850F4B23630F4B63630F4BA3630F4BFD
:1031B000E3630F4B23640F4B03CBC4F8D200C4F876
:1031C000D61003CBC4F8DA00C4F8DE1005F587503A
:1031D0000230FDF701FFC4F8E460284670BD00BF6F
:1031E0006CC5010878C5010884C5010890C50108AF
:1031F0009CC501085CC1010810B50446303017F0C9
:10320000C9FC04F1180017F0C5FC204617F0C2FCF9
:10321000204610BD114A0260002202718260828144
:10322000026142618261C261026281600C49016097
:1032300080F82420A0F8462080F84820C264026567
:10324000426580F858204FF41672A0F85A2040F6D4
:10325000B832C26541F288320266704778C601080A
:10326000FCD4010810B41C4A026000220271826082
:103270008281026142618261C2610262816017499A
:1032800001600621818441F28834846280F82C2018
:103290000263426382638287C287A0F84020A0F85D
:1032A0004220A0F844204FF0FA0CA0F846C080F865
:1032B0004820C264A0F8502080F85220A0F8541092
:1032C0004FF4FA6282654FF4C871A0F85C10026690
:1032D0005DF8044B704700BF78C6010850D501085F
:1032E00010B40D4A02600022027182608281026184
:1032F00042618261C261026281600146074C41F80D
:10330000244B42624A608A60CA600A61592280F88E
:1033100038205DF8044B704778C601086CD5010869
:10332000104A026000220271826082810261426161
:103330008261C261026281600B4901608284C28441
:1033400080F8282080F82920012280F82A204FF4D4
:1033500048728285C28540F2CF720286032280F8CD
:103360003220704778C60108C0D5010870B582B018
:1033700004461646134B0360002505718560858160
:10338000056145618561C561056281600E4B036021
:1033900080F82850458501AA0C492C3017F0C0FE52
:1033A0006564A564E564FF2384F8503084F85150C7
:1033B000592384F852304EF66023636566622046D6
:1033C00002B070BD78C60108DCD50108A4C50108AB
:1033D000124A0260002202718260828102614261AF
:1033E0008261C261026281600D49016080F824201F
:1033F000022180F82510012180F8261080F827206E
:1034000080F8282080F8292080F82A20C26280F8DD
:10341000302080F8312080F83220704778C60108CB
:1034200094C6010810B50446FFF7D2FF134B236082
:10343000082384F834300023A363052284F8342061
:10344000A363E36323646364A364E3642365A4F870
:103450005430012284F85620A36584F85C204FF490
:10346000FA73A4F85E3040F2DC52A4F86020636680
:1034700040F6B833A4F86830204610BDA8D701083C
:1034800010B4184C046000240471846084810461C9
:1034900044618461C46104628160134901604462D3
:1034A000012180F8281080F8291080F82A4080F83F
:1034B0002B1080F82C10642180F82D1080F82E40FD
:1034C00080F82F4080F8304080F8314080F832405A
:1034D000042180F83310072180F8341042625DF82F
:1034E000044B704778C60108A0D3010810B4154CEE
:1034F00004600024047184608481046144618461F7
:10350000C461046281601049016080F82C4080F839
:103510002D4080F82E40048680F8324080F83340F9
:10352000848680F8364080F83740022180F83810D1
:10353000062180F839107821418742625DF8044BFA
:10354000704700BF78C60108D8D30108014B18782E
:10355000704700BF0C7D002008B502480CF098FAB7
:1035600080B208BD007D00202DE9F04782B0002622
:103570009B4B5E639B4C20460EF050FA6421204624
:103580000EF00EFB20460EF071FC87B2642120463F
:103590000EF006FB20460EF069FC1FFA80F920466B
:1035A0000EF0DEFA904C20460EF038FA64212046E8
:1035B0000EF0F6FA20460EF059FC1FFA80F864214E
:1035C00020460EF0EDFA20460EF050FC1FFA80FA6D
:1035D00020460EF0C5FA854B0A221A705E601978F3
:1035E0004FF47A7201FB02F25A60814C23681B6C23
:1035F000283B804A1380804DCDF8009053464246C8
:103600003946284605F008FD074605F540550323D1
:1036100085F84D3E85F84C3E784D0C21284610F03B
:10362000B3FE0821284610F0F5FD3146204610F083
:10363000ABFE0421204610F0A7FE0821204610F022
:10364000E9FD0C21204610F0E5FD31466C4810F0F4
:103650009BFE6C4DDFF8F0916B4C2B464A46294699
:10366000204609F063F8DFF8D8812B464246214610
:10367000484609F05BF82B4622462146404609F0B1
:1036800055F8DFF8C091C8F8249023462246214619
:103690005E4809F04BF8DFF8B481234622464146E4
:1036A0005B4809F043F8234622462146404609F08C
:1036B0003DF8234622462146484609F037F8DFF810
:1036C0009081234622462146404609F02FF8DFF834
:1036D00084A1434642462146504609F027F8234636
:1036E000224629464B4809F021F82346224629461E
:1036F000494809F01BF8234622462946474809F065
:1037000015F8234622462946454809F00FF8234676
:1037100022462146284609F009F8424D2B4622460A
:103720002146414809F002F8234622462146284610
:1037300008F0FCFF2346224621463C4808F0F6FFED
:103740002346224649463A4808F0F0FF434642469F
:103750002146504608F0EAFF3346324621463548B6
:1037600008F0E4FF344801F061FE022F1FD0032F60
:103770002CD0012F17D040F2DC50FEF78FFD1E4BEE
:1037800003F5805292F8702003F54053A3F8D42239
:10379000C8200EF069F8294B186803681B68984721
:1037A00002B0BDE8F087254B254A1A60E3E7254CB7
:1037B0000022462120460AF02FFD1D4B22462146BD
:1037C000204608F0B3FF1D4B1C60D4E700224A21BD
:1037D0001C480AF021FD194B164A1A60CBE700BFBE
:1037E00000180040EC920020A4920020007D0020F0
:1037F0000C8F0020FC7C0020AC3A0020E48F0020DD
:103800007C8E002044040020403A00200C39002027
:10381000CC380020A4370020F8040020BC0400208D
:1038200088040020580500208C0500200C0600208C
:10383000B405002030050020306D0020000000207D
:10384000703900206438002098390020A03800200A
:1038500034380020D037002038B50DF0FFFF5C4B26
:103860001B68984248D85B4B186808F063FF044611
:1038700018B1584B1B68834276D1564D28680368AF
:103880005B68984704462B68834229D0002800F0E3
:103890008880514D0021284605F020FD002105F5C6
:1038A000C87005F01BFD002105F5687005F03AFAB7
:1038B000A5F60452002382F84D3E82F84C3E82F871
:1038C000DD3F82F8DC3F454A53639363414D2868EE
:1038D00003689B6898472C6023681B6820469847BC
:1038E0000DF0BCFF3E4B1B6898425CD23D4801F096
:1038F00047FD002868D138BD0DF0B0FF6430344B6F
:103900001860102138480EF091FF012824D164215D
:1039100036480CF046F94FF4005135480EF086FF5A
:1039200001281BD1642133480CF03BF94FF480513E
:103930002F480EF07BFF98B964212F480CF031F925
:103940004FF400712D480EF071FF01280AD1642157
:103950002B480CF026F986E70021D9E70021E2E7A1
:103960000021EAE70021F3E7264D2846FDF766FB34
:103970000021A5F5A76005F0B1FC0021A5F56A704E
:1039800005F0ACFC154B00225A639A63114D286870
:1039900003689B6898472C6023681B6820469847FB
:1039A000A9E7194C75E719494B6A194A10681B1A9F
:1039B00018BF0123174803704B6A13600DF04EFFC8
:1039C0002930074B186091E705200DF04DFF92E775
:1039D0003C04002000000020B0770020000C0040D4
:1039E00040040020806D002000080240CC780020B8
:1039F000000402405C7A00206C7A00200000024043
:103A00006C7C0020E87C002064380020000001402D
:103A1000107D00200C7D002010B50368174A9342EA
:103A200003D0174A93421ED010BD027F042AF8D15A
:103A3000144805F07DF8632800D963200F4B186403
:103A40000DF00CFF0446104B1B7813B10F4B1B6895
:103A500013B90E4B1C60E7E70C4B1968411A0C4870
:103A60000BF0FCFFF5E7037F042B04D0082BDBD120
:103A7000FEF774FCD8E7FEF74DFCD5E700000140E7
:103A8000000C0040507B00200C7D0020F87C0020C2
:103A9000007D002008B50EF0ADF95B4B1B78DBB262
:103AA000022B09D0584B1B78DBB2012B00F0818030
:103AB000554B00221A7008BD544B1B78002B47D081
:103AC000534B198889B2534805F014FD524B1880A6
:103AD0001B889BB2514A128893422AD9504B9A6351
:103AE0004D490B889BB29B1A9BB20B804D4B1B8898
:103AF0009BB24B4A5363464B598889B24A4804F0FB
:103B00005FFF424A137883F001031370444B596AF4
:103B1000464A1378DBB289B2454820F8131013786F
:103B20000133DBB21370632BC2D9134600221A7023
:103B3000BEE7394A13889BB239498B6313889BB21D
:103B400013B1384B00221A80334B00221A80CDE784
:103B5000384B198889B2384805F0CCFC314B1880B5
:103B60001B889BB22D4A1288934213D92C4B5A635F
:103B70002C490B889BB29B1A9BB20B80264B1B884F
:103B80009BB2274A93632B4B598889B22B480BF081
:103B900065FFB6E7234A13889BB221494B6313881C
:103BA0009BB213B11C4B00221A801E4B00221A80BC
:103BB000E4E71B4B5B6B012B18D8194B9B6B012B5C
:103BC0001BD81F4B5B6B012B7FF672AF1D4B998887
:103BD00089B21D480BF0E5FF194B5B6AB3F5FA7F1C
:103BE0007FF666AF164B64225A6261E7154B19885F
:103BF00089B216480BF0D5FFDFE7124B598889B21E
:103C000013480BF0CEFFDCE7247D002004000020E9
:103C10001C7D002040790020087D0020FC7C0020D5
:103C2000000C00400A7D0020507B0020257D0020F4
:103C3000287D0020207D0020B0770020EC7C002033
:103C400000480140147D00205C7C0020BC780020EE
:103C50004C7A0020704710B504460068A168091A24
:103C600008B116F043FF204610BD70B50646046843
:103C7000456803E02046FFF7BFFA4834A542F9D172
:103C80003046FFF7E8FF304670BD10B504460068C7
:103C9000A168091A08B116F029FF204610BD70B5B9
:103CA00006460468456803E0204616F073FF1834A2
:103CB000A542F9D13046FFF7E8FF304670BD38B570
:103CC0000C46154605E04FF4FC7154F8040B16F051
:103CD0000DFFAC42F7D338BD10B5044603684BB1B5
:103CE000426A04324169FFF7EAFF6168890020688F
:103CF00016F0FCFE204610BD2DE9F041884617461F
:103D0000CE68043606E0204616F044FF1834A5427B
:103D1000F9D10436FB68B34203D9346804F5FC7565
:103D2000F5E7D8F80C20934215D0D8F80040D8F821
:103D3000085003E0204616F02DFF1834A542F9D1B3
:103D40007C683D6803E0204616F024FF1834A54245
:103D5000F9D1BDE8F081D8F800403D6803E0204685
:103D600016F018FF1834A542F9D1F2E700B589B072
:103D70000B6800934B6801938B680293CB680393A5
:103D8000136804935368059393680693D368079365
:103D900004AA6946FFF7B0FF09B05DF804FB10B54F
:103DA00088B0044683680093C36801930369029353
:103DB0004369039383690493C3690593036A069374
:103DC000436A0793034604AA6946FFF7CFFF2046DC
:103DD000FFF782FF204608B010BD000010B5044672
:103DE000074B40F8443BFFF7DAFF04F11C00FFF7F4
:103DF000D6FF201D16F0CEFE024B2360204610BDDC
:103E0000A0D2010844C6010810B50446FFF7E6FF3A
:103E10006C21204616F06AFE204610BD08B5B1F1AF
:103E2000005F03D2880016F063FE08BDB1F1804F39
:103E300001D316F071FE16F06CFE000008B5084BB9
:103E4000994205D801EB4101C80016F051FE08BDAA
:103E5000044B994201D916F05FFE16F05AFE00BFDE
:103E600055555505AAAAAA0A70B506460C46154628
:103E700006E0002215213046FFF7E0FF44F8040B6E
:103E8000AC42F6D370BD00002DE9F04385B0044686
:103E90000D46254BA3FB0123CA1A03EB52031B0952
:103EA0005E1C082202920333039393423AD80DEB2F
:103EB000020319686160002201A8FFF7AFFF804686
:103EC00020606768BF1B7F0800EB870909EB860647
:103ED000324649462046FFF7C7FFC4F8149058F809
:103EE0002730E36003F5FC722261321F626256F8EC
:103EF000042CE26102F5FC712162A3600A4BA3FB72
:103F00000513E91A03EB51031B0903EB4303C3EB4E
:103F1000C303EB1A03EB430302EBC302A26105B038
:103F2000BDE8F08303ABC4E78761188610B504468B
:103F30000021016041608160C16001614161816176
:103F4000C16101624162FFF79FFF204610BD10B5BD
:103F500004462822002117F0C7FC2046FFF7E6FFA1
:103F6000204610BD10B50446094B03600346094ABC
:103F700043F80C2B43600023836003731C30FFF76E
:103F8000E6FF04F14400FFF7E2FF204610BD00BF4A
:103F900044C60108A0D2010810B50446FFF7E2FFAD
:103FA0002346104A43F8742BE3660023236784F802
:103FB000743004F18C02C4F88420C4F8883084F88A
:103FC0008C3004F1A402C4F89C20C4F8A03084F81A
:103FD000A430C4F8B430C4F8B830C4F8BC302046BB
:103FE00010BD00BFD4D2010838B5044600250560D5
:103FF000858000F542502030FFF7CEFF04F5405396
:10400000C3F86051054AC3F86421054A92E80300E9
:10401000C3F86801A3F86C11204638BD88D70108A1
:104020006CC1010838B5044615460A4B03600023ED
:10403000037183608381036143618361C3610362B0
:104040008160054B40F8283BFFF7CEFF65622046B4
:1040500038BD00BF78C601082CD4010810B504464D
:1040600000F501502030FFF797FF04F50450203091
:10407000FFF778FF04F50053074AC3F82021002218
:10408000C3F88C2183F89021C3F89421034AC3F824
:104090009821204610BD00BF08D3010888D7010829
:1040A00010B50446FFF772F804F587500830FFF7A3
:1040B000D5FF04F54A500430FEF7B8FF04F57450FC
:1040C0000430FEF743FA04F57A501430FEF73EFA56
:1040D000154904F58040243003F09FFD134904F591
:1040E0008040643003F099FD04F581402430FEF7F0
:1040F0009FFA04F584403C30FCF76EFF04F58043E2
:10410000082183F840120022C3F8442283F84012A9
:10411000C3F844221E2283F8482240F63C72A3F8DA
:104120004A22204610BD00BF9C8F0020548F0020E3
:1041300010B50446064B40F8443BFFF7B0FD04F1D0
:104140002C0016F027FD034B2360204610BD00BF56
:10415000DCD5010878C6010810B50446FFF7E8FF72
:104160005821204616F0C2FC204610BD10B504466A
:10417000064B40F8B43BFFF778FD04F16C00FFF705
:104180003BF82046FFF72AFE204610BDD4D2010896
:1041900010B5044600F50053074AC3F8202100F586
:1041A00004502030FFF71AFE04F501502030FFF7CD
:1041B000DDFF204610BD00BF08D3010810B504463E
:1041C00000F580430E4AC3F8A4200E4AC3F8A42089
:1041D00000F540530C49C3F8941EC3F8942EC3F85D
:1041E000041DC3F8042D00F54A500430FEF796FF75
:1041F00004F587500830FFF7CBFF204610BD00BF05
:10420000A4D10108B0C50108E8D101082DE9F04F9B
:1042100087B005460E46012808D025B94FF6FF7332
:104220009E4200F0818107B0BDE8F08F4FF6FF732A
:104230009942F2D19E4B08221A7000245C601A70D9
:104240005C609C4F3846FFF72BFF39469A48FFF7D2
:10425000E9F8DFF8C892994AC9F8002089F80440C3
:10426000C9F80840A9F80C40C9F81040C9F8144032
:10427000C9F81840C9F81C40C9F82040C9F80870AE
:104280008F4BC9F80030C9F89C40C9F8A04089F8A4
:10429000A4408C4B1A601C719C609C811C615C6109
:1042A0009C61DC611A461C629F60874B13605462FC
:1042B000DFF86CA239465046FEF7ACFFDFF86482A7
:1042C0007E4BC8F8003088F80440C8F80840A8F8C9
:1042D0000C40C8F81040C8F81440C8F81840C8F896
:1042E0001C40C8F82040C8F80870784BC8F8003067
:1042F0004FF0010188F8241088F8324088F83340E4
:10430000C8F83440C8F8384040F2DC53A8F83C30D4
:104310004346524639466E4807F0A4FC39466D487C
:10432000FEF7DEFFDFF8F0B1644BCBF800308BF81E
:104330000440CBF80840ABF80C40CBF81040CBF869
:104340001440CBF81840CBF81C40CBF82040CBF8F9
:104350000870614BCBF80030CBF824408BF8284034
:104360008BF829408BF82A408BF82B408BF82C4097
:104370000323ABF82E3039465848FEF773FFDFF8B9
:1043800094A14E4BCAF800308AF80440CAF808409D
:10439000AAF80C40CAF81040CAF81440CAF81840ED
:1043A000CAF81C40CAF82040CAF808704C4BCAF83A
:1043B0000030CAF824B04949CAF82810DFF850B1D3
:1043C000444A39465846FFF72DFE5A463946454875
:1043D000FEF7CCFFDFF834B1384BCBF800308BF868
:1043E0000440CBF80840ABF80C40CBF81040CBF8B9
:1043F0001440CBF81840CBF81C40CBF82040CBF849
:104400000870394BCBF800303648CBF824003946D9
:104410003648FEF785FF364B284919601C719C60B1
:104420009C811C615C619C61DC611C629F60314A03
:104430001A60022283F82420524639462E48FFF79C
:104440001FF8DFF8C4A0224A39465046FFF74EF85D
:104450002A4B1A4919601C719C609C811C615C612B
:104460009C61DC611C629F60254A1A6083F82840C9
:104470005C85FF2283F82C2083F82D4083F82E40A2
:104480004FF0010183F82F1078221A8610495962E3
:10449000CDF810B0CDF80C800293CDF804A0094AF5
:1044A0000092154B4A463946164807F0B3FBB4E66E
:1044B000007D0020AC3A0020403A002078C6010878
:1044C000E0D401087039002088D5010818D501080A
:1044D000A03800206438002034D50108D0370020EF
:1044E00010D40108B4050020A4D501085805002007
:1044F00030050020F8D50108F804002088040020C9
:10450000F4D3010844040020BC0400208C050020E2
:104510000C060020A43700203438002098390020F1
:104520000C390020CC3800202A4B2B4A1A602B4C27
:104530001C602B4B2B4A1A601C602B4B2B4A1A60B9
:104540001C602B4B2B4A1A601C602B4B2B4A1A60A9
:104550001C602B4B2B4A1A601C602B4B2B4A1A6099
:104560001C602B48FFF7E4FD2A4D2B4B2B602B489A
:10457000FFF7FCFD2C602A4B2A4A1A601C602A4B6C
:104580002A4A1A601C602A4B2A4A1A601C602A4B6D
:104590002A4A1A601C602A4B2A4A1A601C602A4B5D
:1045A0002A4A1A601C602A4B2A4A1A601C602A4B4D
:1045B0002A4A1A601C602A4B2A4A1A601C602A4B3D
:1045C0002A4A1A602A4A1A601C602A48FFF7F6FD38
:1045D00029E600BF4404002084D3010878C60108FE
:1045E00088040020F4D30108BC040020D8D30108BB
:1045F000F8040020A0D3010830050020F8D50108F8
:1046000058050020C0D501088C050020A4D501085C
:10461000B40500200C0600202CD40108D43600205C
:10462000A437002010D40108D037002050D501084D
:104630003438002034D50108643800206CD50108D6
:10464000A0380020BCD30108CC38002018D50108C0
:104650000C390020FCD401087039002088D50108ED
:1046600098390020E0D40108403A0020A8D701087A
:1046700094C60108AC3A002010B50446FFF776FD59
:10468000C021204616F032FA204610BD08B54FF67C
:10469000FF710120FFF7BAFD08BD08B54FF6FF71A5
:1046A0000020FFF7B3FD08BD024A0260024A026023
:1046B000704700BF94C6010878C6010838B50446A3
:1046C0000023C362806800F5804393F8E031003B2B
:1046D00018BF012384F8303000F5805393F862103E
:1046E00000F58250043005F061F884F82700A568D1
:1046F00005F5844040300BF0CBF905F58045B5F861
:104700004A329842B4BF0020012084F8280058B1F2
:10471000A36803F5405393F8193E23B994F8272072
:1047200012B1184600E0002084F82A00002384F823
:10473000293040B1012384F82430022384F8253045
:10474000032384F8263038BD10B50446044B0360BB
:10475000044B0360342116F0C9F9204610BD00BF98
:1047600094C6010878C601082DE9F04F8BB00446C5
:10477000039107921F46866806F54A55043590F85E
:104780002430002B71D1884694F82520002A6FD15F
:10479000DDF80CA0002B6ED106F5745909F104095F
:1047A000D9F80030DB6948469847014694F8243030
:1047B0003A463046FDF786FA0190D9F800305B6939
:1047C00048469847014694F824303A463046FDF76B
:1047D00079FA0290B8F1050F52D0D9F800301B6A6F
:1047E00048469847059094F82530002B58D0A36888
:1047F00003F5814909F12409D9F80030DB694846FD
:104800009847014694F825303A463046FDF75AFA63
:104810008346D9F800305B6948469847014694F8CA
:1048200025303A463046FDF74DFA0490BAF1050FAF
:104830003CD0D9F800301B6A48469847069006F5E8
:10484000805393F86F3003F00103099394F82430F8
:10485000002B3BD194F82A300893B8F1000F3BD0DD
:10486000B8F1080F36D0012337E0DDF81C808BE764
:104870004FF0000A8EE706F57A5909F114098FE71F
:1048800094F82430012B05D006F58053B3F8663038
:104890000293A2E706F58053B3F86C3002939CE7CD
:1048A000A36803F5745909F10409A5E794F82530C4
:1048B000012B05D006F58053B3F866300293B8E7B4
:1048C00006F58053B3F86C300293B2E794F82930C0
:1048D0000893C2E7002300E00023019A0299A2EBAB
:1048E00001090FFA89F901224946284600F0AEFD78
:1048F00001220599284601F049F8B8F1010F07D0C7
:10490000089B5BB9B8F1000F0AD1BBB201930AE072
:104910004A460121284601F0EFF901E0BBB20193BC
:10492000B8F1070F15D04FF47F03012201992846F3
:1049300000F038FEB8F1050F05D094F8243013B913
:10494000B8F1040F0CD094F82530CBB994F82A2094
:1049500017E00123099A0199284600F08BFEE9E748
:10496000A06800F582500430FDF796F8A06800F5C5
:10497000405100233A46B1F8401EFDF7A3F9E2E7A3
:104980000022BAF1000F08D0BAF1080F02D04FF0A0
:10499000010804E04FF0000801E04FF00008002B90
:1049A00066D1BAF1010F06D072B9BAF1000F0DD17C
:1049B0001FFA87FB0DE0049BABEB030212B2002150
:1049C000284601F099F901E01FFA87FBBAF1070FB9
:1049D00047D04FF47F0300225946284600F0E2FDFD
:1049E000049BABEB03014346002209B2284600F0CA
:1049F0002DFD00220699284600F0C8FF94F82630C5
:104A0000032B00F09080A26802F5745808F10408A6
:104A100002F5405191F8480E003818BF0120012BD3
:104A200000F08780022B00F09080002800F0AE801C
:104A3000D8F80030DB6940469847014694F82630A4
:104A40003A463046FDF73EF9014694F82630039A7F
:104A5000073A18BF0122284602F0FAFD0BB0BDE864
:104A6000F08F0023099A5946284600F003FEB7E765
:104A7000D4F8088008F58140243003F085FF08F55C
:104A80008048B8F81A32984231D294F8303023BBBB
:104A90001FFA87FB94F8303043B1A36803F58043D5
:104AA00093F8E031013BDBB2022B35D84FF47F03A2
:104AB00000225946284600F075FD049BABEB03012C
:104AC00094F83030002209B2284600F0BFFC0022E2
:104AD0000699284600F05AFF90E7284600F0C8FFE4
:104AE000002184F83010284601F088F8D0E701232F
:104AF00084F83030A36803F5804393F8E031013B3C
:104B0000DBB2022BC6D8049BABEB030212B200212E
:104B1000284601F0F1F8BDE70023099A59462846D6
:104B200000F0A8FDC9E700221146284602F090FDDA
:104B300094E702F57A5808F1140891F8D80F003874
:104B400018BF0120079B03936FE702F5814808F126
:104B5000240802F58042D2F8A430DB68404698472A
:104B600088B103230393D4F8089009F581402430D9
:104B700003F00AFF09F58049B9F81A32984234BFA8
:104B80000020012051E707230393ECE794F8263037
:104B900000221146284602F05BFD5FE7F8B5856804
:104BA00090F82530022B00D0F8BD044605F581466B
:104BB0002436304603F0E8FE05F58043B3F81A3298
:104BC0009842F1D30CF04AFEE36A9842ECD305F523
:104BD000804393F8B931002BE6D005F58045D5F830
:104BE000A430DB69304698470746D5F8A4305B69A6
:104BF00030469847A368391A09B203F54A50043081
:104C000000F000FF0CF02AFE6430E062CCE7000008
:104C10002DE9F04F87B0074605921C46BDF840507D
:104C2000866806F5805393F86F303A4AB2F80080F0
:104C3000394AB2F80090394AB2F800B0384AB2F8AE
:104C400000A013F0010F1ED006F5805696F96F30C4
:104C5000002B31DB0126002C46D18DB1B86800F560
:104C60008040643029B2059B022B4DD00FFA88F2A8
:104C70000FFA89F3002402940196009603F0F4F8E9
:104C800007B0BDE8F08F0FFA88F00BF0BFFB1FFAFA
:104C900080F80FFA89F00BF0B9FB1FFA80F90FFAD0
:104CA0008BF00BF0B3FB1FFA80FB0FFA8AF00BF0CE
:104CB000ADFB1FFA80FAC7E71A4A82FB0432E317FA
:104CC000C3EB620303EB8303E31A9BB2E31A1CB248
:104CD000154BA3FB05239B0803EB8303EB1A9BB245
:104CE000EB1A9DB20526B6E7B86800230293019639
:104CF00000960FFA89F30FFA88F2214600F58040FA
:104D0000243003F0B1F8A8E70FFA8BF20FFA8AF318
:104D1000B0E700BF98D7010896D7010894D70108DB
:104D200092D7010867666666CDCCCCCC2DE9F047FA
:104D30008EB004461646876807F54A5504358846FE
:104D400000294DD14FF0000A002E52D14FF000093A
:104D5000CDF800900FFA8AF394F8252094F82410E7
:104D60002046FFF755FFB8F1000F4BD1002E00F0A1
:104D7000E18094F82520022A00F09E80394608A898
:104D8000FCF7CCFB94F8251007F585501430FCF7A0
:104D9000AAFE0246002308A9284600F093FC08A8B2
:104DA00015F0F8FE284600F081FE94F8283023B173
:104DB00094F82730002B00F0AF8094F83130002BAE
:104DC00000F0AA80072B00F0A780052B00F0B6802A
:104DD000032B40F0A5800021284600F02FFF9FE024
:104DE00090F8241007F582500430FCF719FD824634
:104DF000AAE794F8251007F582500430FCF710FD5F
:104E00008146A5E794F82420394602A8FCF786FBE2
:104E100094F8241007F585501430FCF764FE024620
:104E2000012302A9284600F04DFC02A815F0B2FEAD
:104E300001225146284602F0F5FB012200212846B6
:104E400000F044FE94F824303BB994F82820FAB1DD
:104E500094F8271011B1002200E00022D3B994F891
:104E60003130D2B9072B81D801A252F823F000BF0C
:104E70009B4E00086D4D00086D4D0008AF4E0008B8
:104E80006D4D0008A54E00086D4D00089B4E0008B2
:104E90000022E3E794F83230E3E70121284600F0EE
:104EA000ADFE63E70121284600F008FF5EE701211F
:104EB000284600F0C3FE59E7A06804F019F807B2CD
:104EC000A06800F5805393F86F8008F0010800F5A2
:104ED0008140243003F087FD01460022284600F07F
:104EE0005FFC42463946284600F0C2FC284600F0E6
:104EF000BFFDA36803F5804393F8E031013BDBB2CB
:104F0000022B04D80021284600F088FE08E000218A
:104F1000284600F073FE03E00021284600F06EFEF4
:104F200000224946284602F07DFB002384F83030F9
:104F3000E362B04640460EB0BDE8F0870121284646
:104F400000F0BCFEECE700BF10B5012380F826306E
:104F500090F828305BB1826802F5405292F8192E21
:104F600022B990F8274014B1134600E0002380F8DE
:104F70002A30012915D0022918D00223002190F8E7
:104F800024C090F8252080F8241080F82530D21A0B
:104F900018BF0122BCEB010118BF0121FFF7C6FEBB
:104FA00010BD022380F826300023E8E72BB103234D
:104FB00080F826300B460121E1E70023F8E708B529
:104FC00090F82430012B13D090F82A3043B983682D
:104FD00003F5804393F8E031013BDBB2022B03D8A9
:104FE0000221FFF7B1FF08BD0121FFF7ADFFFAE78E
:104FF0000020F8E708B590F82430012B1DD190F877
:105000002A3093B9826802F5405393F8D83FDBB257
:10501000022B0ED002F5405292F8D83FDBB2012BA2
:1050200007D00021FFF790FF08E00221FFF78CFF77
:1050300004E00121FFF788FF00E0002008BD08B56B
:1050400090F82530022B24D090F82930ABB990F895
:105050002A30B3B9826802F5405393F8D83FDBB2E7
:10506000022B12D002F5405292F8D83FDBB2012B4E
:105070000BD00021FFF768FF02E00021FFF764FF7B
:1050800008BD0221FFF760FFFAE70221FFF75CFF8E
:10509000F6E70020F4E708B590F82530022B24D17C
:1050A00090F82930ABB990F82A30B3B9826802F58C
:1050B000405393F8D83FDBB2022B12D002F5405296
:1050C00092F8D83FDBB2012B0BD00021FFF73CFF59
:1050D0000CE00021FFF738FF08E00221FFF734FF62
:1050E00004E00121FFF730FF00E0002008BD08B513
:1050F00090F8243003B390F82530FBB190F82930B4
:1051000093B9826802F5405393F8D83FDBB2022B83
:105110000ED002F5405292F8D83FDBB2012B07D0F7
:105120000021FFF711FF08E00021FFF70DFF04E069
:105130000121FFF709FF00E0002008BD0020FCE787
:1051400008B590F8243053B190F825305BB190F851
:10515000263063B9032380F82630002002E00221C4
:10516000FFF7F2FE08BD0221FFF7EEFEFAE700208E
:10517000F8E790F824308B4205D090F825308B4228
:1051800003D003207047012070470020704738B5D6
:1051900005460C460021FFF7ECFF0246A8682146B1
:1051A00000F54A50043000F091FC38BD70B5064659
:1051B0001446FFF7DEFF032824D00546B66806F53F
:1051C0004A560436621E072A27D8DFE802F004098F
:1051D0000E13171C26210146304600F01FFD11E07A
:1051E0000146304600F04AFD0CE00146304600F032
:1051F00025FD07E00146304600F06EFD29463046A9
:1052000000F05CFD70BD0146304600F047FDF9E757
:105210000146304600F022FDF4E70146304600F03A
:10522000EDFCEFE738B505461446FFF7A2FF03286B
:1052300007D00246A868214600F54A50043002F023
:10524000F1F938BD38B590F82530022B00D038BDC3
:105250000C46856805F58140243003F0C4FB014607
:10526000224605F54A50043000F09AFAEFE710B5EF
:1052700084B094460A68511D62B112889DF81C40A2
:105280000294BDF8184001940093634615F02EF97E
:1052900004B010BD0022F1E738B5054615F082F9DB
:1052A0000446284615F086F9201A00B238BD38B5F4
:1052B000054615F077F90446284615F07BF9204499
:1052C00000B238BD30B585B0084611461A46099B74
:1052D0001B685C1D73B11B88BDF82C500395BDF88D
:1052E0002850029501930094BDF8203014F028F85E
:1052F00005B030BD0023EFE730B585B00846114654
:105300001C687CB122887CB163880534BDF82450C8
:105310000395BDF8205002950192009414F010F806
:1053200005B030BD0022EEE70023EEE72DE9F043A3
:1053300085B00D4616461F460D980468C4B104F1A9
:105340000708BCB1B4F80090BCB1647914F0C8FC93
:1053500003900294CDF80490CDF80080BDF8303071
:105360003A463146284614F059F805B0BDE8F083B6
:10537000A046E6E74FF00009E6E70024E6E7000074
:105380000288124B1B68596B8A4204D8596B8A42B7
:105390000ED300207047596B521A042A04D95A6B55
:1053A00004325A63012070475A6B01325A63F9E79D
:1053B000596B8A1A042A04D95A6B043A5A63012099
:1053C00070475A6B013A5A63F9E700BF348E0020E8
:1053D00070B582B00446F9B1C4F82C1A261DD4F871
:1053E0002C1A304614F0F1FF304615F0DBF885B288
:1053F0000D49304615F06AF8811C2A4689B201A889
:1054000013F046FA01A904F6442013F05EFA01A84D
:1054100013F072FA02B070BDD0F87C3AC0F82C3AA2
:10542000002380F86430D9E7A8C6010808B5064B08
:105430001B6800225A63FF2380F8583AB0F8300AFC
:1054400013F0C2FC08BD00BF348E00202DE9F04FE0
:1054500085B00291012A7CD804461F467CD0B0F862
:105460005A5AD4F8443A002B79D01E8806F1140A0F
:105470001FFA8AFAD4F8403A002B72D05B88DBB26C
:10548000039306F117081FFA88F8B4F8323A03229A
:105490002946404613F0BDFDBDF80C90B4F8323AF1
:1054A0004A462946504613F042FD06F11A00B4F868
:1054B000323A4A46294680B213F039FD05EB090A13
:1054C0001FFA8AFA0AF1050B1FFA8BFBB4F8323A7D
:1054D00008225946404613F09CFD002F43D0B4F8F3
:1054E000363A07225946404613F0E4FD06F1110012
:1054F00005F10901B4F8323A009303231A4689B240
:1055000080B213F027FC1536B6B2B4F8303A0093E7
:105510004B4605222946304613F01CFC0A226FF048
:10552000630102980AF033FF034600B2002820DD31
:105530009BB2E91A89B20A3189B24B449BB20A3B49
:105540009BB29FB1B4F8362A00920522304613F080
:1055500001FC05B0BDE8F08FB0F86A5A81E700267B
:1055600084E700238BE7B4F8303ABAE7B4F8302A7E
:10557000EAE7039B0A3B0093012300226FF06301DB
:105580000AF00EFFC3B2AAEB030189B23FB1B4F82F
:10559000362A00920522304613F0DCFBD9E7B4F836
:1055A000302AF6E7012A62D82DE9F04385B0054696
:1055B00017461E46B1F57A7F01D340F2E7310A461D
:1055C0002B4902A816F046F92C1DD5F8741A20466E
:1055D00014F0FBFE0221204614F007FF05F52468B5
:1055E000404613F09AF9002301930093012302AA85
:1055F00041462046FFF73BFE13F0E2FAD5F8403A69
:1056000003B31B88C41AA4B2143CA4B213F0D8FA92
:10561000814613F0DBFA814516D8012F22D0B5F868
:105620005A2AB5F8303AB6F5803F1ED3B5F8326A3B
:1056300001960093434621462846FFF75DFE05B0DC
:10564000BDE8F0830023DDE713F0BAFAD5F8403A5D
:1056500033B11B88C41AC4F34F043234A4B2DCE75C
:105660000023F7E7B5F86A2ADBE7B6B2E0E7704750
:10567000ACC601082DE9F04182B005460C461E4635
:10568000DAB128274FF05A084246394620460AF038
:105690007EFE0023009355234246394680B20AF02D
:1056A0007FFEC0B213F0F2FA034632462146284686
:1056B000FFF778FF02B0BDE8F08150274FF0B40843
:1056C000E2E700002DE9F04F87B00592012B02D9E7
:1056D00007B0BDE8F08F04460F461D4600F1040AEE
:1056E000D0F82C1A504614F070FE504614F05AFFB1
:1056F0001FFA80F93968504614F0E8FE8346012D00
:105700002DD10026B4F8303A00934B46B4F8642A01
:105710003146002013F01EFBB4F8648AD84524D922
:10572000A8EB0B08C8F34F084E44B6B2B4F8323AAF
:1057300000933B6832464146504614F0ABFE059B51
:10574000B3B113F03DFA143882B2012DC0D1B4F8D0
:10575000323AB4F86E1A0A2013F0E0FBB8E713F0FF
:1057600035FAA0EB0906B6B2CCE74FF00008DBE74C
:1057700008EB0B0080B20A300E3EB4F8303AB4F8B1
:10578000322A0392029310220192044B00930E23BB
:10579000B1B280B213F0D4FDD3E700BFE8CF010867
:1057A0002DE9F04387B004460D469046642900D9A0
:1057B0006425382104F1640009F0F6F981462523B7
:1057C0002A462A4904A816F045F8261DD4F82C1AB2
:1057D000304614F0FAFD304614F0E4FE85B22A4655
:1057E000B4F8661A03A813F053F8012301930027B5
:1057F00000973B464A4603A93046FFF738FD01971C
:105800000097022304AA03A93046FFF730FDB8F140
:10581000000F28D0B4F8366A13F0D8F9421B01966D
:10582000B4F8303A009303AB92B200212046FFF760
:1058300063FDB4F8667A13F0C9F9461BB6B213F0EB
:10584000BFF9B4F8663AC21AB4F8303A00932B465E
:1058500092B23146384613F07DFA03A813F04CF8A3
:1058600007B0BDE8F083B4F8326AD5E7B0C60108E6
:105870002DE9F04788B004460D461646071DD0F8BE
:105880002C1A384614F0A1FD384614F08BFE05F1B1
:1058900009039BB26C2B61D81FFA80F84323ADF843
:1058A000143016B946238DF814302A46354906A817
:1058B00015F0D0FF13F084F9054605A9384614F019
:1058C00005FE2D1AADB2A5F11E091FFA89F906A928
:1058D000384614F0FBFDA9EB0006B6B2083EB6B29E
:1058E00013F074F9A0EB08001FFA80FA13F068F9BE
:1058F0000246B4F8303A009343465146304613F01E
:1059000029FA13F063F90246B4F8323A009305AB72
:105910004946384614F0BEFD263DADB213F056F9A7
:10592000A0EB080189B20431B4F8303AB4F8322A55
:105930000392029308220192134B0093052389B22C
:10594000284613F0FDFC13F041F90246B4F8323A50
:10595000009306AB3146384614F09CFD13F030F945
:10596000A0F11405ADB213F031F9B4F8703AC11AD0
:10597000B4F8323A2A4689B20A2013F0CFFA08B0B6
:10598000BDE8F087B8C6010804D00108012A38D85C
:1059900070B582B0044608461546642900D96420D3
:1059A000D4F84C3A33B35A88D2B203210AF00CFD32
:1059B0000146012D20D0B4F85A6A04F64C25002285
:1059C000284613F09DF813F0FBF8D4F84C3AB3B125
:1059D0001B88C11A89B20539B4F8323A0193B4F878
:1059E000303A00932B46324689B22046FFF784FCBA
:1059F00002B070BD0022D7E7B4F86A6ADDE7002381
:105A0000E7E7704730B585B004460846164D0022DA
:105A100029460AF0BCFC002200925523294600B218
:105A20000AF0BEFCC0B213F031F994F83E3A0133EB
:105A3000DBB284F83E3A03F0030384F83E3A03EB0A
:105A4000C3030A4A02EB4313B4F8302A03900292CC
:105A50003022019200931346B4F85E1AB4F85C0A3F
:105A600013F06EFC05B030BD18FCFFFF58CB0108E9
:105A700000B585B090F83E3A03EBC3030A4A02EB47
:105A80004313B0F8302A45F2AA2103910292302242
:105A9000019200931346B0F85E1AB0F85C0A13F056
:105AA0004FFC05B05DF804FB58CB010800B583B08E
:105AB000B0F8303A009330231A46B0F85E1AB0F8C6
:105AC0005C0A13F047F903B05DF804FB012A26D8FD
:105AD00000B585B00346B0F8600AB3F862CA1AB9D7
