:020000040800F2
:1000000000000220D92F0108191B01081B1B010841
:100010001D1B01081F1B0108211B01080000000017
:10002000000000000000000000000000231B010889
:10003000251B010800000000271B0108291B0108DF
:100040002930010829300108293001082930010828
:100050002930010829300108293001082930010818
:100060002930010829300108293001082930010808
:1000700029300108293001082930010829300108F8
:1000800029300108293001082930010829300108E8
:1000900029300108293001082930010829300108D8
:1000A000293001082930010829300108311B0108D5
:1000B00029300108293001082930010829300108B8
:1000C00029300108293001082930010829300108A8
:1000D0002930010829300108293001082930010898
:1000E0002930010829300108293001082930010888
:1000F0002930010829300108293001082930010878
:100100002930010829300108411B01082930010864
:100110002930010829300108293001082930010857
:10012000511B010829300108611B0108711B0108DE
:10013000811B0108000000000000000029300108B8
:100140002930010829300108293001082930010827
:100150002930010829300108293001082930010817
:100160002930010829300108293001082930010807
:100170002930010829300108293001080000000059
:10018000000000002930010800000000000000000D
:10019000293001080000000000000000293001089B
:1001A00000000000000000000000000029300108ED
:1001B00029300108293001082930010829300108B7
:0401C00029300108D9
:1001D00010B5054C237833B9044B13B10448AFF381
:1001E00000800123237010BD880300200000000060
:1001F0000CD9010808B5034B1BB103490348AFF301
:10020000008008BD000000008C0300200CD901080C
:1002100001F0FF01102A2BDB10F0070F08D010F8B7
:10022000013B013A8B422DD010F0070F42B3F6D1BB
:10023000F0B441EA012141EA014122F007047FF0D4
:1002400000070023F0E80256083C85EA010586EA2B
:10025000010685FA47F5A3FA87F586FA47F6A5FA67
:1002600087F68EB9EED1F0BC01F0FF0102F0070273
:1002700032B110F8013B013A83EA010313B1F8D11E
:100280000020704701387047002D06BF35460338FF
:10029000073815F0010F07D1013015F4807F02BF38
:1002A000013015F4C03F0130F0BC0138704700BF89
:1002B00010F8012B11F8013B012A28BF9A42F7D010
:1002C000D01A7047034613F8012B002AFBD1181AE5
:1002D0000138704781F0004102E000BF83F0004325
:1002E00030B54FEA41044FEA430594EA050F08BFD1
:1002F00090EA020F1FBF54EA000C55EA020C7FEA95
:10030000645C7FEA655C00F0E2804FEA5454D4EB11
:100310005555B8BF6D420CDD2C4480EA020281EADB
:10032000030382EA000083EA010180EA020281EA13
:100330000303362D88BF30BD11F0004F4FEA013165
:100340004FF4801C4CEA113102D0404261EB410174
:1003500013F0004F4FEA03334CEA133302D05242FA
:1003600063EB430394EA050F00F0A780A4F10104B6
:10037000D5F1200E0DDB02FA0EFC22FA05F28018F0
:1003800041F1000103FA0EF2801843FA05F35941D6
:100390000EE0A5F120050EF1200E012A03FA0EFC55
:1003A00028BF4CF0020C43FA05F3C01851EBE3717F
:1003B00001F0004507D54FF0000EDCF1000C7EEB9C
:1003C00000006EEB0101B1F5801F1BD3B1F5001FDA
:1003D0000CD349085FEA30004FEA3C0C04F10104F9
:1003E0004FEA445212F5800F80F09A80BCF1004F22
:1003F00008BF5FEA500C50F1000041EB045141EAA4
:10040000050130BD5FEA4C0C404141EB0101013C6C
:1004100028BFB1F5801FE9D291F0000F04BF01465B
:100420000020B1FA81F308BF2033A3F10B03B3F12D
:1004300020020CDA0C3208DD02F1140CC2F10C02BD
:1004400001FA0CF021FA02F10CE002F11402D8BF1B
:10045000C2F1200C01FA02F120FA0CFCDCBF41EAE7
:100460000C019040E41AA2BF01EB0451294330BDB6
:100470006FEA04041F3C1CDA0C340EDC04F1140493
:10048000C4F1200220FA04F001FA02F340EA03006A
:1004900021FA04F345EA030130BDC4F10C04C4F1B0
:1004A000200220FA02F001FA04F340EA0300294690
:1004B00030BD21FA04F0294630BD94F0000F83F4DA
:1004C000801306BF81F480110134013D4EE77FEABD
:1004D000645C18BF7FEA655C29D094EA050F08BF09
:1004E00090EA020F05D054EA000C04BF19461046EA
:1004F00030BD91EA030F1EBF0021002030BD5FEA2E
:10050000545C05D14000494128BF41F0004130BD55
:1005100014F580043CBF01F5801130BD01F00045A9
:1005200045F0FE4141F470014FF0000030BD7FEA1C
:10053000645C1ABF194610467FEA655C1CBF0B4617
:10054000024650EA013406BF52EA033591EA030F2E
:1005500041F4002130BD00BF90F0000F04BF002126
:10056000704730B54FF4806404F132044FF0000559
:100570004FF0000150E700BF90F0000F04BF0021D2
:10058000704730B54FF4806404F1320410F0004538
:1005900048BF40424FF000013EE700BF42004FEA33
:1005A000E2014FEA31014FEA02701FBF12F07F43B0
:1005B00093F07F4F81F06051704732F07F4208BF67
:1005C000704793F07F4F04BF41F40021704730B56E
:1005D0004FF4607401F0004521F000411CE700BFBA
:1005E00050EA010208BF704730B54FF000050AE03D
:1005F00050EA010208BF704730B511F0004502D53E
:10060000404261EB41014FF4806404F132045FEA3F
:10061000915C3FF4D8AE4FF003025FEADC0C18BFE8
:1006200003325FEADC0C18BF033202EBDC02C2F1DA
:10063000200300FA03FC20FA02F001FA03FE40EA6C
:100640000E0021FA02F11444BDE600BF70B54FF070
:10065000FF0C4CF4E06C1CEA11541DBF1CEA13554E
:1006600094EA0C0F95EA0C0F00F0DEF82C4481EAB6
:10067000030621EA4C5123EA4C5350EA013518BFD6
:1006800052EA033541F4801143F4801338D0A0FBC3
:1006900002CE4FF00005E1FB02E506F00042E0FB70
:1006A00003E54FF00006E1FB03569CF0000F18BF76
:1006B0004EF0010EA4F1FF04B6F5007F64F540741E
:1006C00004D25FEA4E0E6D4146EB060642EAC621B1
:1006D00041EA55514FEAC52040EA5E504FEACE2E1E
:1006E000B4F1FD0C88BFBCF5E06F1ED8BEF1004F21
:1006F00008BF5FEA500E50F1000041EB045170BD9D
:1007000006F0004646EA010140EA020081EA0301E0
:10071000B4EB5C04C2BFD4EB0C0541EA045170BDDC
:1007200041F480114FF0000E013C00F3AB8014F156
:10073000360FDEBF002001F0004170BDC4F100049F
:10074000203C35DA0C341BDC04F11404C4F1200520
:1007500000FA05F320FA04F001FA05F240EA02007B
:1007600001F0004221F0004110EBD37021FA04F6B1
:1007700042EB06015EEA430E08BF20EAD37070BD6B
:10078000C4F10C04C4F1200500FA04F320FA05F0CA
:1007900001FA04F240EA020001F0004110EBD370CC
:1007A00041F100015EEA430E08BF20EAD37070BD3C
:1007B000C4F1200500FA05F24EEA020E20FA04F315
:1007C00001FA05F243EA020321FA04F001F00041C4
:1007D00021FA04F220EA020000EBD3705EEA430E35
:1007E00008BF20EAD37070BD94F0000F0FD101F064
:1007F0000046400041EB010111F4801F08BF013C9D
:10080000F7D041EA060195F0000F18BF704703F0DA
:100810000046520043EB030313F4801F08BF013D61
:10082000F7D043EA0603704794EA0C0F0CEA13551D
:1008300018BF95EA0C0F0CD050EA410618BF52EAD7
:100840004306D1D181EA030101F000414FF00000DD
:1008500070BD50EA410606BF1046194652EA4306EB
:1008600019D094EA0C0F02D150EA013613D195EA5F
:100870000C0F05D152EA03361CBF104619460AD1A7
:1008800081EA030101F0004141F0FE4141F47001B1
:100890004FF0000070BD41F0FE4141F4780170BDA1
:1008A00070B54FF0FF0C4CF4E06C1CEA11541DBF06
:1008B0001CEA135594EA0C0F95EA0C0F00F0A7F808
:1008C000A4EB050481EA030E52EA03354FEA013135
:1008D00000F088804FEA03334FF0805545EA131348
:1008E00043EA12634FEA022245EA111545EA106510
:1008F0004FEA00260EF000419D4208BF964244F1A7
:10090000FD0404F5407402D25B084FEA3202B61AC5
:1009100065EB03055B084FEA32024FF480104FF499
:10092000002CB6EB020E75EB030E22BFB61A75460D
:1009300040EA0C005B084FEA3202B6EB020E75EBA0
:10094000030E22BFB61A754640EA5C005B084FEA08
:100950003202B6EB020E75EB030E22BFB61A7546D5
:1009600040EA9C005B084FEA3202B6EB020E75EBE0
:10097000030E22BFB61A754640EADC0055EA060EA1
:1009800018D04FEA051545EA16754FEA06164FEAE4
:10099000C30343EA52734FEAC2025FEA1C1CC0D190
:1009A00011F4801F0BD141EA00014FF000004FF01D
:1009B000004CB6E711F4801F04BF01430020B4F1DE
:1009C000FD0C88BFBCF5E06F3FF6AFAEB5EB030C96
:1009D00004BFB6EB020C5FEA500C50F1000041EB93
:1009E000045170BD0EF0004E4EEA113114EB5C0460
:1009F000C2BFD4EB0C0541EA045170BD41F4801133
:100A00004FF0000E013C90E645EA060E8DE60CEA3A
:100A1000135594EA0C0F08BF95EA0C0F3FF43BAF57
:100A200094EA0C0F0AD150EA01347FF434AF95EA0E
:100A30000C0F7FF425AF104619462CE795EA0C0FF2
:100A400006D152EA03353FF4FDAE1046194622E7BF
:100A500050EA410618BF52EA43067FF4C5AE50EA99
:100A600041047FF40DAF52EA43057FF4EBAE12E789
:100A70004FF0FF3C06E000BF4FF0010C02E000BF6A
:100A80004FF0010C4DF804CD4FEA410C7FEA6C5C4D
:100A90004FEA430C18BF7FEA6C5C1BD001B050EAF0
:100AA000410C0CBF52EA430C91EA030F02BF90EADB
:100AB000020F0020704710F1000F91EA030F58BF9A
:100AC000994208BF90422CBFD8176FEAE37040F0FC
:100AD000010070474FEA410C7FEA6C5C02D150EA9A
:100AE000013C07D14FEA430C7FEA6C5CD6D152EA55
:100AF000033CD3D05DF8040B704700BF844610461A
:100B000062468C461946634600E000BF01B5FFF718
:100B1000B7FF002848BF10F1000F01BD4DF808EDE8
:100B2000FFF7F4FF0CBF012000205DF808FB00BFB9
:100B30004DF808EDFFF7EAFF34BF012000205DF813
:100B400008FB00BF4DF808EDFFF7E0FF94BF012060
:100B500000205DF808FB00BF4DF808EDFFF7CEFF61
:100B600094BF012000205DF808FB00BF4DF808EDA0
:100B7000FFF7C4FF34BF012000205DF808FB00BF71
:100B80004FEA410C7FEA6C5C02D150EA013C0AD189
:100B90004FEA430C7FEA6C5C02D152EA033C02D17B
:100BA0004FF0000070474FF0010070474FEA4102DC
:100BB00012F5001215D211D56FF47873B3EB6252AF
:100BC00012D94FEAC12343F0004343EA505311F0D6
:100BD000004F23FA02F018BF404270474FF0000068
:100BE000704750EA013005D111F0004008BF6FF0A6
:100BF000004070474FF00000704700BF4A0011D21C
:100C000012F5001211D20DD56FF47873B3EB625266
:100C10000ED44FEAC12343F0004343EA505323FA72
:100C200002F070474FF00000704750EA013002D1E7
:100C30004FF0FF3070474FF0000070474FEA41021D
:100C4000B2F1E04324BFB3F5001CDCF1FE5C0DD92A
:100C500001F0004C4FEAC0024CEA5070B2F1004F74
:100C600040EB830008BF20F00100704711F0804F77
:100C700021D113F13872BCBF01F00040704741F43C
:100C800080114FEA5252C2F11802C2F1200C10FA40
:100C90000CF320FA02F018BF40F001004FEAC12324
:100CA0004FEAD32303FA0CFC40EA0C0023FA02F3C8
:100CB0004FEA4303CCE77FEA625307D150EA01339E
:100CC0001EBF4FF0FE4040F44000704701F000406E
:100CD00040F0FE4040F40000704700BF53B94AB9ED
:100CE000002908BF00281CBF4FF0FF314FF0FF3034
:100CF00000F074B9ADF1080C6DE904CE00F006F80F
:100D0000DDF804E0DDE9022304B070472DE9F04787
:100D1000089D04468E46002B4DD18A42944669D9DF
:100D2000B2FA82F252B101FA02F3C2F1200120FAC2
:100D300001F10CFA02FC41EA030E94404FEA1C4810
:100D4000210CBEFBF8F61FFA8CF708FB16E341EA0C
:100D5000034306FB07F199420AD91CEB030306F192
:100D6000FF3080F01F81994240F21C81023E6344B3
:100D70005B1AA4B2B3FBF8F008FB103344EA034457
:100D800000FB07F7A7420AD91CEB040400F1FF336C
:100D900080F00A81A74240F207816444023840EAA9
:100DA0000640E41B00261DB1D4400023C5E90043E2
:100DB0003146BDE8F0878B4209D9002D00F0EF8065
:100DC0000026C5E9000130463146BDE8F087B3FA98
:100DD00083F6002E4AD18B4202D3824200F2F98080
:100DE000841A61EB030301209E46002DE0D0C5E983
:100DF000004EDDE702B9FFDEB2FA82F2002A40F0CF
:100E00009280A1EB0C014FEA1C471FFA8CFE0126D1
:100E1000200CB1FBF7F307FB131140EA01410EFB75
:100E200003F0884208D91CEB010103F1FF3802D21C
:100E3000884200F2CB804346091AA4B2B1FBF7F016
:100E400007FB101144EA01440EFB00FEA64508D939
:100E50001CEB040400F1FF3102D2A64500F2BB8076
:100E60000846A4EB0E0440EA03409CE7C6F12007C5
:100E7000B34022FA07FC4CEA030C20FA07F401FA0B
:100E800006F31C43F9404FEA1C4900FA06F3B1FB94
:100E9000F9F8200C1FFA8CFE09FB181140EA0141F9
:100EA00008FB0EF0884202FA06F20BD91CEB010196
:100EB00008F1FF3A80F08880884240F28580A8F1EE
:100EC00002086144091AA4B2B1FBF9F009FB101140
:100ED00044EA014100FB0EFE8E4508D91CEB0101DE
:100EE00000F1FF346CD28E456AD90238614440EA81
:100EF0000840A0FB0294A1EB0E01A142C846A64601
:100F000056D353D05DB1B3EB080261EB0E0101FA89
:100F100007F722FA06F3F1401F43C5E900710026E6
:100F20003146BDE8F087C2F12003D8400CFA02FC3C
:100F300021FA03F3914001434FEA1C471FFA8CFE4C
:100F4000B3FBF7F007FB10360B0C43EA064300FB3C
:100F50000EF69E4204FA02F408D91CEB030300F1DA
:100F6000FF382FD29E422DD9023863449B1B89B291
:100F7000B3FBF7F607FB163341EA034106FB0EF31A
:100F80008B4208D91CEB010106F1FF3816D28B42C7
:100F900014D9023E6144C91A46EA004638E72E4693
:100FA000284605E70646E3E61846F8E64B45A9D28B
:100FB000B9EB020864EB0C0E0138A3E74646EAE7FA
:100FC000204694E74046D1E7D0467BE7023B6144A8
:100FD00032E7304609E76444023842E7704700BF11
:100FE00001230370024B1B6800225A63704700BF45
:100FF0002890002010B5064C2368481ED862490886
:101000005963104612F064F8236800225A6310BD39
:101010002890002038B5037803B938BD0446084D40
:101020000021284614F0BEFDA0224FF48E71204608
:10103000FFF7E0FF0021284614F036FEEDE700BF81
:101040002890002038B5037803B938BD04460C4D0C
:101050000021284614F0A6FDA0224FF48E712046F0
:10106000FFF7C8FF642012F033F8A0224FF48E710E
:101070002046FFF7BFFF0021284614F015FEE4E7E5
:101080002890002038B5037803B938BD0446084DD0
:101090000021284614F086FDA02240F61831204693
:1010A000FFF7A8FF0021284614F0FEFDEDE700BF82
:1010B0002890002038B5037803B938BD0446114D97
:1010C0000021284614F06EFDA0224FF48E712046B8
:1010D000FFF790FF322011F0FBFF3C2240F6183161
:1010E0002046FFF787FF322011F0F2FFA02240F2E6
:1010F0008C512046FFF77EFF0021284614F0D4FDD6
:10110000DBE700BF2890002019B1012906D000209C
:10111000704700F5805090F85E00704700F58050F1
:1011200090F86000704708B57AB90A6800F58053F6
:10113000A3F842204A68A3F844208A68A3F846200E
:1011400000F5825107F0ABFC08BD022A0BD00A68FB
:1011500000F58053A3F848204A68A3F84A208A681B
:10116000A3F84C20ECE70A6800F58053A3F84E2062
:101170004A68A3F850208A68A3F85220E0E700F5F7
:101180008053D3F8E030C3B370B584B004460D4645
:101190004E0013F81120FF2A1ED00123694607F0E4
:1011A000FAFA40BB9DF8083083F001038DF808304F
:1011B00001226946204607F052FD04F58054D4F818
:1011C000E03003F81500D4F8E03033449DF80820EF
:1011D0005A70012004B070BD00F5825008F0E0FDA7
:1011E000014640B105220DF109001CF045F801232C
:1011F0008DF80830DCE70020ECE7002070472DE98F
:10120000F8430C4611B92046BDE8F883814600F545
:101210008257384608F0B8FDA0428CBF0026012650
:101220002146384608F0B2FD00B10326384608F0E2
:10123000ABFD451EEDB2012E1DD0032E25D001269B
:1012400009F58053D3F8E030002B52D03746A8463A
:101250002A463146204610F0D9FCC4B209F580591F
:10126000D9F8E020204602EB44035B7813F0010F2D
:10127000C9D1234619E0384608F086FD06463846AF
:1012800008F080FD8519EDB2DAE7384608F07CFDFC
:101290000646384608F076FD0644F6B2384608F0B1
:1012A0006FFD0546CCE7013BDBB29E4205D802EB61
:1012B0004301497811F0010FF5D0A54208D302EBA4
:1012C0004401497811F0010F02D10134E4B2F4E78E
:1012D000013FBB4207D0A5420DD0C21A201A82425C
:1012E00091DA1C468FE708F1010844458BD134465A
:1012F00089E7344687E71C4685E700002DE9F84F6B
:1013000005460C46B1F802808F88CE88CB7D13F05D
:10131000010F43D0314BB3F800A0314BB3F800B00C
:101320005A465146404610F071FC80461FFA80F93B
:101330005A465146384610F069FC07461FFA80FAB3
:10134000284B1A88284B1988304610F05FFC064657
:1013500080B2E37D13F0010F2FD0A4F80290A4F81F
:1013600004A0E080A37C1E2B01D91E23A374A37DBF
:101370001E2B01D91E23A375A17A2846FFF73FFF34
:101380006081217B2846FFF73AFFA081FF220A21D6
:10139000207E10F03BFC2076BDE8F88F0FFA88F035
:1013A00010F08CFC1FFA80F838B210F087FC87B27E
:1013B00030B210F083FC86B2ACE70FFA88F010F080
:1013C0006FFC1FFA80F938B210F06AFC1FFA80FA3D
:1013D00030B210F065FC80B2BFE700BF1EEF01081D
:1013E0001CEF010816EF010818EF01082DE9F04382
:1013F00085B006460F460024A04612E00DF1090113
:10140000484608F0E3FC00B2002808DB9DF80830ED
:101410002BB107EB400217F81030FF2B1BD0013423
:1014200024B206F58259484608F0AAFC84420ADA3A
:10143000E5B201232A466946304607F0ACF9002898
:10144000DCD00128EBD1304607F0A6F85FFA88F02F
:1014500005B0BDE8F08307F810509DF808305370D0
:1014600008F101081FFA88F8D9E708B500F580539C
:10147000D3F8E01009B9002008BDFFF7B7FF01203D
:10148000FAE708B5C28AB0F844309A424FD1028BCD
:10149000B0F846309A424CD1428BB0F848309A426C
:1014A00049D1828BB0F84A309A4246D1428CB0F88A
:1014B00050309A4243D190F8242090F852309A420A
:1014C0003FD1C28BB0F84C309A423CD1028CB0F87C
:1014D0004E309A4239D190F8262090F854309A42F2
:1014E00035D1028DB0F856309A4232D190F82A2088
:1014F00090F858309A422ED190F82B2090F859301D
:101500009A422AD190F8252090F853309A4226D159
:1015100090F82C2090F85A309A4222D1142200F1EF
:101520005C012E301BF094FEE8B9012000E00020A1
:1015300008BD0020FCE70020FAE70020F8E70020C3
:10154000F6E70020F4E70020F2E70020F0E70020B3
:10155000EEE70020ECE70020EAE70020E8E70020C3
:10156000E6E70020E4E70020E2E7000038B50446A3
:10157000EB23C3820383C82343834FF4966383839F
:10158000002580F826504584052380F82430B423B4
:10159000038580F82A50B32380F82B3080F825503B
:1015A000802380F82C30012380F82D301422054947
:1015B0002E301BF061FEE583204608F0E5FB208419
:1015C00038BD00BF0CEF010840F6FC034380322316
:1015D000838040F2DF23C38040F2C75303813B2363
:1015E000438140F2FB138381C823C38140230382DC
:1015F000C3234382704710B5044652B1022A0FD06C
:1016000040F2A46303224FF4FA710FF097F92046D9
:1016100010BDC8230A2240F23F210FF08FF9F6E7F0
:101620003223402296210FF089F9F0E7022903D0F6
:10163000012903D0C08A7047408B7047008B7047E8
:1016400010B5044690F82E3013B104F12E0010BDF1
:10165000142202492E301BF00FFEF6E70CEF0108B2
:101660002DE9F84304460F4615461E469DF8209086
:101670009DF8248090F82B3003F00103934210D0A2
:10168000002A43D0B0F9160010F018FBE082B4F93C
:10169000180010F013FB2083B4F91A0010F00EFBB1
:1016A000608394F82B2002F00C0284F82B201DB1EB
:1016B00042F0010284F82B202FB194F82B3043F034
:1016C000020384F82B302EB194F82B3063F07F03A3
:1016D00084F82B30B9F1000F05D094F82B3043F08B
:1016E000100384F82B30B8F1000F05D094F82B309C
:1016F00043F0200384F82B30642201219DF8280058
:1017000010F084FA84F82C00BDE8F883B0F91600D4
:1017100010F0C6FAE082B4F9180010F0C1FA208384
:10172000B4F91A0010F0BCFA6083BAE700B59DF86E
:101730000CC0BDF810E080F82630BDF804304384BA
:101740009DF8083080F8243090F82B3003F0B30374
:1017500080F82B3019B143F0040380F82B302AB104
:1017600090F82B3043F0080380F82B30BCF14B0F7E
:1017700001D94FF04B0CBEF5A07F05D8BEF1040F88
:1017800004D84FF0050E01E04FF4A07E0CF10403E5
:10179000DBB20C4AA2FB03239B081B01DBB280F8DF
:1017A00025300EF1FF3E084A82FB0E124FEAEE7E14
:1017B000CEEBE20E0EF00F0E4EEA030380F825305A
:1017C0005DF804FBCDCCCCCC6766666610B50446EC
:1017D000084622851E22002110F018FA84F82A00FB
:1017E00010BD0AB9C1827047012A00D07047018339
:1017F000FCE741838283704710B500F1140300F1C8
:10180000420234301C68D3F804E0D3F808C0D96829
:101810001460C2F804E0C2F808C0D160103310327E
:101820008342EFD1D3F800C058689968C2F800C06D
:10183000506091609B89938110BD38B5044600F5D6
:1018400082552846FFF71DFE00B138BD29461431E8
:10185000204607F0CFF92846FFF7CEFFF5E710B591
:1018600000F1420300F1140262301C68D3F804E076
:10187000D3F808C0D9681460C2F804E0C2F808C000
:10188000D160103310328342EFD1D3F800C05868D2
:101890009968C2F800C0506091609B89938110BD27
:1018A00090F82500000900EB8000704790F82500B3
:1018B00000F00F00013000EB80008000704710B591
:1018C000044642B1022A0CD08B894A8909890FF05B
:1018D00035F8204610BDCB888A8849880FF02EF84D
:1018E000F7E74B8A0A8AC9890FF028F8F1E702293D
:1018F00001D90020704701EB810100EB4100007A23
:10190000C0F340007047022A21D800B5B1F800E0CA
:1019100002EB820C00EB4C0320F81CE0B1F802C093
:10192000A3F802C0B1F804C0A3F804C0B1F806C01F
:10193000A3F806C091F808C083F808C091F90E30EA
:1019400002EB820200EB420253725DF804FB704727
:10195000022900D9002101EB810100EB410191F93D
:1019600009007047032905D802EB82020A4430F8C7
:101970001200704700207047022A04D00C3100EB9F
:101980004100C0887047103100EB4100C0887047AB
:10199000022B00F297802DE9F04F85B005460E46E8
:1019A00017461C4603EB830300EB430292F90990B0
:1019B000A7EB090930F81380884518D804EB840395
:1019C00000EB4303B3F80680884546D34FF0010887
:1019D000B8F1030F74D804EB8403434435F813A023
:1019E000B2451AD808F101085FFA88F8F0E72246F4
:1019F0000021FFF7C1FF484400903B4642460021CA
:101A0000304610F00CF900B240F2E732394610F0DF
:101A1000FDF880B205B0BDE8F08F08F1FF3204EBAD
:101A200084031A4435F812B008F1FF312246C9B2D6
:101A30002846FFF7A1FF00EB090303932246414626
:101A40002846FFF799FF48440090039B52465946A9
:101A5000304610F0E4F800B2D6E704EB840300EB64
:101A60004303B3F802A0D04514D922460121FFF761
:101A700083FF00EB090B224603212846FFF77CFF7A
:101A8000484400905B4642465146304610F0C7F845
:101A900000B2B9E722460121FFF76EFF00EB09080B
:101AA000224603212846FFF767FF4844009043463B
:101AB000054A12885146304610F0B1F800B2A3E74B
:101AC0000020A1E7002070471AEF010810B5044676
:101AD00000F585501030FFF75BFF04F5805494F853
:101AE0006B3013F0010F00D010BD00B210F0D8F829
:101AF00080B2F9E72DE9F04F85B005460291164610
:101B00001C469DF83830039300F5855808F11008FD
:101B100021464046FFF71CFF371A22460021404667
:101B2000FFF72AFFBFB200EB07091FFA89F9224627
:101B300003214046FFF720FF0744BFB2022C39D0F3
:101B40004A4BB3F800A0022C38D0494BB3F800B090
:101B5000039B0BB14FF0640A05F5805393F86B308B
:101B600013F0010F2ED05A465146029810F04EF84D
:101B70001FFA80FA3F4BB3F800B0224600214046DE
:101B8000FFF7F0FE0290224603214046FFF7EAFEEF
:101B90000090029B3A464946504610F040F880B209
:101BA000B0EB5B0F25DDA0EBAB07BFB24FF0000839
:101BB000C1463BE0304BB3F800A0C4E72F4BB3F86D
:101BC00000B0C5E70FFA89F010F06AF81FFA80F943
:101BD00038B210F065F887B20FFA8AF010F060F8AA
:101BE0001FFA80FA0FFA8BF010F05AF81FFA80FBF8
:101BF000B9E75F46BBF1000F03DB00EBA707BFB2FD
:101C0000D4E70BF10307F8E77B1CB9469FB209E064
:101C100009EB070303EBD373C3F34F039F421CD0BD
:101C2000BB461F4608F101085FFA88F8B8F1130FA8
:101C300017D82346324639462846FFF747FF8245E4
:101C40000FD0E5D907EB0B0303EBD373C3F34F03BB
:101C50009F42D9D0B9461F46E4E77B1EBB469FB2E0
:101C6000E0E7384605B0BDE8F08F00BF1EEF010881
:101C70001CEF01081AEF010818EF010816EF010820
:101C8000002308E002EB820C9C4430F81CC021F8D1
:101C900013C00133DBB2032BF4D9704710B54FF0FA
:101CA000000C0AE031F81C4003EB830EE64420F8F8
:101CB0001E400CF1010C5FFA8CFCBCF1030FF1D952
:101CC00003EB830100EB41014A7203220A72C988C7
:101CD000044A1288914204D903EB830300EB4303C7
:101CE000DA8010BD1AEF010801EB810200EB42031C
:101CF0004FF4966C20F812C040F26C725A8040F695
:101D0000C4129A8040F65432DA80044A92F90020D4
:101D10005A72194601230B72704700BF14EF010875
:101D200008B5FFF7E1FF08BD0A884B889A4207D241
:101D30008A88934206D2CB889A4205D30020704706
:101D4000002070470020704701207047F0B585B033
:101D500000F58053D3F8E030002B5CD004460E46EB
:101D60001546022922D1002504F58053D3F8E0302E
:101D700013F81520FF2A2ED000236946204606F0CE
:101D80000AFD80BB9DF8083013F0020F35D004F532
:101D90008554103469462046FFF7C6FF0546A0BBB0
:101DA00031462046FFF7A0FF012523E000F58257CA
:101DB000384607F0E9FFA84201D906B101253846A7
:101DC00007F0E2FFA842CFD8012ECDD0384607F069
:101DD000DBFF0546C8E7314604F585501030FFF7B4
:101DE00083FF002506E0314604F585501030FFF7EB
:101DF0007BFF0025284605B0F0BD314604F585502F
:101E00001030FFF771FF0125F4E73246694620469E
:101E1000FFF779FDEEE70025ECE7F8B5054600F59C
:101E20008256304607F0ACFF40001BF04FF805F536
:101E30008053C3F8E000A8B100240EE005F58053FC
:101E4000D3F8E020FF2102F81410D3F8E03003EBC0
:101E5000440300225A700134E4B2304607F090FF88
:101E6000A042EBD8284606F04EFC0446002851D18B
:101E700005F58053D3F8E01081B32846FFF7B6FA92
:101E8000074605F5825614363146284606F00FFD02
:101E900030B331462846FFF731FA05F5825128461E
:101EA00006F0BFFD88B3002202212846FFF74EFF4F
:101EB00005F5805696F85E2000212846FFF746FF7C
:101EC00096F8602001212846FFF740FF05F5825073
:101ED000FFF792FC002F41D02046F8BD0746D0E71F
:101EE00005F58250FFF742FB05F5805696F85E1027
:101EF0002846FFF784F9A6F85E0096F86010284699
:101F0000FFF77DF9A6F86000C7E705F58250FFF7F7
:101F10005BFBC8E705F582573846FFF727FB3846D5
:101F2000FFF752FB022105F585501030FFF7DCFE6C
:101F3000012200212846FFF709FF304607F024FF61
:101F4000024601212846FFF701FF3846FFF754FCFF
:101F5000012C05D0022C05D00024BDE70124BBE7ED
:101F60000224B9E70324B7E770B504460E4679B9F1
:101F70000225324629462046FFF7E8FE38B18DB9E2
:101F800004F58053A3F85E602046FFF756FC70BD51
:101F900000F5825007F0F8FEB04201D90025E8E7CD
:101FA0000125E6E7012DEFD104F58053A3F8606029
:101FB000EAE72DE9F04184B004460E461D46138839
:101FC000ADF800305388ADF802309388ADF8043096
:101FD000D388ADF806308DF808509DF928308DF87B
:101FE0000E3000F58053D3F8E0304F0003EB41038F
:101FF0005D7000F5825007F0D3FE38B18046694627
:1020000004F585501030FFF78FFE38B904F586507F
:102010001E30FFF74FF804B0BDE8F08105224146BD
:102020000DF109001BF028F900226946204606F050
:1020300016FEB0F10008E9DB04F586501E30FEF70D
:10204000E9FF04F58054D4F8E03003F81680D4F8A2
:10205000E0301F447D70DEE770B582B005460E4665
:1020600061B1941B01940F2C0DD82868012C13D05A
:10207000A4B1224631461AF049FF0FE09142F0D058
:102080000A481AF0C4F9002201A928461AF07EFA7B
:102090002860019BAB60E8E733780370019B6B60BD
:1020A0002A680021D15402B070BD00BF80D9010858
:1020B0002DE9F04188B00446174601F582561146D5
:1020C000304607F06DFE054604F1080323604FF02B
:1020D0000003421D01462046FFF7BEFF15B317B1AE
:1020E0002B784E2B03D1204608B0BDE8F081304656
:1020F00007F04AFEB8420AD9626802B100220423FE
:102100000093284B002120461AF05AFBEBE7626847
:1021100002B1002204230093234B002120461AF031
:102120004FFBE0E704AE0296204A4FF00003111F78
:1021300002A8FFF791FF234653F8080B0299B1421A
:1021400019D0984229D0D4F808802160039B63609D
:10215000049BA36018B30290CDF810800023039372
:10216000029A1370029804AB9842BCD004990131D2
:102170001AF034F9B7E7039A2AB9039B636022681F
:102180000021D154EAE7012A04D0002AF5D01AF040
:10219000BDFEF2E70B780370EFE72846D5E704AB06
:1021A0000293DBE7ACD90108B4D90108C0D9010812
:1021B00010B5044642B901F5805393F85E202046DD
:1021C000FFF776FF204610BD012A01D00022F6E776
:1021D00001F5805393F86020F1E72DE9F04F89B0C5
:1021E000904699469DF848A09DF84CB000F5805364
:1021F000D3F8E0201AB106464C1E032512E0002356
:102200004B4580F0878003EB430208EB82020021FC
:1022100091700133DBB2F3E7013D15F0FF053BD0D0
:10222000013C24B2002C09DDBAF1000FF4D002EB1E
:1022300044035B7813F0010FF2D0EDE700252BE0AB
:10224000BBF1000F40D0BBF1010F44D005EB4503BB
:1022500008EB8307E2B208F8232006F58053D3F891
:10226000E03003EB44035B787B70314602A8FFF754
:102270001FFF0A220299B81C1AF0FEFF0135EDB2C9
:102280004D452FD2029804AB984203D004990131F6
:102290001AF0A4F8013424B2019406F582573846A6
:1022A00007F06EFD844225DA002CF3D0BAF1000F5E
:1022B000C6D006F58053D3F8E03003EB44035B78D7
:1022C00013F0010FBCD1E5E7384607F05DFD019B37
:1022D0008342BBDB0EE0384607F056FD019B83428C
:1022E000B4DAD7E7029804AB984203D004990131DD
:1022F0001AF074F82B464B4508D203EB430208EB67
:102300008202002191700133DBB2F4E7284609B064
:10231000BDE8F08F0020FAE7014B0360704700BF73
:10232000B8DD010870470000024A0260024A0260FC
:10233000704700BFE0DD0108B8DD010870470020EC
:1023400070477047014B0360704700BF3CDE0108D7
:1023500070B5064610F0B6FE00F59675184B5B6A30
:102360009BB29C1CA4B2632C01D9613B9CB210F0BF
:10237000A9FEA84205D2124B5B6AA342F7D1114BCA
:102380005E6210F09FFE00F596750D4B5B6A9BB286
:102390009C1CA4B2632C01D9613B9CB210F092FE4C
:1023A000A84207D2064B5B6AA342F7D1054B586A95
:1023B00080B204E0034BD86A80B2013080B270BDB5
:1023C00000000140000C004008B50C4B1B785BB1CD
:1023D0000B4B00205863986303F574431864094A53
:1023E00013680133136008BD03220749074811F041
:1023F00067F80120014B1870F5E700BF6C7A0020E8
:10240000000C0040C87B0020C87A0020688D0020A6
:1024100008B5114B1B7863B9104B1B78ABB1022286
:102420000F49104811F04CF80B4B02221A70012092
:1024300008BD0D4B00205863986303F5744318647E
:102440000A4A136801331360F2E702220849094877
:1024500011F036F8E8E700BF6C7A00200400002095
:10246000D07A0020208D0020000C0040C87B002086
:10247000307B0020D88C002010B50446044B03604C
:10248000044B0360502119F0A9FF204610BD00BF86
:10249000E0DD0108B8DD010810B50446034B036018
:1024A000502119F09BFF204610BD00BFB8DD010888
:1024B00010B50446034B0360242119F08FFF20461A
:1024C00010BD00BF3CDE010808B5084618F0FCFD51
:1024D00008BD08B5084618F0E9FD08BD08B508466E
:1024E00018F0D6FD08BD08B518F0C4FD08BD08B544
:1024F00018F0B2FD08BD08B517F0B6FD08BD000024
:10250000F0B4034600220270E449416000F110017A
:102510008160C2600274E249016200F12C014162F3
:10252000826280F82C20DF49C16300F14801016418
:10253000426480F84820DC49816500F16401C1658E
:10254000026680F86420D949416700F18001816703
:10255000C26780F88020D649C0F8901000F19C0135
:10256000C0F89410C0F8982080F89C20D149C0F899
:10257000AC1000F1B801C0F8B010C0F8B42080F879
:10258000B820CD49C0F8C81000F1D401C0F8CC1073
:10259000C0F8D02080F8D420C849C0F8E41000F179
:1025A000F001C0F8E810C0F8EC2080F8F020C44C2E
:1025B000C0F8004100F58671C0F80411C0F8082188
:1025C00080F80C21BF49C0F81C1100F59471C0F8C7
:1025D0002011C0F8242180F82821BB49C0F8381107
:1025E00000F5A271C0F83C11C0F8402180F84421E8
:1025F000B649C0F8541100F5B071C0F85811C0F8D0
:102600005C2180F86021B249C0F8701100F5BE71FC
:10261000C0F87411C0F8782180F87C21AD49C0F869
:102620008C1100F5CC71C0F89011C0F8942180F89D
:102630009821A949C0F8A81100F5DA71C0F8AC11C9
:10264000C0F8B02180F8B421A449C0F8C41100F545
:10265000E871C0F8C811C0F8CC2180F8D021A04999
:10266000C0F8E01100F5F671C0F8E411C0F8E821F7
:1026700080F8EC219B49C0F8FC1100F50271C0F80C
:102680000012C0F8042280F808229749C0F81812F6
:1026900000F50971C0F81C12C0F8202280F824222D
:1026A0009248C3F8340203F51071C3F83812C3F826
:1026B0003C2283F840228E49C3F8501203F517716B
:1026C000C3F85412C3F8582283F85C228949C3F82E
:1026D0006C1203F51E71C3F87012C3F8742283F8EC
:1026E00078228549C3F8881203F52571C3F88C1246
:1026F000C3F8902283F894228049C3F8A41203F50A
:102700002C71C3F8A812C3F8AC2283F8B0227C4F16
:10271000C3F8C07203F53371C3F8C412C3F8C822FA
:1027200083F8CC22774EC3F8DC6203F53A71C3F824
:10273000E012C3F8E42283F8E8227349C3F8F812E0
:1027400003F54171C3F8FC12C3F8002383F8042396
:102750006E49C3F8141303F54871C3F81813C3F88E
:102760001C2383F820236A49C3F8301303F54F7103
:10277000C3F83413C3F8382383F83C23C3F84C035D
:1027800003F55671C3F85013C3F8542383F8582344
:10279000604DC3F8685303F55D71C3F86C13C3F85B
:1027A000702383F874235C49C3F8841303F5647CB5
:1027B000C3F888C3C3F88C2383F89023DFF86CC177
:1027C000C3F8A0C303F56B7CC3F8A4C3C3F8A82364
:1027D00083F8AC23C3F8BC7303F57277C3F8C073F6
:1027E000C3F8C42383F8C823C3F8D86303F5797604
:1027F000C3F8DC63C3F8E02383F8E423C3F8F403ED
:1028000003F58060C3F8F803C3F8FC2383F80024C1
:10281000C3F8105403F21C40C3F81404C3F818247E
:1028200083F81C24C3F82C1403F58760C3F8300424
:10283000C3F8342483F838243848C3F8480403F232
:102840005440C3F84C04C3F8502483F8542434484B
:10285000C3F8640403F58E60C3F86804C3F86C24FD
:1028600083F870242F48C3F8800403F28C40C3F827
:102870008404C3F8882483F88C242B48C3F89C0470
:1028800003F59560C3F8A004C3F8A42483F8A82432
:10289000C3F8B84403F2C4404AE000BFC4D90108F9
:1028A000D0D90108DCD90108ECD90108FCD901080C
:1028B00008DA010814DA010824DA010834DA010818
:1028C0003CDA010844DA010850DA010858DA010854
:1028D00060DA010870DA010880DA01088CDA010890
:1028E00098DA0108A4DA0108B0DA0108BCDA0108B4
:1028F000C4DA0108CCDA0108DCDA0108E8DA0108F8
:10290000F4DA010800DB010810DB010820DB010814
:102910002CDB010838DB010848DB010868DB010813
:1029200074DB010880DB010888DB010858DB010843
:10293000C3F8BC04C3F8C02483F8C424DF48C3F838
:10294000D40403F59C64C3F8D844C3F8DC2483F8AA
:10295000E024DB4CC3F8F04403F2FC44C3F8F44435
:10296000C3F8F82483F8FC24D64CC3F80C4503F5CF
:10297000A364C3F81045C3F8142583F81825D24C76
:10298000C3F8284503F23454C3F82C45C3F8302566
:1029900083F83425C3F8441503F5AA61C3F8481534
:1029A000C3F84C2583F85025C849C3F8601503F2D5
:1029B0006C51C3F86415C3F8682583F86C25C449C5
:1029C000C3F87C1503F5B161C3F88015C3F88425FD
:1029D00083F88825BF49C3F8981503F2A451C3F8BA
:1029E0009C15C3F8A02583F8A425BB49C3F8B415EA
:1029F00003F5B861C3F8B815C3F8BC2583F8C02542
:102A0000B649C3F8D01503F2DC51C3F8D415C3F8A6
:102A1000D82583F8DC25B249C3F8EC1503F5BF616E
:102A2000C3F8F015C3F8F42583F8F825AD49C3F8C9
:102A3000081603F21461C3F80C16C3F8102683F8C5
:102A40001426A949C3F8241603F5C661C3F828164D
:102A5000C3F82C2683F83026A449C3F8401603F2A5
:102A60004C61C3F84416C3F8482683F84C26A049A5
:102A7000C3F85C1603F5CD61C3F86016C3F864268D
:102A800083F868269B49C3F8781603F28461C3F87B
:102A90007C16C3F8802683F884269749C3F89416D9
:102AA00003F5D461C3F89816C3F89C2683F8A026D2
:102AB0009249C3F8B01603F2BC61C3F8B416C3F868
:102AC000B82683F8BC268E49C3F8CC1603F5DB6123
:102AD000C3F8D016C3F8D42683F8D826C3F8E8067E
:102AE00003F2F461C3F8EC16C3F8F02683F8F42679
:102AF0008449C3F8041703F5E261C3F80817C3F863
:102B00000C2783F810278049C3F8201703F22C7193
:102B1000C3F82417C3F8282783F82C277B49C3F868
:102B20003C1703F5E961C3F84017C3F8442783F85D
:102B300048277749C3F8581703F26471C3F85C1744
:102B4000C3F8602783F864277249C3F8741703F544
:102B5000F061C3F87817C3F87C2783F880276E49A3
:102B6000C3F8901703F29C71C3F89417C3F8982721
:102B700083F89C276949C3F8AC1703F5F761C3F8DC
:102B8000B017C3F8B42783F8B8276549C3F8C81746
:102B900003F2D471C3F8CC17C3F8D02783F8D42735
:102BA0006049C3F8E41703F5FE61C3F8E817C3F8FA
:102BB000EC2783F8F0275C49C3F8001803F60C01F2
:102BC000C3F80418C3F8082883F80C285749C3F839
:102BD0001C1803F62801C3F82018C3F8242883F82A
:102BE00028285349C3F8381803F64401C3F83C18A1
:102BF000C3F8402883F844284E49C3F8541803F515
:102C00000661C3F85818C3F85C2883F860284A495D
:102C1000C3F8701803F67C01C3F87418C3F8782859
:102C200083F87C284549C3F88C1803F69801C3F84B
:102C30009018C3F8942883F898284149C3F8A81835
:102C400003F6B401C3F8AC18C3F8B02883F8B4286D
:102C50003C49C3F8C41803F50D61C3F8C818C3F89C
:102C6000CC2883F8D0283849C3F8E01803F6EC01E3
:102C7000C3F8E418C3F8E82883F8EC283349C3F80C
:102C8000FC1803F60811C3F80019C3F8042983F8E7
:102C900008292F49C3F8181903F62411C3F81C1981
:102CA000C3F8202983F824292A4A92E80300C3F8AC
:102CB0003409A3F838191846F0BC704790DB0108B6
:102CC0009CDB0108A4DB0108ACDB0108B4DB0108D4
:102CD000B8DB0108BCDB0108C4DB0108CCDB010860
:102CE000D4DB0108DCDB0108E4DB0108ECDB0108D4
:102CF000F0DB0108F4DB0108F8DB0108FCDB01086C
:102D000004DC01080CDC010818DC01082CDC0108DB
:102D100040DC010850DC010860DC010878DC0108B7
:102D200090DC010898DC0108A4DC0108B0DC010893
:102D3000B8DC0108BCDC0108C0DC0108D0DC0108FB
:102D4000DCDC0108ECDC0108FCDC010810DD01081A
:102D50001CDD010824D90108014B1878704700BF19
:102D60009C79002008B502480EF0E3FA80B208BD55
:102D7000643600202DE9F04782B00026904B5E6358
:102D8000904C204610F07EFA6421204610F03CFB67
:102D9000204610F09FFC85B26421204610F034FBE1
:102DA000204610F097FC1FFA80F9204610F00CFB2B
:102DB000854C204610F066FA6421204610F024FB72
:102DC000204610F087FC87B26421204610F01CFBDF
:102DD000204610F07FFC1FFA80FA204610F0F4FA2B
:102DE0007A4B0A221A705E6019784FF47A7201FBEE
:102DF00002F25A60764C23681B6C283B754A13809C
:102E0000DFF81082CDF8009053463A4629464046F6
:102E100006F0FAFB074608F54053032283F8BD2D60
:102E200083F8BC2D6C4D0C21284612F0BBFE082106
:102E3000284612F011FE3146204612F0B3FE04215E
:102E4000204612F0AFFE0821204612F005FE0C21AC
:102E5000204612F001FE3146604812F0A3FE604D9C
:102E6000DFF8C0A15F4C2B465246294620460AF0A7
:102E700001FBDFF8A8912B464A46214650460AF04E
:102E8000F9FA2B462246214648460AF0F3FA234631
:102E90002246214654480AF0EDFADFF88C91234689
:102EA0002246494651480AF0E5FA23462246214681
:102EB00048460AF0DFFADFF868A123462246214699
:102EC00050460AF0D7FADFF864912346224621469D
:102ED00048460AF0CFFA23462246294644480AF0DB
:102EE000C9FA23462246294642480AF0C3FA234635
:102EF0002246294640480AF0BDFA23462246294682
:102F00003E480AF0B7FA23462246214628460AF0F0
:102F1000B1FA3B4D2B46224621463A480AF0AAFA1E
:102F200023462246214628460AF0A4FA2346224692
:102F3000514635480AF09EFA4B464A4621463348E8
:102F40000AF098FA33463246214631480AF092FA9E
:102F500008F54A5002F000FC022F1FD0032F26D0A4
:102F6000012F17D040F2DC50FFF7F2F9294B03F59F
:102F7000805292F86C2003F54053A3F8D022C82069
:102F800010F0A6F8244B186803681B68984702B035
:102F9000BDE8F087204B214A1A60E3E7204C00226D
:102FA000412120460BF07CFF1B4B1C60DAE700221E
:102FB00045211B480BF074FF174B154A1A60D1E7E7
:102FC00000180040D88C0020208D0020643600209E
:102FD00090910020B0360020E08F002070900020FB
:102FE000747B0020AC780020A40300206C36002005
:102FF000087B002064040020347B0020D47A002069
:1030000040790020187900209C040020707A00206C
:1030100074790020B436002000000020487A002097
:1030200070780020A07900200804002034040020DB
:1030300038B510F047F85C4B1B68984248D85B4B9A
:1030400018680AF01BFA044618B1584B1B688342F3
:1030500076D1564D286803685B68984704462B680C
:10306000834229D0002800F08880514D0021284655
:1030700006F024FC002105F5C87006F01FFC0021B5
:1030800005F5687006F046F9A5F67442002382F84B
:10309000BD3D82F8BC3D82F84D3F82F84C3F454A29
:1030A00053639363414D286803689B6898472C607D
:1030B00023681B682046984710F004F83E4B1B68B5
:1030C00098425CD23D4802F0F1FA002868D138BD40
:1030D0000FF0F8FF6430344B18601021384810F0BE
:1030E000C9FF012824D1642136480EF0ABF94FF412
:1030F0000051354810F0BEFF01281BD16421334830
:103100000EF0A0F94FF480512F4810F0B3FF98B99A
:1031100064212F480EF096F94FF400712D4810F0FD
:10312000A9FF01280AD164212B480EF08BF986E70C
:103130000021D9E70021E2E70021EAE70021F3E7D7
:10314000264D2846FDF77EFF0021A5F5A76006F075
:10315000B5FB0021A5F56A7006F0B0FB154B002207
:103160005A639A63114D286803689B6898472C60DE
:1031700023681B6820469847A9E7194C75E7194949
:103180004B6A194A10681B1A18BF012317480370AD
:103190004B6A13600FF096FF2930074B186091E7D8
:1031A00005200FF095FF92E7C47B0020000000206F
:1031B00028730020000C0040C07B002084690020A0
:1031C000000802404474002000040240D47500202E
:1031D000E475002000000240E477002060780020C1
:1031E0007078002000000140BC7B00209C7900200A
:1031F00010B50368174A934203D0174A93421ED072
:1032000010BD027F042AF8D1144805F089FF632815
:1032100000D963200F4B18640FF054FF0446104B85
:103220001B7813B10F4B1B6813B90E4B1C60E7E7FB
:103230000C4B1968411A0C480EF061F8F5E7037F52
:10324000042B04D0082BDBD1FFF7E2F8D8E7FFF717
:10325000BBF8D5E700000140000C0040C876002014
:103260009C790020AC3600206436002008B510F0B0
:10327000F5F95B4B1B78DBB2022B09D0584B1B785E
:10328000DBB2012B00F08180554B00221A7008BD83
:10329000544B1B78002B47D0534B198889B25348A5
:1032A00006F018FC524B18801A8892B2514B1988BC
:1032B0008A422AD9504B99634D4A13889BB25B1AB4
:1032C0009BB213804D4B1B889BB24B4A5363464BBA
:1032D000598889B24A4805F06BFE424A137883F058
:1032E00001031370444B596A464A1378DBB289B222
:1032F000454820F8131013780133DBB21370632BA9
:10330000C2D9134600221A70BEE7394A13889BB20D
:1033100039498B6313889BB213B1384B00221A8052
:10332000334B00221A80CDE7384B198889B23848D0
:1033300006F0D0FB314B18801A8892B22D4B1988B9
:103340008A4213D92C4B59632C4A13889BB25B1ABF
:103350009BB21380264B1B889BB2274A93632B4B4F
:10336000598889B22B480DF0CAFFB6E7234A138863
:103370009BB221494B6313889BB213B11C4B0022B3
:103380001A801E4B00221A80E4E71B4B5B6B012B5B
:1033900018D8194B9B6B012B1BD81F4B5B6B012B58
:1033A0007FF672AF1D4B998889B21D480EF04AF81E
:1033B000194B5B6AB3F5FA7F7FF666AF164B642252
:1033C0005A6261E7154B198889B216480EF03AF82F
:1033D000DFE7124B598889B213480EF033F8DCE767
:1033E0006C7A002004000020D07A0020B8740020FD
:1033F000707B0020B0360020000C0040B87B00201D
:10340000C8760020947C0020CC7B0020307B0020FC
:10341000287300206478002000480140C87A00200A
:10342000D477002034740020C4750020704738B56C
:103430000C46154605E04FF4FC7154F8040B18F0E7
:10344000CDFFAC42F7D338BD10B5044603684BB18D
:10345000426A04324169FFF7EAFF61688900206827
:1034600018F0BCFF204610BD2DE9F04188461746F4
:10347000CE6804360DE01834A54209D0234653F82F
:10348000080B9842F7D0A168013118F0A7FFF2E7C6
:103490000436FB68B34203D9346804F5FC75EBE7E6
:1034A000D8F80C20934221D0D8F80040D8F8085022
:1034B00000E01834A54209D0234653F8080B98427F
:1034C000F7D0A168013118F089FFF2E77C683D6808
:1034D00000E01834A5421AD0234653F8080B98424E
:1034E000F7D0A168013118F079FFF2E7D8F8004071
:1034F0003D6800E01834A54209D0234653F8080B74
:103500009842F7D0A168013118F068FFF2E7BDE8F2
:10351000F08138B50C46154605E04FF4FC7018F004
:103520005FFF44F8040BAC42F7D338BD2DE9F043FC
:1035300083B004460D46274BA3FB0123CA1A03EBB5
:1035400052031B095E1C082200920333019393422D
:103550003BD86B4618686060B0F1005F37D28000DE
:1035600018F03EFF804620606768BF1B7F0800EBB5
:10357000870909EB8606324649462046FFF7C9FF10
:10358000C4F8149058F82730E36003F5FC72226108
:10359000321F626256F8042CE26102F5FC7121626E
:1035A000A3600C4BA3FB0513E91A03EB51031B09A2
:1035B00003EB4303C3EBC303EB1A03EB430302EB3D
:1035C000C303A36103B0BDE8F08301ABC2E718F009
:1035D0001BFF00BF876118862DE9F84F824600F572
:1035E0008055002485F828404FF480536B85D14BDB
:1035F000EB62D14B2B63D14B6B63D14BAB63D14BA4
:10360000EB63D14B03CBC5F8CE00C5F8D21003CB8A
:10361000C5F8D600C5F8DA100AF586501E30FDF759
:10362000DFFCC5F8E0400AF58756043642F260092F
:1036300006EB0905DFF840B346F809B0C34B46F87E
:10364000093005F10C036B60AC602C7305F11C07AD
:103650004FF0280842462146384619F07FFCEC61BD
:103660002C626C62AC62EC622C636C63AC63EC63E6
:103670002C6421463846FFF759FF05F144074246BE
:103680002146384619F06AFC6C64AC64EC642C6525
:103690006C65AC65EC652C666C66AC66214638469C
:1036A000FFF744FFAA4B46F8093005F17403EB66B7
:1036B0002C6785F8744005F18C03C5F88430C5F893
:1036C000884085F88C4005F1A403C5F89C30C5F806
:1036D000A04085F8A440C5F8B440C5F8B840C5F886
:1036E000BC4042F22013F71846F803B0974AF25054
:1036F00007F10C037B60BC603C7307F11C0542467C
:103700002146284619F02AFCFC613C627C62BC62BE
:10371000FC623C637C63BC63FC633C6421462846DA
:10372000FFF704FF07F1440542462146284619F0F9
:1037300015FC7C64BC64FC643C657C65BC65FC6514
:103740003C667C66BC6621462846FFF7EFFE06F520
:103750000056804BC6F82031C6F88C4186F890415F
:10376000C6F894417C4BC6F898310AF54A55281D95
:1037700018F088FB794B2B60794B2B60A5F85040F3
:10378000A5F85440AC65EC65A5F8604085F862404A
:1037900005F16400FEF7B4FE724B2B60724BC5F866
:1037A000A039A5F8A4494FF6FF72A5F8A6294FF451
:1037B0007841A5F8A819FF21A5F8AA194FF6E071DC
:1037C000A5F8AC194CF21861A5F8AE1985F8B04906
:1037D000C5F8B449C5F8B849C5F8BC49C5F8C049E9
:1037E000C5F8C449C5F8C84985F8CC299622A5F87A
:1037F000CE29A5F8D049A5F8D249A5F8D449A5F80D
:10380000D649C822A5F8D8296E22A5F8DA295A2265
:10381000A5F8DC293C21A5F8DE19A5F8E02920222D
:10382000A5F8E2291922A5F8E429504AC5F8E829A3
:10383000C5F8EC39C5F8F03943F674410AEB0103D9
:1038400014225A601C815C81DC600A251D615D6167
:103850009C61DD614FF00508C3F820804FF00B023A
:103860009A844FF0010B83F826B003F128024048F8
:10387000067882F8424082F8404082F8416082F83F
:10388000864082F8844082F8856082F8CA4082F8D7
:10389000C84082F8C960A2F8CC40A2F8CE40A2F895
:1038A000D040A2F8D24082F8D440C2F8D84082F882
:1038B000DC4082F8DD40A2F8DE40A2F8E040A2F849
:1038C000E2402C4A4AF80120082283F80C21C3F870
:1038D000104183F80C21C3F8104183F8144183F898
:1038E00015414FF4C87CA3F816C14FF4FA70A3F841
:1038F000180183F81C21C3F8204183F81C21C3F868
:10390000204183F8244183F82541A3F826C1A3F878
:10391000280183F82C21C3F8304183F82C21C3F807
:10392000304183F8344183F83541A3F836C1A3F818
:10393000380123E030DD01083CDD010848DD0108E5
:1039400054DD010860DD01082CD9010864EA010892
:1039500098EA0108CCEA010820EF0108B8DD010867
:10396000E0DD010880E701085CF40108D4E7010804
:103970000BEF010874DD010808DE0108F14F4AF879
:103980000170A3F83C41A3F83E41A3F84041A3F8DD
:1039900042414FF0040E83F844E183F84541A3F817
:1039A000464183F8484183F8494183F84C21C3F8E4
:1039B000504183F84C21C3F8504183F85421C3F897
:1039C000584183F85421C3F8584183F85C21C3F867
:1039D000604183F85C21C3F8604183F86421C3F837
:1039E000684183F86421C3F8684183F86C21C3F807
:1039F000704183F86C21C3F8704183F87441A3F8D7
:103A000076414FF47A7EA3F878E14FF0140183F801
:103A10007A114FF06409A3F87C9183F87E21A3F812
:103A20008001A3F882E14FF0030183F884114FF085
:103A30000E0983F885914FF0140183F8861183F8FD
:103A400087814FF0020183F8881183F8895144F689
:103A50002061C3F88C1143F604690AEB09031421B1
:103A600059601C815C81DC601D615D619C61DD6170
:103A7000C3F820804FF00B01998483F826B003F13E
:103A8000280181F8424081F8404081F8416081F886
:103A9000864081F8844081F8856081F8CA4081F8C9
:103AA000C84081F8C960A1F8CC40A1F8CE40A1F887
:103AB000D040A1F8D24081F8D440C1F8D84081F874
:103AC000DC4081F8DD40A1F8DE40A1F8E040A1F83B
:103AD000E2409D494AF8091083F80C21C3F81041CF
:103AE00083F80C21C3F8104183F8144183F8154181
:103AF000A3F816C1A3F8180183F81C21C3F82041CC
:103B000083F81C21C3F8204183F8244183F8254120
:103B1000A3F826C1A3F8280183F82C21C3F830416B
:103B200083F82C21C3F8304183F8344183F83541C0
:103B3000A3F836C1A3F838014AF80970A3F83C414C
:103B4000A3F83E41A3F84041A3F842414FF00407D7
:103B500083F8447183F84541A3F8464183F848410E
:103B600083F8494183F84C21C3F8504183F84C2134
:103B7000C3F8504183F85421C3F8584183F85421C5
:103B8000C3F8584183F85C21C3F8604183F85C2195
:103B9000C3F8604183F86421C3F8684183F8642165
:103BA000C3F8684183F86C21C3F8704183F86C2135
:103BB000C3F8704183F87441A3F87641A3F878E123
:103BC0004FF0140183F87A114FF06409A3F87C9147
:103BD00083F87E21A3F88001A3F882E14FF003006F
:103BE00083F884014FF00E0983F8859183F88611DC
:103BF00083F887814FF0020083F8880183F88951A8
:103C000044F62060C3F88C0150490AF57E50143008
:103C100004F041FB4E490AF57F50143004F03BFBA1
:103C200044F214010AEB010314225A601C815C81E6
:103C3000DC601D615D619C61DD61C3F820804FF037
:103C40000B029A8483F826B003F1280282F84240DE
:103C500082F8404082F8416082F8864082F88440D1
:103C600082F8856082F8CA4082F8C84082F8C9604C
:103C7000A2F8CC40A2F8CE40A2F8D040A2F8D240A0
:103C800082F8D440C2F8D84082F8DC4082F8DD40A7
:103C9000A2F8DE40A2F8E040A2F8E2402A4A4AF840
:103CA0000120082583F80C51C3F8104183F80C510A
:103CB000C3F8104183F8144183F815414FF4C870DC
:103CC000A3F816014FF4FA72A3F8182183F81C51D7
:103CD000C3F8204183F81C51C3F8204183F82441E4
:103CE00083F82541A3F82601A3F8282183F82C5155
:103CF000C3F8304183F82C51C3F8304183F8344184
:103D000083F83541A3F83601A3F8382111484AF861
:103D1000010083F83C4183F83D4183F83E4183F83C
:103D20003FB1A3F84041A3F84241C3F8444183F8AE
:103D30004851C3F84C4183F84851C3F84C4183F8CB
:103D4000505109E0ACE9010874DD01080091002040
:103D50004891002068E90108C3F8544183F85051A4
:103D6000C3F8544183F85851C3F85C4183F8585163
:103D7000C3F85C4183F86051C3F8644183F8605133
:103D8000C3F8644183F86851C3F86C4183F8685103
:103D9000C3F86C41A3F8704183F87241462083F860
:103DA0007301632083F874014FF42F70A3F8760138
:103DB00040F2CF70A3F878014FF4C860A3F87A01FD
:103DC0004FF44870A3F87C017D20A3F87E011A48C7
:103DD000C3F880014EF66020C3F88401A3F888215F
:103DE0004FF47A72A3F88A211E2683F88C613C2254
:103DF00083F88D210A2283F88E2183F88F21C3F85E
:103E000090B10E4AC3F894210AF583402C30FDF797
:103E1000E7F80AF5804383F8B051C3F8B44183F85A
:103E2000B051C3F8B44183F8B86140F63C72A3F8CE
:103E3000BA215046BDE8F88F407E0500E0930400AB
:103E4000F0B5A1B005460746554B47F8B43BD0F84E
:103E5000B4407E6800E04834A6421BD0206B04F1D9
:103E60003803984203D0A16B013118F0B7FAA0696A
:103E700004F12003984203D0216A013118F0AEFA10
:103E8000234653F8080B9842E5D0A168013118F099
:103E9000A5FAE0E7D5F8B400B968091A08B118F036
:103EA0009DFA05F16C04D5F89C0005F1A403984235
:103EB00004D0D5F8A410013118F090FAA06904F1EB
:103EC0002003984203D0216A013118F087FAE86E86
:103ED00004F10803984203D0A168013118F07EFA7A
:103EE0002C46304B44F8443BD4F808E0CDF830E0A1
:103EF000D4F80CC0CDF834C027690E9766690F96C8
:103F0000A0690890E1690991226A0A92636A0B9399
:103F1000CDF850E0CDF854C0169717961090119137
:103F20001292139310AA14A92046FFF79DFA204677
:103F3000FFF78AFA05F11C04D5F824E0CDF810E06B
:103F4000D5F828C0CDF814C0EF6A06972E6B0796F7
:103F5000686B0090A96B0191EA6B02922B6C039342
:103F6000CDF870E0CDF874C01E971F961890199187
:103F70001A921B9318AA1CA92046FFF775FA20462F
:103F8000FFF762FA686805F10C03984203D0E9680C
:103F9000013118F023FA044B2B60284621B0F0BD04
:103FA00098EA010864EA010808DE01082DE9F04FEB
:103FB000A7B005460E46012808D025B94FF6FF7375
:103FC0009E4200F0FD8227B0BDE8F08F4FF6FF73F0
:103FD0009942F2D1B74B08271F7000245C601F7014
:103FE0005C60DFF834834046FFF7F6FAB24BDFF847
:103FF0002CA3C3F800A01C719C609C811C615C61B7
:104000009C61DC611C62C3F80880AC4A1A6083F8CA
:104010002440022283F825204FF0010C83F826C0AB
:1040200083F8274083F8284083F8294083F82A4002
:10403000DC6283F8304083F8314083F83240A04A94
:104040001A6083F834709C63052283F834209C63E3
:10405000DC631C645C649C64DC641C65A3F85440F1
:1040600083F856C09C6583F85CC04FF4FA72A3F8DD
:104070005E2040F2DC51A3F860105A6640F6B8307A
:10408000A3F868008F4BC3F800A01C719C609C8152
:104090001C615C619C61DC611C62C3F808808A4A17
:1040A0001A60C3F89C40C3F8A04083F8A440874B33
:1040B000C3F800A01C719C609C811C615C619C61C8
:1040C000DC611C62C3F80880814A1A60814AC2F828
:1040D00000A0147194609481146154619461D4615E
:1040E0001462C2F808807C4B136082F82440A2F866
:1040F000464082F84840D4641465546582F85840BC
:104100004FF41673A2F85A30D06541F2883717661B
:10411000724BC3F800A01C719C609C811C615C61A7
:104120009C61DC611C62C3F808806D48186083F8EC
:1041300024C083F8324083F833405C639C639987E2
:104140004146684808F096FCDFF8D491C9F800A011
:1041500089F80440C9F80840A9F80C40C9F8104093
:10416000C9F81440C9F81840C9F81C40C9F82040E3
:10417000C9F808804B465C4A43F8242BC9F8244010
:104180005C609C60DC601C614FF0540389F838303F
:10419000564AC2F800A0147194609481146154616D
:1041A0009461D4611462C2F80880514B1360546268
:1041B00082F8284082F8294082F82A4082F82B4071
:1041C00082F82C404FF00301D1854A4BC3F800A080
:1041D0001C719C609C811C615C619C61DC611C6247
:1041E000C3F8088044491960062199849F6283F8C6
:1041F0002C401C635C639C639C87DC87A3F8404075
:10420000A3F84240A3F84440FA20A3F8460083F8FC
:104210004840A3F84A40A3F84C104FF4FA611965DE
:104220004FF4C871A3F85410344BC3F800A01C71AC
:104230009C609C811C615C619C61DC611C62C3F8B8
:1042400008802F4919605A622E4FC7F800A03C71B0
:10425000BC60BC813C617C61BC61FC613C62C7F8B4
:104260000880294B3B607C623C85284B28490B60C9
:104270000B46284A43F80C2B4B608C600C7301F101
:104280001C0B28222146584618F068FEABF11C0191
:10429000CC61CBF80440CBF80840CBF80C40CBF80D
:1042A0001040CBF81440CBF81840CBF81C40CBF8AA
:1042B000204037E064360020AC78002058DE01084A
:1042C00034EF0108A0790020A4ED0108487A00200D
:1042D000C0ED0108A403002030EE01086C36002078
:1042E0006CED01080804002088ED0108340400206A
:1042F000DCED0108707A002084EE0108087B0020C4
:10430000C0EB01089C040020F8ED010808DE01085C
:104310006035002064EA0108B43600203CDE010864
:1043200070780020CBF8244021465846FFF7FEF86D
:10433000ABF11C0101F1440B28222146584618F02C
:104340000DFEABF144014C64CBF80440CBF80840BF
:10435000CBF80C40CBF81040CBF81440CBF8184009
:10436000CBF81C40CBF82040CBF8244021465846DF
:10437000FFF7DCF807F5405BAB4BCBF8C4300BF52F
:104380009C73CBF83031CBF834418BF8384118337B
:10439000CBF84831CBF84C418BF850411833CBF86F
:1043A0006031CBF864418BF86841CBF87841CBF8A9
:1043B0007C41CBF88041CBF884419C4BCBF88831D1
:1043C0009B4B93E80300CBF88C01ABF890118BF872
:1043D0009441ABF896410BF5D073CBF89831954AE0
:1043E0004FF00003511E0BF5CC70FDF735FECBF8F6
:1043F000B041CBF8B441CBF8B841FF238BF8BC31C6
:104400008BF8BD414FF054038BF8BE314EF660235C
:10441000CBF8C431CBF8C091874BC3F800A01C7116
:104420009C609C811C615C619C61DC611C62C3F8C6
:104430000880824A1A605F62814BC3F800A01C7139
:104440009C609C811C615C619C61DC611C62C3F8A6
:1044500008807C4A1A609C84DC8483F8284083F8B6
:1044600029404FF0010C83F82AC04FF448729A8516
:10447000DA8540F2CF721A864FF0030283F83220B9
:10448000714BC3F800A022461C719C609C811C618A
:104490005C619C61DC611C624146C3F808806B482A
:1044A0001860022483F82440694BC3F800A01A71F5
:1044B0009A609A811A615A619A61DA611A62C3F844
:1044C0000880644818605A62012783F8287083F8CE
:1044D000297083F82A2083F82B7083F82C706420CD
:1044E00083F82D0083F82E2083F82F2083F83020C6
:1044F00083F8312083F83220042083F8330007202A
:1045000083F83400544858625448C0F800A002713F
:1045100082608281026142618261C2610262C0F88E
:104520000880DFF85CE1C0F800E080F82C2080F81B
:104530002D2080F82E20028680F8322080F833204B
:10454000828680F8362080F8372080F838400624AC
:1045500080F839404FF07808A0F83A80DFF82CE175
:10456000C0F824E03E4CC4F800A02271A260A281F1
:1045700022616261A261E2612262A160DFF8FCC097
:10458000C4F800C084F8282062854FF0FF0C84F83E
:104590002CC084F82D2084F82E2084F82F70A4F8E5
:1045A0003080C4F824E0244A04922E4A03920294F4
:1045B00001902D4A00922D4A2D4808F033FAFCE470
:1045C0002B4A2C4B13602C4B1360254A2B4911604E
:1045D0001360224A2A49116013601D4A1D49116067
:1045E0001360194A194911601360154A1549116081
:1045F0001360114A114911601360224B224A1A605C
:1046000003F54053D3F8B041D3F8B45104E0A168A6
:10461000013117F0E3FE1834A54239D0234653F890
:10462000080B9842F3D1F6E798EA010820EF010859
:104630003CD9010869DD01081879002014EE010851
:10464000407900204CEE01087479002068EE0108E2
:10465000640400206CEB0108087B0020347B002000
:10466000D47A00206C360020487A0020A0790020FF
:10467000747B002050EB01083CDE0108A4EB01082C
:10468000DCEB01089C040020F8ED01080804002080
:10469000754BD3F8B001D3F8B811091A08B117F067
:1046A0009DFE714BD3F8980103F5D073984206D064
:1046B000A3F5D073D3F8A011013117F08FFE6B482A
:1046C000FFF7BEFB6A4B6B4A13606B4A6B49116084
:1046D00013606B4A6B49116013606B4A6B49116040
:1046E00013606B4A6B49116013606B4A6B49116030
:1046F00013606B4A6B49116013606B4A6B49116020
:1047000013606B4A6B49116013606B4A6B4911600F
:1047100013606B4A6B4911606B49116013606B4CFD
:1047200004F580436A4A5A616A4A5A6104F5405363
:104730006949C3F8041EC3F8042EC3F8741CC3F8F7
:10474000742C664AC3F8802203F6484016F0D4FE63
:10475000634815F059FD04F5715015F055FD614899
:1047600015F052FD604815F04FFD604815F04CFD06
:104770005F4D75B15F4C03E0E168013117F02EFE2B
:10478000A54206D01C3C606804F10C039842F3D1AA
:10479000F6E7594B594AC3F88022594AC3F8802298
:1047A000584AC3F80422584AC3F8042203F5127485
:1047B000D4F808C0CDF848C0E76813972669149666
:1047C00065691595A0690E90E1690F91226A1092B2
:1047D000636A1193CDF868C01B971C961D951690BF
:1047E00017911892199316AA1AA92046FEF73CFEB3
:1047F0002046FEF729FE283CD4F808C0CDF828C092
:10480000E7680B9726690C9665690D95A069069077
:10481000E1690791226A0892636A0993CDF888C01A
:104820002397249625951E901F91209221931EAACE
:1048300022A92046FEF718FE2046FEF705FEA4F149
:104840001802134653F8080B984203D091680131BF
:1048500017F0C4FD284B2D4AC3F8042203F5A270BB
:10486000FFF7EEFAFFF7AFBB9C3400206035002065
:104870003CDE01089C040020087B0020C0EB0108FE
:10488000707A002084EE010834040020DCED010879
:104890007078002088ED01080804002088EB0108EA
:1048A0006C3600206CED0108A403002030EE0108F6
:1048B000487A0020C0ED0108A0790020A4ED01088D
:1048C000AC78002034EF010858DE0108B43600202F
:1048D00068E9010874DD0108ACE9010880E7010816
:1048E000F8720020F0720020EC720020E8720020C4
:1048F0009C690020CC720020B4660020E0DD010835
:10490000B8DD0108CCEA010864EA010808DE010804
:10491000F0B5A1B005460746574B47F8B43BD0F871
:10492000B4407E6800E04834A6421BD0206B04F1FE
:104930003803984203D0A16B013117F04FFDA069F5
:1049400004F12003984203D0216A013117F046FD9B
:10495000234653F8080B9842E5D0A168013117F0BF
:104960003DFDE0E7D5F8B400B968091A08B117F0C1
:1049700035FD05F16C04D5F89C0005F1A4039842BF
:1049800004D0D5F8A410013117F028FDA06904F176
:104990002003984203D0216A013117F01FFDE86E11
:1049A00004F10803984203D0A168013117F016FD05
:1049B0002C46324B44F8443BD4F808E0CDF830E0C4
:1049C000D4F80CC0CDF834C027690E9766690F96ED
:1049D000A0690890E1690991226A0A92636A0B93BF
:1049E000CDF850E0CDF854C016971796109011915D
:1049F0001292139310AA14A92046FEF735FD204603
:104A0000FEF722FD05F11C04D5F824E0CDF810E0F6
:104A1000D5F828C0CDF814C0EF6A06972E6B07961C
:104A2000686B0090A96B0191EA6B02922B6C039367
:104A3000CDF870E0CDF874C01E971F9618901991AC
:104A40001A921B9318AA1CA92046FEF70DFD2046BA
:104A5000FEF7FAFC686805F10C03984203D0E96898
:104A6000013117F0BBFC064B2B60C021284617F024
:104A7000B5FC284621B0F0BD98EA010864EA0108B7
:104A800008DE010808B54FF6FF710120FFF78EFA26
:104A900008BD08B54FF6FF710020FFF787FA08BD83
:104AA000024A0260024A0260704700BF58DE0108F5
:104AB0003CDE010838B504460023C362806800F577
:104AC000804393F85031003B18BF012384F8303005
:104AD00000F5805393F85E1000F5825005F056F90A
:104AE00084F82700A56805F5834030300CF021FCE0
:104AF00005F58045B5F8BA319842B4BF00200120D1
:104B000084F8280058B1A36803F5405393F8893D11
:104B100023B994F8272012B1184600E0002084F849
:104B20002A00002384F8293040B1012384F824307E
:104B3000022384F82530032384F8263038BD000092
:104B400010B50446044B0360044B0360342117F096
:104B500045FC204610BD00BF58DE01083CDE0108C0
:104B60002DE9F04F8BB00446039107921E468568ED
:104B700005F54A5790F82430002B71D1884694F8F7
:104B80002520002A6FD1DDF80CA0002B6ED105F591
:104B9000715B0BF1340BDBF80030DB69584698474A
:104BA000014694F8243032462846FCF78FFF0190E6
:104BB000DBF800305B6958469847014694F824308A
:104BC00032462846FCF782FF0290B8F1050F52D01A
:104BD000DBF800301B6A58469847059094F825305A
:104BE000002B58D0A36803F5804909F11409D9F8BE
:104BF0000030DB6948469847014694F82530324634
:104C00002846FCF763FF8346D9F800305B694846C5
:104C10009847014694F8253032462846FCF756FF5F
:104C20000490BAF1050F3CD0D9F800301B6A484611
:104C30009847069005F5805393F86B3003F0010315
:104C4000099394F82430002B3BD194F82A30089330
:104C5000B8F1000F3BD0B8F1080F36D0012337E090
:104C6000DDF81C808BE74FF0000A8EE705F5785BD6
:104C70000BF1040B8FE794F82430012B05D005F5D8
:104C80008053B3F862300293A2E705F58053B3F87E
:104C9000683002939CE7A36803F5715909F1340960
:104CA000A5E794F82530012B05D005F58053B3F81E
:104CB00062300293B8E705F58053B3F86830029389
:104CC000B2E794F829300893C2E7002300E00023FC
:104CD000019A0299A2EB01090FFA89F901224946CA
:104CE000384600F049FD01220599384601F010F8D8
:104CF000B8F1010F1FD0089B13B9B8F1000F01D113
:104D0000B3B20193B8F1070F1BD04FF47F03012218
:104D10000199384600F0DCFDB8F1050F05D094F894
:104D2000243013B9B8F1040F12D094F82530F3B938
:104D300094F82A201CE04A460121384601F0AAF9DD
:104D4000E0E70123099A0199384600F03DFEE3E7C8
:104D5000A06800F58250FCF7A3FDA06800F5405163
:104D600000233246B1F8B01DFCF7B0FEDDE70022AB
:104D7000BAF1000F08D0BAF1080F02D04FF00108C5
:104D800004E04FF0000801E04FF00008002B63D171
:104D9000BAF1010F50D012B9BAF1000F01D11FFAC8
:104DA00086FBBAF1070F50D04FF47F03002259461B
:104DB000384600F08DFD049BABEB03014346002217
:104DC00009B2384600F0D8FC00220699384600F0B7
:104DD0009FFF94F82630032B00F09980A26802F51B
:104DE000715808F1340802F5405191F8B80D0038B7
:104DF00018BF0120012B00F09080022B00F0998059
:104E0000002800F0B680D8F80030DB6940469847AB
:104E1000014694F8263032462846FCF757FE0146F4
:104E200094F82630039A073A18BF0122384602F058
:104E30002BFF0BB0BDE8F08F049BABEB030212B26B
:104E40000021384601F026F9ABE70023099A5946BC
:104E5000384600F0B9FDAEE7D4F8088008F5804088
:104E6000143004F089F808F58048B8F88A3198427F
:104E700031D294F8303023BB1FFA86FB94F83030DF
:104E800043B1A36803F5804393F85031013BDBB293
:104E9000022B35D84FF47F0300225946384600F0E4
:104EA00017FD049BABEB030194F83030002209B2EC
:104EB000384600F061FC00220699384600F028FFD1
:104EC00087E7384600F0A0FF002184F8301038460C
:104ED00001F062F8D0E7012384F83030A36803F5CD
:104EE000804393F85031013BDBB2022BC6D8049BC0
:104EF000ABEB030212B20021384601F0CBF8BDE75C
:104F00000023099A5946384600F05EFDC9E70022A1
:104F10001146384602F0B8FE8BE702F5785808F1E2
:104F2000040891F8480F003818BF0120079B03932D
:104F300066E702F5804808F1140802F580425369DB
:104F4000DB684046984788B103230393D4F8089060
:104F500009F58040143004F00FF809F58049B9F8DC
:104F60008A31984234BF0020012049E70723039388
:104F7000ECE794F8263000221146384602F084FE11
:104F800057E7F8B5856890F82530022B00D0F8BDBA
:104F9000044605F580461436304603F0EDFF05F56E
:104FA0008043B3F88A319842F1D30EF08BF8E36A6C
:104FB0009842ECD305F5804393F82931002BE6D0D5
:104FC00005F580456B69DB693046984707466B6994
:104FD0005B6930469847A368391A09B203F54A500D
:104FE00000F0DCFE0EF06EF86430E062CFE7000007
:104FF0002DE9F04F87B0074605921C46BDF840509A
:10500000866806F5805393F86B303C4AB2F800800E
:105010003B4AB2F800903B4AB2F800B03A4AB2F8C4
:1050200000A013F0010F21D006F5805696F96B30E1
:10503000002B34DB0126002C49D1A5B1B86800F55E
:105040007F50143029B2059B022B50D00FFA88F202
:10505000059B022B4ED00FFA89F30024029401968F
:10506000009603F03FFA07B0BDE8F08F0FFA88F022
:105070000CF016FE1FFA80F80FFA89F00CF010FE03
:105080001FFA80F90FFA8BF00CF00AFE1FFA80FB72
:105090000FFA8AF00CF004FE1FFA80FAC4E71B4AEC
:1050A00082FB0432E317C3EB620303EB8303E31ACF
:1050B0009BB2E41A24B2164BA3FB05239B0803EB17
:1050C0008303EB1A9BB2ED1AADB20526B3E7B868BD
:1050D00000230293019600960FFA89F30FFA88F2E3
:1050E000214600F57E50143003F0FCF9A5E70FFAD5
:1050F0008BF2ADE70FFA8AF3AFE700BF1EEF0108AE
:105100001CEF010818EF010816EF010867666666D4
:10511000CDCCCCCC2DE9F0478EB00446154687683F
:1051200007F54A568846002952D14FF0000A002D53
:1051300056D14FF00009CDF800900FFA8AF394F899
:10514000252094F824102046FFF752FFB8F1000FF5
:105150004ED1002D00F0DB8094F82520022A00F0CB
:105160009880394608A8FDF723F894F8251007F52C
:1051700085501030FCF7BBFB0246002308A93046DF
:1051800000F04CFC08980AAB984203D00A99013110
:1051900017F024F9304600F055FE94F8283023B17A
:1051A00094F82730002B00F0A48094F83130002BC5
:1051B00000F09F80072B00F09C80052B00F0AB8057
:1051C000032B40F09A800021304600F005FF94E068
:1051D00090F8241007F58250FCF728FA8246A6E7DB
:1051E00094F8251007F58250FCF720FA8146A2E7D3
:1051F00094F82420394602A8FCF7DAFF94F824102A
:1052000007F585501030FCF772FB0246012302A916
:10521000304600F003FC029804AB984203D0049996
:10522000013117F0DBF801225146304602F016FD3D
:1052300001220021304600F015FE94F824303BB9DD
:1052400094F82820B2B194F8271011B1002200E0A0
:1052500000228BB994F831308AB983B1072B0ED074
:10526000052B11D0032B7FF474AF0121304600F0E1
:10527000B3FE6EE70022ECE794F83230ECE7012150
:10528000304600F089FE64E70121304600F0E4FE7C
:105290005FE7A06804F024F907B2A06800F5805326
:1052A00093F86B8008F0010800F58040143003F09B
:1052B00092FE01460022304600F01EFC424639466E
:1052C000304600F097FC304600F09EFDA36803F5E1
:1052D000804393F85031013BDBB2022B04D800210C
:1052E000304600F069FE08E00021304600F054FE30
:1052F00003E00021304600F04FFE002249463046D0
:1053000002F0ACFC002384F83030E362A84640464B
:105310000EB0BDE8F0870121304600F09DFEECE7BD
:1053200010B5012380F8263090F828305BB18268F0
:1053300002F5405292F8892D22B990F8274014B115
:10534000134600E0002380F82A30012915D00229F5
:1053500018D00223002190F824C090F8252080F86E
:10536000241080F82530D21A18BF0122BCEB0101AD
:1053700018BF0121FFF7CEFE10BD022380F82630B2
:105380000023E8E72BB1032380F826300B460121E8
:10539000E1E70023F8E708B590F82430012B13D09B
:1053A00090F82A3043B9836803F5804393F850316D
:1053B000013BDBB2022B03D80221FFF7B1FF08BD8E
:1053C0000121FFF7ADFFFAE70020F8E790F824206D
:1053D000012A01D00020704708B5034690F8252027
:1053E000022A09D090F8290048B99A6802F580424B
:1053F00092F850211AB906E090F82A2022B900212B
:105400001846FFF78DFF08BD0020FCE708B590F8AF
:105410002530022B0AD090F82A301BB10221FFF769
:105420007FFF04E00021FFF77BFF00E0002008BDC4
:1054300008B590F82530022B01D0002008BD826805
:1054400002F5405393F8B83DDBB2022B08D002F5C9
:10545000405292F8B83DDBB2012B01D00020EDE7BD
:105460000121FFF75DFF0120E8E708B5836803F538
:10547000804393F85031013BDBB2022B03D9012169
:10548000FFF74EFF08BD0021FFF74AFFFAE708B516
:1054900090F8243053B190F825305BB190F8263065
:1054A00063B9032380F82630002002E00221FFF7D1
:1054B00037FF08BD0221FFF733FFFAE70020F8E7C6
:1054C00090F824308B4205D090F825308B4203D0E1
:1054D00003207047012070470020704738B505460B
:1054E0000C460021FFF7ECFF0246A868214600F5B4
:1054F0004A5000F0B7FC38BD70B506461446FFF7B9
:10550000DFFF032823D00546B66806F54A56621E1B
:10551000072A27D8DFE802F004090E13171C2621FA
:105520000146304600F048FD11E00146304600F0EB
:1055300073FD0CE00146304600F04EFD07E00146E9
:10554000304600F097FD2946304600F085FD70BDDD
:105550000146304600F070FDF9E70146304600F0A4
:105560004BFDF4E70146304600F016FDEFE738B595
:1055700005461446FFF7A4FF032806D00246A86894
:10558000214600F54A5002F069FB38BD38B590F865
:105590002530022B00D038BD0C46856805F58040CB
:1055A000143003F018FD0146224605F54A5000F07C
:1055B000A3FAF0E770B50646194B036000F6C81071
:1055C00015F09AFF06F6C41014F01EFE06F51C60D6
:1055D00014F01AFE06F6BC1014F016FE06F6B8100B
:1055E00014F012FE06F6B41014F00EFE16F1680563
:1055F0000FD006F6981403E0E168013116F0EEFED4
:10560000A54206D01C3C606804F10C039842F3D11B
:10561000F6E7044B3360044B3360304670BD00BF87
:1056200080E70108E0DD0108B8DD010870B5064635
:105630001B4B036000F6C81015F05EFF06F6C410A1
:1056400014F0E2FD06F51C6014F0DEFD06F6BC1059
:1056500014F0DAFD06F6B81014F0D6FD06F6B41014
:1056600014F0D2FD16F168050FD006F6981403E089
:10567000E168013116F0B2FEA54206D01C3C60681C
:1056800004F10C039842F3D1F6E7064B3360064B66
:10569000336040F6F411304616F0A0FE304670BD7F
:1056A00080E70108E0DD0108B8DD01080288124B3F
:1056B0001B68596B8A4204D8596B8A420ED300206A
:1056C0007047596B521A042A04D95A6B04325A6330
:1056D000012070475A6B01325A63F9E7596B8A1AF5
:1056E000042A04D95A6B043A5A63012070475A6B52
:1056F000013A5A63F9E700BFB890002070B582B054
:105700000446F9B1C4F8A019261DD4F8A0193046F2
:1057100016F0D9FA304616F0C5FB85B20D49304671
:1057200016F054FB811C2A4689B201A814F038FDFA
:1057300001A904F6B81014F050FD01A814F064FD9E
:1057400002B070BDD0F8F039C0F8A039002380F85D
:105750006430D9E76CDE010808B5064B1B680022EF
:105760005A63FF2380F8CC39B0F8A40914F0BEFFC7
:1057700008BD00BFB89000202DE9F04F85B0029120
:10578000012A7CD804461F467CD0B0F8CE59D4F804
:10579000B839002B79D01E8806F1140A1FFA8AFA4C
:1057A000D4F8B439002B72D05B88DBB2039306F1D6
:1057B00017081FFA88F8B4F8A6390322294640468C
:1057C00015F0B9F8BDF80C90B4F8A6394A46294648
:1057D000504615F03EF806F11A00B4F8A6394A46CC
:1057E000294680B215F035F805EB090A1FFA8AFA46
:1057F0000AF1050B1FFA8BFBB4F8A63908225946AB
:10580000404615F098F8002F43D0B4F8A839072285
:105810005946404615F0E0F806F1110005F109017E
:10582000B4F8A639009303231A4689B280B214F063
:1058300023FF1536B6B2B4F8A43900934B460522BF
:105840002946304614F018FF0A226FF063010298CF
:105850000CF0DCF9034600B2002820DD9BB2E91A07
:1058600089B20A3189B24B449BB20A3B9BB29FB1C9
:10587000B4F8A82900920522304614F0FDFE05B0C8
:10588000BDE8F08FB0F8DE5981E7002684E70023F9
:105890008BE7B4F8A439BAE7B4F8A429EAE7039B84
:1058A0000A3B0093012300226FF063010CF0B7F96B
:1058B000C3B2AAEB030189B23FB1B4F8A8290092A0
:1058C0000522304614F0D8FED9E7B4F8A429F6E74B
:1058D000012A75D82DE9F04186B0054617461E46C7
:1058E000B1F57A7F01D340F2E7310A46354904A881
:1058F00017F086FC2C1DD5F8E819204616F0E3F9C0
:105900000221204616F0F0F905F6B41014F08DFCD3
:10591000D5F8B439591D002B37D01A8800230293CB
:1059200001930123009304AB204616F05FFA14F0B4
:10593000D7FD0446D5F8B4394BB31888241AA4B25D
:10594000143CA4B214F0CCFD804614F0CFFD804589
:105950001FD8012F2BD0B5F8CE19B5F8A479B6F51C
:10596000803F27D3B5F8A669D5F8B40920B30288DB
:1059700020B3438805300396029701920090204699
:1059800015F06EF906B0BDE8F0810022C6E70020F0
:10599000D4E714F0A5FDD5F8B43933B11C88041B45
:1059A000C4F34F043234A4B2D3E70024F7E7B5F8C8
:1059B000DE19D2E7B6B2D7E70022D9E70023D9E74C
:1059C000704700BF70DE01082DE9F04182B0054646
:1059D0000C461E461346E2B12827E3B14FF05A08A1
:1059E0004246394620460CF011F900230093552316
:1059F0004246394680B20CF012F9C0B214F0D6FD1E
:105A00000346324621462846FFF762FF02B0BDE852
:105A1000F0815027E1E74FF0B408E1E72DE9F04FBE
:105A200087B00592012B02D907B0BDE8F08F04467C
:105A30000F461D4600F1040AD0F8A019504616F092
:105A400042F9504616F02EFA1FFA80F9396850468E
:105A500016F0BCF98346012D2DD10026B4F8A439E7
:105A600000934B46B4F8D8293146002014F004FEC8
:105A7000B4F8D889D84524D9A8EB0B08C8F34F0847
:105A80004E44B6B2B4F8A63900933B68324641465C
:105A9000504616F07FF9059BB3B114F021FD143880
:105AA00082B2012DC0D1B4F8A639B4F8E2190A20A7
:105AB00014F0C6FEB8E714F019FDA0EB0906B6B263
:105AC000CCE74FF00008DBE708EB0B0080B20A30B0
:105AD0000E3EB4F8A439B4F8A6290392029310221A
