:020000040800F2
:100000000000022039260108B90F0108BB0F0108C2
:10001000BD0F0108BF0F0108C10F0108000000005B
:10002000000000000000000000000000C30F0108F5
:10003000C50F010800000000C70F0108C90F010823
:1000400089260108892601088926010889260108D0
:1000500089260108892601088926010889260108C0
:1000600089260108892601088926010889260108B0
:1000700089260108892601088926010889260108A0
:100080008926010889260108892601088926010890
:100090008926010889260108892601088926010880
:1000A000892601088926010889260108D10F01083F
:1000B0008926010889260108892601088926010860
:1000C0008926010889260108892601088926010850
:1000D0008926010889260108892601088926010840
:1000E0008926010889260108892601088926010830
:1000F0008926010889260108892601088926010820
:100100008926010889260108E10F010889260108CE
:1001100089260108892601088926010889260108FF
:10012000F10F0108892601080110010811100108CA
:1001300021100108000000000000000089260108CD
:1001400089260108892601088926010889260108CF
:1001500089260108892601088926010889260108BF
:1001600089260108892601088926010889260108AF
:100170008926010889260108892601080000000057
:1001800000000000892601080000000000000000B7
:1001900089260108000000000000000089260108EF
:1001A0000000000000000000000000008926010897
:1001B000892601088926010889260108892601085F
:0401C0008926010883
:1001D00010B5054C237833B9044B13B10448AFF381
:1001E00000800123237010BD3804002000000000AF
:1001F0001CD2010808B5034B1BB103490348AFF3F8
:10020000008008BD000000003C0400201CD2010852
:1002100010F8012B11F8013B012A28BF9A42F7D0B0
:10022000D01A70470000000000000000000000002D
:1002300001F0FF01102A2BDB10F0070F08D010F897
:10024000013B013A8B422DD010F0070F42B3F6D19B
:10025000F0B441EA012141EA014122F007047FF0B4
:1002600000070023F0E80256083C85EA010586EA0B
:10027000010685FA47F5A3FA87F586FA47F6A5FA47
:1002800087F68EB9EED1F0BC01F0FF0102F0070253
:1002900032B110F8013B013A83EA010313B1F8D1FE
:1002A0000020704701387047002D06BF35460338DF
:1002B000073815F0010F07D1013015F4807F02BF18
:1002C000013015F4C03F0130F0BC0138704700BF69
:1002D000034613F8012B002AFBD1181A0138704786
:1002E00081F0004102E000BF83F0004330B54FEAE7
:1002F00041044FEA430594EA050F08BF90EA020F54
:100300001FBF54EA000C55EA020C7FEA645C7FEAE6
:10031000655C00F0E2804FEA5454D4EB5555B8BF09
:100320006D420CDD2C4480EA020281EA030382EA7A
:10033000000083EA010180EA020281EA0303362D0C
:1003400088BF30BD11F0004F4FEA01314FF4801CDF
:100350004CEA113102D0404261EB410113F0004FF1
:100360004FEA03334CEA133302D0524263EB4303A8
:1003700094EA050F00F0A780A4F10104D5F1200E46
:100380000DDB02FA0EFC22FA05F2801841F10001A1
:1003900003FA0EF2801843FA05F359410EE0A5F175
:1003A00020050EF1200E012A03FA0EFC28BF4CF0A6
:1003B000020C43FA05F3C01851EBE37101F000455C
:1003C00007D54FF0000EDCF1000C7EEB00006EEB69
:1003D0000101B1F5801F1BD3B1F5001F0CD34908F3
:1003E0005FEA30004FEA3C0C04F101044FEA44524A
:1003F00012F5800F80F09A80BCF1004F08BF5FEAD1
:10040000500C50F1000041EB045141EA050130BDB0
:100410005FEA4C0C404141EB0101013C28BFB1F5C2
:10042000801FE9D291F0000F04BF01460020B1FA0D
:1004300081F308BF2033A3F10B03B3F120020CDAE0
:100440000C3208DD02F1140CC2F10C0201FA0CF0BE
:1004500021FA02F10CE002F11402D8BFC2F1200C23
:1004600001FA02F120FA0CFCDCBF41EA0C019040D9
:10047000E41AA2BF01EB0451294330BD6FEA040422
:100480001F3C1CDA0C340EDC04F11404C4F120020D
:1004900020FA04F001FA02F340EA030021FA04F31F
:1004A00045EA030130BDC4F10C04C4F1200220FA76
:1004B00002F001FA04F340EA0300294630BD21FAB4
:1004C00004F0294630BD94F0000F83F4801306BF7A
:1004D00081F480110134013D4EE77FEA645C18BF6E
:1004E0007FEA655C29D094EA050F08BF90EA020F05
:1004F00005D054EA000C04BF1946104630BD91EAFD
:10050000030F1EBF0021002030BD5FEA545C05D1FF
:100510004000494128BF41F0004130BD14F580043E
:100520003CBF01F5801130BD01F0004545F0FE41B2
:1005300041F470014FF0000030BD7FEA645C1ABFE7
:10054000194610467FEA655C1CBF0B46024650EA1E
:10055000013406BF52EA033591EA030F41F400214A
:1005600030BD00BF90F0000F04BF0021704730B5D0
:100570004FF4806404F132044FF000054FF00001A5
:1005800050E700BF90F0000F04BF0021704730B566
:100590004FF4806404F1320410F0004548BF40423B
:1005A0004FF000013EE700BF42004FEAE2014FEA90
:1005B00031014FEA02701FBF12F07F4393F07F4F6B
:1005C00081F06051704732F07F4208BF704793F06E
:1005D0007F4F04BF41F40021704730B54FF4607481
:1005E00001F0004521F000411CE700BF50EA010284
:1005F00008BF704730B54FF000050AE050EA01022D
:1006000008BF704730B511F0004502D5404261EB9C
:1006100041014FF4806404F132045FEA915C3FF4DD
:10062000D8AE4FF003025FEADC0C18BF03325FEA7A
:10063000DC0C18BF033202EBDC02C2F1200300FA2B
:1006400003FC20FA02F001FA03FE40EA0E0021FA50
:1006500002F11444BDE600BF70B54FF0FF0C4CF43E
:10066000E06C1CEA11541DBF1CEA135594EA0C0FF0
:1006700095EA0C0F00F0DEF82C4481EA030621EA2B
:100680004C5123EA4C5350EA013518BF52EA033566
:1006900041F4801143F4801338D0A0FB02CE4FF018
:1006A0000005E1FB02E506F00042E0FB03E54FF048
:1006B0000006E1FB03569CF0000F18BF4EF0010E40
:1006C000A4F1FF04B6F5007F64F5407404D25FEA3C
:1006D0004E0E6D4146EB060642EAC62141EA5551EF
:1006E0004FEAC52040EA5E504FEACE2EB4F1FD0C31
:1006F00088BFBCF5E06F1ED8BEF1004F08BF5FEAAF
:10070000500E50F1000041EB045170BD06F0004660
:1007100046EA010140EA020081EA0301B4EB5C040D
:10072000C2BFD4EB0C0541EA045170BD41F4801105
:100730004FF0000E013C00F3AB8014F1360FDEBF2A
:10074000002001F0004170BDC4F10004203C35DA06
:100750000C341BDC04F11404C4F1200500FA05F389
:1007600020FA04F001FA05F240EA020001F000422A
:1007700021F0004110EBD37021FA04F642EB0601A0
:100780005EEA430E08BF20EAD37070BDC4F10C04CA
:10079000C4F1200500FA04F320FA05F001FA04F28E
:1007A00040EA020001F0004110EBD37041F100017A
:1007B0005EEA430E08BF20EAD37070BDC4F1200585
:1007C00000FA05F24EEA020E20FA04F301FA05F2ED
:1007D00043EA020321FA04F001F0004121FA04F295
:1007E00020EA020000EBD3705EEA430E08BF20EA65
:1007F000D37070BD94F0000F0FD101F0004640009F
:1008000041EB010111F4801F08BF013CF7D041EA20
:10081000060195F0000F18BF704703F00046520024
:1008200043EB030313F4801F08BF013DF7D043EAF5
:100830000603704794EA0C0F0CEA135518BF95EAAB
:100840000C0F0CD050EA410618BF52EA4306D1D132
:1008500081EA030101F000414FF0000070BD50EA51
:10086000410606BF1046194652EA430619D094EADB
:100870000C0F02D150EA013613D195EA0C0F05D1C5
:1008800052EA03361CBF104619460AD181EA030119
:1008900001F0004141F0FE4141F470014FF00000D1
:1008A00070BD41F0FE4141F4780170BD70B54FF06C
:1008B000FF0C4CF4E06C1CEA11541DBF1CEA1355EC
:1008C00094EA0C0F95EA0C0F00F0A7F8A4EB0504CE
:1008D00081EA030E52EA03354FEA013100F08880C5
:1008E0004FEA03334FF0805545EA131343EA12638E
:1008F0004FEA022245EA111545EA10654FEA002643
:100900000EF000419D4208BF964244F1FD0404F5FB
:10091000407402D25B084FEA3202B61A65EB030557
:100920005B084FEA32024FF480104FF4002CB6EB14
:10093000020E75EB030E22BFB61A754640EA0C0094
:100940005B084FEA3202B6EB020E75EB030E22BFD4
:10095000B61A754640EA5C005B084FEA3202B6EB15
:10096000020E75EB030E22BFB61A754640EA9C00D4
:100970005B084FEA3202B6EB020E75EB030E22BFA4
:10098000B61A754640EADC0055EA060E18D04FEA62
:10099000051545EA16754FEA06164FEAC30343EA02
:1009A00052734FEAC2025FEA1C1CC0D111F4801FCF
:1009B0000BD141EA00014FF000004FF0004CB6E7C8
:1009C00011F4801F04BF01430020B4F1FD0C88BF67
:1009D000BCF5E06F3FF6AFAEB5EB030C04BFB6EB72
:1009E000020C5FEA500C50F1000041EB045170BD65
:1009F0000EF0004E4EEA113114EB5C04C2BFD4EB92
:100A00000C0541EA045170BD41F480114FF0000E15
:100A1000013C90E645EA060E8DE60CEA135594EA91
:100A20000C0F08BF95EA0C0F3FF43BAF94EA0C0F94
:100A30000AD150EA01347FF434AF95EA0C0F7FF409
:100A400025AF104619462CE795EA0C0F06D152EA5D
:100A500003353FF4FDAE1046194622E750EA410641
:100A600018BF52EA43067FF4C5AE50EA41047FF452
:100A70000DAF52EA43057FF4EBAE12E74FF0FF3CB7
:100A800006E000BF4FF0010C02E000BF4FF0010C88
:100A90004DF804CD4FEA410C7FEA6C5C4FEA430C01
:100AA00018BF7FEA6C5C1BD001B050EA410C0CBF50
:100AB00052EA430C91EA030F02BF90EA020F0020B2
:100AC000704710F1000F91EA030F58BF994208BF19
:100AD00090422CBFD8176FEAE37040F001007047D6
:100AE0004FEA410C7FEA6C5C02D150EA013C07D12D
:100AF0004FEA430C7FEA6C5CD6D152EA033CD3D078
:100B00005DF8040B704700BF8446104662468C4671
:100B10001946634600E000BF01B5FFF7B7FF0028A4
:100B200048BF10F1000F01BD4DF808EDFFF7F4FFCD
:100B30000CBF012000205DF808FB00BF4DF808ED58
:100B4000FFF7EAFF34BF012000205DF808FB00BF7B
:100B50004DF808EDFFF7E0FF94BF012000205DF89D
:100B600008FB00BF4DF808EDFFF7CEFF94BF012052
:100B700000205DF808FB00BF4DF808EDFFF7C4FF4B
:100B800034BF012000205DF808FB00BF4FEA410C94
:100B90007FEA6C5C02D150EA013C0AD14FEA430C77
:100BA0007FEA6C5C02D152EA033C02D14FF00000B4
:100BB00070474FF0010070474FEA410212F50012F2
:100BC00015D211D56FF47873B3EB625212D94FEA94
:100BD000C12343F0004343EA505311F0004F23FA7E
:100BE00002F018BF404270474FF00000704750EAD3
:100BF000013005D111F0004008BF6FF00040704790
:100C00004FF00000704700BF4A0011D212F50012E9
:100C100011D20DD56FF47873B3EB62520ED44FEA54
:100C2000C12343F0004343EA505323FA02F07047D4
:100C30004FF00000704750EA013002D14FF0FF3012
:100C400070474FF0000070474FEA4102B2F1E043B5
:100C500024BFB3F5001CDCF1FE5C0DD901F0004CA3
:100C60004FEAC0024CEA5070B2F1004F40EB8300F3
:100C700008BF20F00100704711F0804F21D113F11F
:100C80003872BCBF01F00040704741F480114FEA58
:100C90005252C2F11802C2F1200C10FA0CF320FAE1
:100CA00002F018BF40F001004FEAC1234FEAD323FE
:100CB00003FA0CFC40EA0C0023FA02F34FEA430368
:100CC000CCE77FEA625307D150EA01331EBF4FF0F1
:100CD000FE4040F44000704701F0004040F0FE400C
:100CE00040F40000704700BF53B94AB9002908BF5B
:100CF00000281CBF4FF0FF314FF0FF3000F06AB901
:100D0000ADF1080C6DE904CE00F006F8DDF804E062
:100D1000DDE9022304B070472DE9F047089D0C4639
:100D2000002B4ED194468C458646B2FA82F262D9A7
:100D30004AB1C2F12003914020FA03F30CFA02FCFD
:100D4000194300FA02FE4FEA1C471FFA8CF6B1FB6A
:100D5000F7F44FEA1E4307FB141143EA014304FB77
:100D600006F199420AD91CEB030304F1FF3080F02D
:100D70001281994240F20F81023C6344591A1FFAD2
:100D80008EF3B1FBF7F007FB101143EA014300FBC0
:100D900006F69E420AD91CEB030300F1FF3180F0F6
:100DA000FC809E4240F2F980634402389B1B40EA7B
:100DB000044000211DB1D3400022C5E90032BDE846
:100DC000F0878B4205D90DB1C5E900010021084625
:100DD000F5E7B3FA83F1002946D1A34202D390424A
:100DE000C0F0F080861A64EB03030120002DE6D0EA
:100DF000C5E90063E3E7002A40F09080A1EB0C0412
:100E00004FEA1C481FFA8CF70121B4FBF8F64FEAB1
:100E10001E4308FB164443EA044307FB06F09842CE
:100E200008D91CEB030306F1FF3402D2984200F20A
:100E3000CD8026461C1A1FFA8EF3B4FBF8F008FB8F
:100E4000104443EA044300FB07F79F4208D91CEB18
:100E5000030300F1FF3402D29F4200F2B08020462B
:100E6000DB1B40EA0640A5E7C1F120068B4022FAD1
:100E700006F71F4320FA06FC04FA01F343EA0C03C9
:100E8000F44000FA01F8380C4FEA1349B4FBF0FEC5
:100E90001FFA87FC00FB1E4449EA04440EFB0CF9D0
:100EA000A14502FA01F20AD93C190EF1FF3A80F08D
:100EB0008480A14540F28180AEF1020E3C44A4EB57
:100EC00009041FFA83F9B4FBF0F300FB134449EA69
:100ED000044403FB0CFCA44507D93C1903F1FF3083
:100EE00067D2A44565D9023B3C4443EA0E40A0FBCF
:100EF0000293A4EB0C049C42CE469C4651D34ED0A8
:100F000055B1B8EB0E0364EB0C0404FA06F6CB40C3
:100F10001E43CC40C5E90064002150E7C2F1200324
:100F200020FA03F10CFA02FC24FA03F394400C4378
:100F30004FEA1C4800FA02FE1FFA8CF7B3FBF8F0E8
:100F400008FB1031230C43EA014300FB07F19942EF
:100F500008D91CEB030300F1FF362CD299422AD9A1
:100F6000023863445B1AA4B2B3FBF8F108FB1133F7
:100F700044EA034401FB07F3A34208D91CEB040431
:100F800001F1FF3613D2A34211D902396444E41AA5
:100F900041EA004139E70446F0E6084606E7C8455D
:100FA000AED2B9EB020E63EB070C0138A8E731466D
:100FB000EDE7034699E73046D4E7D6467FE763443A
:100FC00002384DE70646234608460FE7023E6344D3
:100FD00030E700BF704700BF01230370024B1B685E
:100FE00000225A63704700BFAC90002010B5064C39
:100FF0002368481ED86249085963104611F098FBCF
:10100000236800225A6310BDAC90002038B50378E5
:1010100003B938BD0446084D0021284614F022F9D2
:10102000A0224FF48E712046FFF7E0FF00212846F2
:1010300014F09AF9EDE700BFAC90002038B50378C2
:1010400003B938BD04460C4D0021284614F00AF9B6
:10105000A0224FF48E712046FFF7C8FF642011F0E4
:1010600067FBA0224FF48E712046FFF7BFFF0021DF
:10107000284614F079F9E4E7AC90002038B50378FD
:1010800003B938BD0446084D0021284614F0EAF89B
:10109000A02240F618312046FFF7A8FF002128467D
:1010A00014F062F9EDE700BFAC90002038B503788A
:1010B00003B938BD0446114D0021284614F0D2F87A
:1010C000A0224FF48E712046FFF790FF322011F0DE
:1010D0002FFB3C2240F618312046FFF787FF3220D5
:1010E00011F026FBA02240F28C512046FFF77EFF34
:1010F0000021284614F038F9DBE700BFAC9000204F
:1011000019B1012906D00020704700F5805090F8F1
:101110006200704700F5805090F86400704708B591
:1011200082B90A6800F58053A3F846204A68A3F8FC
:1011300048208A68A3F84A2000F58251043107F05C
:1011400013FC08BD022A0BD00A6800F58053A3F8EF
:101150004C204A68A3F84E208A68A3F85020EBE799
:101160000A6800F58053A3F852204A68A3F8542077
:101170008A68A3F85620DFE72DE9F8430C4611B939
:101180002046BDE8F883814600F58257043738468B
:1011900008F066FEA0428CBF002601262146384694
:1011A00008F060FE00B10326384608F059FE451EDF
:1011B000EDB2012E1DD0032E25D0012609F5805356
:1011C000D3F8FC30002B52D03746A8462A46314689
:1011D00020460FF07CFFC4B209F58059D9F8FC20F5
:1011E000204602EB44035B7813F0010FC8D123467D
:1011F00019E0384608F034FE0646384608F02EFE60
:101200008519EDB2DAE7384608F02AFE0646384678
:1012100008F024FE0644F6B2384608F01DFE0546E6
:10122000CCE7013BDBB29E4205D802EB4301497893
:1012300011F0010FF5D0A54208D302EB4401497823
:1012400011F0010F02D10134E4B2F4E7013FBB42D7
:1012500007D0A5420DD0C21A201A824290DA1C464D
:101260008EE708F1010844458AD1344688E73446C0
:1012700086E71C4684E700002DE9F84F05460C463A
:10128000B1F802808F88CE888B8B13F0010F43D08A
:10129000314BB3F800A0314BB3F800B05A46514679
:1012A00040460FF014FF80461FFA80F95A46514617
:1012B00038460FF00CFF07461FFA80FA284B1A88B1
:1012C000284B198830460FF002FF064680B2A38BE8
:1012D00013F0010F2FD0A4F80290A4F804A0E0802E
:1012E000A37C1E2B01D91E23A374A37D1E2B01D921
:1012F0001E23A375A17A2846FFF73EFF6081217B5C
:101300002846FFF739FFA081FF220A21A07F0FF0B6
:10131000DEFEA077BDE8F88F0FFA88F00FF024FF0B
:101320001FFA80F838B20FF01FFF87B230B20FF00B
:101330001BFF86B2ACE70FFA88F00FF007FF1FFA29
:1013400080F938B20FF002FF1FFA80FA30B20FF0C6
:10135000FDFE80B2BFE700BF1AE9010816E90108E7
:1013600012E9010814E9010808B50346022907D06B
:101370000D4908881AB91B8E13F0010F03D008BD60
:101380000A490888F6E700B20FF0E0FE80B2084B89
:10139000A3FB0023DB0803EB8303A0EB43039BB217
:1013A000C01A80B2EBE700BF1AE9010814E901088E
:1013B000CDCCCCCC08B51BB10C4B18881AB108BDEC
:1013C0000B4B1888FAE700B20FF0C0FE80B2094B51
:1013D000A3FB0023DB0803EB8303A0EB43039BB2D7
:1013E000C01A80B20A3080B2E9E700BF18E90108EC
:1013F00016E90108CDCCCCCC08B522B9038E13F088
:10140000010F00D00122038EC3F34023FFF7D2FF68
:1014100008BD0000F0B589B00646174601F58254B4
:1014200004341146204608F027FD05466B46052288
:10143000014630461AF0D0FEBDB117B12B784E2BC5
:1014400002D1304609B0F0BD204608F009FDB8428F
:1014500005D90C4A002130461AF0FEFDF1E70A4A90
:10146000002130461AF0F8FDEBE707AA074901A86A
:101470001AF0C6FE01A930461AF09AFC01A81AF02B
:10148000F9FBDEE7BCD20108C4D20108CCD20108C6
:1014900010B5044642B901F5805393F86220204606
:1014A000FFF7B8FF204610BD012A01D00022F6E761
:1014B00001F5805393F86420F1E72DE9F04F89B0EE
:1014C0000746904699469DF848A09DF84CB000F517
:1014D0008053D3F8FC0070B14C1E032313E003EBE0
:1014E000430208EB8202002191700133DBB24B45CD
:1014F000F5D3002077E00023F9E7013B13F0FF0369
:101500000DD0013C24B2002C09DDBAF1000FF4D05B
:1015100000EB4402527812F0010FF2D0EDE7002CFC
:101520005EDB002626E0BBF1000F3CD0BBF1010FD3
:1015300040D006EB460308EB8305E2B208F823200F
:1015400007F58053D3F8FC3003EB44035B786B70F2
:10155000394602A8FFF75EFF0A220299A81C1BF079
:101560004DFA0136F6B24E452BD202A81AF082FB94
:10157000013424B2019407F582550435284608F059
:101580006BFC844220DA002CF2D0BAF1000FCAD0F2
:1015900007F58053D3F8FC3003EB44035B7813F07A
:1015A000010FC0D1E4E7284608F05AFC019B98429D
:1015B000BFDC09E0284608F053FC019B9842B8DDE7
:1015C000D6E702A81AF056FB33464B450AD203EB86
:1015D000430208EB8202002191700133DBB2F4E791
:1015E00000249EE7304609B0BDE8F08F08B5C28AF6
:1015F000B0F84A309A4259D1028BB0F84C309A4236
:1016000056D1428BB0F84E309A4253D1828BB0F80B
:1016100050309A4250D1428CB0F856309A424DD157
:1016200090F8242090F858309A4249D1C28BB0F8F3
:1016300052309A4246D1028CB0F854309A4243D18B
:1016400090F8262090F85A309A423FD1028DB0F897
:101650005C309A423CD190F82A2090F85E309A4251
:1016600038D1028EB0F864309A4235D190F82520F6
:1016700090F859309A4231D190F8322090F8663083
:101680009A422DD1828DB0F860309A422AD190F8DA
:101690002E2090F862309A4226D1142200F168017F
:1016A00034301BF099F908BB012000E0002008BD90
:1016B0000020FCE70020FAE70020F8E70020F6E72A
:1016C0000020F4E70020F2E70020F0E70020EEE73A
:1016D0000020ECE70020EAE70020E8E70020E6E74A
:1016E0000020E4E70020E2E70020E0E70020DEE75A
:1016F00038B50446EB23C3820383C82343834FF4E6
:1017000096638383052280F82620B423438480F8DF
:101710002420038580F82A20B3220286502280F8F4
:101720002520802280F83220012580F833500022C5
:1017300080F82E2083851422044934301BF05EF992
:10174000E583204608F08CFB208438BD00E90108C1
:1017500040F6FC0343803223838040F2DF23C380C2
:1017600040F2C75303813B23438140F2FB13838143
:10177000C823C38140230382C3234382704710B52B
:10178000044652B1022A0FD040F2A46303224FF460
:10179000FA710EF097FB204610BDC8230A2240F2D2
:1017A0003F210EF08FFBF6E73223402296210EF008
:1017B00089FBF0E7012903D029B990F8260070478A
:1017C00090F82A00704790F82E007047012902D047
:1017D00019B9408C7047008D7047808D7047022981
:1017E00003D0012903D0C08A7047408B7047008B1B
:1017F0007047000010B5044690F8343013B104F17E
:10180000340010BD1422024934301BF0F7F8F6E71B
:1018100000E901082DE9F84F04460F4615461E461B
:101820009DF828B09DF82CA09DF830909DF834804C
:10183000038E03F00103934210D0002A49D0B0F97F
:1018400016000FF091FCE082B4F918000FF08CFC48
:101850002083B4F91A000FF087FC6083238E03F015
:101860000C03238615B143F0010323861FB1238E99
:1018700043F0020323861EB1238E43F080032386A8
:10188000BBF1000F03D0238E43F010032386BAF17F
:10189000000F03D0238E43F020032386B9F1000FFD
:1018A00003D0238E43F480732386B8F1000F03D056
:1018B000238E43F400732386642201219DF83800AF
:1018C0000FF005FC84F83200B8F1000F11D1BDE82B
:1018D000F88FB0F916000FF039FCE082B4F9180067
:1018E0000FF034FC2083B4F91A000FF02FFC608352
:1018F000B4E7002211462046FFF77EFDE38A8342CB
:1019000000D9E082238B8342E1D92083DFE7000006
:1019100000B59DF80CC0BDF810E080F82630BDF889
:10192000043043849DF8083080F82430038E23F07F
:101930000C039BB2038611B143F0040303861AB172
:10194000038E43F008030386BCF14B0F01D94FF01F
:101950004B0CBEF5A07F05D8BEF1040F04D84FF0A4
:10196000050E01E04FF4A07E0CF10403DBB20C4A3B
:10197000A2FB03239B081B01DBB280F825300EF18C
:10198000FF3E084A82FB0E124FEAEE7ECEEBE20EDD
:101990000EF00F0E43EA0E0380F825305DF804FBCD
:1019A000CDCCCCCC6766666610B504460846228569
:1019B0001E2200210FF08BFB84F82A0010BD39B1E4
:1019C000018E41F04001018680F82E20838570470A
:1019D000018E21F040010186F6E70AB9C182704705
:1019E000012A00D070470183FCE74183828370475E
:1019F00010B500F1140300F1480244301C68D3F81C
:101A000004E0D3F808C0D9681460C2F804E0C2F852
:101A100008C0D160103310328342EFD11B681360CD
:101A200010BD38B5044600F5825504352846FFF749
:101A3000DDFD00B138BD04F582511831204607F0B4
:101A40003BF82846FFF7D4FFF4E710B500F1480350
:101A500000F1140278301C68D3F804E0D3F808C011
:101A6000D9681460C2F804E0C2F808C0D16010332D
:101A700010328342EFD11B68136010BD90F825002F
:101A8000000900EB8000704790F8250000F00F007F
:101A9000013000EB80008000704710B5044642B171
:101AA000022A0CD08B894A8909890EF00BFA20464C
:101AB00010BDCB888A8849880EF004FAF7E74B8A74
:101AC0000A8AC9890EF0FEF9F1E7022901D900203E
:101AD000704701EB810100EB4100007AC0F3400048
:101AE0007047022A21D800B5B1F800E002EB820C61
:101AF00000EB4C0320F81CE0B1F802C0A3F802C0D0
:101B0000B1F804C0A3F804C0B1F806C0A3F806C039
:101B100091F808C083F808C091F90E3002EB8202F8
:101B200000EB420043725DF804FB7047022900D9C4
:101B3000002101EB810100EB410090F909007047A1
:101B4000032905D802EB8202114430F811007047D6
:101B500000207047022A04D00C3100EB4100C088FD
:101B60007047103100EB4100C0887047022B00F233
:101B700096802DE9F04F85B005460E4617461C4667
:101B800003EB830300EB430292F90990A7EB0909E9
:101B900030F81380884524D804EB840300EB43031A
:101BA000B3F80680884551D204EB840300EB43036D
:101BB000B3F802A0D0455CD922460121FFF7CAFF45
:101BC00000EB090B224603212846FFF7C3FF4844D8
:101BD00000905B464246514630460FF067FA00B22D
:101BE0000CE022460021FFF7B5FF484400903B4639
:101BF0004246002130460FF073FA00B240F2E7325D
:101C000039460FF064FA80B205B0BDE8F08F08F1F4
:101C1000FF3204EB8403134435F813B01146224617
:101C2000C9B22846FFF796FF00EB0903039322464B
:101C300041462846FFF78EFF48440090039B5246DA
:101C4000594630460FF04CFA00B2D7E74FF0010882
:101C5000B8F1030F0BD804EB8403434435F813A009
:101C6000B245D4D808F101085FFA88F8F0E70020FF
:101C7000C4E722460121FFF76DFF00EB0908224669
:101C800003212846FFF766FF484400904346054A73
:101C90001288514630460FF009FA00B2AEE7002034
:101CA000704700BF1EE9010810B5044600F58650D4
:101CB000FFF75CFF04F58054B4F8743013F0010FA3
:101CC00000D010BD00B20FF041FA80B2F9E7000079
:101CD0002DE9F04F85B00546039116461C469DF848
:101CE00038B000F5865919464846FFF71FFF371AE6
:101CF000224600214846FFF72DFFBFB200EB070840
:101D00001FFA88F8224603214846FFF723FF0744BD
:101D1000BFB205F5825A0AF1040A01222146504653
:101D2000FFF722FB0290012221465046FFF764FB99
:101D30008246BBF1000F01D06423029305F5805366
:101D4000B3F8743013F0010F26D05246029903986D
:101D50000FF0BDF91FFA80FA394BB3F800B02246F4
:101D600000214846FFF7ECFE029022460321484638
:101D7000FFF7E6FE0090029B3A46414650460FF0C0
:101D800095F980B2B0EB5B0F1DDDA0EBAB07BFB2E6
:101D90004FF00008C14633E00FFA88F00FF0D6F993
:101DA0001FFA80F838B20FF0D1F987B2BDF90800F8
:101DB0000FF0CCF983B202930FFA8AF00FF0C6F954
:101DC0001FFA80FAC1E75B46BBF1000F03DB00EBB3
:101DD000A307BFB2DCE70BF10303F8E77B1CB946AE
:101DE0009FB209E009EB070303EBD373C3F34F037F
:101DF0009F421CD0BB461F4608F101085FFA88F8D5
:101E0000B8F1130F17D82346324639462846FFF754
:101E10004BFF82450FD0E5D907EB0B0303EBD373E0
:101E2000C3F34F039F42D9D0B9461F46E4E77B1E58
:101E3000BB469FB2E0E7384605B0BDE8F08F00BF73
:101E40001EE90108002308E002EB820C9C4430F8F4
:101E50001CC021F813C00133DBB2032BF4D9704747
:101E600030B59DF80C504FF0000C0AE031F81C40E2
:101E700003EB830EE64420F81E400CF1010C5FFAE0
:101E80008CFCBCF1030FF1D903EB830100EB4101A2
:101E90004A7201220A7215B10A460321117203EB3C
:101EA000830200EB4202D188044A1288914204D98D
:101EB00003EB830300EB4300C28030BD1EE9010841
:101EC00000230CE003F1140200EB4202B2F806C05A
:101ED00001EB81021A4420F812C00133DBB2032B5C
:101EE000F0D9064B93F9002001EB810300EB43038B
:101EF0005A72184601230372704700BF11E90108A6
:101F000008B5FFF7DDFF08BDC38D0B80038E4B8046
:101F1000438E8B80838ECB80704700F58053D3F83F
:101F2000FC30002B4BD0F0B585B004460D464F0079
:101F300013F81120FF2A14D00123694606F086FB0E
:101F400020BB9DF8083083F001038DF80830012292
:101F50006946204606F0E6FD061E19DA002005B0A7
:101F6000F0BD00F58250043007F086FF014668B1ED
:101F700005220DF109001AF041FD694604F586506D
:101F8000FFF7C2FF01238DF80830E0E70020E6E705
:101F900004F58250043007F05FFF864201DB002029
:101FA000DDE704F58054D4F8FC3003F81560D4F86C
:101FB000FC303B449DF808205A700120CFE70020F8
:101FC00070470B884A88934211D2D31AC08E83423D
:101FD0000FDB8B889A420ED29A1A90420DDCCA8887
:101FE00093420CD2D21A90420BDC012070470020A1
:101FF0007047002070470020704700207047002085
:10200000704700207047F0B585B000F58053D3F8D5
:10201000FC30002B59D004460E461546022921D12A
:10202000002504F58053D3F8FC3013F81520FF2A5F
:102030002ED000236946204606F008FB78BB9DF8A9
:10204000083013F0020F33D004F586546946204659
:10205000FFF7B7FF054690BB31462046FFF730FF3C
:10206000012522E000F582570437384607F0F8FED4
:10207000A84201D906B10125384607F0F1FEA84271
:10208000CFD8012ECDD0384607F0EAFE0546C8E786
:10209000314604F58650FFF713FF002505E0314671
:1020A00004F58650FFF70CFF0025284605B0F0BD6B
:1020B000314604F58650FFF703FF0125F5E7324668
:1020C00069462046FFF70DFDEFE70025EDE770B507
:1020D00004460E4679B90225324629462046FFF7C6
:1020E00092FF38B195B904F58053A3F86260204699
:1020F000FFF797FC70BD00F58250043007F0B0FE8A
:10210000B04201D90025E7E70125E5E7012DEED131
:1021100004F58053A3F86460E9E72DE9F04385B046
:1021200004460E461D461388ADF800305388ADF8BE
:1021300002309388ADF80430D388ADF806308DF8BE
:1021400008509DF930308DF80E3000F58053D3F8EB
:10215000FC304F0003EB41035D7000F5825004300A
:1021600007F08AFE38B18146694604F58650FFF7CC
:1021700028FF804698B904F58053D3F8FC303B44DF
:102180005A7822F002025A7004F587501830FEF790
:102190008DFF4FF00008404605B0BDE8F0830522F2
:1021A00049460DF109001AF029FC00226946204633
:1021B00006F0B8FCB0F10009DDDB04F587501830FB
:1021C000FEF724FF04F58054D4F8FC3003F8169091
:1021D000D4F8FC303B445D70DDE72DE9F04F85B06D
:1021E00006460F460024A04616E00DF109014846B8
:1021F00007F058FE0FFA80F9B9F1000F0ADB9DF8DD
:1022000008A0BAF1000F05D007EB490B17F81930F9
:10221000FF2B1DD0013424B206F5825909F10409BF
:10222000484607F019FE84420ADAE5B201232A463D
:102230006946304606F00AFA0028D6D00128E9D1CE
:10224000304606F0DDF85FFA88F005B0BDE8F08FA3
:10225000694606F58650FFF7B4FE18B92AF0020A5F
:102260008DF808A007F819509DF808308BF8013058
:1022700008F101081FFA88F8CCE7F8B5054600F523
:1022800082560436304607F0E7FD40001AF094FA13
:1022900005F58053C3F8FC00A8B100240EE005F555
:1022A0008053D3F8FC20FF2102F81410D3F8FC303F
:1022B00003EB440300225A700134E4B2304607F0C5
:1022C000CBFDA042EBD8284606F077F9044600285B
:1022D00055D105F58053D3F8FC1091B32846FFF78C
:1022E0007CFF074605F5825618363146284606F02B
:1022F0003DFA40B331462846FEF7BEFF05F5825150
:102300000431284606F0F1FA98B30022022128464B
:10231000FFF779FE05F5805696F8622000212846E1
:10232000FFF771FE96F8642001212846FFF76BFE47
:1023300005F582500430FFF75BFB002F43D02046A9
:10234000F8BD0746CEE705F582500430FFF7D0F917
:1023500005F5805696F862102846FEF70DFFA6F8A0
:10236000620096F864102846FEF706FFA6F864009F
:10237000C4E705F582500430FFF7EAF9C5E705F533
:10238000825704373846FFF7B3F93846FFF7E0F9CC
:10239000022105F58650FFF793FD01220021284612
:1023A000FFF731FE304607F05BFD0246012128466B
:1023B000FFF729FE3846FFF71BFB012C05D0022C46
:1023C00005D00024BBE70124B9E70224B7E70324C2
:1023D000B5E708B500F58053D3F8FC1009B9002023
:1023E00008BDFFF7FAFE0120FAE70000014B036089
:1023F000704700BF4CD7010870470000024A0260D6
:10240000024A0260704700BF74D701084CD7010828
:102410007047002070477047014B0360704700BF52
:10242000F8D7010870B5064610F07CF900F59675EE
:10243000184B5B6A9BB29C1CA4B2632C01D9613B14
:102440009CB210F06FF9A84205D2124B5B6AA3420E
:10245000F7D1114B5E6210F065F900F596750D4BE2
:102460005B6A9BB29C1CA4B2632C01D9613B9CB2F9
:1024700010F058F9A84207D2064B5B6AA342F7D185
:10248000054B586A80B204E0034BD86A80B2013031
:1024900080B270BD00000140000C004008B50C4B3C
:1024A0001B785BB10B4B00205863986303F57443B2
:1024B0001864094A13680133136008BD03220749F1
:1024C000074810F02DFB0120014B1870F5E700BF05
:1024D000047F0020000C0040D07F0020F07E002010
:1024E0004494002008B5114B1B7863B9104B1B783E
:1024F000ABB102220F49104810F012FB0B4B022225
:102500001A70012008BD0D4B00205863986303F535
:10251000744318640A4A136801331360F2E7042213
:102520000849094810F0FCFAE8E700BF047F0020E2
:1025300004000020F87E00208C940020000C004055
:10254000D07F0020FC7E0020D494002010B50446EB
:10255000044B0360044B0360502119F037FB204605
:1025600010BD00BF74D701084CD7010810B5044650
:10257000034B0360502119F029FB204610BD00BF1A
:102580004CD7010810B50446034B0360242119F011
:102590001DFB204610BD00BFF8D7010808B508464E
:1025A00018F072F908BD08B5084618F05FF908BDC3
:1025B00008B5084618F04CF908BD08B518F03AF906
:1025C00008BD08B518F028F908BD08B517F032F8AD
:1025D00008BD0000154A1178002280F8422080F8DA
:1025E000402080F8411080F8862080F8842080F810
:1025F000851080F8CA2080F8C82080F8C910A0F89B
:10260000CC20A0F8CE20A0F8D020A0F8D22080F8CE
:10261000D420C0F8D82080F8DC2080F8DD20A0F895
:10262000DE20A0F8E020A0F8E22070471DE90108B4
:1026300038B5044614234360002505814581C560F3
:102640000A23036143618561C361052303620B2390
:102650008384012380F826302830FFF7BBFF1C4B12
:102660002360082384F80C31C4F8105184F80C312D
:10267000C4F8105184F8145184F815514FF4C871FE
:10268000A4F816114FF4FA72A4F8182184F81C313A
:10269000C4F8205184F81C31C4F8205184F8245126
:1026A00084F82551A4F82611A4F8282184F82C31A7
:1026B000C4F8305184F82C31C4F8305184F83451C6
:1026C00084F83551A4F83611A4F83821204638BDD5
:1026D00008D7010810B50446FFF7AAFF354B236061
:1026E0000023A4F83C31A4F83E31A4F84031A4F80A
:1026F0004231042284F8442184F84531A4F846315B
:1027000084F8483184F84931082284F84C21C4F80F
:10271000503184F84C21C4F8503184F85421C4F865
:10272000583184F85421C4F8583184F85C21C4F835
:10273000603184F85C21C4F8603184F86421C4F805
:10274000683184F86421C4F8683184F86C21C4F8D5
:10275000703184F86C21C4F8703184F87431A4F8B5
:1027600076314FF47A71A4F87811142384F87A3111
:102770006420A4F87C0184F87E214FF4FA72A4F856
:102780008021A4F88211032284F884210E2284F887
:10279000852184F88631052384F88731022384F863
:1027A00088310D2384F8893144F62063C4F88C31D4
:1027B000204610BD4CE3010810B50446FFF738FF72
:1027C0003D4B2360002384F83C3184F83D3184F88C
:1027D0003E31012184F83F1184F84031A4F84231A0
:1027E000A4F84431A4F84631C4F84831082284F8EA
:1027F0004C21C4F8503184F84C21C4F8503184F88D
:102800005421C4F8583184F85421C4F8583184F85C
:102810005C21C4F8603184F85C21C4F8603184F82C
:102820006421C4F8683184F86421C4F8683184F8FC
:102830006C21C4F8703184F86C21C4F87031A4F8AC
:10284000743184F8763184F87731462384F878310E
:10285000632384F879314FF42F73A4F87A3140F26E
:10286000CF73A4F87C314FF4C863A4F87E317D2384
:10287000A4F88031114BC4F884314EF66023C4F8BB
:1028800088314FF4FA73A4F88C314FF47A73A4F8BA
:102890008E311E2384F890313C2384F891310D232E
:1028A00084F892310A2384F89331C4F89411044BCC
:1028B000C4F89831204610BD08E30108407E0500A9
:1028C000E09304002DE9F041034600220270E6493E
:1028D000416000F110018160C2600274E34901624D
:1028E00000F12C014162826280F82C20E049C16332
:1028F00000F148010164426480F84820DD498165A7
:1029000000F16401C165026680F86420DA4941671C
:1029100000F180018167C26780F88020D749C0F844
:10292000901000F19C01C0F89410C0F8982080F835
:102930009C20D34FC0F8AC7000F1B801C0F8B010C3
:10294000C0F8B42080F8B820CE49C0F8C81000F113
:10295000D401C0F8CC10C0F8D02080F8D420CA49E7
:10296000C0F8E41000F1F001C0F8E810C0F8EC2065
:1029700080F8F020C54CC0F8004100F58671C0F821
:102980000411C0F8082180F80C21C149C0F81C11BD
:1029900000F59471C0F82011C0F8242180F8282196
:1029A000BC49C0F8381100F5A271C0F83C11C0F85C
:1029B000402180F84421B849C0F8541100F5B071A5
:1029C000C0F85811C0F85C2180F86021B349C0F804
:1029D000701100F5BE71C0F87411C0F8782180F84C
:1029E0007C21AF49C0F88C1100F5CC71C0F8901172
:1029F000C0F8942180F89821AA49C0F8A81100F5E0
:102A0000DA71C0F8AC11C0F8B02180F8B421A64941
:102A1000C0F8C41100F5E871C0F8C811C0F8CC21A5
:102A200080F8D021A149C0F8E01100F5F671C0F896
:102A3000E411C0F8E82180F8EC219D49C0F8FC11B0
:102A400000F50271C0F80012C0F8042280F80822D4
:102A50009849C0F8181200F50971C0F81C12C0F8A6
:102A6000202280F824229449C0F8341200F5107115
:102A7000C0F83812C0F83C2280F840228F49C0F8D4
:102A8000501200F51771C0F85412C0F8582280F89F
:102A90005C228B48C3F86C0203F51E71C3F87012F8
:102AA000C3F8742283F878228649C3F8881203F5A4
:102AB0002571C3F88C12C3F8902283F894228249BE
:102AC000C3F8A41203F52C71C3F8A812C3F8AC2202
:102AD00083F8B0227D49C3F8C01203F53371C3F8FF
:102AE000C412C3F8C82283F8CC227949C3F8DC1297
:102AF00003F53A71C3F8E012C3F8E42283F8E82240
:102B0000DFF8E8E1C3F8F8E203F54171C3F8FC121D
:102B1000C3F8002383F804236E4DC3F8145303F560
:102B20004871C3F81813C3F81C2383F820236A4E96
:102B3000C3F8306303F54F71C3F83413C3F8382377
:102B400083F83C236549C3F84C1303F55671C3F869
:102B50005013C3F8542383F858236149C3F868130A
:102B600003F55D71C3F86C13C3F8702383F8742305
:102B7000C3F8840303F56471C3F88813C3F88C2386
:102B800083F89023DFF868C1C3F8A0C303F56B7125
:102B9000C3F8A413C3F8A82383F8AC235149C3F89E
:102BA000BC1303F57278C3F8C083C3F8C42383F859
:102BB000C823DFF84081C3F8D88303F57978C3F8D8
:102BC000DC83C3F8E02383F8E423C3F8F4E303F5DC
:102BD000806EC3F8F8E3C3F8FC2383F80024C3F83D
:102BE000105403F21C4EC3F814E4C3F8182483F8FD
:102BF0001C24C3F82C0403F5876EC3F830E4C3F833
:102C0000342483F83824C3F848C403F2544CC3F87E
:102C10004CC4C3F8502483F85424C3F8641403F557
:102C20008E6CC3F868C4C3F86C2483F87024C3F8AE
:102C3000807403F28C47C3F88474C3F8882483F843
:102C40008C24294FC3F89C7403F59567C3F8A074CE
:102C5000C3F8A42483F8A824C3F8B86403F2C446D4
:102C6000C3F8BC6448E000BFD4D20108E0D2010838
:102C7000ECD20108FCD201080CD3010818D30108DA
:102C800024D3010834D3010844D301084CD30108EC
:102C900054D3010860D3010868D3010870D3010838
:102CA00080D3010890D301089CD30108A8D3010860
:102CB000B4D30108C0D30108D0D30108E0D3010880
:102CC000ECD30108F4D30108FCD301080CD40108AB
:102CD00018D4010830D4010840D4010850D40108A8
:102CE0005CD4010878D4010898D4010824D40108E0
:102CF00068D4010888D40108C3F8C02483F8C42428
:102D0000C3F8D45403F59C65C3F8D854C3F8DC2445
:102D100083F8E024C3F8F00403F2FC40C3F8F404A1
:102D2000C3F8F82483F8FC24EA48C3F80C0503F53B
:102D3000A360C3F81005C3F8142583F81825C3F859
:102D4000281503F23450C3F82C05C3F8302583F856
:102D50003425E148C3F8440503F5AA60C3F84805E3
:102D6000C3F84C2583F85025DC48C3F8600503F20E
:102D70006C50C3F86405C3F8682583F86C25D848FF
:102D8000C3F87C0503F5B160C3F88005C3F884255A
:102D900083F88825D348C3F8980503F2A450C3F8F4
:102DA0009C05C3F8A02583F8A425C3F8B44503F512
:102DB000B860C3F8B805C3F8BC2583F8C025CA4875
:102DC000C3F8D00503F2DC55C3F8D455C3F8D825B1
:102DD00083F8DC25C54DC3F8EC5503F5BF65C3F892
:102DE000F055C3F8F42583F8F825C14DC3F808560B
:102DF00003F21465C3F80C56C3F8102683F81426A2
:102E0000BC4DC3F8245603F5C665C3F82856C3F86D
:102E10002C2683F83026C3F8401603F24C61C3F821
:102E20004416C3F8482683F84C26B349C3F85C1609
:102E300003F5CD61C3F86016C3F8642683F86826ED
:102E4000AE49C3F8781603F28461C3F87C16C3F860
:102E5000802683F88426AA49C3F8941603F5D46122
:102E6000C3F89816C3F89C2683F8A026A549C3F892
:102E7000B01603F2BC61C3F8B416C3F8B82683F8E1
:102E8000BC26C3F8CC4603F5DB61C3F8D016C3F803
:102E9000D42683F8D8269C49C3F8E81603F2F461D7
:102EA000C3F8EC16C3F8F02683F8F4269749C3F864
:102EB000041703F5E261C3F80817C3F80C2783F879
:102EC00010279349C3F8201703F22C71C3F8241775
:102ED000C3F8282783F82C278E49C3F83C1703F53D
:102EE000E961C3F84017C3F8442783F848278A49A3
:102EF000C3F8581703F26471C3F85C17C3F860276E
:102F000083F864278549C3F8741703F5F061C3F8A3
:102F10007817C3F87C2783F880278149C3F8901776
:102F200003F29C71C3F89417C3F8982783F89C2781
:102F30007C49C3F8AC1703F5F761C3F8B017C3F8C1
:102F4000B42783F8B8277849C3F8C81703F2D471B7
:102F5000C3F8CC17C3F8D02783F8D4277349C3F834
:102F6000E41703F5FE61C3F8E817C3F8EC2783F80C
:102F7000F0276F49C3F8001803F60C01C3F80418D2
:102F8000C3F8082883F80C286A49C3F81C1803F60C
:102F90002801C3F82018C3F8242883F82828664994
:102FA000C3F8381803F64401C3F83C18C3F84028A6
:102FB00083F844286149C3F8541803F50661C3F83F
:102FC0005818C3F85C2883F86028C3F8700803F623
:102FD0007C01C3F87418C3F8782883F87C28584912
:102FE000C3F88C1803F69801C3F89018C3F8942816
:102FF00083F898285349C3F8A81803F6B401C3F816
:10300000AC18C3F8B02883F8B4284F49C3F8C418E3
:1030100003F50D61C3F8C818C3F8CC2883F8D0288D
:103020004A49C3F8E01803F6EC01C3F8E418C3F802
:10303000E82883F8EC284649C3F8FC1803F6081181
:10304000C3F80019C3F8042983F808294149C3F8D3
:10305000181903F62411C3F81C19C3F8202983F8A2
:1030600024293D49C3F8341903F51461C3F838190C
:10307000C3F83C2983F840293849C3F8501903F6AE
:103080005C11C3F85419C3F8582983F85C293449F2
:10309000C3F86C1903F67811C3F87019C3F87429D2
:1030A00083F878292F49C3F8881903F69411C3F8D7
:1030B0008C19C3F8902983F894292B49C3F8A419D3
:1030C00003F51B61C3F8A819C3F8AC2983F8B0292C
:1030D0004CE000BFA4D40108B4D40108C0D4010856
:1030E000CCD40108D4D40108DCD40108E8D4010808
:1030F000F0D40108F8D4010800D5010810D5010862
:1031000020D501082CD5010838D501083CD5010887
:1031100040D5010848D5010850D5010858D5010807
:1031200060D5010868D5010870D5010874D501087B
:1031300078D501087CD5010880D5010888D501081B
:1031400090D501089CD50108B0D50108C4D5010867
:10315000D4D50108E4D50108FCD5010814D601082E
:103160001CD6010828D6010834D601084849C3F8FE
:10317000C01903F6CC11C3F8C419C3F8C82983F8E1
:10318000CC294449C3F8DC1903F6E811C3F8E01967
:10319000C3F8E42983F8E8293F49C3F8F81903F68E
:1031A0000421C3F8FC19C3F8002A83F8042A3B4918
:1031B000C3F8141A03F52261C3F8181AC3F81C2ABD
:1031C00083F8202A3649C3F8301A03F63C21C3F8A5
:1031D000341AC3F8382A83F83C2A3249C3F84C1A07
:1031E00003F65821C3F8501AC3F8542A83F8582A12
:1031F0002D49C3F8681A03F67421C3F86C1AC3F892
:10320000702A83F8742A2949C3F8841A03F52961BE
:10321000C3F8881AC3F88C2A83F8902A2449C3F883
:10322000A01A03F6AC21C3F8A41AC3F8A82A83F89D
:10323000AC2A2049C3F8BC1A03F6C821C3F8C01A47
:10324000C3F8C42A83F8C82A1B49C3F8D81A03F65E
:10325000E421C3F8DC1AC3F8E02A83F8E42A17490A
:10326000C3F8F41A03F53061C3F8F81AC3F8FC2A5E
:1032700083F8002B124A92E80300C3F8100BA3F85E
:10328000141B090C83F8161B1846BDE8F08100BF1B
:103290003CD6010840D6010844D6010854D601089E
:1032A00060D6010870D6010880D6010894D60108BE
:1032B000A0D60108B4D60108B8D60108BCD60108CA
:1032C00034D2010870B50646051D00F5316403E0EF
:1032D0001C3C201D18F0CEFCA542F9D1304670BD33
:1032E00010B50446114B036000F6A43017F0EAFC59
:1032F00004F53A6016F022FB04F69C3016F01EFB33
:1033000004F6983016F01AFB04F6943016F016FB0B
:1033100004F5396016F012FB04F16400FFF7D2FFE8
:10332000034B2360034B2360204610BD9CD701084C
:1033300074D701084CD7010810B50446FFF7D0FF39
:103340004FF43D61204618F041FC204610BD0000BE
:1033500038B50446043018F085F9344B2360344BFB
:1033600023600025A4F85050A4F85450A565E565E5
:10337000A4F8605084F8625004F16400FFF7A2FAE8
:103380002C4B23602C4BC4F87C3BA4F8805B4FF69D
:10339000FF72A4F8822B4FF4FC61A4F8841B4FF455
:1033A0007841A4F8861BFF21A4F8881B4FF6E07132
:1033B000A4F88A1B4CF21861A4F88C1B84F88E5B6D
:1033C000C4F8905BC4F8945BC4F8985BC4F89C5B49
:1033D000C4F8A05BC4F8A45B84F8A82B9622A4F8D8
:1033E000AA2BA4F8AC5BA4F8AE5BA4F8B05BA4F87D
:1033F000B25BC822A4F8B42B6E22A4F8B62B5A22D2
:10340000A4F8B82B3C21A4F8BA1BA4F8BC2B2022AA
:10341000A4F8BE2B1922A4F8C02B084AC4F8C42B68
:10342000C4F8C83BC4F8CC3B204638BD4CD7010893
:1034300074D701089CD701086CEE010874E10108FB
:1034400002460A4B03CBC2F81E00C2F8221003CB7F
:10345000C2F82600C2F82A1003CBC2F82E00C2F828
:1034600032106423D3861046704700BF3CD2010857
:1034700070B505460026067000F5805484F82C606F
:103480004FF48053E3850B4B23630B4B63630B4B70
:10349000A3630B4BE3630B4B236400F58650FFF7EC
:1034A000CFFF05F587501830FDF796FDC4F8FC6096
:1034B000284670BDC4D60108D0D60108DCD6010864
:1034C000E8D60108F4D6010810B50446303018F0EB
:1034D000D1FB04F1180018F0CDFB204618F0CAFB10
:1034E000204610BD134A0260002202718260828170
:1034F000026142618261C261026281600E490160C3
:1035000080F82420A0F8462080F84820C264026594
:103510004265A0F8582080F85A204FF41672A0F89F
:103520005C2040F6B831016641F288314166A0F86E
:1035300068207047F8D701087CE601080F4A02604E
:103540000022027182608281026142618261C261F5
:10355000026281600A490160012180F8241080F82C
:10356000322080F833204263826340F2DC5181874D
:10357000C2874FF41672A0F840207047F8D70108B0
:1035800098E601080E4A0260002202718260828180
:10359000026142618261C261026281600949016027
:1035A0004262826280F82C2080F82D2080F82E2044
:1035B00080F82F2080F8302003224286704700BF19
:1035C000F8D70108B4E6010810B41C4A02600022D2
:1035D000027182608281026142618261C261026223
:1035E0008160174901600621818441F28834846238
:1035F00080F82C200263426382638287C287A0F82E
:103600004020A0F84220A0F844204FF0FA0CA0F887
:1036100046C080F84820C264A0F8502080F85220AC
:10362000A0F854104FF4FA6282654FF4C871A0F804
:103630005C1002665DF8044B704700BFF8D70108C4
:10364000D0E6010810B40D4A0260002202718260C7
:103650008281026142618261C261026281600146CF
:10366000074C41F8244B42624A608A60CA600A6192
:10367000652280F838205DF8044B7047F8D70108C0
:10368000ECE60108104A0260002202718260828129
:10369000026142618261C261026281600B49016024
:1036A0008284C28480F8282080F82920012280F8B2
:1036B0002A204FF448728285C28540F2CF7202867A
:1036C000032280F832207047F8D7010840E701084C
:1036D00070B582B004461646134B03600025057191
:1036E00085608581056145618561C561056281608F
:1036F0000E4B036080F82850458501AA0C492C30F8
:1037000018F07EFD6564A564E564FF2384F85030FD
:1037100084F85150652384F852304EF66023636577
:103720006662204602B070BDF8D701085CE7010868
:10373000FCD60108124A0260002202718260828176
:10374000026142618261C261026281600D49016071
:1037500080F82420022180F82510012180F826100D
:1037600080F8272080F8282080F8292080F82A2057
:10377000C26280F8302080F8312080F83220704713
:10378000F8D7010814D8010810B50446FFF7D2FF96
:10379000144B2360082384F834300023A3630522EC
:1037A00084F83420A363E36323646364A364E36461
:1037B00023656365A4F85830012284F85A20E36534
:1037C00084F860204FF4FA73A4F8623040F2DC52BF
:1037D000A4F86420A36640F6B833A4F86C30204601
:1037E00010BD00BF28E9010810B41A4C0460002481
:1037F000047184608481046144618461C4610462F1
:103800008160154901604462012180F8281080F828
:10381000291080F82A4080F82B1080F82C1080F8AE
:103820002D4080F82E40642180F82F1080F8304021
:1038300080F8314080F8324080F8334080F83440DE
:10384000042180F83510072180F8361042625DF8B7
:10385000044B7047F8D7010804E5010810B4154C73
:103860000460002404718460848104614461846183
:10387000C4610462816010490160846280F82C4058
:1038800080F82D4080F82E40048680F8324080F881
:103890003340848680F8364080F83740022180F833
:1038A0003810062180F839107821418742625DF88E
:1038B000044B7047F8D701083CE50108014B187824
:1038C000704700BFE87E002008B502480CF080FF7A
:1038D00080B208BDDC7E00202DE9F04F87B00024C7
:1038E000A94B5C63A94D28460EF0FCFF64212846D5
:1038F0000FF0BAF828460FF01DFA87B26421284667
:103900000FF0B2F828460FF015FA1FFA80FA64217A
:1039100028460FF0A9F828460FF00CFA1FFA80FB92
:10392000642128460FF0A0F828460FF003FA05900E
:1039300028460FF079F8964D28460EF0D3FF642103
:1039400028460FF091F828460FF0F4F91FFA80F896
:10395000642128460FF088F828460FF0EBF91FFA8B
:1039600080F928460FF060F88A4B0A221A705C60D2
:1039700019784FF47A7201FB02F25A60864D2B6877
:103980001B6C283B854A1380854EBDF8143002938A
:10399000CDF804B0CDF800A04B464246394630463B
:1039A00005F09AFD074606F54056032386F8B53F15
:1039B00086F8B43F7B4E0C21304611F053FC0821B1
:1039C000304611F095FB2146284611F04BFC0421AE
:1039D000284611F047FC0821284611F089FB0C21EC
:1039E000284611F085FB21466F4811F03BFC6F4ED5
:1039F000DFF800926E4D33464A463146284609F0BC
:103A0000EBFBDFF8E881334642462946484609F099
:103A1000E3FB33462A462946404609F0DDFBDFF842
:103A2000D091C8F824902B462A462946614809F0CF
:103A3000D3FBDFF8C4812B462A4641465E4809F095
:103A4000CBFB2B462A462946404609F0C5FB2B46B0
:103A50002A462946484609F0BFFBDFF8A0812B46DD
:103A60002A462946404609F0B7FBDFF894A14346B1
:103A700042462946504609F0AFFB2B462A463146BE
:103A80004E4809F0A9FB2B462A4631464C4809F01E
:103A9000A3FB2B462A4631464A4809F09DFB2B469C
:103AA0002A463146484809F097FB2B462A463146BC
:103AB000464809F091FB2B462A462946304609F034
:103AC0008BFB434E33462A462946424809F084FB85
:103AD0002B462A462946304609F07EFB2B462A46CD
:103AE00029463D4809F078FB2B462A4649463B4883
:103AF00009F072FB434642462946504609F06CFBEA
:103B0000234622462946364809F066FB354801F02F
:103B100063FE022F1FD0032F2CD0012F17D040F2AD
:103B2000DC50FEF77FFC1E4B03F5805292F87620A6
:103B300003F54053A3F8EC22C8200EF0F9FD2A4B00
:103B4000186803681B68984707B0BDE8F08F264BDC
:103B5000264A1A60E3E7264C00224F2120460BF04C
:103B6000E9F91E4B22462146204609F035FB1E4B43
:103B70001C60D4E7002253211D480BF0DBF91A4BDF
:103B8000174A1A60CBE700BF00180040D494002009
:103B90008C940020DC7E0020F4900020D87E002051
:103BA0000C3B0020CC910020649000205C0400209D
:103BB0009C3A0020603900201C390020F03700209A
:103BC0004405002008050020D4040020A0040020A3
:103BD000A4050020D805002058060020000600207B
:103BE0007C050020A86D002000000020CC390020BA
:103BF000B4380020F4390020F0380020803800204C
:103C00001C38002038B50EF08DFD5E4B1B689842C5
:103C10004BD85D4B186809F0E3FA044618B15A4BCB
:103C20001B68834279D1584D286803685B689847C0
:103C300004462B6883422CD0002800F08B80534D23
:103C40000021284605F0A6FE002105F5C87005F004
:103C5000A1FE002105F5687005F0D2F94C4A02F585
:103C60004051002381F8B53F81F8B43F02F580420E
:103C700082F8453182F84431464A53639363424D9A
:103C8000286803689B6898472C6023681B68204657
:103C900098470EF047FD404B1B6898425CD23F4866
:103CA00001F044FD002868D138BD0EF03BFD6430C2
:103CB000344B186010213A480FF020FD012824D120
:103CC000642138480CF00DFE4FF4005136480FF0D7
:103CD00015FD01281BD1642134480CF002FE4FF47D
:103CE000805131480FF00AFD98B9642130480CF03A
:103CF000F8FD4FF400712F480FF000FD01280AD1A4
:103D000064212D480CF0EDFD83E70021D9E7002167
:103D1000E2E70021EAE70021F3E7284D2846FDF716
:103D20008DF90021A5F23C5005F034FE0021A5F5E7
:103D30006B7005F02FFE174B00225A639A63124DE9
:103D4000286803689B6898472C6023681B68204696
:103D50009847A9E71A4C72E71A494B6A1A4A106841
:103D60001B1A18BF0123194803704B6A13600EF029
:103D7000D9FC2930084B186091E705200EF0D8FCDB
:103D800092E700BF54040020000000207879002052
:103D90000C3B0020000C004058040020F86D00206F
:103DA00000080240947A002000040240247C002095
:103DB000347C002000000240347E0020B47E0020CD
:103DC000B438002000000140EC7E0020E87E002096
:103DD00010B50368174A934203D0174A93421ED086
:103DE00010BD027F042AF8D1144805F001FA6328B7
:103DF00000D963200F4B18640EF094FC0446104B5E
:103E00001B7813B10F4B1B6813B90E4B1C60E7E70F
:103E10000C4B1968411A0C480CF0C0FCF5E7037F05
:103E2000042B04D0082BDBD1FEF75CFBD8E7FEF7B0
:103E300035FBD5E700000140000C0040187D002054
:103E4000E87E0020D47E0020DC7E002038B50EF015
:103E500035FF624B1B78DBB2022B09D05F4B1B781E
:103E6000DBB2012B00F08F805C4B00221A7038BD52
:103E70005B4B1B78002B47D05A4B198889B25A48A4
:103E800005F094FE594B18801B889BB2584A128843
:103E900093422AD9574B9A6354490B889BB29B1A79
:103EA0009BB20B80544B1B889BB2524A53634D4BC1
:103EB000598889B2514804F0E5FF494A137883F0E4
:103EC000010313704B4B596A4D4A1378DBB289B228
:103ED0004C4820F8131013780133DBB21370632BB6
:103EE000C2D9134600221A70BEE7404A13889BB21B
:103EF00040498B6313889BB213B13F4B00221A8059
:103F00003A4B00221A80CDE73F4B198889B23F48CF
:103F100005F04CFE384B18801B889BB2344A12883F
:103F2000934221D9334B5A6333490B889BB29B1A76
:103F30009BB20B802D4B1B889BB22E4A9363324D54
:103F40006988334C89B220460CF028FCA988ED889A
:103F5000ADB289B204F110000CF020FC294604F146
:103F600008000CF01BFCA8E7234A13889BB22149E8
:103F70004B6313889BB213B11C4B00221A801E4B5B
:103F800000221A80D6E71B4B5B6B012B18D8194B0C
:103F90009B6B012B1BD81F4B5B6B012B7FF664AF18
:103FA0001D4B998889B21D480CF09BFC194B5B6A2C
:103FB000B3F5FA7F7FF658AF164B64225A6253E787
:103FC000154B198889B216480CF08BFCDFE7124BB1
:103FD000598889B213480CF084FCDCE7047F002088
:103FE00004000020F87E0020087B0020E47E0020F2
:103FF000D87E0020000C0040E67E0020187D0020C6
:10400000057F0020087F0020FC7E002078790020BA
:10401000B87E002000480140F07E0020247E002071
:10402000847A0020147C0020704710B50446006894
:10403000A168091A08B117F0C9FD204610BD70B576
:1040400006460468456803E02046FFF73DFA483419
:10405000A542F9D13046FFF7E8FF304670BD10B5F4
:1040600004460068A168091A08B117F0AFFD2046A0
:1040700010BD70B506460468456803E0204617F099
:10408000F9FD1834A542F9D13046FFF7E8FF304674
:1040900070BD38B50C46154605E04FF4FC7154F878
:1040A000040B17F093FDAC42F7D338BD10B50446AE
:1040B00003684BB1426A04324169FFF7EAFF616865
:1040C0008900206817F082FD204610BD2DE9F041DF
:1040D00088461746CE68043606E0204617F0CAFD2B
:1040E0001834A542F9D10436FB68B34203D93468C9
:1040F00004F5FC75F5E7D8F80C20934215D0D8F8F4
:104100000040D8F8085003E0204617F0B3FD1834FB
:10411000A542F9D17C683D6803E0204617F0AAFD6E
:104120001834A542F9D1BDE8F081D8F800403D68C7
:1041300003E0204617F09EFD1834A542F9D1F2E7BE
:1041400000B589B00B6800934B6801938B680293AC
:10415000CB6803931368049353680593936806939D
:10416000D368079304AA6946FFF7B0FF09B05DF86A
:1041700004FB10B588B0044683680093C3680193BC
:10418000036902934369039383690493C3690593A5
:10419000036A0693436A0793034604AA6946FFF736
:1041A000CFFF2046FFF782FF204608B010BD000079
:1041B00010B50446074B40F8443BFFF7DAFF04F123
:1041C0001C00FFF7D6FF201D17F054FD024B2360A3
:1041D000204610BD04E40108C4D7010810B5044608
:1041E000FFF7E6FF6C21204617F0F0FC204610BDDB
:1041F00008B5B1F1005F03D2880017F0E9FC08BDF3
:10420000B1F1804F01D317F0F7FC17F0F2FC00007A
:1042100008B5084B994205D801EB4101C80017F0D9
:10422000D7FC08BD044B994201D917F0E5FC17F003
:10423000E0FC00BF55555505AAAAAA0A70B5064666
:104240000C46154606E0002215213046FFF7E0FF38
:1042500044F8040BAC42F6D370BD00002DE9F043E6
:1042600085B004460D46254BA3FB0123CA1A03EB78
:1042700052031B095E1C08220292033303939342EC
:104280003AD80DEB020319686160002201A8FFF71C
:10429000AFFF804620606768BF1B7F0800EB87097F
:1042A00009EB8606324649462046FFF7C7FFC4F8A9
:1042B000149058F82730E36003F5FC722261321F36
:1042C000626256F8042CE26102F5FC712162A3607F
:1042D0000A4BA3FB0513E91A03EB51031B0903EB7C
:1042E0004303C3EBC303EB1A03EB430302EBC30229
:1042F000A26105B0BDE8F08303ABC4E7876118860F
:1043000010B504460021016041608160C160016117
:1043100041618161C16101624162FFF79FFF2046F7
:1043200010BD10B504462822002118F04DFB204690
:10433000FFF7E6FF204610BD10B50446094B0360A9
:104340000346094A43F80C2B436000238360037340
:104350001C30FFF7E6FF04F14400FFF7E2FF2046C0
:1043600010BD00BFC4D7010804E4010810B504461D
:10437000FFF7E2FF2346104A43F8742BE36600235D
:10438000236784F8743004F18C02C4F88420C4F8E4
:10439000883084F88C3004F1A402C4F89C20C4F85E
:1043A000A03084F8A430C4F8B430C4F8B830C4F8ED
:1043B000BC30204610BD00BF38E4010838B50446C3
:1043C00000250560858000F542502030FFF7CEFFC4
:1043D00004F54053C3F86051054AC3F86421054A07
:1043E00092E80300C3F86801A3F86C11204638BDB9
:1043F00008E9010854D2010838B5044615460A4BAD
:1044000003600023037183608381036143618361DF
:10441000C36103628160054B40F8283BFFF7CEFF84
:104420006562204638BD00BFF8D70108ACE5010839
:1044300010B5044600F501502030FFF797FF04F552
:1044400004502030FFF778FF04F50053074AC3F803
:1044500020210022C3F88C2183F89021C3F89421F5
:10446000034AC3F89821204610BD00BF6CE4010840
:1044700008E9010810B50446FEF7FAFF04F5885074
:10448000FFF7D6FF04F54A501C30FEF761FF04F534
:1044900079502C30FEF71EF904F57F503C30FEF7C2
:1044A00019F91E4904F583400C3003F028FE1C491D
:1044B00004F583404C3003F022FE04F584400C30B8
:1044C000FEF77AF904F587402830FCF785FD04F5FE
:1044D0008043082183F8AC130022C3F8B02383F88B
:1044E000AC13C3F8B02383F8B413C3F8B82383F82C
:1044F000B413C3F8B82383F8BC13C3F8C02383F8FC
:10450000BC13C3F8C02383F8C4231E2283F8C52339
:1045100040F63C72A3F8C623204610BD84910020CB
:104520003C91002010B50446064B40F8443BFFF791
:10453000A0FD04F12C0017F09DFB034B23602046E7
:1045400010BD00BF5CE70108F8D7010810B50446AC
:10455000FFF7E8FF5821204617F038FB204610BD32
:1045600010B50446064B40F8B43BFFF768FD04F174
:104570006C00FEF7A9FF2046FFF71AFE204610BD8B
:1045800038E4010810B5044600F50053074AC3F8A3
:10459000202100F504502030FFF70AFE04F50150F9
:1045A0002030FFF7DDFF204610BD00BF6CE401089E
:1045B00010B5044600F580430D4AC3F80C220D4A9D
:1045C000C3F80C2200F540530B49C3F8FC1FC3F895
:1045D000FC2FC3F86C1EC3F86C2E00F54A501C303B
:1045E000FEF77EFE04F58850FFF7CCFF204610BD95
:1045F00008E3010808D701084CE301082DE9F04F52
:1046000087B004468B46012808D024B94FF6FF73C3
:104610009B4500F05D8107B0BDE8F08F4FF6FF735A
:104620009942F2D18C4B08221A7000255D601A70F5
:104630005D608A4E3046FFF71DFF31468848FFF720
:10464000A3F8884F884A3A603D71BD60BD813D61E5
:104650007D61BD61FD613D62BE60844B3B60C7F81A
:104660009C50C7F8A05087F8A450DFF86092C9F8B2
:10467000002089F80450C9F80850A9F80C50C9F86E
:104680001050C9F81450C9F81850C9F81C50C9F88E
:104690002050C9F80860764BC9F80030C9F824509A
:1046A000DFF8248231464046FEF71CFF3146714850
:1046B000FEF744FF6F4B424631466F4808F016F84C
:1046C00031466E48FEF7BEFF31466D48FEF75AFF91
:1046D000DFF8F0A131465046FEF776FFDFF8E081C3
:1046E000614AC8F8002088F80450C8F80850A8F8B3
:1046F0000C50C8F81050C8F81450C8F81850C8F832
:104700001C50C8F82050C8F808605E4BC8F800304C
:104710005B4BC8F82430C8F828A0DFF8A0A1574A9E
:1047200031465046FFF768FE524631465648FEF77E
:10473000CFFFDFF884A14C4ACAF800208AF8045061
:10474000CAF80850AAF80C50CAF81050CAF8145009
:10475000CAF81850CAF81C50CAF82050CAF80860A5
:104760004A4BCAF80030484BCAF824303146484812
:10477000FEF788FF474B3C4A1A601D719D609D8182
:104780001D615D619D61DD611D629E60424A1A602E
:104790004FF0020183F82410424631463F48FFF7AC
:1047A00023F8DFF81081344A31464046FFF756F8C7
:1047B0003B4A2D4B19461360157195609581156123
:1047C00055619561D56115629660364B136082F82C
:1047D000285055854FF0FF0C82F82CC082F82D50E0
:1047E00082F82E50012082F82F004FF078031386B4
:1047F000214B53622C4B19601D719D609D811D6181
:104800005D619D61DD611D629E60DFF8A4E0C3F81B
:1048100000E083F8285083F829505D8583F82CC088
:1048200083F82D5083F82E004FF0020183F82F10EB
:104830004FF0780119860F495962CDF810A0039303
:104840000292CDF80480CDF80090144B3A463146E0
:10485000164807F023FFD8E6DC7E00200C3B002042
:104860009C3A0020F4390020F8D7010860E60108DE
:1048700008E701081C390020F0380020B438002077
:104880008038002090E501080006002024E7010898
:10489000A40500207C05002078E7010844050020DD
:1048A000D404002058E50108A00400205C04002086
:1048B00074E5010808050020D805002058060020EE
:1048C000F03700201C38002060390020CC3900204F
:1048D0002C4B2D4A1A602D4C1C602D4B2D4A1A6012
:1048E0001C602D4B2D4A1A601C602D4B2D4A1A60FE
:1048F0001C602D4B2D4A1A601C602D4B2D4A1A60EE
:104900001C602D4B2D4A1A601C602D4B2D4A1A60DD
:104910001C602D48FFF706FE2C4D2D4B2B602D48BB
:10492000FFF71EFE2C602C4B2C4A1A601C602C4B8F
:104930002C4A1A601C602C4B2C4A1A601C602C4BB1
:104940002C4A1A601C602C4B2C4A1A601C602C4BA1
:104950002C4A1A601C602C4B2C4A1A601C602C4B91
:104960002C4A1A601C602C4B2C4A1A601C602C4B81
:104970002C4A1A602C4A1A601C602C48FFF718FE5B
:1049800049E600BF5C040020E8E40108F8D701080C
:10499000A004002074E50108D404002058E50108B3
:1049A000080500203CE501084405002004E5010855
:1049B0007C05002078E70108A405002040E70108F5
:1049C000D805002024E70108000600205806002032
:1049D000ACE5010820370020F037002090E5010801
:1049E0001C380020D0E6010880380020B4E6010819
:1049F000B4380020ECE60108F038002020E501087A
:104A00001C39002098E60108603900207CE6010886
:104A1000CC39002008E70108F439002060E60108DD
:104A20009C3A002028E9010814D801080C3B00201A
:104A300010B50446FFF794FDC021204617F0C6F8D4
:104A4000204610BD08B54FF6FF710120FFF7D6FDD7
:104A500008BD08B54FF6FF710020FFF7CFFD08BD78
:104A6000024A0260024A0260704700BF14D801087F
:104A7000F8D7010838B504460023C362806800F502
:104A8000804393F84833003B18BF012384F830304B
:104A900000F5805393F8621000F58250043005F061
:104AA000E1F984F82700A56805F587402C300BF064
:104AB0008FFE05F58045B5F8C6339842B4BF002097
:104AC000012084F8280058B1A36803F5405393F8F7
:104AD000813F23B994F8272012B1184600E0002046
:104AE00084F82A00002384F8293040B1012384F897
:104AF0002430022384F82530032384F8263038BD7F
:104B000010B50446044B0360044B0360342117F0D6
:104B10005DF8204610BD00BF14D80108F8D7010881
:104B20002DE9F04F8BB00446029107921F4686682C
:104B300006F54A551C3590F82430002B70D1884674
:104B400094F82520002A6ED1DDF808A0002B6DD145
:104B500006F5795909F12C09D9F80030DB69484686
:104B60009847014694F824303A463046FDF79CF8C1
:104B70000190D9F800305B6948469847014694F89F
:104B800024303A463046FDF78FF80390B8F1050F10
:104B900051D0D9F800301B6A48469847059094F8E0
:104BA0002530002B50D0A36803F5844909F10C0986
:104BB000D9F80030DB6948469847014694F825301B
:104BC0003A463046FDF770F88346D9F800305B6905
:104BD00048469847014694F825303A463046FDF756
:104BE00063F80490BAF1050F34D0D9F800301B6A8D
:104BF00048469847069006F58053B3F8743003F0A2
:104C00000103099394F824306BBB94F82A3008937D
:104C1000B8F1000F2DD0B8F1080F28D0012329E0FA
:104C2000DDF81C808CE74FF0000A8FE706F57F590E
:104C300009F13C0990E794F8241006F582500430FD
:104C4000FCF7C4FD0390A4E7A36803F5795909F1C3
:104C50002C09ADE794F8251006F582500430FCF7D6
:104C6000B5FD0390C1E794F829300893D0E70023FD
:104C700000E00023019A0399A2EB01090FFA89F9D8
:104C800001224946284600F0B7FD01220599284631
:104C900001F088F8B8F1010F07D0089B5BB9B8F1B3
:104CA000000F0AD1BBB201930AE04A46012128460F
:104CB00001F02EFA01E0BBB20193B8F1070F15D055
:104CC0004FF47F0301220199284600F041FEB8F11C
:104CD000050F12D094F8243013B9B8F1040F15D091
:104CE00094F8253013BB94F82A2020E00123099A78
:104CF0000199284600F094FEE9E7A06894F8241092
:104D000000F582500430FCF761FDE9E7A06800F58A
:104D100082500430FCF7B2FEA06800F54051002339
:104D20003A46B1F8A81FFCF7BFFFD9E70022BAF155
:104D3000000F08D0BAF1080F02D04FF0010904E0CB
:104D40004FF0000901E04FF00009002B72D1BAF1D9
:104D5000010F06D072B9BAF1000F0DD11FFA87FB0F
:104D60000DE0049BABEB030212B20021284601F0D8
:104D7000CFF901E01FFA87FBBAF1070F4AD04FF4D1
:104D80007F0300225946284600F0E2FDB8F1050FE6
:104D900047D0049BABEB03014B46002209B22846E7
:104DA00000F02AFD00220699284600F0FBFF94F847
:104DB0002630032B00F09980A26802F5795808F19B
:104DC0002C0802F5405191F8B00F003818BF0120AF
:104DD000012B00F09080022B00F09B80002800F057
:104DE000B980D8F80030DB6940469847014694F80E
:104DF00026303A463046FCF757FF014694F82630F5
:104E0000029A073A18BF0122284602F08DFE0BB025
:104E1000BDE8F08F0023099A5946284600F000FEAD
:104E2000B4E7A06894F8251000F582500430FCF730
:104E3000CDFCAEE7D4F8088008F584400C3004F0CF
:104E400005F808F58048B8F88633984231D294F8CE
:104E5000303023BB1FFA87FB94F8303043B1A3688E
:104E600003F5804393F84833013BDBB2022B35D87E
:104E70004FF47F0300225946284600F069FD049B49
:104E8000ABEB030194F83030002209B2284600F061
:104E9000B3FC00220699284600F084FF87E72846E5
:104EA00000F0F2FF002184F83010284601F0B2F83B
:104EB000D0E7012384F83030A36803F5804393F8EA
:104EC0004833013BDBB2022BC6D8049BABEB030299
:104ED00012B20021284601F01BF9BDE70023099A10
:104EE0005946284600F09CFDC9E700221146284695
:104EF00002F01AFE8BE702F57F5808F13C0802F534
:104F0000804292F84001003818BF0120079B0293AD
:104F100064E702F5844808F10C0802F58042D2F8F3
:104F20000C32DB684046984788B103230293D4F8DB
:104F3000089009F584400C3003F088FF09F580499A
:104F4000B9F88633984234BF0020012046E7072392
:104F50000293ECE794F8263000221146284602F02E
:104F6000E3FD54E7F8B5856890F82530022B00D0B2
:104F7000F8BD044605F584460C36304603F066FF5E
:104F800005F58043B3F886339842F1D30DF0CAFBA0
:104F9000E36A9842ECD305F5804393F82133002B64
:104FA000E6D005F58045D5F80C32DB6930469847E8
:104FB0000746D5F80C325B6930469847A368391A22
:104FC00009B203F54A501C3000F028FF0DF0AAFB8F
:104FD0006430E062CCE700002DE9F04F87B08046F6
:104FE00093461D46BDF84060876807F58254043437
:104FF000002211462046FCF7B7F9814600221146EF
:105000002046FCF7F9F98246002202212046FCF7EF
:10501000ABF90490002202212046FCF7EDF905903F
:1050200007F58057B7F8743013F0800F2ED0234A5D
:1050300082FB0532EB17C3EB620303EB8303EB1A2E
:105040009BB2EB1A1DB21E4BA3FB06239B0803EB7E
:105050008303F31A9BB2F31A9EB20524C5B996B125
:10506000D8F8080000F583404C3031B2BBF1020F94
:105070001FD00FFA89F20FFA8AF3002502950194E6
:10508000009403F063F907B0BDE8F08F0124E5E771
:10509000D8F8080000230293019400940FFA8AF3D1
:1050A0000FFA89F2294600F583400C3003F04EF9DF
:1050B000D5E7BDF91020BDF91430DEE767666666F6
:1050C000CDCCCCCC2DE9F0478EB00446164687688F
:1050D00007F54A551C35884600294CD14FF0000A87
:1050E000002E51D14FF00009CDF800900FFA8AF34D
:1050F00094F8252094F824102046FFF76DFFB8F1AE
:10510000000F4AD1002E00F0DF8094F82520022AFB
:1051100000F09C80394608A8FCF7BAF994F82510ED
:1051200007F58650FCF7D1FC0246002308A9284663
:1051300000F09EFC08A816F09DFD284600F0C2FE77
:1051400094F8283023B194F82730002B00F0AE807B
:1051500094F83130002B00F0A980072B00F0A680D6
:10516000052B00F0B580032B40F0A48000212846D9
:1051700000F070FF9EE090F8241007F58250043094
:10518000FCF72DFB8246ABE794F8251007F582501B
:105190000430FCF724FB8146A6E794F82420394626
:1051A00002A8FCF775F994F8241007F58650FCF76F
:1051B0008CFC0246012302A9284600F059FC02A8F3
:1051C00016F058FD01225146284602F097FC0122B4
:1051D0000021284600F086FE94F824303BB994F86C
:1051E0002820FAB194F8271011B1002200E0002223
:1051F000D3B994F83130D2B9072B83D801A252F831
:1052000023F000BF2F520008055100080551000887
:1052100043520008055100083952000805510008A2
:105220002F5200080022E3E794F83230E3E701212F
:10523000284600F0EFFE65E70121284600F04AFF0E
:1052400060E70121284600F005FF5BE7A06804F055
:10525000A9FA07B2A06800F58053B3F8748008F08B
:10526000010800F584400C3003F01FFE01460022C7
:10527000284600F06BFC42463946284600F0CEFC3A
:10528000284600F001FEA36803F5804393F84833F5
:10529000013BDBB2022B04D80021284600F0CAFEF5
:1052A00008E00021284600F0B5FE03E00021284672
:1052B00000F0B0FE00224946284602F01FFC002301
:1052C00084F83030E362B04640460EB0BDE8F08767
:1052D0000121284600F0FEFEECE700BF10B50123D7
:1052E00080F8263090F828305BB1826802F5405291
:1052F00092F8812F22B990F8274014B1134600E0AC
:10530000002380F82A30012915D0022918D0022361
:10531000002190F824C090F8252080F8241080F80F
:105320002530D21A18BF0122BCEB010118BF0121A0
:10533000FFF7C8FE10BD022380F826300023E8E7FF
:105340002BB1032380F826300B460121E1E700232F
:10535000F8E708B590F82430012B13D090F82A30E4
:1053600043B9836803F5804393F84833013BDBB2CC
:10537000022B03D80221FFF7B1FF08BD0121FFF77F
:10538000ADFFFAE70020F8E708B590F82430012BCC
:105390001DD190F82A3093B9826802F5804393F8C2
:1053A0004031DBB2022B0ED002F5804292F8403140
:1053B000DBB2012B07D00021FFF790FF08E00221AC
:1053C000FFF78CFF04E00121FFF788FF00E00020D9
:1053D00008BD08B590F82530022B24D090F829306C
:1053E000ABB990F82A30B3B9826802F5804393F8DC
:1053F0004031DBB2022B12D002F5804292F84031EC
:10540000DBB2012B0BD00021FFF768FF02E0002187
:10541000FFF764FF08BD0221FFF760FFFAE70221F2
:10542000FFF75CFFF6E70020F4E708B590F82530B9
:10543000022B24D190F82930ABB990F82A30B3B9B7
:10544000826802F5804393F84031DBB2022B12D020
:1054500002F5804292F84031DBB2012B0BD00021E3
:10546000FFF73CFF0CE00021FFF738FF08E00221C6
:10547000FFF734FF04E00121FFF730FF00E00020D8
:1054800008BD08B590F8243003B390F82530FBB17F
:1054900090F8293093B9826802F5804393F840313F
:1054A000DBB2022B0ED002F5804292F84031DBB223
:1054B000012B07D00021FFF711FF08E00021FFF7C3
:1054C0000DFF04E00121FFF709FF00E0002008BD07
:1054D0000020FCE708B590F8243053B190F825304F
:1054E0005BB190F8263063B9032380F826300020A2
:1054F00002E00221FFF7F2FE08BD0221FFF7EEFEF7
:10550000FAE70020F8E790F824308B4205D090F8B5
:1055100025308B4203D003207047012070470020C4
:10552000704738B505460C460021FFF7ECFF0246F0
:10553000A868214600F54A501C3000F0D3FC38BD65
:1055400070B506461446FFF7DEFF032824D0054653
:10555000B66806F54A561C36621E072A27D8DFE8C9
:1055600002F004090E13171C26210146304600F0F4
:1055700061FD11E00146304600F08CFD0CE0014673
:10558000304600F067FD07E00146304600F0B0FD10
:105590002946304600F09EFD70BD0146304600F0C1
:1055A00089FDF9E70146304600F064FDF4E7014665
:1055B000304600F02FFDEFE738B505461446FFF7FB
:1055C000A2FF032807D00246A868214600F54A50EA
:1055D0001C3002F093FA38BD38B590F82530022B14
:1055E00000D038BD0C46856805F584400C3003F0CA
:1055F0005CFC0146224605F54A501C3000F0A6FA34
:10560000EFE708B590F82530022B00D008BD806880
:1056100000F54A501C3000F08FFBF7E710B584B05E
:1056200094460A68511D62B112889DF81C4002948C
:10563000BDF8184001940093634615F0C7FF04B00D
:1056400010BD0022F1E738B5054616F01BF80446F8
:10565000284616F01FF8201A00B238BD38B50546A6
:1056600016F010F80446284616F014F8204400B24C
:1056700038BD30B585B0084611461A46099B1B68EF
:105680005C1D73B11B88BDF82C500395BDF82850E4
:10569000029501930094BDF8203014F0C1FE05B0CE
:1056A00030BD0023EFE730B585B0084611461C68D1
:1056B0007CB122887CB163880534BDF82450039501
:1056C000BDF8205002950192009414F0A9FE05B097
:1056D00030BD0022EEE70023EEE72DE9F04385B070
:1056E0000D4616461F460D980468C4B104F107081C
:1056F000BCB1B4F80090BCB1647915F061FB0390C3
:105700000294CDF80490CDF80080BDF830303A46D0
:105710003146284614F0F2FE05B0BDE8F083A046FD
:10572000E6E74FF00009E6E70024E6E70288124BBF
:105730001B68596B8A4204D8596B8A420ED30020E9
:105740007047596B521A042A04D95A6B04325A63AF
:10575000012070475A6B01325A63F9E7596B8A1A74
:10576000042A04D95A6B043A5A63012070475A6BD1
:10577000013A5A63F9E700BF1C90002070B582B06F
:105780000446F9B1C4F87C1B261DD4F87C1B3046B6
:1057900015F08BFE304615F075FF85B20D49304689
:1057A00015F004FF811C2A4689B201A814F092F872
:1057B00001A904F6943014F0AAF801A814F0BEF878
:1057C00002B070BDD0F8CC3BC0F87C3B002380F821
:1057D0006430D9E728D8010808B5064B1B680022B9
:1057E0005A63FF2380F8A83BB0F8800B14F020FA2E
:1057F00008BD00BF1C9000202DE9F04F85B002913C
:10580000012A7CD804461F467CD0B0F8AA5BD4F8A5
:10581000943B002B79D01E8806F1140A1FFA8AFAED
:10582000D4F8903B002B72D05B88DBB2039306F177
:1058300017081FFA88F8B4F8823B0322294640462D
:1058400014F01BFBBDF80C90B4F8823B4A46294685
:10585000504614F0A0FA06F11A00B4F8823B4A460A
:10586000294680B214F097FA05EB090A1FFA8AFA62
:105870000AF1050B1FFA8BFBB4F8823B082259464C
:10588000404614F0FAFA002F43D0B4F8863B0722C2
:105890005946404614F042FB06F1110005F109019A
:1058A000B4F8823B009303231A4689B280B214F005
:1058B00085F91536B6B2B4F8803B00934B46052205
:1058C0002946304614F07AF90A226FF063010298F3
:1058D0000BF0FDFB034600B2002820DD9BB2E91A65
:1058E00089B20A3189B24B449BB20A3B9BB29FB149
:1058F000B4F8862B00920522304614F05FF905B00B
:10590000BDE8F08FB0F8BA5B81E7002684E700239A
:105910008BE7B4F8803BBAE7B4F8802BEAE7039B47
:105920000A3B0093012300226FF063010BF0D8FBC8
:10593000C3B2AAEB030189B23FB1B4F8862B00923F
:105940000522304614F03AF9D9E7B4F8802BF6E78F
:10595000012A62D82DE9F04385B0054617461E4658
:10596000B1F57A7F01D340F2E7310A462B4902A80C
:1059700016F0E0FF2C1DD5F8C41B204615F095FD50
:105980000221204615F0A1FD05F53968404613F0C7
:10599000E6FF002301930093012302AA414620461B
:1059A000FFF73CFE14F040F8D5F8903B03B31B889A
:1059B000C41AA4B2143CA4B214F036F8814614F010
:1059C00039F8814516D8012F22D0B5F8AA2BB5F8A1
:1059D000803BB6F5803F1ED3B5F8826B01960093ED
:1059E000434621462846FFF75EFE05B0BDE8F0833A
:1059F0000023DDE714F018F8D5F8903B33B11B888D
:105A0000C41AC4F34F043234A4B2DCE70023F7E72E
:105A1000B5F8BA2BDBE7B6B2E0E770472CD801083F
:105A20002DE9F04182B005460C461E46DAB1282722
:105A30004FF05A084246394620460BF048FB0023F7
:105A4000009355234246394680B20BF049FBC0B261
:105A500014F050F80346324621462846FFF778FFF7
:105A600002B0BDE8F08150274FF0B408E2E7000033
:105A70002DE9F04F87B00592012B02D907B0BDE8A0
:105A8000F08F04460F461D4600F1040AD0F87C1B37
:105A9000504615F00AFD504615F0F4FD1FFA80F946
:105AA0003968504615F082FD8346012D2DD1002620
:105AB000B4F8803B00934B46B4F8B42B3146002039
:105AC00014F07CF8B4F8B48BD84524D9A8EB0B08B3
:105AD000C8F34F084E44B6B2B4F8823B00933B681B
