:020000040800F2
:1000000000000220912C0108A1150108A315010888
:10001000A5150108A7150108A91501080000000091
:10002000000000000000000000000000AB15010807
:10003000AD15010800000000AF150108B115010859
:10004000E12C0108E12C0108E12C0108E12C010858
:10005000E12C0108E12C0108E12C0108E12C010848
:10006000E12C0108E12C0108E12C0108E12C010838
:10007000E12C0108E12C0108E12C0108E12C010828
:10008000E12C0108E12C0108E12C0108E12C010818
:10009000E12C0108E12C0108E12C0108E12C010808
:1000A000E12C0108B9150108E12C0108E12C010837
:1000B000E12C0108E12C0108E12C0108E12C0108E8
:1000C000E12C0108E12C0108E12C0108E12C0108D8
:1000D000E12C0108E12C0108E12C0108E12C0108C8
:1000E000E12C0108E12C0108E12C0108E12C0108B8
:1000F000E12C0108E12C0108E12C0108E12C0108A8
:10010000E12C0108E12C0108D1150108E12C0108BE
:10011000E12C0108E12C0108E12C0108E11501089E
:10012000F115010801160108111601082116010830
:10013000311601080000000000000000E12C010859
:10014000E12C0108E12C0108E12C0108E12C010857
:10015000E12C0108E12C0108E12C0108E12C010847
:10016000E12C0108E12C0108E12C0108E12C010837
:10017000E12C0108E12C0108E12C0108000000003D
:1001800000000000E12C0108000000000000000059
:10019000E12C01080000000000000000E12C010833
:1001A000000000000000000000000000E12C010839
:1001B000E12C0108E12C0108E12C0108E12C0108E7
:0401C000E12C010825
:1001D00010B5054C237833B9044B13B10448AFF381
:1001E00000800123237010BD3804002000000000AF
:1001F000E0DD010808B5034B1BB103490348AFF329
:10020000008008BD000000003C040020E0DD010883
:1002100010F8012B11F8013B012A28BF9A42F7D0B0
:10022000D01A70470000000000000000000000002D
:1002300001F0FF01102A2BDB10F0070F08D010F897
:10024000013B013A8B422DD010F0070F42B3F6D19B
:10025000F0B441EA012141EA014122F007047FF0B4
:1002600000070023F0E80256083C85EA010586EA0B
:10027000010685FA47F5A3FA87F586FA47F6A5FA47
:1002800087F68EB9EED1F0BC01F0FF0102F0070253
:1002900032B110F8013B013A83EA010313B1F8D1FE
:1002A0000020704701387047002D06BF35460338DF
:1002B000073815F0010F07D1013015F4807F02BF18
:1002C000013015F4C03F0130F0BC0138704700BF69
:1002D000034613F8012B002AFBD1181A0138704786
:1002E00081F0004102E000BF83F0004330B54FEAE7
:1002F00041044FEA430594EA050F08BF90EA020F54
:100300001FBF54EA000C55EA020C7FEA645C7FEAE6
:10031000655C00F0E2804FEA5454D4EB5555B8BF09
:100320006D420CDD2C4480EA020281EA030382EA7A
:10033000000083EA010180EA020281EA0303362D0C
:1003400088BF30BD11F0004F4FEA01314FF4801CDF
:100350004CEA113102D0404261EB410113F0004FF1
:100360004FEA03334CEA133302D0524263EB4303A8
:1003700094EA050F00F0A780A4F10104D5F1200E46
:100380000DDB02FA0EFC22FA05F2801841F10001A1
:1003900003FA0EF2801843FA05F359410EE0A5F175
:1003A00020050EF1200E012A03FA0EFC28BF4CF0A6
:1003B000020C43FA05F3C01851EBE37101F000455C
:1003C00007D54FF0000EDCF1000C7EEB00006EEB69
:1003D0000101B1F5801F1BD3B1F5001F0CD34908F3
:1003E0005FEA30004FEA3C0C04F101044FEA44524A
:1003F00012F5800F80F09A80BCF1004F08BF5FEAD1
:10040000500C50F1000041EB045141EA050130BDB0
:100410005FEA4C0C404141EB0101013C28BFB1F5C2
:10042000801FE9D291F0000F04BF01460020B1FA0D
:1004300081F308BF2033A3F10B03B3F120020CDAE0
:100440000C3208DD02F1140CC2F10C0201FA0CF0BE
:1004500021FA02F10CE002F11402D8BFC2F1200C23
:1004600001FA02F120FA0CFCDCBF41EA0C019040D9
:10047000E41AA2BF01EB0451294330BD6FEA040422
:100480001F3C1CDA0C340EDC04F11404C4F120020D
:1004900020FA04F001FA02F340EA030021FA04F31F
:1004A00045EA030130BDC4F10C04C4F1200220FA76
:1004B00002F001FA04F340EA0300294630BD21FAB4
:1004C00004F0294630BD94F0000F83F4801306BF7A
:1004D00081F480110134013D4EE77FEA645C18BF6E
:1004E0007FEA655C29D094EA050F08BF90EA020F05
:1004F00005D054EA000C04BF1946104630BD91EAFD
:10050000030F1EBF0021002030BD5FEA545C05D1FF
:100510004000494128BF41F0004130BD14F580043E
:100520003CBF01F5801130BD01F0004545F0FE41B2
:1005300041F470014FF0000030BD7FEA645C1ABFE7
:10054000194610467FEA655C1CBF0B46024650EA1E
:10055000013406BF52EA033591EA030F41F400214A
:1005600030BD00BF90F0000F04BF0021704730B5D0
:100570004FF4806404F132044FF000054FF00001A5
:1005800050E700BF90F0000F04BF0021704730B566
:100590004FF4806404F1320410F0004548BF40423B
:1005A0004FF000013EE700BF42004FEAE2014FEA90
:1005B00031014FEA02701FBF12F07F4393F07F4F6B
:1005C00081F06051704732F07F4208BF704793F06E
:1005D0007F4F04BF41F40021704730B54FF4607481
:1005E00001F0004521F000411CE700BF50EA010284
:1005F00008BF704730B54FF000050AE050EA01022D
:1006000008BF704730B511F0004502D5404261EB9C
:1006100041014FF4806404F132045FEA915C3FF4DD
:10062000D8AE4FF003025FEADC0C18BF03325FEA7A
:10063000DC0C18BF033202EBDC02C2F1200300FA2B
:1006400003FC20FA02F001FA03FE40EA0E0021FA50
:1006500002F11444BDE600BF70B54FF0FF0C4CF43E
:10066000E06C1CEA11541DBF1CEA135594EA0C0FF0
:1006700095EA0C0F00F0DEF82C4481EA030621EA2B
:100680004C5123EA4C5350EA013518BF52EA033566
:1006900041F4801143F4801338D0A0FB02CE4FF018
:1006A0000005E1FB02E506F00042E0FB03E54FF048
:1006B0000006E1FB03569CF0000F18BF4EF0010E40
:1006C000A4F1FF04B6F5007F64F5407404D25FEA3C
:1006D0004E0E6D4146EB060642EAC62141EA5551EF
:1006E0004FEAC52040EA5E504FEACE2EB4F1FD0C31
:1006F00088BFBCF5E06F1ED8BEF1004F08BF5FEAAF
:10070000500E50F1000041EB045170BD06F0004660
:1007100046EA010140EA020081EA0301B4EB5C040D
:10072000C2BFD4EB0C0541EA045170BD41F4801105
:100730004FF0000E013C00F3AB8014F1360FDEBF2A
:10074000002001F0004170BDC4F10004203C35DA06
:100750000C341BDC04F11404C4F1200500FA05F389
:1007600020FA04F001FA05F240EA020001F000422A
:1007700021F0004110EBD37021FA04F642EB0601A0
:100780005EEA430E08BF20EAD37070BDC4F10C04CA
:10079000C4F1200500FA04F320FA05F001FA04F28E
:1007A00040EA020001F0004110EBD37041F100017A
:1007B0005EEA430E08BF20EAD37070BDC4F1200585
:1007C00000FA05F24EEA020E20FA04F301FA05F2ED
:1007D00043EA020321FA04F001F0004121FA04F295
:1007E00020EA020000EBD3705EEA430E08BF20EA65
:1007F000D37070BD94F0000F0FD101F0004640009F
:1008000041EB010111F4801F08BF013CF7D041EA20
:10081000060195F0000F18BF704703F00046520024
:1008200043EB030313F4801F08BF013DF7D043EAF5
:100830000603704794EA0C0F0CEA135518BF95EAAB
:100840000C0F0CD050EA410618BF52EA4306D1D132
:1008500081EA030101F000414FF0000070BD50EA51
:10086000410606BF1046194652EA430619D094EADB
:100870000C0F02D150EA013613D195EA0C0F05D1C5
:1008800052EA03361CBF104619460AD181EA030119
:1008900001F0004141F0FE4141F470014FF00000D1
:1008A00070BD41F0FE4141F4780170BD70B54FF06C
:1008B000FF0C4CF4E06C1CEA11541DBF1CEA1355EC
:1008C00094EA0C0F95EA0C0F00F0A7F8A4EB0504CE
:1008D00081EA030E52EA03354FEA013100F08880C5
:1008E0004FEA03334FF0805545EA131343EA12638E
:1008F0004FEA022245EA111545EA10654FEA002643
:100900000EF000419D4208BF964244F1FD0404F5FB
:10091000407402D25B084FEA3202B61A65EB030557
:100920005B084FEA32024FF480104FF4002CB6EB14
:10093000020E75EB030E22BFB61A754640EA0C0094
:100940005B084FEA3202B6EB020E75EB030E22BFD4
:10095000B61A754640EA5C005B084FEA3202B6EB15
:10096000020E75EB030E22BFB61A754640EA9C00D4
:100970005B084FEA3202B6EB020E75EB030E22BFA4
:10098000B61A754640EADC0055EA060E18D04FEA62
:10099000051545EA16754FEA06164FEAC30343EA02
:1009A00052734FEAC2025FEA1C1CC0D111F4801FCF
:1009B0000BD141EA00014FF000004FF0004CB6E7C8
:1009C00011F4801F04BF01430020B4F1FD0C88BF67
:1009D000BCF5E06F3FF6AFAEB5EB030C04BFB6EB72
:1009E000020C5FEA500C50F1000041EB045170BD65
:1009F0000EF0004E4EEA113114EB5C04C2BFD4EB92
:100A00000C0541EA045170BD41F480114FF0000E15
:100A1000013C90E645EA060E8DE60CEA135594EA91
:100A20000C0F08BF95EA0C0F3FF43BAF94EA0C0F94
:100A30000AD150EA01347FF434AF95EA0C0F7FF409
:100A400025AF104619462CE795EA0C0F06D152EA5D
:100A500003353FF4FDAE1046194622E750EA410641
:100A600018BF52EA43067FF4C5AE50EA41047FF452
:100A70000DAF52EA43057FF4EBAE12E74FF0FF3CB7
:100A800006E000BF4FF0010C02E000BF4FF0010C88
:100A90004DF804CD4FEA410C7FEA6C5C4FEA430C01
:100AA00018BF7FEA6C5C1BD001B050EA410C0CBF50
:100AB00052EA430C91EA030F02BF90EA020F0020B2
:100AC000704710F1000F91EA030F58BF994208BF19
:100AD00090422CBFD8176FEAE37040F001007047D6
:100AE0004FEA410C7FEA6C5C02D150EA013C07D12D
:100AF0004FEA430C7FEA6C5CD6D152EA033CD3D078
:100B00005DF8040B704700BF8446104662468C4671
:100B10001946634600E000BF01B5FFF7B7FF0028A4
:100B200048BF10F1000F01BD4DF808EDFFF7F4FFCD
:100B30000CBF012000205DF808FB00BF4DF808ED58
:100B4000FFF7EAFF34BF012000205DF808FB00BF7B
:100B50004DF808EDFFF7E0FF94BF012000205DF89D
:100B600008FB00BF4DF808EDFFF7CEFF94BF012052
:100B700000205DF808FB00BF4DF808EDFFF7C4FF4B
:100B800034BF012000205DF808FB00BF4FEA410C94
:100B90007FEA6C5C02D150EA013C0AD14FEA430C77
:100BA0007FEA6C5C02D152EA033C02D14FF00000B4
:100BB00070474FF0010070474FEA410212F50012F2
:100BC00015D211D56FF47873B3EB625212D94FEA94
:100BD000C12343F0004343EA505311F0004F23FA7E
:100BE00002F018BF404270474FF00000704750EAD3
:100BF000013005D111F0004008BF6FF00040704790
:100C00004FF00000704700BF4A0011D212F50012E9
:100C100011D20DD56FF47873B3EB62520ED44FEA54
:100C2000C12343F0004343EA505323FA02F07047D4
:100C30004FF00000704750EA013002D14FF0FF3012
:100C400070474FF0000070474FEA4102B2F1E043B5
:100C500024BFB3F5001CDCF1FE5C0DD901F0004CA3
:100C60004FEAC0024CEA5070B2F1004F40EB8300F3
:100C700008BF20F00100704711F0804F21D113F11F
:100C80003872BCBF01F00040704741F480114FEA58
:100C90005252C2F11802C2F1200C10FA0CF320FAE1
:100CA00002F018BF40F001004FEAC1234FEAD323FE
:100CB00003FA0CFC40EA0C0023FA02F34FEA430368
:100CC000CCE77FEA625307D150EA01331EBF4FF0F1
:100CD000FE4040F44000704701F0004040F0FE400C
:100CE00040F40000704700BF53B94AB9002908BF5B
:100CF00000281CBF4FF0FF314FF0FF3000F06AB901
:100D0000ADF1080C6DE904CE00F006F8DDF804E062
:100D1000DDE9022304B070472DE9F047089D0C4639
:100D2000002B4ED194468C458646B2FA82F262D9A7
:100D30004AB1C2F12003914020FA03F30CFA02FCFD
:100D4000194300FA02FE4FEA1C471FFA8CF6B1FB6A
:100D5000F7F44FEA1E4307FB141143EA014304FB77
:100D600006F199420AD91CEB030304F1FF3080F02D
:100D70001281994240F20F81023C6344591A1FFAD2
:100D80008EF3B1FBF7F007FB101143EA014300FBC0
:100D900006F69E420AD91CEB030300F1FF3180F0F6
:100DA000FC809E4240F2F980634402389B1B40EA7B
:100DB000044000211DB1D3400022C5E90032BDE846
:100DC000F0878B4205D90DB1C5E900010021084625
:100DD000F5E7B3FA83F1002946D1A34202D390424A
:100DE000C0F0F080861A64EB03030120002DE6D0EA
:100DF000C5E90063E3E7002A40F09080A1EB0C0412
:100E00004FEA1C481FFA8CF70121B4FBF8F64FEAB1
:100E10001E4308FB164443EA044307FB06F09842CE
:100E200008D91CEB030306F1FF3402D2984200F20A
:100E3000CD8026461C1A1FFA8EF3B4FBF8F008FB8F
:100E4000104443EA044300FB07F79F4208D91CEB18
:100E5000030300F1FF3402D29F4200F2B08020462B
:100E6000DB1B40EA0640A5E7C1F120068B4022FAD1
:100E700006F71F4320FA06FC04FA01F343EA0C03C9
:100E8000F44000FA01F8380C4FEA1349B4FBF0FEC5
:100E90001FFA87FC00FB1E4449EA04440EFB0CF9D0
:100EA000A14502FA01F20AD93C190EF1FF3A80F08D
:100EB0008480A14540F28180AEF1020E3C44A4EB57
:100EC00009041FFA83F9B4FBF0F300FB134449EA69
:100ED000044403FB0CFCA44507D93C1903F1FF3083
:100EE00067D2A44565D9023B3C4443EA0E40A0FBCF
:100EF0000293A4EB0C049C42CE469C4651D34ED0A8
:100F000055B1B8EB0E0364EB0C0404FA06F6CB40C3
:100F10001E43CC40C5E90064002150E7C2F1200324
:100F200020FA03F10CFA02FC24FA03F394400C4378
:100F30004FEA1C4800FA02FE1FFA8CF7B3FBF8F0E8
:100F400008FB1031230C43EA014300FB07F19942EF
:100F500008D91CEB030300F1FF362CD299422AD9A1
:100F6000023863445B1AA4B2B3FBF8F108FB1133F7
:100F700044EA034401FB07F3A34208D91CEB040431
:100F800001F1FF3613D2A34211D902396444E41AA5
:100F900041EA004139E70446F0E6084606E7C8455D
:100FA000AED2B9EB020E63EB070C0138A8E731466D
:100FB000EDE7034699E73046D4E7D6467FE763443A
:100FC00002384DE70646234608460FE7023E6344D3
:100FD00030E700BF704700BF08B5436803B108BDE4
:100FE00041600021034814F0D1FD034814F040F89B
:100FF000F5E700BF049300204C93002008B5037868
:1010000003B908BD00F10801FFF7E6FFF9E708B5ED
:10101000037803B908BD00F11001FFF7DDFFF9E720
:1010200008B5037803B908BD00F12001FFF7D4FF2C
:10103000F9E708B5037803B908BD00F12801FFF707
:10104000CBFFF9E738B543689A1C4260194631F87E
:10105000042B41605B8853B10C490968501EC8627B
:1010600052084A630A4A1268013BD36238BD0446FB
:10107000064D0021284614F00BFE054814F03CF8FC
:101080002A68002353636360F0E700BF04930020E5
:101090004C93002019B1012906D00020704700F5BB
:1010A000805090F86000704700F5805090F8620022
:1010B000704708B582B90A6800F58053A3F8462046
:1010C0004A68A3F848208A68A3F84A2000F58251AC
:1010D000043107F007FD08BD022A0BD00A6800F5AD
:1010E0008053A3F84C204A68A3F84E208A68A3F8DE
:1010F0005020EBE70A6800F58053A3F852204A68B5
:10110000A3F854208A68A3F85620DFE72DE9F843B6
:101110000C4611B92046BDE8F883814600F5825798
:101120000437384608F0FCFFA0428CBF0026012699
:101130002146384608F0F6FF00B10326384608F08D
:10114000EFFF451EEDB2012E1DD0032E25D0012646
:1011500009F58053D3F83C31002B52D03746A846CE
:101160002A463146204610F0BAFAC4B209F5805931
:10117000D9F83C21204602EB44035B7813F0010FC1
:10118000C8D1234619E0384608F0CAFF064638465B
:1011900008F0C4FF8519EDB2DAE7384608F0C0FF61
:1011A0000646384608F0BAFF0644F6B2384608F05C
:1011B000B3FF0546CCE7013BDBB29E4205D802EB0C
:1011C0004301497811F0010FF5D0A54208D302EB95
:1011D0004401497811F0010F02D10134E4B2F4E77F
:1011E000013FBB4207D0A5420DD0C21A201A82424D
:1011F00090DA1C468EE708F1010844458AD134464E
:1012000088E7344686E71C4684E700002DE9F84F5E
:1012100005460C46B1F802808F88CE884B8B13F0C0
:10122000010F43D0314BB3F800A0314BB3F800B0FD
:101230005A465146404610F052FA80461FFA80F94D
:101240005A465146384610F04AFA07461FFA80FAC5
:10125000284B1A88284B1988304610F040FA064669
:1012600080B2638B13F0010F2FD0A4F80290A4F882
:1012700004A0E080237C1E2B01D91E232374237D30
:101280001E2B01D91E232375217A2846FFF73EFF26
:101290002081A17A2846FFF739FF6081FF220A21C9
:1012A000207F10F01CFA2077BDE8F88F0FFA88F045
:1012B00010F062FA1FFA80F838B210F05DFA87B2C7
:1012C00030B210F059FA86B2ACE70FFA88F010F09D
:1012D00045FA1FFA80F938B210F040FA1FFA80FA86
:1012E00030B210F03BFA80B2BFE700BF2AF5010828
:1012F00026F5010822F5010824F5010808B5034682
:10130000022907D00D4908881AB9DB8D13F0010FA7
:1013100003D008BD0A490888F6E700B210F01EFAAB
:1013200080B2084BA3FB0023DB0803EB8303A0EB95
:1013300043039BB2C01A80B2EBE700BF2AF5010855
:1013400024F50108CDCCCCCC08B50F480088012984
:1013500001D93AB108BD13B10C4B1888F9E70C4B11
:101360001888F6E700B210F0F9F980B2094BA3FB38
:101370000023DB0803EB8303A0EB43039BB2C01AFB
:1013800080B20A3080B2E5E722F5010828F50108AD
:1013900026F50108CDCCCCCC08B522B9C38D13F00D
:1013A000010F00D00122C38DC3F34023FFF7CCFF10
:1013B00008BD0000F0B589B00646174601F5825415
:1013C00004341146204608F0B7FE05466B46052258
:1013D000014630461BF0E2FCBDB117B12B784E2B15
:1013E00002D1304609B0F0BD204608F099FEB8425F
:1013F00005D90C4A002130461BF010FCF1E70A4ADF
:10140000002130461BF00AFCEBE707AA074901A8B8
:101410001BF0D8FC01A930461BF0ACFA01A81BF068
:101420000BFADEE7C0DE0108C8DE0108D0DE0108E5
:1014300010B5044642B901F5805393F86020204668
:10144000FFF7B8FF204610BD012A01D00022F6E7C1
:1014500001F5805393F86220F1E72DE9F04F89B050
:101460000746904699469DF848A09DF84CB000F577
:101470008053D3F83C0170B14C1E032313E003EBFF
:10148000430208EB8202002191700133DBB24B452D
:10149000F5D3002077E00023F9E7013B13F0FF03C9
:1014A0000DD0013C24B2002C09DDBAF1000FF4D0BC
:1014B00000EB4402527812F0010FF2D0EDE7002C5D
:1014C0005EDB002626E0BBF1000F3CD0BBF1010F34
:1014D00040D006EB460308EB8305E2B208F8232070
:1014E00007F58053D3F83C3103EB44035B786B7012
:1014F000394602A8FFF75EFF0A220299A81C1CF0D9
:101500005FF80136F6B24E452BD202A81BF094F9D3
:10151000013424B2019407F582550435284608F0B9
:10152000FBFD844220DA002CF2D0BAF1000FCAD0C1
:1015300007F58053D3F83C3103EB44035B7813F099
:10154000010FC0D1E4E7284608F0EAFD019B98426C
:10155000BFDC09E0284608F0E3FD019B9842B8DDB6
:10156000D6E702A81BF068F933464B450AD203EBD5
:10157000430208EB8202002191700133DBB2F4E7F1
:1015800000249EE7304609B0BDE8F08F08B5C28A56
:10159000B0F848309A425AD1028BB0F84A309A4299
:1015A00057D1428BB0F84C309A4254D190F8252054
:1015B00090F857309A4250D1028CB0F852309A428B
:1015C0004DD190F8222090F854309A4249D1828B24
:1015D000B0F84E309A4246D1C28BB0F850309A42A1
:1015E00043D190F8242090F856309A423FD1C28CD3
:1015F000B0F858309A423CD190F8282090F85A30F0
:101600009A4238D1C28DB0F860309A4235D190F804
:10161000232090F855309A4231D190F8302090F83C
:1016200062309A422DD1428DB0F85C309A422AD174
:1016300090F82C2090F85E309A4226D1142200F1C6
:10164000640132301BF0AAFF08BB012000E000203B
:1016500008BD0020FCE70020FAE70020F8E70020A2
:10166000F6E70020F4E70020F2E70020F0E7002092
:10167000EEE70020ECE70020EAE70020E8E70020A2
:10168000E6E70020E4E70020E2E70020E0E70020B2
:10169000DEE7000038B50446EB23C3820383C8238A
:1016A00043831E2380F82530052280F82420B423AC
:1016B000038480F82220C38480F82820B322C285C6
:1016C000502280F82320802280F83020012580F8E5
:1016D0003150002280F82C204385142204493230F6
:1016E0001BF06EFFA583204608F01AFDE08338BD8D
:1016F00010F5010840F6FC0343803223838040F25A
:10170000DF23C38040F2C75303813B23438140F270
:10171000FB1383816423C38120230382C323438279
:10172000704710B5044652B1022A0FD040F2A463AC
:1017300003224FF4FA710EF0A1FD204610BDC8231C
:101740000A2240F23F210EF099FDF6E732234022B3
:1017500096210EF093FDF0E700B583B0C38D13F42E
:10176000806F0ED000F17C035A8800921B8864229F
:10177000002190F825000FF0BBFF80B203B05DF8A8
:1017800004FB00F17803EFE7C38D13F4806F02D000
:101790007C30008870477830FBE7C38D13F4806F8E
:1017A00002D07C30408870477830FBE7012903D0B5
:1017B00029B990F82400704790F82800704790F8F5
:1017C0002C007047012902D019B9008C7047C08CD9
:1017D0007047408D7047022903D0012903D0C08A89
:1017E0007047408B7047008B7047000010B504466F
:1017F00090F8323013B104F1320010BD14220249C6
:1018000032301BF0DDFEF6E710F501082DE9F84F48
:1018100004460F4615461E469DF828B09DF82CA09C
:101820009DF830909DF83480C38D03F001039342FE
:1018300010D0002A49D0B0F916000FF09DFFE082C9
:10184000B4F918000FF098FF2083B4F91A000FF0D4
:1018500093FF6083E38D03F00C03E38515B143F040
:101860000103E3851FB1E38D43F00203E3851EB15D
:10187000E38D43F08003E385BBF1000F03D0E38DDC
:1018800043F01003E385BAF1000F03D0E38D43F07A
:101890002003E385B9F1000F03D0E38D43F4807397
:1018A000E385B8F1000F03D0E38D43F40073E385C3
:1018B000FF2201219DF838000FF011FF84F830005D
:1018C000B8F1000F11D1BDE8F88FB0F916000FF094
:1018D00045FFE082B4F918000FF040FF2083B4F90F
:1018E0001A000FF03BFF6083B4E700221146204648
:1018F000FFF752FDE38A834200D9E082238B8342C3
:10190000E1D92083DFE7000000B59DF80CC0BDF8E9
:1019100010E080F82430BDF8043003849DF80830CE
:1019200080F82230C38D23F00C039BB2C38511B124
:1019300043F00403C3851AB1C38D43F00803C38584
:10194000BCF14B0F01D94FF04B0CBEF5A07F05D871
:10195000BEF1040F04D84FF0050E01E04FF4A07E55
:101960000CF10403DBB20C4AA2FB03239B081B010E
:10197000DBB280F823300EF1FF3E084A82FB0E12E4
:101980004FEAEE7ECEEBE20E0EF00F0E43EA0E03B0
:1019900080F823305DF804FBCDCCCCCC676666665E
:1019A00010B504460846E2841E2200210FF097FE7F
:1019B00084F8280010BD71B1C18D41F04001C1858E
:1019C00072B1C28D42F48062C28580F82C30BDF8BD
:1019D000003043857047C18D21F04001C185EFE79C
:1019E000C28D22F48062C285EFE70AB9C1827047D6
:1019F000012A00D070470183FCE74183642A01D8A3
:101A000080F82520704710B500F1140300F146025C
:101A100044301C68D3F804E0D3F808C0D9681460D7
:101A2000C2F804E0C2F808C0D1601033103283421B
:101A3000EFD11B88138010BD38B5044600F58255E0
:101A400004352846FFF7A2FD00B138BD04F58251E8
:101A50001831204607F0EEF82846FFF7D4FFF4E7E8
:101A600010B500F1460300F1140276301C68D3F87B
:101A700004E0D3F808C0D9681460C2F804E0C2F8E2
:101A800008C0D160103310328342EFD11B8813801D
:101A900010BD90F82300000900EB8000704790F81B
:101AA000230000F00F00013000EB80008000704741
:101AB00010B5044642B1022A0CD08B894A890989A3
:101AC0000EF0DCFB204610BDCB888A8849880EF0DA
:101AD000D5FBF7E74B8A0A8AC9890EF0CFFBF1E7FD
:101AE000022901D90020704701EB810100EB410080
:101AF000007AC0F340007047022A21D800B5B1F83F
:101B000000E002EB820C00EB4C0320F81CE0B1F883
:101B100002C0A3F802C0B1F804C0A3F804C0B1F831
:101B200006C0A3F806C091F808C083F808C091F970
:101B30000E3002EB820200EB420043725DF804FBC0
:101B40007047022900D9002101EB810100EB41001F
:101B500090F909007047032905D802EB820211446D
:101B600030F81100704700207047022A04D00C3171
:101B700000EB4100C0887047103100EB4100C08885
:101B800070470000022B00F296802DE9F04F85B0DF
:101B900005460E4617461C4603EB830300EB430243
:101BA00092F90990A7EB090930F81380884524D8E9
:101BB00004EB840300EB4303B3F80680884551D25D
:101BC00004EB840300EB4303B3F802A0D0455CD9D7
:101BD00022460121FFF7C9FF00EB090B2246032132
:101BE0002846FFF7C2FF484400905B4642465146F4
:101BF00030460FF063FD00B20CE022460021FFF7F3
:101C0000B4FF484400903B464246002130460FF066
:101C10006FFD00B240F2E73239460FF060FD80B24E
:101C200005B0BDE8F08F08F1FF3204EB84031344E4
:101C300035F813B011462246C9B22846FFF795FF82
:101C400000EB09030393224641462846FFF78DFF28
:101C500048440090039B5246594630460FF048FDD9
:101C600000B2D7E74FF00108B8F1030F0BD804EB2F
:101C70008403434435F813A0B245D4D808F10108D1
:101C80005FFA88F8F0E70020C4E722460121FFF759
:101C90006CFF00EB0908224603212846FFF765FF89
:101CA000484400904346054A1288514630460FF09A
:101CB00005FD00B2AEE70020704700BF2EF5010819
:101CC00010B5044600F586500430FFF75BFF04F5BD
:101CD0008054B4F8723013F0010F00D010BD00B280
:101CE0000FF03CFD80B2F9E72DE9F04F85B00546D5
:101CF000039116461C469DF838B000F5865808F149
:101D0000040819464046FFF71CFF371A22460021F7
:101D10004046FFF72AFFBFB200EB07091FFA89F917
:101D2000224603214046FFF720FF0744BFB205F5D6
:101D3000825A0AF1040A012221465046FFF7DEFAD0
:101D40000290012221465046FFF726FB8246BBF156
:101D5000000F01D06423029305F58053B3F872306D
:101D600013F0010F26D05246029903980FF0B7FCEA
:101D70001FFA80FA394BB3F800B0224600214046E2
:101D8000FFF7E9FE0290224603214046FFF7E3FEFB
:101D90000090029B3A46494650460FF08FFC80B2B5
:101DA000B0EB5B0F1DDDA0EBAB07BFB24FF000083F
:101DB000C14633E00FFA89F00FF0D0FC1FFA80F92A
:101DC00038B20FF0CBFC87B2BDF908000FF0C6FCAB
:101DD00083B202930FFA8AF00FF0C0FC1FFA80FA68
:101DE000C1E75B46BBF1000F03DB00EBA307BFB20B
:101DF000DCE70BF10303F8E77B1CB9469FB209E06F
:101E000009EB070303EBD373C3F34F039F421CD0CB
:101E1000BB461F4608F101085FFA88F8B8F1130FB6
:101E200017D82346324639462846FFF749FF8245F0
:101E30000FD0E5D907EB0B0303EBD373C3F34F03C9
:101E40009F42D9D0B9461F46E4E77B1EBB469FB2EE
:101E5000E0E7384605B0BDE8F08F00BF2EF5010879
:101E6000002308E002EB820C9C4430F81CC021F8EF
:101E700013C00133DBB2032BF4D9704730B59DF8A2
:101E80000C504FF0000C0AE031F81C4003EB830EBD
:101E9000E64420F81E400CF1010C5FFA8CFCBCF10A
:101EA000030FF1D903EB830100EB41014A720122D8
:101EB0000A7215B10A460321117203EB830200EB8B
:101EC0004202D188044A1288914204D903EB830369
:101ED00000EB4300C28030BD2EF5010800230CE06A
:101EE00003F1140200EB4202B2F806C001EB8102DA
:101EF0001A4420F812C00133DBB2032BF0D9064B91
:101F000093F9002001EB810300EB43035A7218465A
:101F100001230372704700BF21F5010808B5FFF7E0
:101F2000DDFF08BDC38D0B80038E4B80438E8B80FD
:101F3000838ECB80704700F58053D3F83C31002B63
:101F40004CD0F0B585B004460D464F0013F8112073
:101F5000FF2A14D00123694606F034FC28BB9DF803
:101F6000083083F001038DF80830012269462046CD
:101F700006F096FE061E1ADA002005B0F0BD00F548
:101F80008250043008F0D8F8014670B105220DF1F6
:101F900009001BF015FB694604F586500430FFF775
:101FA000C1FF01238DF80830DFE70020E5E704F5E5
:101FB0008250043008F0B0F8864201DB0020DCE7F4
:101FC00004F58054D4F83C3103F81560D4F83C3162
:101FD0003B449DF808205A700120CEE7002070474E
:101FE0000B884A88934211D2D31AC08E83420FDBEA
:101FF0008B889A420ED29A1A90420DDCCA8893427C
:102000000CD2D21A90420BDC01207047002070479E
:102010000020704700207047002070470020704764
:1020200000207047F0B585B000F58053D3F83C31FF
:10203000002B5DD004460E461546022922D100250C
:1020400004F58053D3F83C3113F81520FF2A2FD024
:1020500000236946204606F0B5FB88BB9DF8083092
:1020600013F0020F36D004F5865404346946204636
:10207000FFF7B6FF0546A8BB31462046FFF72EFF07
:10208000012524E000F582570437384608F048F867
:10209000A84201D906B10125384608F041F8A84206
:1020A000CED8012ECCD0384608F03AF80546C7E71E
:1020B000314604F586500430FFF710FF002506E096
:1020C000314604F586500430FFF708FF0025284606
:1020D00005B0F0BD314604F586500430FFF7FEFE32
:1020E0000125F4E7324669462046FFF705FDEEE795
:1020F0000025ECE770B504460E4679B90225324654
:1021000029462046FFF78EFF38B195B904F5805374
:10211000A3F860602046FFF78FFC70BD00F5825089
:10212000043007F0FDFFB04201D90025E7E70125A3
:10213000E5E7012DEED104F58053A3F86260E9E7ED
:102140002DE9F04385B004460E461D461388ADF8D0
:1021500000305388ADF802309388ADF80430D3884E
:10216000ADF806308DF808509DF930308DF80E30FE
:1021700000F58053D3F83C314F0003EB41035D7011
:1021800000F58250043007F0D7FF40B18146694620
:1021900004F586500430FFF723FF804670B904F53C
:1021A0008054D4F83C313B445A7822F002025A70F1
:1021B0004FF00008404605B0BDE8F08305224946CF
:1021C0000DF109001BF0FCF900226946204606F0DB
:1021D00067FD0028E3DB04F58054D4F83C3103F8B4
:1021E0001600D4F83C313B445D70E3E72DE9F04F35
:1021F00085B006460F460024A04616E00DF1090101
:10220000484607F0AFFF0FFA80F9B9F1000F0ADB7B
:102210009DF808A0BAF1000F05D007EB490B17F89D
:102220001930FF2B1DD0013424B206F5825909F173
:102230000409484607F070FF84420ADAE5B2012338
:102240002A466946304606F0BDFA0028D6D0012855
:10225000E9D1304606F090F95FFA88F005B0BDE8A4
:10226000F08F694606F586500430FFF7B9FE18B9BD
:102270002AF0020A8DF808A007F819509DF80830D6
:102280008BF8013008F101081FFA88F8CBE7F8B5A0
:10229000054600F582560436304607F03DFF400003
:1022A0001BF06CF805F58053C3F83C01A8B100247D
:1022B0000EE005F58053D3F83C21FF2102F81410FD
:1022C000D3F83C3103EB440300225A700134E4B2EA
:1022D000304607F021FFA042EBD8284606F029FA45
:1022E0000446002855D105F58053D3F83C1191B32D
:1022F0002846FFF77BFF074605F58256183631461C
:10230000284606F0F1FA40B331462846FEF77EFF34
:1023100005F582510431284606F0A5FB98B300224A
:1023200002212846FFF77EFE05F5805696F86020CC
:1023300000212846FFF776FE96F862200121284604
:10234000FFF770FE05F582500430FFF75CFB002FAD
:1023500044D02046F8BD0746CEE705F5825004304C
:10236000FFF798F905F5805696F860102846FEF7B5
:10237000CDFEA6F8600096F862102846FEF7C6FE6D
:10238000A6F86200C4E705F582500430FFF7B2F901
:10239000C5E705F5825704373846FFF77BF938461D
:1023A000FFF7A8F9022105F586500430FFF796FDE6
:1023B000012200212846FFF735FE304607F0B0FE27
:1023C000024601212846FFF72DFE3846FFF71BFB8A
:1023D000012C05D0022C05D00024BAE70124B8E76F
:1023E0000224B6E70324B4E708B500F58053D3F818
:1023F0003C1109B9002008BDFFF7F8FE0120FAE7FB
:10240000014B0360704700BF5CE3010870470000A8
:10241000024A0260024A0260704700BF84E301087A
:102420005CE301087047002070477047014B036070
:10243000704700BF08E401082DE9F043B2EB510FEB
:1024400007D9914200D20A468A1AD2B246260027FC
:1024500001E0002646277AB1B1FBF2FE5FFA8EF862
:1024600002FB1E14E4B24FEA5E0E00239C461EE0FF
:1024700020F812600132D2B28A42F9D3BDE8F0836B
:1024800020F81370C6445FFA8EFEA4445FFA8CF500
:102490004FFA8CFC0CEB5409914506DB0EF1010E52
:1024A0005FFA8EFEAD1A4FFA85FC0133DBB28B4228
:1024B000E4D29E45E4D920F81360F6E7002305E056
:1024C000044A002122F8131001339BB2EF2BF7D9F5
:1024D000704700BFC87F002038B5054610F04EFC9D
:1024E00000F5967410F04AFCA04205D20E4B5B6AD0
:1024F000002BF7D10D4B5D6210F040FC00F5967497
:1025000010F03CFCA04208D2074B5B6A002BF7D1CD
:102510004FF08043586A80B204E0044BD86A80B21E
:10252000013080B238BD00BF00000140000C004007
:1025300008B50A4B1B783BB1094B002058639863E0
:1025400003F57443186408BD03220649064810F0D9
:1025500013FE0120014B1870F5E700BFC881002071
:10256000000C0040B4810020E496002008B50F4B19
:102570001B7863B90E4B1B788BB102220D490E48B4
:1025800010F0FAFD094B02221A70012008BD0B4B16
:1025900000205863986303F574431864F6E7042237
:1025A0000749084810F0E8FDECE700BFC8810020AB
:1025B00004000020BC8100202C970020000C00406B
:1025C000C08100207497002010B50446044B0360BE
:1025D000044B036050211AF0DBF8204610BD00BF09
:1025E00084E301085CE3010810B50446034B036073
:1025F00050211AF0CDF8204610BD00BF5CE3010861
:1026000010B50446034B036024211AF0C1F820469C
:1026100010BD00BF08E4010808B5084618F016FF11
:1026200008BD08B5084618F003FF08BD08B5084600
:1026300018F0F0FE08BD08B518F0DEFE08BD08B5BC
:1026400018F0CCFE08BD08B517F0D6FD08BD000097
:10265000154A1178002280F8422080F8402080F846
:10266000411080F8862080F8842080F8851080F85A
:10267000CA2080F8C82080F8C910A0F8CC20A0F8A3
:10268000CE20A0F8D020A0F8D22080F8D420C0F826
:10269000D82080F8DC2080F8DD20A0F8DE20A0F82B
:1026A000E020A0F8E22070472DF5010838B5044677
:1026B00014234360002505814581C5600A23036119
:1026C00043618561C361052303620B238384012376
:1026D00080F826302830FFF7BBFF1C4B236008230F
:1026E00084F80C31C4F8105184F80C31C4F810513E
:1026F00084F8145184F815514FF4C871A4F81611D8
:102700004FF4FA72A4F8182184F81C31C4F820514F
:1027100084F81C31C4F8205184F8245184F82551E0
:10272000A4F82611A4F8282184F82C31C4F83051DB
:1027300084F82C31C4F8305184F8345184F8355180
:10274000A4F83611A4F83821204638BD18E3010852
:1027500010B50446FFF7AAFF354B23600023A4F809
:102760003C31A4F83E31A4F84031A4F842310422AF
:1027700084F8442184F84531A4F8463184F848317E
:1027800084F84931082284F84C21C4F8503184F887
:102790004C21C4F8503184F85421C4F8583184F8DD
:1027A0005421C4F8583184F85C21C4F8603184F8AD
:1027B0005C21C4F8603184F86421C4F8683184F87D
:1027C0006421C4F8683184F86C21C4F8703184F84D
:1027D0006C21C4F8703184F87431A4F876314FF468
:1027E0007A71A4F87811142384F87A316420A4F85B
:1027F0007C0184F87E214FF4FA72A4F88021A4F8B9
:102800008211032284F884210E2284F8852184F821
:102810008631052384F88731022384F888310D231B
:1028200084F8893144F62063C4F88C31204610BD09
:102830005CEF010810B50446FFF738FF444B2360F6
:10284000002384F83C3184F83D3184F83E31012185
:1028500084F83F1184F84031A4F84231A4F844319F
:10286000A4F84631C4F84831A4F84C31C4F85031CA
:10287000082284F85421C4F8583184F85421C4F84B
:10288000583184F85C21C4F8603184F85C21C4F8C4
:10289000603184F86421C4F8683184F86421C4F894
:1028A000683184F86C21C4F8703184F86C21C4F864
:1028B000703184F87421C4F8783184F87421C4F834
:1028C000783184F87C21C4F8803184F87C21C4F804
:1028D00080316422A4F884214FF47A72A4F886210E
:1028E000A4F8883184F88A31A4F88C3184F88E31C8
:1028F000462384F88F31782384F890314FF4C863ED
:10290000A4F892317D23A4F89431124BC4F8983185
:102910004EF66023C4F89C314FF4FA70A4F8A0017D
:10292000A4F8A2211E2284F8A4213C2284F8A52127
:102930000D2284F8A621062284F8A7210A2284F811
:10294000A821C4F8AC11C4F8B031204610BD00BFB6
:1029500018EF0108407E05002DE9F04103460022F2
:102960000270E649416000F110018160C2600274AA
:10297000E349016200F12C014162826280F82C205F
:10298000E049C16300F148010164426480F84820D5
:10299000DD49816500F16401C165026680F864204B
:1029A000DA49416700F180018167C26780F88020C1
:1029B000D749C0F8901000F19C01C0F89410C0F8FD
:1029C000982080F89C20D34FC0F8AC7000F1B8017B
:1029D000C0F8B010C0F8B42080F8B820CE49C0F8D4
:1029E000C81000F1D401C0F8CC10C0F8D02080F895
:1029F000D420CA49C0F8E41000F1F001C0F8E81092
:102A0000C0F8EC2080F8F020C54CC0F8004100F57B
:102A10008671C0F80411C0F8082180F80C21C14962
:102A2000C0F81C1100F59471C0F82011C0F82421E1
:102A300080F82821BC49C0F8381100F5A271C0F80F
:102A40003C11C0F8402180F84421B849C0F8541125
:102A500000F5B071C0F85811C0F85C2180F8602111
:102A6000B349C0F8701100F5BE71C0F87411C0F818
:102A7000782180F87C21AF49C0F88C1100F5CC7129
:102A8000C0F89011C0F8942180F89821AA49C0F8A4
:102A9000A81100F5DA71C0F8AC11C0F8B02180F8C7
:102AA000B421A649C0F8C41100F5E871C0F8C811F6
:102AB000C0F8CC2180F8D021A149C0F8E01100F580
:102AC000F671C0F8E411C0F8E82180F8EC219D49C6
:102AD000C0F8FC1100F50271C0F80012C0F8042221
:102AE00080F808229849C0F8181200F50971C0F85A
:102AF0001C12C0F8202280F824229449C0F8341215
:102B000000F51071C0F83812C0F83C2280F840225D
:102B10008F49C0F8501200F51771C0F85412C0F870
:102B2000582280F85C228B48C3F86C0203F51E71B2
:102B3000C3F87012C3F8742283F878228649C3F868
:102B4000881203F52571C3F88C12C3F8902283F81C
:102B500094228249C3F8A41203F52C71C3F8A81279
:102B6000C3F8AC2283F8B0227D49C3F8C01203F544
:102B70003371C3F8C412C3F8C82283F8CC22794950
:102B8000C3F8DC1203F53A71C3F8E012C3F8E4228B
:102B900083F8E822DFF8E8E1C3F8F8E203F54171D1
:102BA000C3F8FC12C3F8002383F804236E4DC3F866
:102BB000145303F54871C3F81813C3F81C2383F8A2
:102BC00020236A4EC3F8306303F54F71C3F8341302
:102BD000C3F8382383F83C236549C3F84C1303F545
:102BE0005671C3F85013C3F8542383F8582361492E
:102BF000C3F8681303F55D71C3F86C13C3F8702351
:102C000083F87423C3F8840303F56471C3F888134D
:102C1000C3F88C2383F89023DFF868C1C3F8A0C3FE
:102C200003F56B71C3F8A413C3F8A82383F8AC238E
:102C30005149C3F8BC1303F57278C3F8C083C3F8D5
:102C4000C42383F8C823DFF84081C3F8D88303F591
:102C50007978C3F8DC83C3F8E02383F8E423C3F86E
:102C6000F4E303F5806EC3F8F8E3C3F8FC2383F8BC
:102C70000024C3F8105403F21C4EC3F814E4C3F844
:102C8000182483F81C24C3F82C0403F5876EC3F8BA
:102C900030E4C3F8342483F83824C3F848C403F27A
:102CA000544CC3F84CC4C3F8502483F85424C3F8DC
:102CB000641403F58E6CC3F868C4C3F86C2483F8FD
:102CC0007024C3F8807403F28C47C3F88474C3F88B
:102CD000882483F88C24294FC3F89C7403F59567E6
:102CE000C3F8A074C3F8A42483F8A824C3F8B86474
:102CF00003F2C446C3F8BC6448E000BFD8DE010854
:102D0000E4DE0108F0DE010800DF010810DF010841
:102D10001CDF010828DF010838DF010848DF01084F
:102D200050DF010858DF010864DF01086CDF01088B
:102D300074DF010884DF010894DF0108A0DF0108C7
:102D4000ACDF0108B8DF0108C4DF0108D4DF0108E7
:102D5000E4DF0108F0DF0108F8DF010800E0010806
:102D600010E001081CE0010834E0010844E001081B
:102D700054E0010860E001087CE001089CE00108E3
:102D800028E001086CE001088CE00108C3F8C024C9
:102D900083F8C424C3F8D45403F59C65C3F8D8540D
:102DA000C3F8DC2483F8E024EB4DC3F8F05403F2BD
:102DB000FC45C3F8F454C3F8F82483F8FC24C3F8A2
:102DC0000C0503F5A360C3F81005C3F8142583F8B8
:102DD0001825E248C3F8280503F23450C3F82C053F
:102DE000C3F8302583F83425C3F8441503F5AA60E9
:102DF000C3F84805C3F84C2583F85025D848C3F8D4
:102E0000600503F26C50C3F86405C3F8682583F8C5
:102E10006C25D448C3F87C0503F5B160C3F8800580
:102E2000C3F8842583F88825CF48C3F8980503F2B2
:102E3000A450C3F89C05C3F8A02583F8A425CB486B
:102E4000C3F8B40503F5B860C3F8B805C3F8BC25EA
:102E500083F8C025C3F8D04503F2DC50C3F8D4058D
:102E6000C3F8D82583F8DC25C148C3F8EC0503F581
:102E7000BF65C3F8F055C3F8F42583F8F825BD4DB8
:102E8000C3F8085603F21465C3F80C56C3F81026AD
:102E900083F81426B84DC3F8245603F5C665C3F865
:102EA0002856C3F82C2683F83026B44DC3F8405674
:102EB00003F24C65C3F84456C3F8482683F84C2601
:102EC000C3F85C1603F5CD61C3F86016C3F8642639
:102ED00083F86826AA49C3F8781603F28461C3F818
:102EE0007C16C3F8802683F88426A649C3F8941676
:102EF00003F5D461C3F89816C3F89C2683F8A0267E
:102F0000A149C3F8B01603F2BC61C3F8B416C3F804
:102F1000B82683F8BC269D49C3F8CC1603F5DB61BF
:102F2000C3F8D016C3F8D42683F8D826C3F8E846E9
:102F300003F2F461C3F8EC16C3F8F02683F8F42624
:102F40009349C3F8041703F5E261C3F80817C3F8FF
:102F50000C2783F810278F49C3F8201703F22C7130
:102F6000C3F82417C3F8282783F82C278A49C3F805
:102F70003C1703F5E961C3F84017C3F8442783F809
:102F800048278649C3F8581703F26471C3F85C17E1
:102F9000C3F8602783F864278149C3F8741703F5E1
:102FA000F061C3F87817C3F87C2783F880277D4940
:102FB000C3F8901703F29C71C3F89417C3F89827CD
:102FC00083F89C277849C3F8AC1703F5F761C3F879
:102FD000B017C3F8B42783F8B8277449C3F8C817E3
:102FE00003F2D471C3F8CC17C3F8D02783F8D427E1
:102FF0006F49C3F8E41703F5FE61C3F8E817C3F897
:10300000EC2783F8F0276B49C3F8001803F60C018E
:10301000C3F80418C3F8082883F80C286649C3F8D5
:103020001C1803F62801C3F82018C3F8242883F8D5
:1030300028286249C3F8381803F64401C3F83C183D
:10304000C3F8402883F844285D49C3F8541803F5B1
:103050000661C3F85818C3F85C2883F860285949FA
:10306000C3F8701803F67C01C3F87418C3F8782805
:1030700083F87C28C3F88C0803F69801C3F89018ED
:10308000C3F8942883F898284F49C3F8A81803F682
:10309000B401C3F8AC18C3F8B02883F8B4284B497E
:1030A000C3F8C41803F50D61C3F8C818C3F8CC28D9
:1030B00083F8D0284649C3F8E01803F6EC01C3F8BA
:1030C000E418C3F8E82883F8EC284249C3F8FC1850
:1030D00003F60811C3F80019C3F8042983F8082976
:1030E0003D49C3F8181903F62411C3F81C19C3F895
:1030F000202983F824293949C3F8341903F51461C8
:10310000C3F83819C3F83C2983F840293449C3F877
:10311000501903F65C11C3F85419C3F8582983F801
:103120005C293049C3F86C1903F67811C3F870199B
:10313000C3F8742983F878292B49C3F8881903F652
:103140009411C3F88C19C3F8902983F8942927495E
:10315000C3F8A4194CE000BFA8E00108B4E00108DE
:10316000C4E00108D0E00108DCE00108E4E0010867
:10317000ECE00108F8E0010800E1010808E10108BD
:1031800010E1010820E1010830E101083CE10108FB
:1031900048E101084CE1010850E1010858E101084B
:1031A00060E1010868E1010870E1010878E10108C7
:1031B00080E1010884E1010888E101088CE101084F
:1031C00090E1010898E10108A0E10108ACE10108E3
:1031D000C0E10108D4E10108E4E10108F4E10108DB
:1031E0000CE2010824E201082CE2010838E201089F
:1031F00003F51B61C3F8A819C3F8AC2983F8B029FB
:103200004D49C3F8C01903F6CC11C3F8C419C3F86B
:10321000C82983F8CC294949C3F8DC1903F6E81119
:10322000C3F8E019C3F8E42983F8E8294449C3F84E
:10323000F81903F60421C3F8FC19C3F8002A83F82F
:10324000042A4049C3F8141A03F52261C3F8181A76
:10325000C3F81C2A83F8202A3B49C3F8301A03F626
:103260003C21C3F8341AC3F8382A83F83C2A37497A
:10327000C3F84C1A03F65821C3F8501AC3F8542A5D
:1032800083F8582A3249C3F8681A03F67421C3F840
:103290006C1AC3F8702A83F8742A2E49C3F8841A6A
:1032A00003F52961C3F8881AC3F88C2A83F8902A99
:1032B0002949C3F8A01A03F6AC21C3F8A41AC3F82D
:1032C000A82A83F8AC2A2549C3F8BC1A03F6C821FA
:1032D000C3F8C01AC3F8C42A83F8C82A2049C3F81F
:1032E000D81A03F6E421C3F8DC1AC3F8E02A83F8FD
:1032F000E42A1C49C3F8F41A03F53061C3F8F81A3C
:10330000C3F8FC2A83F8002B1749C3F8101B03F6F7
:103310001C31C3F8141BC3F8182B83F81C2B134A59
:1033200092E80300C3F82C0BA3F8301B090C83F8B8
:10333000321B1846BDE8F08144E201084CE2010866
:1033400050E2010854E2010864E2010870E2010859
:1033500080E2010890E20108A4E20108B0E201085D
:10336000C4E20108C8E20108CCE20108F8DD010866
:1033700070B50646051D00F62C3403E01C3C201DEC
:1033800019F05AFAA542F9D1304670BD10B504467D
:10339000114B036000F53C6018F076FA04F6BC307F
:1033A00017F0AEF804F6B83017F0AAF804F6B43007
:1033B00017F0A6F804F53B6017F0A2F804F6AC305D
:1033C00017F09EF804F16400FFF7D2FF034B23606F
:1033D000034B2360204610BDACE3010884E30108E1
:1033E0005CE3010810B50446FFF7D0FF40F6EC316E
:1033F000204619F0CDF9204610BD000038B504462E
:10340000043018F011FF344B2360344B2360002547
:10341000A4F85050A4F85450A565E565A4F8605090
:1034200084F8625004F16400FFF796FA2C4B236095
:103430002C4BC4F8983BA4F89C5B4FF6FF72A4F8A1
:103440009E2B4FF4FC61A4F8A01B4FF47841A4F824
:10345000A21BFF21A4F8A41B4FF6E071A4F8A61B41
:103460004CF21861A4F8A81B84F8AA5BC4F8AC5B02
:10347000C4F8B05BC4F8B45BC4F8B85BC4F8BC5B18
:10348000C4F8C05B84F8C42B9622A4F8C62BA4F819
:10349000C85BA4F8CA5BA4F8CC5BA4F8CE5BC822D6
:1034A000A4F8D02B6E22A4F8D22B5A22A4F8D42B45
:1034B0003C21A4F8D61BA4F8D82B2022A4F8DA2BA0
:1034C0001922A4F8DC2B084AC4F8E02BC4F8E43B2A
:1034D000C4F8E83B204638BD5CE3010884E30108FA
:1034E000ACE301087CFA010884ED010830B586469A
:1034F0000123037000234360124C00F1080304F120
:10350000080292E8030083E803000EF1100504F1BD
:1035100010030FCB85E80F000EF1200304F1200209
:1035200092E8030083E803000EF1280504F1280C5B
:10353000BCE80F000FC59CE8030085E80300704657
:1035400030BD00BFF8DD010803460D4A02F1400C12
:10355000BCE80300C3F81E00C3F8221002F1480CB7
:10356000BCE80300C3F82600C3F82A10503203CA8F
:10357000C3F82E00C3F832106422DA86184670476A
:10358000F8DD010870B5044600260670467000F5A7
:10359000805585F82C604FF48053EB850F4B2B63DF
:1035A0000F4B6B630F4BAB630F4BEB630F4B2B64FA
:1035B0000F4B986DC5F8BC0004F58652D86D1060AD
:1035C00010460430FFF7C0FF04F587501C30FFF7AA
:1035D0008DFFC5F83C61204670BD00BFD4E20108F4
:1035E000E0E20108ECE20108F8E2010804E3010866
:1035F000F8DD010810B50446303019F01DF904F16A
:10360000180019F019F9204619F016F9204610BDD6
:103610001B4A026000220271826082810261426163
:103620008261C26102628160164901609FED127B76
:1036300080ED0A7B80ED0C7B80F83820A0F85A20C2
:1036400080F85C20026642668266A0F86C2080F8F2
:103650006E204FF41672A0F870200B49416740F6B7
:10366000B831816741F28831C167A0F880204FF4FA
:10367000C872A0F88220704700000000000000001F
:1036800008E401088CF20108C0D401000000000029
:10369000154A0260002202718260828102614261E9
:1036A0008261C26102628160104901609FED0C7B02
:1036B00080ED0A7B80ED0C7B012180F8381080F8CA
:1036C000462080F847208264C26440F2DC51A0F8B2
:1036D0005010A0F852204FF41672A0F854207047F2
:1036E000000000000000000008E40108A8F2010842
:1036F0000E4A026000220271826082810261426190
:103700008261C26102628160094901604262826233
:1037100080F82C2080F82D2080F82E2080F82F2093
:1037200080F8302003224286704700BF08E4010879
:10373000C4F2010810B41C4A0260002202718260C7
:103740008281026142618261C261026281601749C5
:1037500001600621818441F28834846280F82C2043
:103760000263426382638287C287A0F84020A0F888
:103770004220A0F844204FF0FA0CA0F846C080F890
:103780004820C264A0F8502080F85220A0F85410BD
:103790004FF4FA6282654FF4C871A0F85C100266BB
:1037A0005DF8044B704700BF08E40108E0F201082F
:1037B00010B40D4A026000220271826082810261AF
:1037C00042618261C261026281600146074C41F838
:1037D000244B42624A608A60CA600A61662280F8AD
:1037E00038205DF8044B704708E40108FCF201083A
:1037F0000F4A02600022027182608281026142618E
:103800008261C261026281600A4901608284C2846D
:1038100080F8282080F8292080F82A20012280F8CA
:103820002B204FF448728285032280F82E207047A7
:1038300008E4010850F3010870B582B0044616464A
:10384000134B036000250571856085810561456125
:103850008561C561056281600E4B036080F8285068
:10386000458501AA0C492C3019F0ACFA6564A564B1
:10387000E564FF2384F8503084F85150662384F8BF
:1038800052304EF6602363656662204602B070BD1A
:1038900008E401086CF301080CE30108124A026015
:1038A0000022027182608281026142618261C26192
:1038B000026281600D49016080F82420022180F8B5
:1038C0002510012180F8261080F8272080F8282074
:1038D00080F8292080F82A20C26280F8302080F801
:1038E000312080F83220704708E4010824E4010800
:1038F00010B50446FFF7D2FF164B2360082384F867
:1039000034300023A363052284F83420A363E363E7
:1039100023646364A364E36423656365A365A4F817
:103920005C30012284F85E20236684F864204FF422
:10393000FA73A4F8663040F2DC52A4F86820E3661B
:1039400040F6B833A4F8703047F23053636720462E
:1039500010BD00BF38F5010810B41A4C04600024F3
:10396000047184608481046144618461C46104627F
:103970008160154901604462012180F8281080F8B7
:10398000291080F82A4080F82B1080F82C1080F83D
:103990002D4080F82E40642180F82F1080F83040B0
:1039A00080F8314080F8324080F8334080F834406D
:1039B000042180F83510072180F8361042625DF846
:1039C000044B704708E4010814F1010810B4154CC9
:1039D0000460002404718460848104614461846112
:1039E000C4610462816010490160846280F82C40E7
:1039F00080F82D4080F82E40048680F8324080F810
:103A00003340848680F8364080F83740022180F8C1
:103A10003810062180F839107821418742625DF81C
:103A2000044B704708E401084CF1010810B4134C32
:103A300004600024047184608481046144618461B1
:103A4000C461046281600E49016080F8284080F8FA
:103A5000294080F82A408485FF2180F82E1080F8C4
:103A60002F40012180F83010032180F83110782197
:103A7000418642625DF8044B704700BF08E40108CC
:103A800084F10108014B1878704700BFAC81002019
:103A900008B502480DF074F880B208BDC07F002060
:103AA0002DE9F04F87B00024A84B5C63A84D284651
:103AB0000FF044FA642128460FF002FB28460FF06D
:103AC00065FC87B2642128460FF0FAFA28460FF009
:103AD0005DFC1FFA80FA642128460FF0F1FA2846AF
:103AE0000FF054FC1FFA80FB642128460FF0E8FA1F
:103AF00028460FF04BFC059028460FF0C1FA954D73
:103B000028460FF01BFA642128460FF0D9FA284600
:103B10000FF03CFC1FFA80F8642128460FF0D0FA21
:103B200028460FF033FC1FFA80F928460FF0A8FA58
:103B3000894B0A221A705C6019784FF47A7201FB83
:103B400002F25A60854D2B681B6C283B844A138017
:103B5000844EBDF814300293CDF804B0CDF800A027
:103B60004B4642463946304605F0F8FD074606F515
:103B700080460323737433747B4E304611F078FA19
:103B8000F0237A4A0C21304612F0C8F82146284624
:103B900011F0FCFF0421284611F0F8FF0821284607
:103BA00011F03AFF0C21284611F036FF21467048EB
:103BB00011F0ECFF6F4EDFF804926F4D33464A462A
:103BC0003146284609F0A4FCDFF8E8813346424636
:103BD0002946484609F09CFC33462A462946404679
:103BE00009F096FCDFF8D091C8F824902B462A46BD
:103BF0002946624809F08CFCDFF8C4812B462A462E
:103C000041465F4809F084FC2B462A462946404637
:103C100009F07EFC2B462A462946484609F078FCE6
:103C2000DFF8A0812B462A462946404609F070FC61
:103C3000DFF894A1434642462946504609F068FC05
:103C40002B462A4631464F4809F062FC2B462A464D
:103C500031464D4809F05CFC2B462A4631464B481C
:103C600009F056FC2B462A463146494809F050FCDB
:103C70002B462A463146474809F04AFC2B462A463D
:103C80002946304609F044FC434E33462A4629462D
:103C9000424809F03DFC2B462A462946304609F0A9
:103CA00037FC2B462A4629463D4809F031FC2B4675
:103CB0002A4649463B4809F02BFC434642462946E2
:103CC000504609F025FC234622462946364809F08D
:103CD0001FFC364801F03AFE022F1FD0032F2CD0D4
:103CE000012F17D00020FEF7F7FB1E4B03F5805283
:103CF00092F8742003F54053A3F82C234FF4FA7084
:103D00000FF042F82A4B186803681B68984707B001
:103D1000BDE8F08F264B274A1A60E3E7264C0022C5
:103D2000502120460BF0DCFA1E4B2246214620464D
:103D300009F0EEFB1E4B1C60D4E7002254211E4804
:103D40000BF0CEFA1A4B184A1A60CBE70018004065
:103D5000749700202C970020C07F002094930020AF
:103D6000BC7F0020403B00206C940020C87F0020D6
:103D7000BC9200205C040020C83A0020703900206A
:103D800018390020EC3700204405002008050020E9
:103D9000D4040020A0040020A4050020D4050020A5
:103DA00054060020FC0500207C0500201C6E00202D
:103DB00000000020F8390020B0380020203A002010
:103DC000EC3800207C3800201838002038B50EF080
:103DD000D5FF5B4B1B68984246D85A4B186809F0D0
:103DE0009BFB044618B1574B1B68834274D1554D59
:103DF000286803685B68984704462B68834227D08D
:103E0000002800F08680504D0021284605F022FF52
:103E1000002105F5C87005F01DFF002105F568704B
:103E200005F0D4F905F59C7200235374137482F8DD
:103E3000A13182F8A031454A53639363414D28680C
:103E400003689B6898472C6023681B682046984746
:103E50000EF094FF3E4B1B6898425CD23D4801F047
:103E60001FFD002868D138BD0EF088FF6430344B48
:103E70001860102138480FF06DFF012824D164210B
:103E800036480CF006FF4FF4005135480FF062FF42
:103E900001281BD1642133480CF0FBFE4FF4805104
:103EA0002F480FF057FF98B964212F480CF0F1FE0E
:103EB0004FF400712D480FF04DFF01280AD1642105
:103EC0002B480CF0E6FE88E70021D9E70021E2E765
:103ED0000021EAE70021F3E7264D2846FDF797F891
:103EE0000021A5F2545005F0B5FE0021A5F5717032
:103EF00005F0B0FE154B00225A639A63114D2868F5
:103F000003689B6898472C6023681B682046984785
:103F1000A9E7194C77E719494B6A194A10681B1A27
:103F200018BF0123174803704B6A13600EF026FF79
:103F30002930074B186091E705200EF025FF92E726
:103F40005404002000000020087A0020000C0040EB
:103F5000580400206C6E002000080240247B0020E2
:103F600000040240B47C0020C47C00200000024019
:103F7000C47E00205C7F0020B0380020000001409B
:103F8000B0810020AC81002008B50268074B9A423E
:103F900000D008BD037F042B04D0082BF9D1FEF715
:103FA000E5FAF6E7FEF7C4FAF3E700BF000C0040BD
:103FB00038B50FF0AFF9594B1B78DBB2022B08D0A4
:103FC000564B1B78DBB2012B7CD0544B00221A706D
:103FD00038BD534B1B78002B35D0524B198889B212
:103FE000514805F043FF514B18801B889BB2504A43
:103FF0001288934218D94F4B9A634C490B889BB255
:104000009B1A9BB20B804C4B1B889BB2494A536353
:10401000444B598889B2494805F00CF8404A137856
:1040200083F001031370D0E7404A13889BB24149E3
:104030008B6313889BB213B13F4B00221A803B4B1A
:1040400000221A80DFE73E4B198889B23D4805F00F
:104050000DFF394B18801B889BB2354A128893425A
:1040600021D9344B5A6334490B889BB29B1A9BB2BB
:104070000B802E4B1B889BB22E4A9363304D698870
:10408000314C89B220460CF061FDA988ED88ADB2B3
:1040900089B204F110000CF059FD294604F1080022
:1040A0000CF054FDBAE7244A13889BB221494B63B4
:1040B00013889BB213B11D4B00221A801E4B0022A5
:1040C0001A80D6E71B4B5B6B012B18D8194B9B6BE7
:1040D000012B1BD81D4B5B6B012B7FF676AF1C4B66
:1040E000998889B21B480CF0D4FD184B5B6AB3F574
:1040F000FA7F7FF66AAF154B64225A6265E7144B6C
:10410000198889B214480CF0C4FDDFE7104B5988B8
:1041100089B212480CF0BDFDDCE700BFC881002069
:1041200004000020BC810020987B0020A881002092
:10413000BC7F0020000C0040AA810020A87D002048
:10414000C0810020087A00209C7F002000480140A8
:10415000B4810020B47E0020147B0020A47C0020C9
:1041600010B50368144A934203D0144A93421ED0F8
:1041700010BD0EF003FE0446114B1B681E33834234
:1041800094BF002301230F4A1370137813B10C4B13
:104190001B6813B90A4B1C60EAE7094B1B68C31A7A
:1041A000642103FB01F108480CF0D0FCF2E707485A
:1041B000FCF748FFDCE700BF0000014000140040AE
:1041C000B87F0020AC810020C07F00205C7F0020F1
:1041D00008B50268094B9A4200D008BD084B1B780D
:1041E0001BB1084805F00EF910B9FEF767F9F4E7BE
:1041F000C2B278210448FEF71FF9EEE70000014043
:10420000AC810020A87D0020B880002008B502689D
:10421000094B9A4200D008BD084B1B781BB10848D7
:1042200005F0F0F810B9FEF749F9F4E7C2B27821C9
:104230000448FEF701F9EEE700000140AC810020E0
:10424000A87D0020C87F0020704710B50446006894
:10425000A168091A08B118F09BFA204610BD70B584
:1042600006460468456803E02046FFF7C3F9483472
:10427000A542F9D13046FFF7E8FF304670BD10B5D2
:1042800004460068A168091A08B118F081FA2046AE
:1042900010BD70B506460468456803E0204618F076
:1042A000CBFA1834A542F9D13046FFF7E8FF304683
:1042B00070BD38B50C46154605E04FF4FC7154F856
:1042C000040B18F065FAAC42F7D338BD10B50446BC
:1042D00003684BB1426A04324169FFF7EAFF616843
:1042E0008900206818F054FA204610BD2DE9F041ED
:1042F00088461746CE68043606E0204618F09CFA39
:104300001834A542F9D10436FB68B34203D93468A6
:1043100004F5FC75F5E7D8F80C20934215D0D8F8D1
:104320000040D8F8085003E0204618F085FA183409
:10433000A542F9D17C683D6803E0204618F07CFA7C
:104340001834A542F9D1BDE8F081D8F800403D68A5
:1043500003E0204618F070FA1834A542F9D1F2E7CC
:1043600000B589B00B6800934B6801938B6802938A
:10437000CB6803931368049353680593936806937B
:10438000D368079304AA6946FFF7B0FF09B05DF848
:1043900004FB10B588B0044683680093C36801939A
:1043A000036902934369039383690493C369059383
:1043B000036A0693436A0793034604AA6946FFF714
:1043C000CFFF2046FFF782FF204608B010BD000057
:1043D00010B50446074B40F8443BFFF7DAFF04F101
:1043E0001C00FFF7D6FF201D18F026FA024B2360B1
:1043F000204610BD14F00108D4E3010810B50446AE
:10440000FFF7E6FF6C21204618F0C2F9204610BDE8
:1044100008B5B1F1005F03D2880018F0BBF908BD00
:10442000B1F1804F01D318F0C9F918F0C4F90000B8
:1044300008B5084B994205D801EB4101C80018F0B6
:10444000A9F908BD044B994201D918F0B7F918F041
:10445000B2F900BF55555505AAAAAA0A70B5064675
:104460000C46154606E0002215213046FFF7E0FF16
:1044700044F8040BAC42F6D370BD00002DE9F043C4
:1044800085B004460D46254BA3FB0123CA1A03EB56
:1044900052031B095E1C08220292033303939342CA
:1044A0003AD80DEB020319686160002201A8FFF7FA
:1044B000AFFF804620606768BF1B7F0800EB87095D
:1044C00009EB8606324649462046FFF7C7FFC4F887
:1044D000149058F82730E36003F5FC722261321F14
:1044E000626256F8042CE26102F5FC712162A3605D
:1044F0000A4BA3FB0513E91A03EB51031B0903EB5A
:104500004303C3EBC303EB1A03EB430302EBC30206
:10451000A26105B0BDE8F08303ABC4E787611886EC
:1045200010B504460021016041608160C1600161F5
:1045300041618161C16101624162FFF79FFF2046D5
:1045400010BD10B504462822002119F01FF820469E
:10455000FFF7E6FF204610BD10B50446094B036087
:104560000346094A43F80C2B43600023836003731E
:104570001C30FFF7E6FF04F14400FFF7E2FF20469E
:1045800010BD00BFD4E3010814F0010810B50446C3
:10459000FFF7E2FF2346104A43F8742BE36600233B
:1045A000236784F8743004F18C02C4F88420C4F8C2
:1045B000883084F88C3004F1A402C4F89C20C4F83C
:1045C000A03084F8A430C4F8B430C4F8B830C4F8CB
:1045D000BC30204610BD00BF48F0010838B5044685
:1045E00000250560858000F542502030FFF7CEFFA2
:1045F00004F54053C3F86051054AC3F86421054AE5
:1046000092E80300C3F86801A3F86C11204638BD96
:1046100018F5010858DE010838B5044615460A4B5E
:1046200003600023037183608381036143618361BD
:10463000C36103628160054B40F8283BFFF7CEFF62
:104640006562204638BD00BF08E40108BCF10108DE
:1046500010B5044600F501502030FFF797FF04F530
:1046600004502030FFF778FF04F50053074AC3F8E1
:1046700020210022C3F88C2183F89021C3F89421D3
:10468000034AC3F89821204610BD00BF7CF0010802
:1046900018F5010810B50446FEF774FF04F58A50BA
:1046A000FFF7D6FF04F54B501C30FEF7A7FE04F5CC
:1046B0007B500830FEF74CF804F580405830FEF788
:1046C00047F81E4904F58340683003F0D4FD1C49C7
:1046D00004F58440283003F0CEFD04F584406830B2
:1046E000FEF7A8F804F588401C30FEF7FFFE04F53D
:1046F0008043082183F85C140022C3F8602483F807
:104700005C14C3F8602483F86414C3F8682483F845
:104710006414C3F8682483F86C14C3F8702483F815
:104720006C14C3F8702483F874241E2283F8752453
:1047300040F63C72A3F87624204610BD2494002055
:10474000DC93002010B50446064B40F8443BFFF7CD
:10475000A0FD04F12C0018F06FF8034B23602046F5
:1047600010BD00BF6CF3010808E4010810B5044651
:10477000FFF7E8FF5821204618F00AF8204610BD40
:1047800010B50446064B40F8B43BFFF768FD04F152
:104790006C00FEF72FFF2046FFF71AFE204610BDE3
:1047A00048F0010810B5044600F50053074AC3F865
:1047B000202100F504502030FFF70AFE04F50150D7
:1047C0002030FFF7DDFF204610BD00BF7CF0010860
:1047D00010B5044600F580430C4AC3F868220C4A21
:1047E000C3F868220B4999659A6500F54053C3F8F0
:1047F000C81EC3F8C82E00F54B501C30FEF7C6FD8E
:1048000004F58A50FFF7CEFF204610BD18EF0108CF
:1048100018E301085CEF01082DE9F04F87B004466A
:104820000E46012808D024B94FF6FF739E4200F0CF
:104830001A8107B0BDE8F08F4FF6FF739942F2D1AD
:10484000B54B08221A7000255D601A705D60B34F89
:104850003846FFF71FFF3946B148FFF749F8DFF840
:104860005C83B04AC8F8002088F80450C8F80850A3
:10487000A8F80C50C8F81050C8F81450C8F81850D0
:10488000C8F81C50C8F82050C8F80870A64BC8F8E3
:104890000030C8F89C50C8F8A05088F8A450DFF841
:1048A00018B3CBF800208BF80450CBF80850ABF8C5
:1048B0000C50CBF81050CBF81450CBF81850CBF864
:1048C0001C50CBF82050CBF80870984BCBF8003038
:1048D000CBF82450DFF8D89239464846FEF798FEC8
:1048E00039469348FEF7D4FE914B4A4639469148E3
:1048F00008F0D0F839469048FEF75AFF39468F48FD
:10490000FEF7F6FEDFF890A239465046FEF712FF9A
:10491000DFF88092834AC9F8002089F80450C9F86A
:104920000850A9F80C50C9F81050C9F81450C9F82B
:104930001850C9F81C50C9F82050C9F80870804BAD
:10494000C9F800307D4BC9F82430C9F828A0DFF839
:1049500038A2794A39465046FFF75EFE524639463C
:104960007848FEF769FFDFF81CA26E4ACAF80020FB
:104970008AF80450CAF80850AAF80C50CAF8105027
:10498000CAF81450CAF81850CAF81C50CAF8205077
:10499000CAF808706C4BCAF800306A4BCAF8243069
:1049A00039466A48FEF724FF694B5E4A1A601D715A
:1049B0009D609D811D615D619D61DD611D629F60E6
:1049C000644A1A60022283F824204A463946624823
:1049D000FEF7C2FF574A39466048FEF7F7FFDFF897
:1049E0009491504AC9F8002089F80450C9F8085039
:1049F000A9F80C50C9F81050C9F81450C9F818504B
:104A0000C9F81C50C9F82050C9F80870544BC9F8AF
:104A1000003089F82850A9F82A50FF2389F82C3053
:104A200089F82D5089F82E50012389F82F307823EA
:104A3000A9F830303F4BC9F824304A4D3C4A39463A
:104A40002846FEF7F3FFCDF810A00395CDF80890A7
:104A5000424B0193CDF800B03F4B424639464248A5
:104A600007F0F0FFDFE6404B404A1A602D4C1C6017
:104A70003C4B3F4A1A601C603E4B394A1A601C602E
:104A8000364B3D4A1A601C60334B3C4A1A601C602E
:104A90002F4B304A1A601C602C4B394A1A601C603C
:104AA000384B294A1A601C602648FFF74BFE364DEA
:104AB000364B2B603648FFF763FE2C60354B204A9F
:104AC0001A601C60344B354A1A601C601B4B344A18
:104AD0001A601C60184B334A1A601C60154B324A2E
:104AE0001A601C60124B314A1A601C60304B314A0C
:104AF0001A601C60304B0D4A1A601C602F4B0A4A2A
:104B00001A601C60064B2E4A1A602E4A1A601C60FE
:104B10000248FFF75DFE8CE6C07F0020403B00208E
:104B2000C83A002008E4010870F2010818F30108EF
:104B300018390020EC380020B03800207C380020E4
:104B4000A0F10108FC05002034F30108A4050020B1
:104B50007C05002088F3010844050020080500209A
:104B600068F10108A00400205C040020F8F00108AE
:104B700084F10108D40400204CF1010814F101086B
:104B800050F30108D405002054060020BCF10108B0
:104B90001C370020EC37002018380020E0F2010814
:104BA000C4F20108FCF2010830F10108A8F2010882
:104BB000703900208CF20108F8390020203A0020DA
:104BC00038F5010824E4010810B50446FFF7D8FDC4
:104BD000C021204617F0DCFD204610BD08B54FF679
:104BE000FF710120FFF718FE08BD08B54FF6FF71F1
:104BF0000020FFF711FE08BD024A0260024A02606F
:104C0000704700BF24E4010808E4010838B50446F1
:104C10000023C362806800F5804393F8A433003B0F
:104C200018BF012384F8303000F5805393F86010EA
:104C300000F58250043005F075FA84F82700A56865
:104C400005F588405C300BF09BFF05F58045B5F815
:104C500076349842B4BF0020012084F8280058B16F
:104C6000A36803F5405393F8DD3F23B994F8272058
:104C700012B1184600E0002084F82A00002384F8CE
:104C8000293040B1012384F82430022384F82530F0
:104C9000032384F8263038BD10B50446044B036066
:104CA000044B0360342117F073FD204610BD00BF94
:104CB00024E4010808E401082DE9F04F8BB0044614
:104CC000029107921F46866806F54B551C3590F8F1
:104CD0002430002B70D1884694F82520002A6ED10C
:104CE000DDF808A0002B6DD106F57B5909F1080904
:104CF000D9F80030DB6948469847014694F82430DB
:104D00003A463046FCF7DCFF0190D9F800305B6989
:104D100048469847014694F824303A463046FCF716
:104D2000CFFF0390B8F1050F51D0D9F800301B6ABE
:104D300048469847059094F82530002B50D0A3683A
:104D400003F5844909F16809D9F80030DB69484660
:104D50009847014694F825303A463046FCF7B0FFB4
:104D60008346D9F800305B6948469847014694F875
:104D700025303A463046FCF7A3FF0490BAF1050F00
:104D800034D0D9F800301B6A48469847069006F59B
:104D90008053B3F8723003F00103099394F8243080
:104DA0006BBB94F82A300893B8F1000F2DD0B8F1FE
:104DB000080F28D0012329E0DDF81C808CE74FF094
:104DC000000A8FE706F5804909F1580990E794F841
:104DD000241006F582500430FCF7F4FC0390A4E79D
:104DE000A36803F57B5909F10809ADE794F825108C
:104DF00006F582500430FCF7E5FC0390C1E794F817
:104E000029300893D0E7002300E00023019A03999A
:104E1000A2EB01090FFA89F901224946284600F060
:104E2000A5FD01220599284601F076F8B8F1010F99
:104E300007D0089B5BB9B8F1000F0AD1BBB2019350
:104E40000AE04A460121284601F01CFA01E0BBB203
:104E50000193B8F1070F15D04FF47F030122019998
:104E6000284600F02FFEB8F1050F12D094F8243038
:104E700013B9B8F1040F15D094F825300BBB94F892
:104E80002A201FE00123099A0199284600F082FE9A
:104E9000E9E7A06894F8241000F582500430FCF78C
:104EA00091FCE9E7A06800F582500430FCF7F1FDC1
:104EB000A06800F5804100233A468988FCF700FF8E
:104EC000DAE70022BAF1000F08D0BAF1080F02D0D9
:104ED0004FF0010904E04FF0000901E04FF0000934
:104EE000002B71D1BAF1010F06D072B9BAF1000FDF
:104EF0000DD11FFA87FB0DE0049BABEB030212B24E
:104F00000021284601F0BEF901E01FFA87FBBAF143
:104F1000070F49D04FF47F0300225946284600F07E
:104F2000D1FDB8F1050F46D0049BABEB03014B4616
:104F3000002209B2284600F019FD002206992846F1
:104F400000F0EAFF94F82630032B00F09880A26866
:104F500002F57B5808F1080802F58041087B00380B
:104F600018BF0120012B00F09080022B00F09780E9
:104F7000002800F0B580D8F80030DB69404698473B
:104F8000014694F826303A463046FCF799FE014631
:104F900094F82630029A073A18BF0122284602F0F8
:104FA0007FFE0BB0BDE8F08F0023099A59462846D2
:104FB00000F0F0FDB5E7A06894F8251000F58250E8
:104FC0000430FCF7FFFBAFE7D4F8088008F5844015
:104FD000683003F0FFFF08F58048B8F8EC339842DA
:104FE00031D294F8303023BB1FFA87FB94F830306D
:104FF00043B1A36803F5804393F8A433013BDBB2CC
:10500000022B35D84FF47F0300225946284600F082
:1050100059FD049BABEB030194F83030002209B238
:10502000284600F0A3FC00220699284600F074FFF1
:1050300088E7284600F0E2FF002184F83010284677
:1050400001F0A2F8D0E7012384F83030A36803F51B
:10505000804393F8A433013BDBB2022BC6D8049BF8
:10506000ABEB030212B20021284601F00BF9BDE7B9
:105070000023099A5946284600F08CFDC9E7002212
:105080001146284602F00CFE8BE708F5C87891F827
:105090009C01003818BF0120079B029368E702F5C6
:1050A000844808F1680802F58042D2F86832DB686B
:1050B0004046984788B103230293D4F8089009F535
:1050C0008440683003F086FF09F58049B9F8EC3375
:1050D000984234BF002001204AE707230293ECE7FF
:1050E00094F8263000221146284602F0D9FD58E7F0
:1050F000F8B5856890F82530022B00D0F8BD04463D
:1051000005F584466836304603F064FF05F58043B4
:10511000B3F8EC339842F1D30DF030FEE36A9842D5
:10512000ECD305F5804393F87D33002BE6D005F5ED
:105130008045D5F86832DB69304698470746D5F890
:1051400068325B6930469847A368391A09B203F59B
:105150004B501C3000F01CFF0DF010FE6430E0627C
:10516000CCE700002DE9F04F87B0804693461D46FE
:10517000BDF84060876807F5825404340022114668
:105180002046FCF7BBF88146002211462046FCF77A
:1051900003F98246002202212046FCF7AFF8049072
:1051A000002202212046FCF7F7F8059007F580570A
:1051B000B7F8723013F0800F2ED0234A82FB0532ED
:1051C000EB17C3EB620303EB8303EB1A9BB2EB1AFF
:1051D0001DB21E4BA3FB06239B0803EB8303F31AAC
:1051E0009BB2F31A9EB20524C5B996B1D8F808004F
:1051F00000F58440283031B2BBF1020F1FD00FFA06
:1052000089F20FFA8AF3002502950194009403F0C5
:1052100059F907B0BDE8F08F0124E5E7D8F8080098
:1052200000230293019400940FFA8AF30FFA89F293
:10523000294600F58340683003F044F9D5E7BDF90D
:105240001020BDF91430DEE767666666CDCCCCCCA5
:105250002DE9F0478EB004461646876807F54B5592
:105260001C35884600294DD14FF0000A002E52D13E
:105270004FF00009CDF800900FFA8AF394F825203A
:1052800094F824102046FFF76DFFB8F1000F4BD1C2
:10529000002E00F0E18094F82520022A00F09E8084
:1052A000394608A8FCF7C4F894F8251007F586508D
:1052B0000430FCF715FC0246002308A9284600F03C
:1052C00091FC08A817F0B8FA284600F0B5FE94F84B
:1052D000283023B194F82730002B00F0AF8094F8E9
:1052E0003130002B00F0AA80072B00F0A780052B9F
:1052F00000F0B680032B40F0A5800021284600F086
:1053000063FF9FE090F8241007F582500430FCF70B
:1053100062FA8246AAE794F8251007F58250043015
:10532000FCF759FA8146A5E794F82420394602A8EB
:10533000FCF77EF894F8241007F586500430FCF74B
:10534000CFFB0246012302A9284600F04BFC02A82D
:1053500017F072FA01225146284602F08BFC012216
:105360000021284600F078FE94F824303BB994F8E8
:105370002820FAB194F8271011B1002200E0002291
:10538000D3B994F83130D2B9072B81D801A252F8A1
:1053900023F000BFBF53000891520008915200084B
:1053A000D353000891520008C953000891520008D5
:1053B000BF5300080022E3E794F83230E3E701210D
:1053C000284600F0E1FE63E70121284600F03CFF9B
:1053D0005EE70121284600F0F7FE59E7A06804F0D7
:1053E00041FB07B2A06800F58053B3F8728008F063
:1053F000010800F58440683003F034FE01460022C5
:10540000284600F05DFC42463946284600F0C0FCC4
:10541000284600F0F3FDA36803F5804393F8A43316
:10542000013BDBB2022B04D80021284600F0BCFE71
:1054300008E00021284600F0A7FE03E000212846EE
:1054400000F0A2FE00224946284602F013FC002389
:1054500084F83030E362B04640460EB0BDE8F087D5
:105460000121284600F0F0FEECE700BF10B5012353
:1054700080F8263090F828305BB1826802F54052FF
:1054800092F8DD2F22B990F8274014B1134600E0BE
:10549000002380F82A30012915D0022918D00223D0
:1054A000002190F824C090F8252080F8241080F87E
:1054B0002530D21A18BF0122BCEB010118BF01210F
:1054C000FFF7C6FE10BD022380F826300023E8E770
:1054D0002BB1032380F826300B460121E1E700239E
:1054E000F8E708B590F82430012B13D090F82A3053
:1054F00043B9836803F5804393F8A433013BDBB2DF
:10550000022B03D80221FFF7B1FF08BD0121FFF7ED
:10551000ADFFFAE70020F8E708B590F82430012B3A
:105520001DD190F82A3093B9826802F5804393F830
:105530009C31DBB2022B0ED002F5804292F89C31F6
:10554000DBB2012B07D00021FFF790FF08E002211A
:10555000FFF78CFF04E00121FFF788FF00E0002047
:1055600008BD08B590F82530022B24D090F82930DA
:10557000ABB990F82A30B3B9826802F5804393F84A
:105580009C31DBB2022B12D002F5804292F89C31A2
:10559000DBB2012B0BD00021FFF768FF02E00021F6
:1055A000FFF764FF08BD0221FFF760FFFAE7022161
:1055B000FFF75CFFF6E70020F4E708B590F8253028
:1055C000022B24D190F82930ABB990F82A30B3B926
:1055D000826802F5804393F89C31DBB2022B12D033
:1055E00002F5804292F89C31DBB2012B0BD00021F6
:1055F000FFF73CFF0CE00021FFF738FF08E0022135
:10560000FFF734FF04E00121FFF730FF00E0002046
:1056100008BD08B590F8243003B390F82530FBB1ED
:1056200090F8293093B9826802F5804393F89C3151
:10563000DBB2022B0ED002F5804292F89C31DBB235
:10564000012B07D00021FFF711FF08E00021FFF731
:105650000DFF04E00121FFF709FF00E0002008BD75
:105660000020FCE708B590F8243053B190F82530BD
:105670005BB190F8263063B9032380F82630002010
:1056800002E00221FFF7F2FE08BD0221FFF7EEFE65
:10569000FAE70020F8E790F824308B4205D090F824
:1056A00025308B4203D00320704701207047002033
:1056B000704738B505460C460021FFF7ECFF02465F
:1056C000A868214600F54B501C3000F0C5FC38BDE1
:1056D00038B505461446FFF7DEFF03280FD0014614
:1056E000A86800F54B501C30621E072A1AD8DFE864
:1056F00002F004070A0D1013191600F055FD38BD0D
:1057000000F082FDFBE700F05FFDF8E700F0AAFD86
:10571000F5E700F099FDF2E700F086FDEFE700F015
:1057200063FDECE700F030FDE9E738B505461446C7
:10573000FFF7B1FF032807D00246A868214600F50D
:105740004B501C3002F096FA38BD38B590F8253031
:10575000022B00D038BD0C46856805F584406830C2
:1057600003F080FC0146224605F54B501C3000F04A
:10577000A7FAEFE708B590F82530022B00D008BD56
:10578000806800F54B501C3000F090FBF7E710B537
:1057900084B094460A68511D62B112889DF81C407D
:1057A0000294BDF8184001940093634616F0F0FC93
:1057B00004B010BD0022F1E738B5054616F044FDEF
:1057C0000446284616F048FD201A00B238BD38B508
:1057D000054616F039FD0446284616F03DFD2044E6
:1057E00000B238BD30B585B0084611461A46099B4F
:1057F0001B685C1D73B11B88BDF82C500395BDF868
:105800002850029501930094BDF8203015F0EAFB72
:1058100005B030BD0023EFE730B585B0084611462E
:105820001C687CB122887CB163880534BDF82450A3
:105830000395BDF8205002950192009415F0D2FB1B
:1058400005B030BD0022EEE70023EEE72DE9F0437E
:1058500085B00D4616461F460D980468C4B104F184
:105860000708BCB1B4F80090BCB1647916F08AF8AE
:1058700003900294CDF80490CDF80080BDF830304C
:105880003A463146284615F01BFC05B0BDE8F083CA
:10589000A046E6E74FF00009E6E70024E6E700004F
:1058A0000288124B1B68596B8A4204D8596B8A4292
:1058B0000ED300207047596B521A042A04D95A6B30
:1058C00004325A63012070475A6B01325A63F9E778
:1058D000596B8A1A042A04D95A6B043A5A63012074
:1058E00070475A6B013A5A63F9E700BF749200207F
:1058F00070B582B00446F9B1C4F8981B261DD4F8DF
:10590000981B304616F0B3FB304616F09DFC85B26E
:105910000D49304616F02CFC811C2A4689B201A89C
:1059200014F0BAFD01A904F53B6014F0D2FD01A802
:1059300014F0E6FD02B070BDD0F8E83BC0F8983B2B
:10594000002380F86430D9E738E4010808B5064B35
:105950001B6800225A63FF2380F8C43BB0F89C0BFD
:1059600014F048FF08BD00BF749200202DE9F04FED
:1059700085B00291012A7CD804461F467CD0B0F83D
:10598000C65BD4F8B03B002B79D01E8806F1140A10
:105990001FFA8AFAD4F8AC3B002B72D05B88DBB2DA
:1059A000039306F117081FFA88F8B4F89E3B032208
:1059B0002946404615F043F8BDF80C90B4F89E3BDC
:1059C0004A462946504614F0C8FF06F11A00B4F8BA
:1059D0009E3B4A46294680B214F0BFFF05EB090AF8
:1059E0001FFA8AFA0AF1050B1FFA8BFBB4F89E3BEB
:1059F00008225946404615F022F8002F43D0B4F84B
:105A0000A23B07225946404615F06AF806F11100FC
:105A100005F10901B4F89E3B009303231A4689B2AD
:105A200080B214F0ADFE1536B6B2B4F89C3B0093CC
:105A30004B4605222946304614F0A2FE0A226FF09A
:105A4000630102980BF04BFE034600B2002820DDF4
:105A50009BB2E91A89B20A3189B24B449BB20A3B24
:105A60009BB29FB1B4F8A22B00920522304614F0ED
:105A700087FE05B0BDE8F08FB0F8D65B81E7002661
:105A800084E700238BE7B4F89C3BBAE7B4F89C2B7F
:105A9000EAE7039B0A3B0093012300226FF06301B6
:105AA0000BF026FEC3B2AAEB030189B23FB1B4F8F2
:105AB000A22B00920522304614F062FED9E7B4F81A
:105AC0009C2BF6E7012A62D82DE9F04385B0054604
:105AD00017461E46B1F57A7F01D340F2E7310A46F8
