:020000040800F2
:1000000000000220952A0108A5130108A713010882
:10001000A9130108AB130108AD130108000000008B
:10002000000000000000000000000000AF13010805
:10003000B113010800000000B3130108B513010853
:10004000E52A0108E52A0108E52A0108E52A010850
:10005000E52A0108E52A0108E52A0108E52A010840
:10006000E52A0108E52A0108E52A0108E52A010830
:10007000E52A0108E52A0108E52A0108E52A010820
:10008000E52A0108E52A0108E52A0108E52A010810
:10009000E52A0108E52A0108E52A0108E52A010800
:1000A000E52A0108BD130108E52A0108E52A01082F
:1000B000E52A0108E52A0108E52A0108E52A0108E0
:1000C000E52A0108E52A0108E52A0108E52A0108D0
:1000D000E52A0108E52A0108E52A0108E52A0108C0
:1000E000E52A0108E52A0108E52A0108E52A0108B0
:1000F000E52A0108E52A0108E52A0108E52A0108A0
:10010000E52A0108E52A0108D5130108E52A0108B6
:10011000E52A0108E52A0108E52A0108E513010896
:10012000F513010805140108151401082514010828
:10013000351401080000000000000000E52A010855
:10014000E52A0108E52A0108E52A0108E52A01084F
:10015000E52A0108E52A0108E52A0108E52A01083F
:10016000E52A0108E52A0108E52A0108E52A01082F
:10017000E52A0108E52A0108E52A01080000000037
:1001800000000000E52A0108000000000000000057
:10019000E52A01080000000000000000E52A01082F
:1001A000000000000000000000000000E52A010837
:1001B000E52A0108E52A0108E52A0108E52A0108DF
:0401C000E52A010823
:1001D00010B5054C237833B9044B13B10448AFF381
:1001E00000800123237010BD3804002000000000AF
:1001F000E4DB010808B5034B1BB103490348AFF327
:10020000008008BD000000003C040020E4DB010881
:1002100010F8012B11F8013B012A28BF9A42F7D0B0
:10022000D01A70470000000000000000000000002D
:1002300001F0FF01102A2BDB10F0070F08D010F897
:10024000013B013A8B422DD010F0070F42B3F6D19B
:10025000F0B441EA012141EA014122F007047FF0B4
:1002600000070023F0E80256083C85EA010586EA0B
:10027000010685FA47F5A3FA87F586FA47F6A5FA47
:1002800087F68EB9EED1F0BC01F0FF0102F0070253
:1002900032B110F8013B013A83EA010313B1F8D1FE
:1002A0000020704701387047002D06BF35460338DF
:1002B000073815F0010F07D1013015F4807F02BF18
:1002C000013015F4C03F0130F0BC0138704700BF69
:1002D000034613F8012B002AFBD1181A0138704786
:1002E00081F0004102E000BF83F0004330B54FEAE7
:1002F00041044FEA430594EA050F08BF90EA020F54
:100300001FBF54EA000C55EA020C7FEA645C7FEAE6
:10031000655C00F0E2804FEA5454D4EB5555B8BF09
:100320006D420CDD2C4480EA020281EA030382EA7A
:10033000000083EA010180EA020281EA0303362D0C
:1003400088BF30BD11F0004F4FEA01314FF4801CDF
:100350004CEA113102D0404261EB410113F0004FF1
:100360004FEA03334CEA133302D0524263EB4303A8
:1003700094EA050F00F0A780A4F10104D5F1200E46
:100380000DDB02FA0EFC22FA05F2801841F10001A1
:1003900003FA0EF2801843FA05F359410EE0A5F175
:1003A00020050EF1200E012A03FA0EFC28BF4CF0A6
:1003B000020C43FA05F3C01851EBE37101F000455C
:1003C00007D54FF0000EDCF1000C7EEB00006EEB69
:1003D0000101B1F5801F1BD3B1F5001F0CD34908F3
:1003E0005FEA30004FEA3C0C04F101044FEA44524A
:1003F00012F5800F80F09A80BCF1004F08BF5FEAD1
:10040000500C50F1000041EB045141EA050130BDB0
:100410005FEA4C0C404141EB0101013C28BFB1F5C2
:10042000801FE9D291F0000F04BF01460020B1FA0D
:1004300081F308BF2033A3F10B03B3F120020CDAE0
:100440000C3208DD02F1140CC2F10C0201FA0CF0BE
:1004500021FA02F10CE002F11402D8BFC2F1200C23
:1004600001FA02F120FA0CFCDCBF41EA0C019040D9
:10047000E41AA2BF01EB0451294330BD6FEA040422
:100480001F3C1CDA0C340EDC04F11404C4F120020D
:1004900020FA04F001FA02F340EA030021FA04F31F
:1004A00045EA030130BDC4F10C04C4F1200220FA76
:1004B00002F001FA04F340EA0300294630BD21FAB4
:1004C00004F0294630BD94F0000F83F4801306BF7A
:1004D00081F480110134013D4EE77FEA645C18BF6E
:1004E0007FEA655C29D094EA050F08BF90EA020F05
:1004F00005D054EA000C04BF1946104630BD91EAFD
:10050000030F1EBF0021002030BD5FEA545C05D1FF
:100510004000494128BF41F0004130BD14F580043E
:100520003CBF01F5801130BD01F0004545F0FE41B2
:1005300041F470014FF0000030BD7FEA645C1ABFE7
:10054000194610467FEA655C1CBF0B46024650EA1E
:10055000013406BF52EA033591EA030F41F400214A
:1005600030BD00BF90F0000F04BF0021704730B5D0
:100570004FF4806404F132044FF000054FF00001A5
:1005800050E700BF90F0000F04BF0021704730B566
:100590004FF4806404F1320410F0004548BF40423B
:1005A0004FF000013EE700BF42004FEAE2014FEA90
:1005B00031014FEA02701FBF12F07F4393F07F4F6B
:1005C00081F06051704732F07F4208BF704793F06E
:1005D0007F4F04BF41F40021704730B54FF4607481
:1005E00001F0004521F000411CE700BF50EA010284
:1005F00008BF704730B54FF000050AE050EA01022D
:1006000008BF704730B511F0004502D5404261EB9C
:1006100041014FF4806404F132045FEA915C3FF4DD
:10062000D8AE4FF003025FEADC0C18BF03325FEA7A
:10063000DC0C18BF033202EBDC02C2F1200300FA2B
:1006400003FC20FA02F001FA03FE40EA0E0021FA50
:1006500002F11444BDE600BF70B54FF0FF0C4CF43E
:10066000E06C1CEA11541DBF1CEA135594EA0C0FF0
:1006700095EA0C0F00F0DEF82C4481EA030621EA2B
:100680004C5123EA4C5350EA013518BF52EA033566
:1006900041F4801143F4801338D0A0FB02CE4FF018
:1006A0000005E1FB02E506F00042E0FB03E54FF048
:1006B0000006E1FB03569CF0000F18BF4EF0010E40
:1006C000A4F1FF04B6F5007F64F5407404D25FEA3C
:1006D0004E0E6D4146EB060642EAC62141EA5551EF
:1006E0004FEAC52040EA5E504FEACE2EB4F1FD0C31
:1006F00088BFBCF5E06F1ED8BEF1004F08BF5FEAAF
:10070000500E50F1000041EB045170BD06F0004660
:1007100046EA010140EA020081EA0301B4EB5C040D
:10072000C2BFD4EB0C0541EA045170BD41F4801105
:100730004FF0000E013C00F3AB8014F1360FDEBF2A
:10074000002001F0004170BDC4F10004203C35DA06
:100750000C341BDC04F11404C4F1200500FA05F389
:1007600020FA04F001FA05F240EA020001F000422A
:1007700021F0004110EBD37021FA04F642EB0601A0
:100780005EEA430E08BF20EAD37070BDC4F10C04CA
:10079000C4F1200500FA04F320FA05F001FA04F28E
:1007A00040EA020001F0004110EBD37041F100017A
:1007B0005EEA430E08BF20EAD37070BDC4F1200585
:1007C00000FA05F24EEA020E20FA04F301FA05F2ED
:1007D00043EA020321FA04F001F0004121FA04F295
:1007E00020EA020000EBD3705EEA430E08BF20EA65
:1007F000D37070BD94F0000F0FD101F0004640009F
:1008000041EB010111F4801F08BF013CF7D041EA20
:10081000060195F0000F18BF704703F00046520024
:1008200043EB030313F4801F08BF013DF7D043EAF5
:100830000603704794EA0C0F0CEA135518BF95EAAB
:100840000C0F0CD050EA410618BF52EA4306D1D132
:1008500081EA030101F000414FF0000070BD50EA51
:10086000410606BF1046194652EA430619D094EADB
:100870000C0F02D150EA013613D195EA0C0F05D1C5
:1008800052EA03361CBF104619460AD181EA030119
:1008900001F0004141F0FE4141F470014FF00000D1
:1008A00070BD41F0FE4141F4780170BD70B54FF06C
:1008B000FF0C4CF4E06C1CEA11541DBF1CEA1355EC
:1008C00094EA0C0F95EA0C0F00F0A7F8A4EB0504CE
:1008D00081EA030E52EA03354FEA013100F08880C5
:1008E0004FEA03334FF0805545EA131343EA12638E
:1008F0004FEA022245EA111545EA10654FEA002643
:100900000EF000419D4208BF964244F1FD0404F5FB
:10091000407402D25B084FEA3202B61A65EB030557
:100920005B084FEA32024FF480104FF4002CB6EB14
:10093000020E75EB030E22BFB61A754640EA0C0094
:100940005B084FEA3202B6EB020E75EB030E22BFD4
:10095000B61A754640EA5C005B084FEA3202B6EB15
:10096000020E75EB030E22BFB61A754640EA9C00D4
:100970005B084FEA3202B6EB020E75EB030E22BFA4
:10098000B61A754640EADC0055EA060E18D04FEA62
:10099000051545EA16754FEA06164FEAC30343EA02
:1009A00052734FEAC2025FEA1C1CC0D111F4801FCF
:1009B0000BD141EA00014FF000004FF0004CB6E7C8
:1009C00011F4801F04BF01430020B4F1FD0C88BF67
:1009D000BCF5E06F3FF6AFAEB5EB030C04BFB6EB72
:1009E000020C5FEA500C50F1000041EB045170BD65
:1009F0000EF0004E4EEA113114EB5C04C2BFD4EB92
:100A00000C0541EA045170BD41F480114FF0000E15
:100A1000013C90E645EA060E8DE60CEA135594EA91
:100A20000C0F08BF95EA0C0F3FF43BAF94EA0C0F94
:100A30000AD150EA01347FF434AF95EA0C0F7FF409
:100A400025AF104619462CE795EA0C0F06D152EA5D
:100A500003353FF4FDAE1046194622E750EA410641
:100A600018BF52EA43067FF4C5AE50EA41047FF452
:100A70000DAF52EA43057FF4EBAE12E74FF0FF3CB7
:100A800006E000BF4FF0010C02E000BF4FF0010C88
:100A90004DF804CD4FEA410C7FEA6C5C4FEA430C01
:100AA00018BF7FEA6C5C1BD001B050EA410C0CBF50
:100AB00052EA430C91EA030F02BF90EA020F0020B2
:100AC000704710F1000F91EA030F58BF994208BF19
:100AD00090422CBFD8176FEAE37040F001007047D6
:100AE0004FEA410C7FEA6C5C02D150EA013C07D12D
:100AF0004FEA430C7FEA6C5CD6D152EA033CD3D078
:100B00005DF8040B704700BF8446104662468C4671
:100B10001946634600E000BF01B5FFF7B7FF0028A4
:100B200048BF10F1000F01BD4DF808EDFFF7F4FFCD
:100B30000CBF012000205DF808FB00BF4DF808ED58
:100B4000FFF7EAFF34BF012000205DF808FB00BF7B
:100B50004DF808EDFFF7E0FF94BF012000205DF89D
:100B600008FB00BF4DF808EDFFF7CEFF94BF012052
:100B700000205DF808FB00BF4DF808EDFFF7C4FF4B
:100B800034BF012000205DF808FB00BF4FEA410C94
:100B90007FEA6C5C02D150EA013C0AD14FEA430C77
:100BA0007FEA6C5C02D152EA033C02D14FF00000B4
:100BB00070474FF0010070474FEA410212F50012F2
:100BC00015D211D56FF47873B3EB625212D94FEA94
:100BD000C12343F0004343EA505311F0004F23FA7E
:100BE00002F018BF404270474FF00000704750EAD3
:100BF000013005D111F0004008BF6FF00040704790
:100C00004FF00000704700BF4A0011D212F50012E9
:100C100011D20DD56FF47873B3EB62520ED44FEA54
:100C2000C12343F0004343EA505323FA02F07047D4
:100C30004FF00000704750EA013002D14FF0FF3012
:100C400070474FF0000070474FEA4102B2F1E043B5
:100C500024BFB3F5001CDCF1FE5C0DD901F0004CA3
:100C60004FEAC0024CEA5070B2F1004F40EB8300F3
:100C700008BF20F00100704711F0804F21D113F11F
:100C80003872BCBF01F00040704741F480114FEA58
:100C90005252C2F11802C2F1200C10FA0CF320FAE1
:100CA00002F018BF40F001004FEAC1234FEAD323FE
:100CB00003FA0CFC40EA0C0023FA02F34FEA430368
:100CC000CCE77FEA625307D150EA01331EBF4FF0F1
:100CD000FE4040F44000704701F0004040F0FE400C
:100CE00040F40000704700BF53B94AB9002908BF5B
:100CF00000281CBF4FF0FF314FF0FF3000F06AB901
:100D0000ADF1080C6DE904CE00F006F8DDF804E062
:100D1000DDE9022304B070472DE9F047089D0C4639
:100D2000002B4ED194468C458646B2FA82F262D9A7
:100D30004AB1C2F12003914020FA03F30CFA02FCFD
:100D4000194300FA02FE4FEA1C471FFA8CF6B1FB6A
:100D5000F7F44FEA1E4307FB141143EA014304FB77
:100D600006F199420AD91CEB030304F1FF3080F02D
:100D70001281994240F20F81023C6344591A1FFAD2
:100D80008EF3B1FBF7F007FB101143EA014300FBC0
:100D900006F69E420AD91CEB030300F1FF3180F0F6
:100DA000FC809E4240F2F980634402389B1B40EA7B
:100DB000044000211DB1D3400022C5E90032BDE846
:100DC000F0878B4205D90DB1C5E900010021084625
:100DD000F5E7B3FA83F1002946D1A34202D390424A
:100DE000C0F0F080861A64EB03030120002DE6D0EA
:100DF000C5E90063E3E7002A40F09080A1EB0C0412
:100E00004FEA1C481FFA8CF70121B4FBF8F64FEAB1
:100E10001E4308FB164443EA044307FB06F09842CE
:100E200008D91CEB030306F1FF3402D2984200F20A
:100E3000CD8026461C1A1FFA8EF3B4FBF8F008FB8F
:100E4000104443EA044300FB07F79F4208D91CEB18
:100E5000030300F1FF3402D29F4200F2B08020462B
:100E6000DB1B40EA0640A5E7C1F120068B4022FAD1
:100E700006F71F4320FA06FC04FA01F343EA0C03C9
:100E8000F44000FA01F8380C4FEA1349B4FBF0FEC5
:100E90001FFA87FC00FB1E4449EA04440EFB0CF9D0
:100EA000A14502FA01F20AD93C190EF1FF3A80F08D
:100EB0008480A14540F28180AEF1020E3C44A4EB57
:100EC00009041FFA83F9B4FBF0F300FB134449EA69
:100ED000044403FB0CFCA44507D93C1903F1FF3083
:100EE00067D2A44565D9023B3C4443EA0E40A0FBCF
:100EF0000293A4EB0C049C42CE469C4651D34ED0A8
:100F000055B1B8EB0E0364EB0C0404FA06F6CB40C3
:100F10001E43CC40C5E90064002150E7C2F1200324
:100F200020FA03F10CFA02FC24FA03F394400C4378
:100F30004FEA1C4800FA02FE1FFA8CF7B3FBF8F0E8
:100F400008FB1031230C43EA014300FB07F19942EF
:100F500008D91CEB030300F1FF362CD299422AD9A1
:100F6000023863445B1AA4B2B3FBF8F108FB1133F7
:100F700044EA034401FB07F3A34208D91CEB040431
:100F800001F1FF3613D2A34211D902396444E41AA5
:100F900041EA004139E70446F0E6084606E7C8455D
:100FA000AED2B9EB020E63EB070C0138A8E731466D
:100FB000EDE7034699E73046D4E7D6467FE763443A
:100FC00002384DE70646234608460FE7023E6344D3
:100FD00030E700BF704700BF08B5436803B108BDE4
:100FE00041600021034814F0D3FC034813F042FF92
:100FF000F5E700BFB89200200093002008B5037801
:1010000003B908BD00F10801FFF7E6FFF9E708B5ED
:10101000037803B908BD00F11001FFF7DDFFF9E720
:1010200008B5037803B908BD00F12001FFF7D4FF2C
:10103000F9E708B5037803B908BD00F12801FFF707
:10104000CBFFF9E738B543689A1C4260194631F87E
:10105000042B41605B8853B10C490968501EC8627B
:1010600052084A630A4A1268013BD36238BD0446FB
:10107000064D0021284614F00DFD054813F03EFFF3
:101080002A68002353636360F0E700BFB892002032
:101090000093002019B1012906D00020704700F507
:1010A000805090F86200704700F5805090F864001E
:1010B000704708B582B90A6800F58053A3F8462046
:1010C0004A68A3F848208A68A3F84A2000F58251AC
:1010D000043107F0B9FC08BD022A0BD00A6800F5FC
:1010E0008053A3F84C204A68A3F84E208A68A3F8DE
:1010F0005020EBE70A6800F58053A3F852204A68B5
:10110000A3F854208A68A3F85620DFE72DE9F843B6
:101110000C4611B92046BDE8F883814600F5825798
:101120000437384608F084FFA0428CBF0026012611
:101130002146384608F07EFF00B10326384608F005
:1011400077FF451EEDB2012E1DD0032E25D00126BE
:1011500009F58053D3F83831002B52D03746A846D2
:101160002A463146204610F0BCF9C4B209F5805930
:10117000D9F83821204602EB44035B7813F0010FC5
:10118000C8D1234619E0384608F052FF06463846D3
:1011900008F04CFF8519EDB2DAE7384608F048FF51
:1011A0000646384608F042FF0644F6B2384608F0D4
:1011B0003BFF0546CCE7013BDBB29E4205D802EB84
:1011C0004301497811F0010FF5D0A54208D302EB95
:1011D0004401497811F0010F02D10134E4B2F4E77F
:1011E000013FBB4207D0A5420DD0C21A201A82424D
:1011F00090DA1C468EE708F1010844458AD134464E
:1012000088E7344686E71C4684E700002DE9F84F5E
:1012100005460C46B1F802808F88CE888B8B13F080
:10122000010F43D0314BB3F800A0314BB3F800B0FD
:101230005A465146404610F054F980461FFA80F94C
:101240005A465146384610F04CF907461FFA80FAC4
:10125000284B1A88284B1988304610F042F9064668
:1012600080B2A38B13F0010F2FD0A4F80290A4F842
:1012700004A0E080A37C1E2B01D91E23A374A37DB0
:101280001E2B01D91E23A375A17A2846FFF73EFF26
:101290006081217B2846FFF739FFA081FF220A21C8
:1012A000A07F10F01EF9A077BDE8F88F0FFA88F044
:1012B00010F064F91FFA80F838B210F05FF987B2C5
:1012C00030B210F05BF986B2ACE70FFA88F010F09C
:1012D00047F91FFA80F938B210F042F91FFA80FA84
:1012E00030B210F03DF980B2BFE700BF1AF3010839
:1012F00016F3010812F3010814F3010808B50346B8
:10130000022907D00D4908881AB91B8E13F0010F66
:1013100003D008BD0A490888F6E700B210F020F9AA
:1013200080B2084BA3FB0023DB0803EB8303A0EB95
:1013300043039BB2C01A80B2EBE700BF1AF3010867
:1013400014F30108CDCCCCCC08B50F480088012996
:1013500001D93AB108BD13B10C4B1888F9E70C4B11
:101360001888F6E700B210F0FBF880B2094BA3FB37
:101370000023DB0803EB8303A0EB43039BB2C01AFB
:1013800080B20A3080B2E5E712F3010818F30108D1
:1013900016F30108CDCCCCCC08B522B9038E13F0DE
:1013A000010F00D00122038EC3F34023FFF7CCFFCF
:1013B00008BD0000F0B589B00646174601F5825415
:1013C00004341146204608F03FFE05466B460522D0
:1013D000014630461BF0E4FBBDB117B12B784E2B14
:1013E00002D1304609B0F0BD204608F021FEB842D7
:1013F00005D90C4A002130461BF012FBF1E70A4ADE
:10140000002130461BF00CFBEBE707AA074901A8B7
:101410001BF0DAFB01A930461BF0AEF901A81BF066
:101420000DF9DEE7BCDC0108C4DC0108CCDC0108F6
:1014300010B5044642B901F5805393F86220204666
:10144000FFF7B8FF204610BD012A01D00022F6E7C1
:1014500001F5805393F86420F1E72DE9F04F89B04E
:101460000746904699469DF848A09DF84CB000F577
:101470008053D3F8380170B14C1E032313E003EB03
:10148000430208EB8202002191700133DBB24B452D
:10149000F5D3002077E00023F9E7013B13F0FF03C9
:1014A0000DD0013C24B2002C09DDBAF1000FF4D0BC
:1014B00000EB4402527812F0010FF2D0EDE7002C5D
:1014C0005EDB002626E0BBF1000F3CD0BBF1010F34
:1014D00040D006EB460308EB8305E2B208F8232070
:1014E00007F58053D3F8383103EB44035B786B7016
:1014F000394602A8FFF75EFF0A220299A81C1BF0DA
:1015000061FF0136F6B24E452BD202A81BF096F8C9
:10151000013424B2019407F582550435284608F0B9
:1015200083FD844220DA002CF2D0BAF1000FCAD039
:1015300007F58053D3F8383103EB44035B7813F09D
:10154000010FC0D1E4E7284608F072FD019B9842E4
:10155000BFDC09E0284608F06BFD019B9842B8DD2E
:10156000D6E702A81BF06AF833464B450AD203EBD4
:10157000430208EB8202002191700133DBB2F4E7F1
:1015800000249EE7304609B0BDE8F08F08B5C28A56
:10159000B0F84A309A4259D1028BB0F84C309A4296
:1015A00056D1428BB0F84E309A4253D1828BB0F86C
:1015B00050309A4250D1428CB0F856309A424DD1B8
:1015C00090F8242090F858309A4249D1C28BB0F854
:1015D00052309A4246D1028CB0F854309A4243D1EC
:1015E00090F8262090F85A309A423FD1028DB0F8F8
:1015F0005C309A423CD190F82A2090F85E309A42B2
:1016000038D1028EB0F864309A4235D190F8252056
:1016100090F859309A4231D190F8322090F86630E3
:101620009A422DD1828DB0F860309A422AD190F83A
:101630002E2090F862309A4226D1142200F16801DF
:1016400034301BF0ADFE08BB012000E0002008BDD7
:101650000020FCE70020FAE70020F8E70020F6E78A
:101660000020F4E70020F2E70020F0E70020EEE79A
:101670000020ECE70020EAE70020E8E70020E6E7AA
:101680000020E4E70020E2E70020E0E70020DEE7BA
:1016900038B50446EB23C3820383C82343834FF446
:1016A00096638383052280F82620B423438480F840
:1016B0002420038580F82A20B3220286502280F855
:1016C0002520802280F83220012580F83350002226
:1016D00080F82E2083851422044934301BF072FEDA
:1016E000E583204608F0A4FC208438BD00F30108FF
:1016F00040F6FC0343803223838040F2DF23C38023
:1017000040F2C75303813B23438140F2FB138381A3
:101710006423C38120230382C3234382704710B50F
:10172000044652B1022A0FD040F2A46303224FF4C0
:10173000FA710EF065FD204610BDC8230A2240F262
:101740003F210EF05DFDF6E73223402296210EF098
:1017500057FDF0E7012903D029B990F8260070471A
:1017600090F82A00704790F82E007047012902D0A7
:1017700019B9408C7047008D7047808D70470229E1
:1017800003D0012903D0C08A7047408B7047008B7B
:101790007047000010B5044690F8343013B104F1DE
:1017A000340010BD1422024934301BF00BFEF6E762
:1017B00000F301082DE9F84F04460F4615461E4672
:1017C0009DF828B09DF82CA09DF830909DF83480AD
:1017D000038E03F00103934210D0002A49D0B0F9E0
:1017E00016000FF0CBFEE082B4F918000FF0C6FE31
:1017F0002083B4F91A000FF0C1FE6083238E03F03A
:101800000C03238615B143F0010323861FB1238EF9
:1018100043F0020323861EB1238E43F08003238608
:10182000BBF1000F03D0238E43F010032386BAF1DF
:10183000000F03D0238E43F020032386B9F1000F5D
:1018400003D0238E43F480732386B8F1000F03D0B6
:10185000238E43F400732386FF2201219DF8380074
:101860000FF03FFE84F83200B8F1000F11D1BDE84F
:10187000F88FB0F916000FF073FEE082B4F918008B
:101880000FF06EFE2083B4F91A000FF069FE60833A
:10189000B4E7002211462046FFF77EFDE38A83422B
:1018A00000D9E082238B8342E1D92083DFE7000067
:1018B00000B59DF80CC0BDF810E080F82630BDF8EA
:1018C000043043849DF8083080F82430038E23F0E0
:1018D0000C039BB2038611B143F0040303861AB1D3
:1018E000038E43F008030386BCF14B0F01D94FF080
:1018F0004B0CBEF5A07F05D8BEF1040F04D84FF005
:10190000050E01E04FF4A07E0CF10403DBB20C4A9B
:10191000A2FB03239B081B01DBB280F825300EF1EC
:10192000FF3E084A82FB0E124FEAEE7ECEEBE20E3D
:101930000EF00F0E43EA0E0380F825305DF804FB2D
:10194000CDCCCCCC6766666610B5044608462285C9
:101950001E2200210FF0C5FD84F82A0010BD39B108
:10196000018E41F04001018680F82E20838570476A
:10197000018E21F040010186F6E70AB9C182704765
:10198000012A00D070470183FCE7418382837047BE
:1019900010B500F1140300F1480244301C68D3F87C
:1019A00004E0D3F808C0D9681460C2F804E0C2F8B3
:1019B00008C0D160103310328342EFD11B6813602E
:1019C00010BD38B5044600F5825504352846FFF7AA
:1019D000DDFD00B138BD04F582511831204607F015
:1019E000DBF82846FFF7D4FFF4E710B500F1480311
:1019F00000F1140278301C68D3F804E0D3F808C072
:101A0000D9681460C2F804E0C2F808C0D16010338D
:101A100010328342EFD11B68136010BD90F825008F
:101A2000000900EB8000704790F8250000F00F00DF
:101A3000013000EB80008000704710B5044642B1D1
:101A4000022A0CD08B894A8909890EF0D9FB2046DD
:101A500010BDCB888A8849880EF0D2FBF7E74B8A05
:101A60000A8AC9890EF0CCFBF1E7022901D90020CE
:101A7000704701EB810100EB4100007AC0F34000A8
:101A80007047022A21D800B5B1F800E002EB820CC1
:101A900000EB4C0320F81CE0B1F802C0A3F802C030
:101AA000B1F804C0A3F804C0B1F806C0A3F806C09A
:101AB00091F808C083F808C091F90E3002EB820259
:101AC00000EB420043725DF804FB7047022900D925
:101AD000002101EB810100EB410090F90900704702
:101AE000032905D802EB8202114430F81100704737
:101AF00000207047022A04D00C3100EB4100C0885E
:101B00007047103100EB4100C0887047022B00F293
:101B100096802DE9F04F85B005460E4617461C46C7
:101B200003EB830300EB430292F90990A7EB090949
:101B300030F81380884524D804EB840300EB43037A
:101B4000B3F80680884551D204EB840300EB4303CD
:101B5000B3F802A0D0455CD922460121FFF7CAFFA5
:101B600000EB090B224603212846FFF7C3FF484438
:101B700000905B464246514630460FF0A1FC00B251
:101B80000CE022460021FFF7B5FF484400903B4699
:101B90004246002130460FF0ADFC00B240F2E73281
:101BA00039460FF09EFC80B205B0BDE8F08F08F119
:101BB000FF3204EB8403134435F813B01146224678
:101BC000C9B22846FFF796FF00EB090303932246AC
:101BD00041462846FFF78EFF48440090039B52463B
:101BE000594630460FF086FC00B2D7E74FF00108A7
:101BF000B8F1030F0BD804EB8403434435F813A06A
:101C0000B245D4D808F101085FFA88F8F0E700205F
:101C1000C4E722460121FFF76DFF00EB09082246C9
:101C200003212846FFF766FF484400904346054AD3
:101C30001288514630460FF043FC00B2AEE7002058
:101C4000704700BF1EF3010810B5044600F586502A
:101C5000FFF75CFF04F58054B4F8743013F0010F03
:101C600000D010BD00B20FF07BFC80B2F9E700009D
:101C70002DE9F04F85B00546039116461C469DF8A8
:101C800038B000F5865919464846FFF71FFF371A46
:101C9000224600214846FFF72DFFBFB200EB0708A0
:101CA0001FFA88F8224603214846FFF723FF07441E
:101CB000BFB205F5825A0AF1040A012221465046B4
:101CC000FFF71CFB0290012221465046FFF764FB00
:101CD0008246BBF1000F01D06423029305F58053C7
:101CE000B3F8743013F0010F26D0524602990398CE
:101CF0000FF0F7FB1FFA80FA394BB3F800B0224619
:101D000000214846FFF7ECFE029022460321484698
:101D1000FFF7E6FE0090029B3A46414650460FF020
:101D2000CFFB80B2B0EB5B0F1DDDA0EBAB07BFB20A
:101D30004FF00008C14633E00FFA88F00FF010FCB6
:101D40001FFA80F838B20FF00BFC87B2BDF908001B
:101D50000FF006FC83B202930FFA8AF00FF000FC3A
:101D60001FFA80FAC1E75B46BBF1000F03DB00EB13
:101D7000A307BFB2DCE70BF10303F8E77B1CB9460E
:101D80009FB209E009EB070303EBD373C3F34F03DF
:101D90009F421CD0BB461F4608F101085FFA88F835
:101DA000B8F1130F17D82346324639462846FFF7B5
:101DB0004BFF82450FD0E5D907EB0B0303EBD37341
:101DC000C3F34F039F42D9D0B9461F46E4E77B1EB9
:101DD000BB469FB2E0E7384605B0BDE8F08F00BFD4
:101DE0001EF30108002308E002EB820C9C4430F84B
:101DF0001CC021F813C00133DBB2032BF4D97047A8
:101E000030B59DF80C504FF0000C0AE031F81C4042
:101E100003EB830EE64420F81E400CF1010C5FFA40
:101E20008CFCBCF1030FF1D903EB830100EB410102
:101E30004A7201220A7215B10A460321117203EB9C
:101E4000830200EB4202D188044A1288914204D9ED
:101E500003EB830300EB4300C28030BD1EF3010897
:101E600000230CE003F1140200EB4202B2F806C0BA
:101E700001EB81021A4420F812C00133DBB2032BBC
:101E8000F0D9064B93F9002001EB810300EB4303EB
:101E90005A72184601230372704700BF11F30108FC
:101EA00008B5FFF7DDFF08BDC38D0B80038E4B80A7
:101EB000438E8B80838ECB80704700F58053D3F8A0
:101EC0003831002B4BD0F0B585B004460D464F009D
:101ED00013F81120FF2A14D00123694606F026FCCE
:101EE00020BB9DF8083083F001038DF808300122F3
:101EF0006946204606F086FE061E19DA002005B067
:101F0000F0BD00F58250043008F09EF8014668B13B
:101F100005220DF109001BF055FA694604F58650BB
:101F2000FFF7C2FF01238DF80830E0E70020E6E765
:101F300004F58250043008F077F8864201DB002077
:101F4000DDE704F58054D4F8383103F81560D4F88F
:101F500038313B449DF808205A700120CFE700201B
:101F600070470B884A88934211D2D31AC08E83429D
:101F70000FDB8B889A420ED29A1A90420DDCCA88E7
:101F800093420CD2D21A90420BDC01207047002001
:101F900070470020704700207047002070470020E5
:101FA000704700207047F0B585B000F58053D3F836
:101FB0003831002B59D004460E461546022921D14E
:101FC000002504F58053D3F8383113F81520FF2A83
:101FD0002ED000236946204606F0A8FB78BB9DF86A
:101FE000083013F0020F33D004F5865469462046BA
:101FF000FFF7B7FF054690BB31462046FFF730FF9D
:10200000012522E000F582570437384608F010F821
:10201000A84201D906B10125384608F009F8A842BE
:10202000CFD8012ECDD0384608F002F80546C8E7D3
:10203000314604F58650FFF713FF002505E03146D1
:1020400004F58650FFF70CFF0025284605B0F0BDCB
:10205000314604F58650FFF703FF0125F5E73246C8
:1020600069462046FFF70DFDEFE70025EDE770B567
:1020700004460E4679B90225324629462046FFF726
:1020800092FF38B195B904F58053A3F862602046F9
:10209000FFF797FC70BD00F58250043007F0C8FFD1
:1020A000B04201D90025E7E70125E5E7012DEED192
:1020B00004F58053A3F86460E9E72DE9F04385B0A7
:1020C00004460E461D461388ADF800305388ADF81F
:1020D00002309388ADF80430D388ADF806308DF81F
:1020E00008509DF930308DF80E3000F58053D3F84C
:1020F00038314F0003EB41035D7000F5825004302E
:1021000007F0A2FF38B18146694604F58650FFF713
:1021100028FF804670B904F58054D4F838313B4428
:102120005A7822F002025A704FF00008404605B07B
:10213000BDE8F083052249460DF109001BF042F984
:1021400000226946204606F05DFD0028E3DB04F529
:102150008054D4F8383103F81600D4F838313B44B1
:102160005D70E3E72DE9F04F85B006460F46002489
:10217000A04616E00DF10901484607F07BFF0FFA73
:1021800080F9B9F1000F0ADB9DF808A0BAF1000F41
:1021900005D007EB490B17F81930FF2B1DD0013480
:1021A00024B206F5825909F10409484607F03CFFBC
:1021B00084420ADAE5B201232A466946304606F02F
:1021C000B5FA0028D6D00128E9D1304606F088F9C2
:1021D0005FFA88F005B0BDE8F08F694606F58650D5
:1021E000FFF7BFFE18B92AF0020A8DF808A007F819
:1021F00019509DF808308BF8013008F101081FFADA
:1022000088F8CCE7F8B5054600F582560436304626
:1022100007F00AFF40001AF0B3FF05F58053C3F83A
:102220003801A8B100240EE005F58053D3F8382119
:10223000FF2102F81410D3F8383103EB44030022D5
:102240005A700134E4B2304607F0EEFEA042EBD8FB
:10225000284606F022FA0446002855D105F5805399
:10226000D3F8381191B32846FFF77CFF074605F5F0
:10227000825618363146284606F0E8FA40B3314611
:102280002846FEF7C3FF05F582510431284606F0C3
:102290009CFB98B3002202212846FFF784FE05F537
:1022A000805696F8622000212846FFF77CFE96F8BB
:1022B000642001212846FFF776FE05F582500430A0
:1022C000FFF766FB002F43D02046F8BD0746CEE758
:1022D00005F582500430FFF7DBF905F5805696F8D6
:1022E00062102846FEF712FFA6F8620096F8641006
:1022F0002846FEF70BFFA6F86400C4E705F58250F8
:102300000430FFF7F5F9C5E705F58257043738467D
:10231000FFF7BEF93846FFF7EBF9022105F58650C5
:10232000FFF79EFD012200212846FFF73CFE3046C4
:1023300007F07EFE024601212846FFF734FE3846AC
:10234000FFF726FB012C05D0022C05D00024BBE7AB
:102350000124B9E70224B7E70324B5E708B500F57F
:102360008053D3F8381109B9002008BDFFF7FAFEF1
:102370000120FAE7014B0360704700BF4CE1010800
:1023800070470000024A0260024A0260704700BFC4
:1023900074E101084CE10108704700207047704764
:1023A000014B0360704700BFF8E101082DE9F043DD
:1023B000B2EB510F07D9914200D20A468A1AD2B223
:1023C0004626002701E0002646277AB1B1FBF2FE3F
:1023D0005FFA8EF802FB1E14E4B24FEA5E0E002391
:1023E0009C461EE020F812600132D2B28A42F9D334
:1023F000BDE8F08320F81370C6445FFA8EFEA44453
:102400005FFA8CF54FFA8CFC0CEB5409914506DB16
:102410000EF1010E5FFA8EFEAD1A4FFA85FC013304
:10242000DBB28B42E4D29E45E4D920F81360F6E794
:10243000002305E0044A002122F8131001339BB267
:10244000EF2BF7D9704700BF7C7F002038B50546D9
:1024500010F096FB00F5967410F092FBA04205D2A6
:102460000E4B5B6A002BF7D10D4B5D6210F088FBC1
:1024700000F5967410F084FBA04208D2074B5B6A0B
:10248000002BF7D14FF08043586A80B204E0044B30
:10249000D86A80B2013080B238BD00BF0000014070
:1024A000000C004008B50A4B1B783BB1094B0020DB
:1024B0005863986303F57443186408BD0322064902
:1024C000064810F05BFD0120014B1870F5E700BFD6
:1024D0007C810020000C004068810020989600203C
:1024E00008B50F4B1B7863B90E4B1B788BB10222DA
:1024F0000D490E4810F042FD094B02221A700120CE
:1025000008BD0B4B00205863986303F574431864AF
:10251000F6E704220749084810F030FDECE700BF59
:102520007C8100200400002070810020E0960020C3
:10253000000C0040748100202897002010B504464C
:10254000044B0360044B036050211AF023F820462B
:1025500010BD00BF74E101084CE1010810B504464C
:10256000034B036050211AF015F8204610BD00BF40
:102570004CE1010810B50446034B036024211AF016
:1025800009F8204610BD00BFF8E1010808B508466B
:1025900018F05EFE08BD08B5084618F04BFE08BDF1
:1025A00008B5084618F038FE08BD08B518F026FE34
:1025B00008BD08B518F014FE08BD08B517F01EFDDB
:1025C00008BD0000154A1178002280F8422080F8EA
:1025D000402080F8411080F8862080F8842080F820
:1025E000851080F8CA2080F8C82080F8C910A0F8AB
:1025F000CC20A0F8CE20A0F8D020A0F8D22080F8DF
:10260000D420C0F8D82080F8DC2080F8DD20A0F8A5
:10261000DE20A0F8E020A0F8E22070471DF30108BA
:1026200038B5044614234360002505814581C56003
:102630000A23036143618561C361052303620B23A0
:102640008384012380F826302830FFF7BBFF1C4B22
:102650002360082384F80C31C4F8105184F80C313D
:10266000C4F8105184F8145184F815514FF4C8710E
:10267000A4F816114FF4FA72A4F8182184F81C314A
:10268000C4F8205184F81C31C4F8205184F8245136
:1026900084F82551A4F82611A4F8282184F82C31B7
:1026A000C4F8305184F82C31C4F8305184F83451D6
:1026B00084F83551A4F83611A4F83821204638BDE5
:1026C00008E1010810B50446FFF7AAFF354B236067
:1026D0000023A4F83C31A4F83E31A4F84031A4F81A
:1026E0004231042284F8442184F84531A4F846316B
:1026F00084F8483184F84931082284F84C21C4F820
:10270000503184F84C21C4F8503184F85421C4F875
:10271000583184F85421C4F8583184F85C21C4F845
:10272000603184F85C21C4F8603184F86421C4F815
:10273000683184F86421C4F8683184F86C21C4F8E5
:10274000703184F86C21C4F8703184F87431A4F8C5
:1027500076314FF47A71A4F87811142384F87A3121
:102760006420A4F87C0184F87E214FF4FA72A4F866
:102770008021A4F88211032284F884210E2284F897
:10278000852184F88631052384F88731022384F873
:1027900088310D2384F8893144F62063C4F88C31E4
:1027A000204610BD4CED010810B50446FFF738FF78
:1027B000454B2360002384F83C3184F83D3184F894
:1027C0003E31012184F83F1184F84031A4F84231B0
:1027D000A4F84431A4F84631C4F84831A4F84C3187
:1027E000C4F85031082284F85421C4F8583184F8D0
:1027F0005421C4F8583184F85C21C4F8603184F85D
:102800005C21C4F8603184F86421C4F8683184F82C
:102810006421C4F8683184F86C21C4F8703184F8FC
:102820006C21C4F8703184F87421C4F8783184F8CC
:102830007421C4F8783184F87C21C4F8803184F89C
:102840007C21C4F88031A4F8843184F88631A4F85E
:10285000883184F88A31462384F88B31782384F8D0
:102860008C314FF42F73A4F88E3140F2CF73A4F85B
:1028700090314FF4C863A4F892317D23A4F89431C9
:10288000124BC4F898314EF66023C4F89C314FF4D3
:10289000FA72A4F8A0214FF47A72A4F8A2211E22A1
:1028A00084F8A4213C2284F8A5210D2284F8A621D5
:1028B000062284F8A7210A2284F8A821C4F8AC11C2
:1028C000C4F8B031204610BD08ED0108407E050077
:1028D0002DE9F041034600220270E649416000F113
:1028E00010018160C2600274E349016200F12C01B1
:1028F0004162826280F82C20E049C16300F1480106
:102900000164426480F84820DD49816500F164017A
:10291000C165026680F86420DA49416700F18001F0
:102920008167C26780F88020D749C0F8901000F115
:102930009C01C0F89410C0F8982080F89C20D34FD8
:10294000C0F8AC7000F1B801C0F8B010C0F8B42005
:1029500080F8B820CE49C0F8C81000F1D401C0F802
:10296000CC10C0F8D02080F8D420CA49C0F8E410B8
:1029700000F1F001C0F8E810C0F8EC2080F8F02079
:10298000C54CC0F8004100F58671C0F80411C0F8CC
:10299000082180F80C21C149C0F81C1100F5947180
:1029A000C0F82011C0F8242180F82821BC49C0F8C3
:1029B000381100F5A271C0F83C11C0F8402180F830
:1029C0004421B849C0F8541100F5B071C0F858114D
:1029D000C0F85C2180F86021B349C0F8701100F59F
:1029E000BE71C0F87411C0F8782180F87C21AF491D
:1029F000C0F88C1100F5CC71C0F89011C0F894218A
:102A000080F89821AA49C0F8A81100F5DA71C0F839
:102A1000AC11C0F8B02180F8B421A649C0F8C411A7
:102A200000F5E871C0F8C811C0F8CC2180F8D021B9
:102A3000A149C0F8E01100F5F671C0F8E411C0F842
:102A4000E82180F8EC219D49C0F8FC1100F50271E5
:102A5000C0F80012C0F8042280F808229849C0F893
:102A6000181200F50971C0F81C12C0F8202280F875
:102A700024229449C0F8341200F51071C0F83812BD
:102A8000C0F83C2280F840228F49C0F8501200F56F
:102A90001771C0F85412C0F8582280F85C228B4895
:102AA000C3F86C0203F51E71C3F87012C3F87422E8
:102AB00083F878228649C3F8881203F52571C3F894
:102AC0008C12C3F8902283F894228249C3F8A4128E
:102AD00003F52C71C3F8A812C3F8AC2283F8B02216
:102AE0007D49C3F8C01203F53371C3F8C412C3F8AB
:102AF000C82283F8CC227949C3F8DC1203F53A7175
:102B0000C3F8E012C3F8E42283F8E822DFF8E8E132
:102B1000C3F8F8E203F54171C3F8FC12C3F80023CF
:102B200083F804236E4DC3F8145303F54871C3F8BA
:102B30001813C3F81C2383F820236A4EC3F83063AC
:102B400003F54F71C3F83413C3F8382383F83C23DB
:102B50006549C3F84C1303F55671C3F85013C3F815
:102B6000542383F858236149C3F8681303F55D7152
:102B7000C3F86C13C3F8702383F87423C3F8840379
:102B800003F56471C3F88813C3F88C2383F890238A
:102B9000DFF868C1C3F8A0C303F56B71C3F8A413D1
:102BA000C3F8A82383F8AC235149C3F8BC1303F539
:102BB0007278C3F8C083C3F8C42383F8C823DFF84E
:102BC0004081C3F8D88303F57978C3F8DC83C3F870
:102BD000E02383F8E423C3F8F4E303F5806EC3F83D
:102BE000F8E3C3F8FC2383F80024C3F8105403F27D
:102BF0001C4EC3F814E4C3F8182483F81C24C3F84B
:102C00002C0403F5876EC3F830E4C3F8342483F84A
:102C10003824C3F848C403F2544CC3F84CC4C3F876
:102C2000502483F85424C3F8641403F58E6CC3F85D
:102C300068C4C3F86C2483F87024C3F8807403F26A
:102C40008C47C3F88474C3F8882483F88C24294FF4
:102C5000C3F89C7403F59567C3F8A074C3F8A42463
:102C600083F8A824C3F8B86403F2C446C3F8BC646C
:102C700048E000BFD4DC0108E0DC0108ECDC01081E
:102C8000FCDC01080CDD010818DD010824DD010869
:102C900034DD010844DD01084CDD010854DD010884
:102CA00060DD010868DD010870DD010880DD0108D4
:102CB00090DD01089CDD0108A8DD0108B4DD0108F4
:102CC000C0DD0108D0DD0108E0DD0108ECDD010810
:102CD000F4DD0108FCDD01080CDE010818DE010846
:102CE00030DE010840DE010850DE01085CDE01082C
:102CF00078DE010898DE010824DE010868DE01089C
:102D000088DE0108C3F8C02483F8C424C3F8D4546F
:102D100003F59C65C3F8D854C3F8DC2483F8E02499
:102D2000C3F8F00403F2FC40C3F8F404C3F8F82439
:102D300083F8FC24EA48C3F80C0503F5A360C3F844
:102D40001005C3F8142583F81825C3F8281503F2D5
:102D50003450C3F82C05C3F8302583F83425E148F6
:102D6000C3F8440503F5AA60C3F84805C3F84C2529
:102D700083F85025DC48C3F8600503F26C50C3F8B3
:102D80006405C3F8682583F86C25D848C3F87C052A
:102D900003F5B160C3F88005C3F8842583F888255E
:102DA000D348C3F8980503F2A450C3F89C05C3F8B0
:102DB000A02583F8A425C3F8B44503F5B860C3F88B
:102DC000B805C3F8BC2583F8C025CA48C3F8D005A8
:102DD00003F2DC55C3F8D455C3F8D82583F8DC25B5
:102DE000C54DC3F8EC5503F5BF65C3F8F055C3F8FE
:102DF000F42583F8F825C14DC3F8085603F214658D
:102E0000C3F80C56C3F8102683F81426BC4DC3F83B
:102E1000245603F5C665C3F82856C3F82C2683F854
:102E20003026C3F8401603F24C61C3F84416C3F8C9
:102E3000482683F84C26B349C3F85C1603F5CD61E8
:102E4000C3F86016C3F8642683F86826AE49C3F851
:102E5000781603F28461C3F87C16C3F8802683F8E1
:102E60008426AA49C3F8941603F5D461C3F89816CA
:102E7000C3F89C2683F8A026A549C3F8B01603F230
:102E8000BC61C3F8B416C3F8B82683F8BC26C3F8EF
:102E9000CC4603F5DB61C3F8D016C3F8D42683F81B
:102EA000D8269C49C3F8E81603F2F461C3F8EC167F
:102EB000C3F8F02683F8F4269749C3F8041703F5FE
:102EC000E261C3F80817C3F80C2783F81027934969
:102ED000C3F8201703F22C71C3F82417C3F828276E
:102EE00083F82C278E49C3F83C1703F5E961C3F832
:102EF0004017C3F8442783F848278A49C3F858176E
:102F000003F26471C3F85C17C3F8602783F8642781
:102F10008549C3F8741703F5F061C3F87817C3F84F
:102F20007C2783F880278149C3F8901703F29C71AE
:102F3000C3F89417C3F8982783F89C277C49C3F8F3
:102F4000AC1703F5F761C3F8B017C3F8B42783F8DB
:102F5000B8277849C3F8C81703F2D471C3F8CC175F
:102F6000C3F8D02783F8D4277349C3F8E41703F5CF
:102F7000FE61C3F8E817C3F8EC2783F8F0276F4920
:102F8000C3F8001803F60C01C3F80418C3F80828A6
:102F900083F80C286A49C3F81C1803F62801C3F803
:102FA0002018C3F8242883F828286649C3F838185D
:102FB00003F64401C3F83C18C3F8402883F84428BA
:102FC0006149C3F8541803F50661C3F85818C3F8EB
:102FD0005C2883F86028C3F8700803F67C01C3F806
:102FE0007418C3F8782883F87C285849C3F88C18DB
:102FF00003F69801C3F89018C3F8942883F898282A
:103000005349C3F8A81803F6B401C3F8AC18C3F8C1
:10301000B02883F8B4284F49C3F8C41803F50D61EC
:10302000C3F8C818C3F8CC2883F8D0284A49C3F895
:10303000E01803F6EC01C3F8E418C3F8E82883F8B5
:10304000EC284649C3F8FC1803F60811C3F8001928
:10305000C3F8042983F808294149C3F8181903F66D
:103060002411C3F81C19C3F8202983F824293D49E9
:10307000C3F8341903F51461C3F83819C3F83C29AF
:1030800083F840293849C3F8501903F65C11C3F896
:103090005419C3F8582983F85C293449C3F86C19CA
:1030A00003F67811C3F87019C3F8742983F87829E6
:1030B0002F49C3F8881903F69411C3F88C19C3F883
:1030C000902983F894292B49C3F8A41903F51B61AF
:1030D000C3F8A819C3F8AC2983F8B0294CE000BFA5
:1030E000A4DE0108B4DE0108C0DE0108CCDE010860
:1030F000D4DE0108DCDE0108E8DE0108F0DE0108AC
:10310000F8DE010800DF010810DF010820DF0108F8
:103110002CDF010838DF01083CDF010840DF01082F
:1031200048DF010850DF010858DF010860DF0108AF
:1031300068DF010870DF010874DF010878DF01082B
:103140007CDF010880DF010888DF010890DF0108CB
:103150009CDF0108B0DF0108C4DF0108D4DF0108EB
:10316000E4DF0108FCDF010814E001081CE00108AD
:1031700028E0010834E001084849C3F8C01903F603
:10318000CC11C3F8C419C3F8C82983F8CC29444921
:10319000C3F8DC1903F6E811C3F8E019C3F8E42911
:1031A00083F8E8293F49C3F8F81903F60421C3F866
:1031B000FC19C3F8002A83F8042A3B49C3F8141AFF
:1031C00003F52261C3F8181AC3F81C2A83F8202AD1
:1031D0003649C3F8301A03F63C21C3F8341AC3F851
:1031E000382A83F83C2A3249C3F84C1A03F658218E
:1031F000C3F8501AC3F8542A83F8582A2D49C3F843
:10320000681A03F67421C3F86C1AC3F8702A83F89D
:10321000742A2949C3F8841A03F52961C3F8881A66
:10322000C3F88C2A83F8902A2449C3F8A01A03F61D
:10323000AC21C3F8A41AC3F8A82A83F8AC2A204901
:10324000C3F8BC1A03F6C821C3F8C01AC3F8C42ACD
:1032500083F8C82A1B49C3F8D81A03F6E421C3F837
:10326000DC1AC3F8E02A83F8E42A1749C3F8F41AF1
:1032700003F53061C3F8F81AC3F8FC2A83F8002B71
:10328000124A92E80300C3F8100BA3F8141B090CB0
:1032900083F8161B1846BDE8F08100BF3CE001082A
:1032A00040E0010844E0010854E0010860E0010842
:1032B00070E0010880E0010894E00108A0E0010846
:1032C000B4E00108B8E00108BCE00108FCDB01083B
:1032D00070B50646051D00F5316403E01C3C201D59
:1032E00019F0ACF9A542F9D1304670BD10B50446CD
:1032F000114B036000F6A43018F0C8F904F53A60E9
:1033000017F000F804F69C3016F0FCFF04F6983035
:1033100016F0F8FF04F6943016F0F4FF04F5396067
:1033200016F0F0FF04F16400FFF7D2FF034B2360B7
:10333000034B2360204610BD9CE1010874E10108A5
:103340004CE1010810B50446FFF7D0FF4FF43D6192
:10335000204619F01FF9204610BD000038B504467C
:10336000043018F063FE344B2360344B2360002597
:10337000A4F85050A4F85450A565E565A4F8605031
:1033800084F8625004F16400FFF7A2FA2C4B23602A
:103390002C4BC4F87C3BA4F8805B4FF6FF72A4F87A
:1033A000822B4FF4FC61A4F8841B4FF47841A4F8FD
:1033B000861BFF21A4F8881B4FF6E071A4F88A1B36
:1033C0004CF21861A4F88C1B84F88E5BC4F8905BF7
:1033D000C4F8945BC4F8985BC4F89C5BC4F8A05B29
:1033E000C4F8A45B84F8A82B9622A4F8AA2BA4F80E
:1033F000AC5BA4F8AE5BA4F8B05BA4F8B25BC822E7
:10340000A4F8B42B6E22A4F8B62B5A22A4F8B82B39
:103410003C21A4F8BA1BA4F8BC2B2022A4F8BE2B94
:103420001922A4F8C02B084AC4F8C42BC4F8C83B1E
:10343000C4F8CC3B204638BD4CE1010874E10108DA
:103440009CE101086CF8010874EB010830B5864670
:103450000123037000234360124C00F1080304F1C0
:10346000080292E8030083E803000EF1100504F15E
:1034700010030FCB85E80F000EF1200304F12002AA
:1034800092E8030083E803000EF1280504F1280CFC
:10349000BCE80F000FC59CE8030085E803007046F8
:1034A00030BD00BFFCDB010803460D4A02F1400CB1
:1034B000BCE80300C3F81E00C3F8221002F1480C58
:1034C000BCE80300C3F82600C3F82A10503203CA30
:1034D000C3F82E00C3F832106422DA86184670470B
:1034E000FCDB010870B505460026067000F5805427
:1034F00084F82C604FF48053E3850B4B23630B4B14
:1035000063630B4BA3630B4BE3630B4B236400F52B
:103510008650FFF7C9FF05F587501830FFF796FF73
:10352000C4F83861284670BDC4E00108D0E0010845
:10353000DCE00108E8E00108F4E0010810B5044609
:10354000303019F07BF804F1180019F077F82046B4
:1035500019F074F8204610BD164A0260002202716C
:1035600082608281026142618261C2610262816025
:103570001149016080F82420A0F8462080F84820F6
:10358000C26402654265A0F8582080F85A204FF4C2
:103590001672A0F85C200949016640F6B831416610
:1035A00041F288318166A0F86C204FF4C872A0F80F
:1035B0006E207047F8E101087CF00108C0D40100DA
:1035C0000F4A0260002202718260828102614261C0
:1035D0008261C261026281600A490160012180F852
:1035E000241080F8322080F833204263826340F256
:1035F000DC518187C2874FF41672A0F840207047D3
:10360000F8E1010898F001080E4A026000220271F8
:1036100082608281026142618261C2610262816074
:10362000094901604262826280F82C2080F82D20D6
:1036300080F82E2080F82F2080F830200322428648
:10364000704700BFF8E10108B4F0010810B41C4A4B
:1036500002600022027182608281026142618261A5
:10366000C26102628160174901600621818441F2D2
:103670008834846280F82C200263426382638287EC
:10368000C287A0F84020A0F84220A0F844204FF0C4
:10369000FA0CA0F846C080F84820C264A0F8502078
:1036A00080F85220A0F854104FF4FA6282654FF46B
:1036B000C871A0F85C1002665DF8044B704700BF4B
:1036C000F8E10108D0F0010810B40D4A02600022B0
:1036D000027182608281026142618261C261026222
:1036E00081600146074C41F8244B42624A608A607F
:1036F000CA600A61652280F838205DF8044B704783
:10370000F8E10108ECF001080F4A026000220271A2
:1037100082608281026142618261C2610262816073
:103720000A4901608284C28480F8282080F8292018
:1037300080F82A20012280F82B204FF448728285DD
:10374000032280F82E207047F8E1010840F10108BB
:1037500070B582B004461646134B03600025057110
:1037600085608581056145618561C561056281600E
:103770000E4B036080F82850458501AA0C492C3077
:1037800019F022FA6564A564E564FF2384F85030DB
:1037900084F85150652384F852304EF660236365F7
:1037A0006662204602B070BDF8E101085CF10108D4
:1037B000FCE00108124A02600022027182608281EC
:1037C000026142618261C261026281600D490160F1
:1037D00080F82420022180F82510012180F826108D
:1037E00080F8272080F8282080F8292080F82A20D7
:1037F000C26280F8302080F8312080F83220704793
:10380000F8E1010814E2010810B50446FFF7D2FF01
:10381000164B2360082384F834300023A363052269
:1038200084F83420A363E36323646364A364E364E0
:1038300023656365A365A4F85C30012284F85E20EB
:10384000236684F864204FF4FA73A4F8663040F2DB
:10385000DC52A4F86820E36640F6B833A4F8703070
:1038600047F230536367204610BD00BF28F30108BC
:1038700010B41A4C046000240471846084810461D3
:1038800044618461C46104628160154901604462DD
:10389000012180F8281080F8291080F82A4080F84B
:1038A0002B1080F82C1080F82D4080F82E406421D9
:1038B00080F82F1080F8304080F8314080F8324096
:1038C00080F8334080F83440042180F83510072117
:1038D00080F8361042625DF8044B7047F8E1010849
:1038E00004EF010810B4154C0460002404718460D6
:1038F0008481046144618461C4610462816010490F
:103900000160846280F82C4080F82D4080F82E40C1
:10391000048680F8324080F83340848680F8364050
:1039200080F83740022180F83810062180F83910DD
:103930007821418742625DF8044B7047F8E1010845
:103940003CEF0108014B1878704700BF60810020F0
:1039500008B502480DF0D8F880B208BD747F002089
:103960002DE9F04F87B00024A94B5C63A94D284690
:103970000FF0E6F9642128460FF0A4FA28460FF06C
:1039800007FC87B2642128460FF09CFA28460FF006
:10399000FFFB1FFA80FA642128460FF093FA2846AD
:1039A0000FF0F6FB1FFA80FB642128460FF08AFA1D
:1039B00028460FF0EDFB059028460FF063FA964D70
:1039C00028460FF0BDF9642128460FF07BFA2846FF
:1039D0000FF0DEFB1FFA80F8642128460FF072FA20
:1039E00028460FF0D5FB1FFA80F928460FF04AFA57
:1039F0008A4B0A221A705C6019784FF47A7201FBC4
:103A000002F25A60864D2B681B6C283B854A138056
:103A1000854EBDF814300293CDF804B0CDF800A067
:103A20004B4642463946304605F030FE074606F51D
:103A30004056032386F8F13F86F8F03F7B4E304630
:103A400011F018FAF0237A4A0C21304612F068F887
:103A50002146284611F09CFF0421284611F098FFCA
:103A60000821284611F0DAFE0C21284611F0D6FE76
:103A70002146704811F08CFF6F4EDFF804926F4DB5
:103A800033464A463146284609F0A0FCDFF8E88173
:103A9000334642462946484609F098FC33462A46B2
:103AA0002946404609F092FCDFF8D091C8F82490EE
:103AB0002B462A462946624809F088FCDFF8C48173
:103AC0002B462A4641465F4809F080FC2B462A4691
:103AD0002946404609F07AFC2B462A4629464846A4
:103AE00009F074FCDFF8A0812B462A46294640469F
:103AF00009F06CFCDFF894A1434642462946504643
:103B000009F064FC2B462A4631464F4809F05EFC1A
:103B10002B462A4631464D4809F058FC2B462A468A
:103B200031464B4809F052FC2B462A46314649485B
:103B300009F04CFC2B462A463146474809F046FC22
:103B40002B462A462946304609F040FC434E334670
:103B50002A462946424809F039FC2B462A4629467E
:103B6000304609F033FC2B462A4629463D4809F0E9
:103B70002DFC2B462A4649463B4809F027FC434684
:103B800042462946504609F021FC23462246294652
:103B9000364809F01BFC364801F08CFE022F1FD07E
:103BA000032F2CD0012F17D00020FEF74FFC1E4B07
:103BB00003F5805292F8762003F54053A3F82823AA
:103BC0004FF4FA700EF0E2FF2A4B186803681B6886
:103BD000984707B0BDE8F08F264B274A1A60E3E705
:103BE000264C00224F2120460BF03AFB1E4B22466A
:103BF0002146204609F0EAFB1E4B1C60D4E7002258
:103C000053211E480BF02CFB1A4B184A1A60CBE7C5
:103C10000018004028970020E0960020747F0020C4
:103C200048930020707F0020143B00202094002047
:103C30007C7F0020709200205C0400209C3A0020D1
:103C40005C39002018390020EC37002044050020A2
:103C500008050020D4040020A0040020A4050020B2
:103C6000D405002054060020FC0500207C0500201F
:103C7000EC6D002000000020CC390020B03800207E
:103C8000F4390020EC3800207C380020183800205F
:103C900038B50EF075FF5E4B1B6898424BD85D4BF4
:103CA000186809F097FB044618B15A4B1B68834209
:103CB00079D1584D286803685B68984704462B689B
:103CC00083422CD0002800F08B80534D00212846E1
:103CD00005F048FF002105F5C87005F043FF0021FD
:103CE00005F5687005F00AFA4C4A02F540510023C8
:103CF00081F8F13F81F8F03F02F5804282F881318E
:103D000082F88031464A53639363424D28680368C2
:103D10009B6898472C6023681B68204698470EF0E4
:103D20002FFF404B1B6898425CD23F4801F06CFD6E
:103D3000002868D138BD0EF023FF6430344B186082
:103D400010213A480FF008FF012824D16421384897
:103D50000CF071FF4FF4005136480FF0FDFE0128C2
:103D60001BD1642134480CF066FF4FF48051314878
:103D70000FF0F2FE98B9642130480CF05CFF4FF46C
:103D800000712F480FF0E8FE01280AD164212D4868
:103D90000CF051FF83E70021D9E70021E2E7002181
:103DA000EAE70021F3E7284D2846FDF730F9002126
:103DB000A5F2545005F0D6FE0021A5F5717005F06E
:103DC000D1FE174B00225A639A63124D286803688C
:103DD0009B6898472C6023681B6820469847A9E792
:103DE0001A4C72E71A494B6A1A4A10681B1A18BF14
:103DF0000123194803704B6A13600EF0C1FE29308D
:103E0000084B186091E705200EF0C0FE92E700BF56
:103E10005404002000000020BC790020143B002046
:103E2000000C0040580400203C6E002000080240B6
:103E3000D87A002000040240687C0020787C0020B2
:103E400000000240787E0020107F0020B038002063
:103E500000000140648100206081002008B50268F4
:103E6000074B9A4200D008BD037F042B04D0082BD7
:103E7000F9D1FEF735FBF6E7FEF714FBF3E700BFD9
:103E8000000C004038B50FF047F9594B1B78DBB2F6
:103E9000022B08D0564B1B78DBB2012B7CD0544B45
:103EA00000221A7038BD534B1B78002B35D0524B73
:103EB000198889B2514805F061FF514B18801B8861
:103EC0009BB2504A1288934218D94F4B9A634C497F
:103ED0000B889BB29B1A9BB20B804C4B1B889BB2EE
:103EE000494A5363444B598889B2494805F03AF826
:103EF000404A137883F001031370D0E7404A1388D7
:103F00009BB241498B6313889BB213B13F4B002294
:103F10001A803B4B00221A80DFE73E4B198889B29A
:103F20003D4805F02BFF394B18801B889BB2354A62
:103F30001288934221D9344B5A6334490B889BB27F
:103F40009B1A9BB20B802E4B1B889BB22E4A93630D
:103F5000304D6988314C89B220460CF0BBFDA988F0
:103F6000ED88ADB289B204F110000CF0B3FD294622
:103F700004F108000CF0AEFDBAE7244A13889BB2A6
:103F800021494B6313889BB213B11D4B00221A8049
:103F90001E4B00221A80D6E71B4B5B6B012B18D8F7
:103FA000194B9B6B012B1BD81D4B5B6B012B7FF6B9
:103FB00076AF1C4B998889B21B480CF03CFE184B1D
:103FC0005B6AB3F5FA7F7FF66AAF154B64225A62DB
:103FD00065E7144B198889B214480CF02CFEDFE712
:103FE000104B598889B212480CF025FEDCE700BF5F
:103FF0007C81002004000020708100204C7B002088
:104000005C810020707F0020000C00405E81002059
:104010005C7D002074810020BC790020507F00204E
:104020000048014068810020687E0020C87A002096
:10403000587C002010B50368144A934203D0144AF8
:1040400093421ED010BD0EF09BFD0446114B1B6821
:104050001E33834294BF002301230F4A1370137849
:1040600013B10C4B1B6813B90A4B1C60EAE7094BF0
:104070001B68C31A642103FB01F108480CF02AFDF8
:10408000F2E70748FCF7DEFFDCE700BF0000014075
:10409000001400406C7F002060810020747F0020AD
:1040A000107F002008B50268094B9A4200D008BD75
:1040B000084B1B781BB1084805F03CF910B9FEF716
:1040C000B7F9F4E7C2B278210448FEF76FF9EEE7DA
:1040D00000000140608100205C7D00206C80002099
:1040E00008B50268094B9A4200D008BD084B1B78FE
:1040F0001BB1084805F01EF910B9FEF799F9F4E76D
:10410000C2B278210448FEF751F9EEE70000014001
:10411000608100205C7D00207C7F0020704710B50E
:1041200004460068A168091A08B118F033FA20465D
:1041300010BD70B506460468456803E02046FFF7E9
:10414000FDF94834A542F9D13046FFF7E8FF304683
:1041500070BD10B504460068A168091A08B118F0CE
:1041600019FA204610BD70B506460468456803E09C
:10417000204618F063FA1834A542F9D13046FFF70B
:10418000E8FF304670BD38B50C46154605E04FF4E3
:10419000FC7154F8040B18F0FDF9AC42F7D338BDAC
:1041A00010B5044603684BB1426A04324169FFF717
:1041B000EAFF61688900206818F0ECF9204610BD1C
:1041C0002DE9F04188461746CE68043606E02046C1
:1041D00018F034FA1834A542F9D10436FB68B3421A
:1041E00003D9346804F5FC75F5E7D8F80C20934240
:1041F00015D0D8F80040D8F8085003E0204618F051
:104200001DFA1834A542F9D17C683D6803E02046C8
:1042100018F014FA1834A542F9D1BDE8F081D8F8A5
:1042200000403D6803E0204618F008FA1834A54223
:10423000F9D1F2E700B589B00B6800934B680193A0
:104240008B680293CB6803931368049353680593B8
:1042500093680693D368079304AA6946FFF7B0FFF3
:1042600009B05DF804FB10B588B00446836800937C
:10427000C3680193036902934369039383690493B9
:10428000C3690593036A0693436A0793034604AA26
:104290006946FFF7CFFF2046FFF782FF204608B0B0
:1042A00010BD000010B50446074B40F8443BFFF733
:1042B000DAFF04F11C00FFF7D6FF201D18F0BEF94D
:1042C000024B2360204610BD04EE0108C4E1010842
:1042D00010B50446FFF7E6FF6C21204618F05AF9A6
:1042E000204610BD08B5B1F1005F03D2880018F078
:1042F00053F908BDB1F1804F01D318F061F918F0FE
:104300005CF9000008B5084B994205D801EB410162
:10431000C80018F041F908BD044B994201D918F0C2
:104320004FF918F04AF900BF55555505AAAAAA0A2F
:1043300070B506460C46154606E0002215213046AB
:10434000FFF7E0FF44F8040BAC42F6D370BD000069
:104350002DE9F04385B004460D46254BA3FB012310
:10436000CA1A03EB52031B095E1C08220292033394
:10437000039393423AD80DEB02031968616000225F
:1043800001A8FFF7AFFF804620606768BF1B7F086A
:1043900000EB870909EB8606324649462046FFF7BF
:1043A000C7FFC4F8149058F82730E36003F5FC7297
:1043B0002261321F626256F8042CE26102F5FC7140
:1043C0002162A3600A4BA3FB0513E91A03EB510317
:1043D0001B0903EB4303C3EBC303EB1A03EB4303D8
:1043E00002EBC302A26105B0BDE8F08303ABC4E7F2
:1043F0008761188610B50446002101604160816024
:10440000C160016141618161C16101624162FFF787
:104410009FFF204610BD10B504462822002118F049
:10442000B7FF2046FFF7E6FF204610BD10B5044653
:10443000094B03600346094A43F80C2B43600023F1
:10444000836003731C30FFF7E6FF04F14400FFF7BD
:10445000E2FF204610BD00BFC4E1010804EE0108E0
:1044600010B50446FFF7E2FF2346104A43F8742BC9
:10447000E3660023236784F8743004F18C02C4F8E7
:104480008420C4F8883084F88C3004F1A402C4F885
:104490009C20C4F8A03084F8A430C4F8B430C4F828
:1044A000B830C4F8BC30204610BD00BF38EE01085B
:1044B00038B5044600250560858000F5425020305F
:1044C000FFF7CEFF04F54053C3F86051054AC3F827
:1044D0006421054A92E80300C3F86801A3F86C114F
:1044E000204638BD08F3010854DC010838B50446FD
:1044F00015460A4B036000230371836083810361C7
:1045000043618361C36103628160054B40F8283BCE
:10451000FFF7CEFF6562204638BD00BFF8E1010815
:10452000ACEF010810B5044600F501502030FFF74C
:1045300097FF04F504502030FFF778FF04F500538F
:10454000074AC3F820210022C3F88C2183F8902168
:10455000C3F89421034AC3F89821204610BD00BF38
:104560006CEE010808F3010810B50446FEF7BAFF27
:1045700004F589501C30FFF7D5FF04F54B50183077
:10458000FEF7ECFE04F57A502830FEF79BF804F5B0
:1045900080403830FEF796F81E4904F583404830D5
:1045A00003F01DFE1C4904F58440083003F017FE9B
:1045B00004F584404830FEF7F7F804F587407C3076
:1045C000FEF744FF04F58043082183F83C140022E1
:1045D000C3F8402483F83C14C3F8402483F84414FF
:1045E000C3F8482483F84414C3F8482483F84C14CF
:1045F000C3F8502483F84C14C3F8502483F854248F
:104600001E2283F8552440F63C72A3F85624204617
:1046100010BD00BFD89300209093002010B5044631
:10462000064B40F8443BFFF79EFD04F12C0018F0C8
:1046300005F8034B2360204610BD00BF5CF1010864
:10464000F8E1010810B50446FFF7E8FF58212046BD
:1046500017F0A0FF204610BD10B50446064B40F8E9
:10466000B43BFFF766FD04F16C00FEF767FF2046E0
:10467000FFF718FE204610BD38EE010810B50446BD
:1046800000F50053074AC3F8202100F504502030FC
:10469000FFF708FE04F501502030FFF7DDFF20464C
:1046A00010BD00BF6CEE010810B5044600F5804354
:1046B0000D4AC3F848220D4AC3F848220C499963B1
:1046C0009A6300F54053C3F8A81EC3F8A82E00F55E
:1046D0004B501830FEF70AFE04F589501C30FFF7E6
:1046E000CDFF204610BD00BF08ED010808E101081C
:1046F0004CED01082DE9F04F87B004468B460128A8
:1047000008D024B94FF6FF739B4500F05D8107B0D8
:10471000BDE8F08F4FF6FF739942F2D18C4B08221F
:104720001A7000255D601A705D608A4E3046FFF792
:104730001BFF31468848FFF767F8884F884A3A6080
:104740003D71BD60BD813D617D61BD61FD613D62C9
:10475000BE60844B3B60C7F89C50C7F8A05087F8F8
:10476000A450DFF86092C9F8002089F80450C9F815
:104770000850A9F80C50C9F81050C9F81450C9F8DD
:104780001850C9F81C50C9F82050C9F80860764B79
:10479000C9F80030C9F82450DFF824823146404679
:1047A000FEF7DAFE31467148FEF70AFF6F4B4246CC
:1047B00031466F4808F0D4F831466E48FEF784FF62
:1047C00031466D48FEF720FFDFF8F0A13146504634
:1047D000FEF73CFFDFF8E081614AC8F8002088F866
:1047E0000450C8F80850A8F80C50C8F81050C8F881
:1047F0001450C8F81850C8F81C50C8F82050C8F811
:1048000008605E4BC8F800305B4BC8F82430C8F82D
:1048100028A0DFF8A0A1574A31465046FFF766FEB0
:10482000524631465648FEF793FFDFF884A14C4AC2
:10483000CAF800208AF80450CAF80850AAF80C50A8
:10484000CAF81050CAF81450CAF81850CAF81C50C8
:10485000CAF82050CAF808604A4BCAF80030484BE2
:10486000CAF8243031464848FEF74EFF474B3C4AD1
:104870001A601D719D609D811D615D619D61DD619D
:104880001D629E60424A1A604FF0020183F82410B4
:10489000424631463F48FEF7EBFFDFF81081344ACD
:1048A00031464046FFF71EF83B4A2D4B1946136030
:1048B000157195609581156155619561D561156298
:1048C0009660364B136082F8285055854FF0FF0CE8
:1048D00082F82CC082F82D5082F82E50012082F8E8
:1048E0002F004FF078031386214B53622C4B196035
:1048F0001D719D609D811D615D619D61DD611D6218
:104900009E60DFF8A4E0C3F800E083F8285083F845
:1049100029505D8583F82CC083F82D5083F82E0034
:104920004FF0020183F82F104FF0780119860F49DC
:104930005962CDF810A003930292CDF80480CDF80F
:104940000090144B3A463146164807F0E1FFD8E68E
:10495000747F0020143B00209C3A0020F439002092
:10496000F8E1010860F0010808F101081839002099
:10497000EC380020B03800207C38002090EF01088F
:10498000FC05002024F10108A40500207C0500207E
:1049900078F1010844050020D404002058EF0108F4
:1049A000A00400205C04002074EF0108080500202A
:1049B000D405002054060020EC37002018380020D1
:1049C0005C390020CC3900202C4B2D4A1A602D4C2C
:1049D0001C602D4B2D4A1A601C602D4B2D4A1A600D
:1049E0001C602D4B2D4A1A601C602D4B2D4A1A60FD
:1049F0001C602D4B2D4A1A601C602D4B2D4A1A60ED
:104A00001C602D4B2D4A1A601C602D48FFF706FED6
:104A10002C4D2D4B2B602D48FFF71EFE2C602C4B90
:104A20002C4A1A601C602C4B2C4A1A601C602C4BC0
:104A30002C4A1A601C602C4B2C4A1A601C602C4BB0
:104A40002C4A1A601C602C4B2C4A1A601C602C4BA0
:104A50002C4A1A601C602C4B2C4A1A601C602C4B90
:104A60002C4A1A601C602C4B2C4A1A602C4A1A6083
:104A70001C602C48FFF718FE49E600BF5C040020CC
:104A8000E8EE0108F8E10108A004002074EF010835
:104A9000D404002058EF0108080500203CEF01086D
:104AA0004405002004EF01087C05002078F101088E
:104AB000A405002040F10108D405002024F10108DC
:104AC000FC05002054060020ACEF01081C37002034
:104AD000EC37002090EF010818380020D0F00108D2
:104AE0007C380020B4F00108B0380020ECF0010858
:104AF000EC38002020EF01081839002098F0010858
:104B00005C3900207CF00108CC39002008F1010854
:104B1000F439002060F001089C3A002028F30108D5
:104B200014E20108143B002010B50446FFF794FD81
:104B3000C021204617F02EFD204610BD08B54FF6C7
:104B4000FF710120FFF7D6FD08BD08B54FF6FF71D4
:104B50000020FFF7CFFD08BD024A0260024A026052
:104B6000704700BF14E20108F8E1010838B50446B7
:104B70000023C362806800F5804393F88433003BD0
:104B800018BF012384F8303000F5805393F8621089
:104B900000F58250043005F04DFA84F82700A5682E
:104BA00005F588403C300BF0AFFF05F58045B5F8C2
:104BB00056349842B4BF0020012084F8280058B130
:104BC000A36803F5405393F8BD3F23B994F8272019
:104BD00012B1184600E0002084F82A00002384F86F
:104BE000293040B1012384F82430022384F8253091
:104BF000032384F8263038BD10B50446044B036007
:104C0000044B0360342117F0C5FC204610BD00BFE3
:104C100014E20108F8E101082DE9F04F8BB00446D9
:104C2000029107921F46866806F54B55183590F895
:104C30002430002B70D1884694F82520002A6ED1AC
:104C4000DDF808A0002B6DD106F57A5909F1280985
:104C5000D9F80030DB6948469847014694F824307B
:104C60003A463046FCF7F0FF0190D9F800305B6916
:104C700048469847014694F824303A463046FCF7B7
:104C8000E3FF0390B8F1050F51D0D9F800301B6A4B
:104C900048469847059094F82530002B50D0A368DB
:104CA00003F5844909F14809D9F80030DB69484621
:104CB0009847014694F825303A463046FCF7C4FF41
:104CC0008346D9F800305B6948469847014694F816
:104CD00025303A463046FCF7B7FF0490BAF1050F8D
:104CE00034D0D9F800301B6A48469847069006F53C
:104CF0008053B3F8743003F00103099394F824301F
:104D00006BBB94F82A300893B8F1000F2DD0B8F19E
:104D1000080F28D0012329E0DDF81C808CE74FF034
:104D2000000A8FE706F5804909F1380990E794F801
:104D3000241006F582500430FCF718FD0390A4E718
:104D4000A36803F57A5909F12809ADE794F825100D
:104D500006F582500430FCF709FD0390C1E794F892
:104D600029300893D0E7002300E00023019A03993B
:104D7000A2EB01090FFA89F901224946284600F001
:104D8000A9FD01220599284601F07AF8B8F1010F32
:104D900007D0089B5BB9B8F1000F0AD1BBB20193F1
:104DA0000AE04A460121284601F020FA01E0BBB2A0
:104DB0000193B8F1070F15D04FF47F030122019939
:104DC000284600F033FEB8F1050F12D094F82430D5
:104DD00013B9B8F1040F15D094F8253013BB94F82B
:104DE0002A2020E00123099A0199284600F086FE36
:104DF000E9E7A06894F8241000F582500430FCF72D
:104E0000B5FCE9E7A06800F582500430FCF706FE27
:104E1000A06800F5405100233A46B1F8E41FFCF7C2
:104E200013FFD9E70022BAF1000F08D0BAF1080F3A
:104E300002D04FF0010904E04FF0000901E04FF00B
:104E40000009002B72D1BAF1010F06D072B9BAF184
:104E5000000F0DD11FFA87FB0DE0049BABEB0302A3
:104E600012B20021284601F0C1F901E01FFA87FBC8
:104E7000BAF1070F4AD04FF47F0300225946284663
:104E800000F0D4FDB8F1050F47D0049BABEB030154
:104E90004B46002209B2284600F01CFD002206996C
:104EA000284600F0EDFF94F82630032B00F099809F
:104EB000A26802F57A5808F1280802F5405191F8E5
:104EC000EC0F003818BF0120012B00F09080022B5E
:104ED00000F09B80002800F0B980D8F80030DB6932
:104EE00040469847014694F826303A463046FCF74B
:104EF000ABFE014694F82630029A073A18BF012209
:104F0000284602F081FE0BB0BDE8F08F0023099A1D
:104F10005946284600F0F2FDB4E7A06894F8251041
:104F200000F582500430FCF721FCAEE7D4F808808D
:104F300008F58440483003F0F9FF08F58048B8F8D8
:104F4000D633984231D294F8303023BB1FFA87FB16
:104F500094F8303043B1A36803F5804393F8843369
:104F6000013BDBB2022B35D84FF47F0300225946B8
:104F7000284600F05BFD049BABEB030194F8303056
:104F8000002209B2284600F0A5FC00220699284616
:104F900000F076FF87E7284600F0E4FF002184F860
:104FA0003010284601F0A4F8D0E7012384F830300F
:104FB000A36803F5804393F88433013BDBB2022BF3
:104FC000C6D8049BABEB030212B20021284601F0C5
:104FD0000DF9BDE70023099A5946284600F08EFDD9
:104FE000C9E700221146284602F00EFE8BE702F5C3
:104FF000804808F1380802F5804292F87C010038B8
:1050000018BF0120079B029364E702F5844808F16A
:10501000480802F58042D2F84832DB68404698479B
:1050200088B103230293D4F8089009F584404830EE
:1050300003F07CFF09F58049B9F8D633984234BFB4
:105040000020012046E707230293ECE794F826307E
:1050500000221146284602F0D7FD54E7F8B58568CE
:1050600090F82530022B00D0F8BD044605F58446A3
:105070004836304603F05AFF05F58043B3F8D6337F
:105080009842F1D30DF07CFDE36A9842ECD305F52C
:10509000804393F85D33002BE6D005F58045D5F8C5
:1050A0004832DB69304698470746D5F848325B6995
:1050B00030469847A368391A09B203F54B501830A7
:1050C00000F01AFF0DF05CFD6430E062CCE70000F8
:1050D0002DE9F04F87B0804693461D46BDF84060ED
:1050E000876807F582540434002211462046FCF7F5
:1050F00005F98146002211462046FCF74DF982460B
:10510000002202212046FCF7F9F804900022022137
:105110002046FCF741F9059007F58057B7F8743041
:1051200013F0800F2ED0234A82FB0532EB17C3EB1E
:10513000620303EB8303EB1A9BB2EB1A1DB21E4B07
:10514000A3FB06239B0803EB8303F31A9BB2F31A1A
:105150009EB20524C5B996B1D8F8080000F5844080
:10516000083031B2BBF1020F1FD00FFA89F20FFAEB
:105170008AF3002502950194009403F057F907B0D3
:10518000BDE8F08F0124E5E7D8F80800002302937A
:10519000019400940FFA8AF30FFA89F2294600F578
:1051A0008340483003F042F9D5E7BDF91020BDF93E
:1051B0001430DEE767666666CDCCCCCC2DE9F047CF
:1051C0008EB004461646876807F54B551835884655
:1051D00000294CD14FF0000A002E51D14FF00009A8
:1051E000CDF800900FFA8AF394F8252094F8241053
:1051F0002046FFF76DFFB8F1000F4AD1002E00F0F6
:10520000DF8094F82520022A00F09C80394608A807
:10521000FCF70EF994F8251007F58650FCF725FCED
:105220000246002308A9284600F090FC08A817F0C1
:1052300005FA284600F0B4FE94F8283023B194F81B
:105240002730002B00F0AE8094F83130002B00F0B6
:10525000A980072B00F0A680052B00F0B580032B5A
:1052600040F0A4800021284600F062FF9EE090F804
:10527000241007F582500430FCF781FA8246ABE730
:1052800094F8251007F582500430FCF778FA81462F
:10529000A6E794F82420394602A8FCF7C9F894F848
:1052A000241007F58650FCF7E0FB0246012302A913
:1052B000284600F04BFC02A817F0C0F90122514625
:1052C000284602F08BFC01220021284600F078FEDF
:1052D00094F824303BB994F82820FAB194F82710B8
:1052E00011B1002200E00022D3B994F83130D2B9D4
:1052F000072B83D801A252F823F000BF27530008E0
:10530000FD510008FD5100083B530008FD51000805
:1053100031530008FD510008275300080022E3E73D
:1053200094F83230E3E70121284600F0E1FE65E71A
:105330000121284600F03CFF60E70121284600F0EB
:10534000F7FE5BE7A06804F015FB07B2A06800F564
:105350008053B3F8748008F0010800F584404830A9
:1053600003F018FE01460022284600F05DFC42468C
:105370003946284600F0C0FC284600F0F3FDA3683B
:1053800003F5804393F88433013BDBB2022B04D84E
:105390000021284600F0BCFE08E00021284600F06D
:1053A000A7FE03E00021284600F0A2FE00224946A5
:1053B000284602F013FC002384F83030E362B04644
:1053C00040460EB0BDE8F0870121284600F0F0FE0F
:1053D000ECE700BF10B5012380F8263090F82830A4
:1053E0005BB1826802F5405292F8BD2F22B990F865
:1053F000274014B1134600E0002380F82A30012929
:1054000015D0022918D00223002190F824C090F86A
:10541000252080F8241080F82530D21A18BF0122E8
:10542000BCEB010118BF0121FFF7C8FE10BD02232C
:1054300080F826300023E8E72BB1032380F82630DC
:105440000B460121E1E70023F8E708B590F8243086
:10545000012B13D090F82A3043B9836803F58043B9
:1054600093F88433013BDBB2022B03D80221FFF710
:10547000B1FF08BD0121FFF7ADFFFAE70020F8E713
:1054800008B590F82430012B1DD190F82A3093B93B
:10549000826802F5804393F87C31DBB2022B0ED098
:1054A00002F5804292F87C31DBB2012B07D000215B
:1054B000FFF790FF08E00221FFF78CFF04E00121D5
:1054C000FFF788FF00E0002008BD08B590F8253000
:1054D000022B24D090F82930ABB990F82A30B3B918
:1054E000826802F5804393F87C31DBB2022B12D044
:1054F00002F5804292F87C31DBB2012B0BD0002107
:10550000FFF768FF02E00021FFF764FF08BD0221FA
:10551000FFF760FFFAE70221FFF75CFFF6E70020E4
:10552000F4E708B590F82530022B24D190F8293003
:10553000ABB990F82A30B3B9826802F5804393F88A
:105540007C31DBB2022B12D002F5804292F87C3122
:10555000DBB2012B0BD00021FFF73CFF0CE0002158
:10556000FFF738FF08E00221FFF734FF04E00121D4
:10557000FFF730FF00E0002008BD08B590F82430A8
:1055800003B390F82530FBB190F8293093B98268C5
:1055900002F5804393F87C31DBB2022B0ED002F58A
:1055A000804292F87C31DBB2012B07D00021FFF75B
:1055B00011FF08E00021FFF70DFF04E00121FFF7D4
:1055C00009FF00E0002008BD0020FCE708B590F8C6
:1055D000243053B190F825305BB190F8263063B990
:1055E000032380F82630002002E00221FFF7F2FEBC
:1055F00008BD0221FFF7EEFEFAE70020F8E790F879
:1056000024308B4205D090F825308B4203D0032004
:105610007047012070470020704738B505460C469A
:105620000021FFF7ECFF0246A868214600F54B5029
:10563000183000F0C5FC38BD38B505461446FFF7F4
:10564000DEFF03280FD00146A86800F54B50183044
:10565000621E072A1AD8DFE802F004070A0D1013A9
:10566000191600F055FD38BD00F082FDFBE700F093
:105670005FFDF8E700F0AAFDF5E700F099FDF2E71D
:1056800000F086FDEFE700F063FDECE700F030FD91
:10569000E9E738B505461446FFF7B1FF032807D000
:1056A0000246A868214600F54B50183002F096FAE1
:1056B00038BD38B590F82530022B00D038BD0C46E7
:1056C000856805F58440483003F064FC01462246B5
:1056D00005F54B50183000F0A7FAEFE708B590F841
:1056E0002530022B00D008BD806800F54B501830E3
:1056F00000F090FBF7E710B584B094460A68511D9E
:1057000062B112889DF81C400294BDF818400194C3
:105710000093634616F03EFC04B010BD0022F1E792
:1057200038B5054616F092FC0446284616F096FC5D
:10573000201A00B238BD38B5054616F087FC04467D
:10574000284616F08BFC204400B238BD30B585B039
:10575000084611461A46099B1B685C1D73B11B88DD
:10576000BDF82C500395BDF8285002950193009484
:10577000BDF8203015F038FB05B030BD0023EFE751
:1057800030B585B0084611461C687CB122887CB1D2
:1057900063880534BDF824500395BDF82050029568
:1057A0000192009415F020FB05B030BD0022EEE719
:1057B0000023EEE72DE9F04385B00D4616461F465F
:1057C0000D980468C4B104F10708BCB1B4F80090A6
:1057D000BCB1647915F0D8FF03900294CDF8049021
:1057E000CDF80080BDF830303A463146284615F0F5
:1057F00069FB05B0BDE8F083A046E6E74FF000097D
:10580000E6E70024E6E700000288124B1B68596BAC
:105810008A4204D8596B8A420ED300207047596BD4
:10582000521A042A04D95A6B04325A630120704771
:105830005A6B01325A63F9E7596B8A1A042A04D960
:105840005A6B043A5A63012070475A6B013A5A6303
:10585000F9E700BF2892002070B582B00446F9B184
:10586000C4F87C1B261DD4F87C1B304616F001FBC7
:10587000304616F0EBFB85B20D49304616F07AFB48
:10588000811C2A4689B201A814F008FD01A904F67A
:10589000943014F020FD01A814F034FD02B070BD66
:1058A000D0F8CC3BC0F87C3B002380F86430D9E7CB
:1058B00028E2010808B5064B1B6800225A63FF2343
:1058C00080F8A83BB0F8800B14F096FE08BD00BF2E
:1058D000289200202DE9F04F85B00291012A7CD852
:1058E00004461F467CD0B0F8AA5BD4F8943B002B4A
:1058F00079D01E8806F1140A1FFA8AFAD4F8903B70
:10590000002B72D05B88DBB2039306F117081FFAF5
:1059100088F8B4F8823B03222946404614F091FFF0
:10592000BDF80C90B4F8823B4A462946504614F024
:1059300016FF06F11A00B4F8823B4A46294680B2A7
:1059400014F00DFF05EB090A1FFA8AFA0AF1050B9C
:105950001FFA8BFBB4F8823B08225946404614F0EC
:1059600070FF002F43D0B4F8863B072259464046CB
:1059700014F0B8FF06F1110005F10901B4F8823BFB
:10598000009303231A4689B280B214F0FBFD15364A
:10599000B6B2B4F8803B00934B4605222946304608
:1059A00014F0F0FD0A226FF0630102980BF099FDEC
:1059B000034600B2002820DD9BB2E91A89B20A3101
:1059C00089B24B449BB20A3B9BB29FB1B4F8862B81
:1059D00000920522304614F0D5FD05B0BDE8F08FE9
:1059E000B0F8BA5B81E7002684E700238BE7B4F8C0
:1059F000803BBAE7B4F8802BEAE7039B0A3B0093AD
:105A0000012300226FF063010BF074FDC3B2AAEB17
:105A1000030189B23FB1B4F8862B009205223046CB
:105A200014F0B0FDD9E7B4F8802BF6E7012A62D86C
:105A30002DE9F04385B0054617461E46B1F57A7F3D
:105A400001D340F2E7310A462B4902A817F056FC71
:105A50002C1DD5F8C41B204616F00BFA0221204657
:105A600016F017FA05F53968404614F05CFC00237F
:105A700001930093012302AA41462046FFF73BFE13
:105A800014F0B6FCD5F8903B03B31B88C41AA4B23B
:105A9000143CA4B214F0ACFC814614F0AFFC814578
:105AA00016D8012F22D0B5F8AA2BB5F8803BB6F551
:105AB000803F1ED3B5F8826B019600934346214682
:105AC0002846FFF75DFE05B0BDE8F0830023DDE763
:105AD00014F08EFCD5F8903B33B11B88C41AC4F384
